{
  "_format": "hh-sol-artifact-1",
  "contractName": "Verifier",
  "sourceName": "contracts/verifier.sol",
  "abi": [
    {
      "inputs": [
        {
          "internalType": "uint256[2]",
          "name": "a",
          "type": "uint256[2]"
        },
        {
          "internalType": "uint256[2][2]",
          "name": "b",
          "type": "uint256[2][2]"
        },
        {
          "internalType": "uint256[2]",
          "name": "c",
          "type": "uint256[2]"
        },
        {
          "internalType": "uint256[65]",
          "name": "input",
          "type": "uint256[65]"
        }
      ],
      "name": "verifyProof",
      "outputs": [
        {
          "internalType": "bool",
          "name": "r",
          "type": "bool"
        }
      ],
      "stateMutability": "view",
      "type": "function"
    }
  ],
  "bytecode": "0x608060405234801561001057600080fd5b50614a24806100206000396000f3fe608060405234801561001057600080fd5b506004361061002b5760003560e01c80637ab45abb14610030575b600080fd5b61004a600480360381019061004591906143d5565b610060565b604051610057919061451b565b60405180910390f35b600061006a6140e0565b6040518060400160405280876000600281106100af577f4e487b7100000000000000000000000000000000000000000000000000000000600052603260045260246000fd5b60200201518152602001876001600281106100f3577f4e487b7100000000000000000000000000000000000000000000000000000000600052603260045260246000fd5b602002015181525081600001819052506040518060400160405280604051806040016040528088600060028110610153577f4e487b7100000000000000000000000000000000000000000000000000000000600052603260045260246000fd5b6020020151600060028110610191577f4e487b7100000000000000000000000000000000000000000000000000000000600052603260045260246000fd5b60200201518152602001886000600281106101d5577f4e487b7100000000000000000000000000000000000000000000000000000000600052603260045260246000fd5b6020020151600160028110610213577f4e487b7100000000000000000000000000000000000000000000000000000000600052603260045260246000fd5b60200201518152508152602001604051806040016040528088600160028110610265577f4e487b7100000000000000000000000000000000000000000000000000000000600052603260045260246000fd5b60200201516000600281106102a3577f4e487b7100000000000000000000000000000000000000000000000000000000600052603260045260246000fd5b60200201518152602001886001600281106102e7577f4e487b7100000000000000000000000000000000000000000000000000000000600052603260045260246000fd5b6020020151600160028110610325577f4e487b7100000000000000000000000000000000000000000000000000000000600052603260045260246000fd5b6020020151815250815250816020018190525060405180604001604052808560006002811061037d577f4e487b7100000000000000000000000000000000000000000000000000000000600052603260045260246000fd5b60200201518152602001856001600281106103c1577f4e487b7100000000000000000000000000000000000000000000000000000000600052603260045260246000fd5b602002015181525081604001819052506000604167ffffffffffffffff811115610414577f4e487b7100000000000000000000000000000000000000000000000000000000600052604160045260246000fd5b6040519080825280602002602001820160405280156104425781602001602082028036833780820191505090505b50905060005b60418110156104e75784816041811061048a577f4e487b7100000000000000000000000000000000000000000000000000000000600052603260045260246000fd5b60200201518282815181106104c8577f4e487b7100000000000000000000000000000000000000000000000000000000600052603260045260246000fd5b60200260200101818152505080806104df906147c9565b915050610448565b5060006104f48284610514565b14156105055760019250505061050c565b6000925050505b949350505050565b6000807f30644e72e131a029b85045b68181585d2833e84879b9709143e1f593f00000019050600061054461079f565b90508060800151516001865161055a919061469e565b1461059a576040517f08c379a000000000000000000000000000000000000000000000000000000000815260040161059190614536565b60405180910390fd5b60006040518060400160405280600081526020016000815250905060005b86518110156106fb57838782815181106105fb577f4e487b7100000000000000000000000000000000000000000000000000000000600052603260045260246000fd5b602002602001015110610643576040517f08c379a000000000000000000000000000000000000000000000000000000000815260040161063a90614576565b60405180910390fd5b6106e6826106e1856080015160018561065c919061469e565b81518110610693577f4e487b7100000000000000000000000000000000000000000000000000000000600052603260045260246000fd5b60200260200101518a85815181106106d4577f4e487b7100000000000000000000000000000000000000000000000000000000600052603260045260246000fd5b6020026020010151613395565b6134e4565b915080806106f3906147c9565b9150506105b8565b5061074b81836080015160008151811061073e577f4e487b7100000000000000000000000000000000000000000000000000000000600052603260045260246000fd5b60200260200101516134e4565b905061078161075d866000015161367f565b8660200151846000015185602001518587604001518b604001518960600151613724565b6107915760019350505050610799565b600093505050505b92915050565b6107a7614113565b60405180604001604052807f2d4d9aa7e302d9df41749d5507949d05dbea33fbb16c643b22f599a2be6df2e281526020017f14bedd503c37ceb061d8ec60209fe345ce89830a19230301f076caff004d19268152508160000181905250604051806040016040528060405180604001604052807f0967032fcbf776d1afc985f88877f182d38480a653f2decaa9794cbc3bf3060c81526020017f0e187847ad4c798374d0d6732bf501847dd68bc0e071241e0213bc7fc13db7ab815250815260200160405180604001604052807f304cfbd1e08a704a99f5e847d93f8c3caafddec46b7a0d379da69a4d112346a781526020017f1739c1b1a457a8c7313123d24d2f9192f896b7c63eea05a9d57f06547ad0cec88152508152508160200181905250604051806040016040528060405180604001604052807f198e9393920d483a7260bfb731fb5d25f1aa493335a9e71297e485b7aef312c281526020017f1800deef121f1e76426a00665e5c4479674322d4f75edadd46debd5cd992f6ed815250815260200160405180604001604052807f090689d0585ff075ec9e99ad690c3395bc4b313370b38ef355acdadcd122975b81526020017f12c85ea5db8c6deb4aab71808dcb408fe3d1e7690c43d37b4ce6cc0166fa7daa8152508152508160400181905250604051806040016040528060405180604001604052807f2b2968ee23a59ceb0fdb501d8c9c4085c5a953e0889e7c9768414a8d357a509881526020017f20ca736360f1c9852e97e8eff4d8612c5a1e623384b16a33f851360a8b5014d7815250815260200160405180604001604052807f0b7a0a7121816648320b0f2c1e0f1cbad2b91ebcee3201409ce3acbc0e9a02e181526020017f27a15dfdfea92881e1d3afc5e35f5b255a55b4dd2c927b86766506efb91b096c8152508152508160600181905250604267ffffffffffffffff811115610a94577f4e487b7100000000000000000000000000000000000000000000000000000000600052604160045260246000fd5b604051908082528060200260200182016040528015610acd57816020015b610aba61415a565b815260200190600190039081610ab25790505b50816080018190525060405180604001604052807f1208f08153f7b5170061bef8924964e8f2af050acf54bf7ad2c95d28c09a4d2281526020017f1e194d3b86d4de432498e598e462fcc80d8cc0e8a7a401c94769c9c206ffeba68152508160800151600081518110610b69577f4e487b7100000000000000000000000000000000000000000000000000000000600052603260045260246000fd5b602002602001018190525060405180604001604052807f0c7ec14d972d3cd59769daba7634c1c0bb0d2fab14689c474f7a18142b1fdf8a81526020017f08d9db76d488a3021a9119b098d22c674f5ce615f303993c7a4c186833952da28152508160800151600181518110610c07577f4e487b7100000000000000000000000000000000000000000000000000000000600052603260045260246000fd5b602002602001018190525060405180604001604052807f1cbe95638076a1f1b0e283b0371a8a01ba7b11bfb76a6a66c996d66aa2ac185081526020017f06d6b5af88b7b135bbc98b5d2fadac1a80d8e0b80516735db6a27352e5537a0c8152508160800151600281518110610ca5577f4e487b7100000000000000000000000000000000000000000000000000000000600052603260045260246000fd5b602002602001018190525060405180604001604052807f1b86a7e4d599e76e87297fab1318df09b9ff2e8f34412b28d316b163fd0137e681526020017f2021a1c7e06a92953edf3d9289954f5cce403cc76e636ab9b38cdef5d273977c8152508160800151600381518110610d43577f4e487b7100000000000000000000000000000000000000000000000000000000600052603260045260246000fd5b602002602001018190525060405180604001604052807f0961c698dd96f36641b75a4d8a292b56cab5a0f6c3172cc0529017d00bd881d781526020017f26712469529cb376fc6ca6574b8e5c530375a63aaa520dee7dc5ed7a345fd6388152508160800151600481518110610de1577f4e487b7100000000000000000000000000000000000000000000000000000000600052603260045260246000fd5b602002602001018190525060405180604001604052807f1c9e27d5815bab6335693094cfd4118e75ff2fb873bea78feaf899149a97786d81526020017f17580946c6a2525b21ceeb02046e590d518d05008efac780d15c1e4aedec32ab8152508160800151600581518110610e7f577f4e487b7100000000000000000000000000000000000000000000000000000000600052603260045260246000fd5b602002602001018190525060405180604001604052807f156ccf9b97421f3034efd3512a2dd83434f665e0f1bba86bddde930a4fdb7ade81526020017f2ffa90995a23b1cd921309fd58c31e6d9932337bcc52a29d807eddc22a2b7cae8152508160800151600681518110610f1d577f4e487b7100000000000000000000000000000000000000000000000000000000600052603260045260246000fd5b602002602001018190525060405180604001604052807f0c80f7cf9135b16e7aff1ec08477671c34a822c4ae0428ae686680a1b6eb286e81526020017f19ec80475ea514c57956e2def6f6580020496ec1f6c1eba8ea204f206fcef9868152508160800151600781518110610fbb577f4e487b7100000000000000000000000000000000000000000000000000000000600052603260045260246000fd5b602002602001018190525060405180604001604052807f03c56a29e7e75a02c2c21448657ec79826d9281c93f66ac6785edb7632e40ec381526020017f10d413079c1966ce52aa6a3ae17bede1979f4e376bc0c070fffcc4ed1f1d96b98152508160800151600881518110611059577f4e487b7100000000000000000000000000000000000000000000000000000000600052603260045260246000fd5b602002602001018190525060405180604001604052807f171d2cc35cfd1a8f999f30b6692829b3ba66aae2cb7b79a78397abbe2addc85481526020017f0ba5a4b76f6debe08b66af33587bfde6cb4b8a136e3c9468349b13f6890ff51081525081608001516009815181106110f7577f4e487b7100000000000000000000000000000000000000000000000000000000600052603260045260246000fd5b602002602001018190525060405180604001604052807f209571b15fb3be27da91271ce2e05c2d8c50a863c90eaa2665d61c8da47fe6fd81526020017f2ab968bda28c3347136fef57c4dfd427724ba7d96f2577fe799eb8465dc5a5ab8152508160800151600a81518110611195577f4e487b7100000000000000000000000000000000000000000000000000000000600052603260045260246000fd5b602002602001018190525060405180604001604052807f28d7b907e5a72f8a40fdc18270a5cc09c6538916590024cdc2cd0a6f05df0ded81526020017f20913f124650fcccdbe9aba260fa6c0b1e7e1e36a0c4485bb5fb8c15eeb6ef048152508160800151600b81518110611233577f4e487b7100000000000000000000000000000000000000000000000000000000600052603260045260246000fd5b602002602001018190525060405180604001604052807f0786b48037c05b09d2069b5626eb2a860f527fc620bcf018356eb6158e67235481526020017f0bb27e6ec8ee86e18f5c46cc0eec11a39d0ce73859494a8a6ba59035099695d38152508160800151600c815181106112d1577f4e487b7100000000000000000000000000000000000000000000000000000000600052603260045260246000fd5b602002602001018190525060405180604001604052807f152665427cc3cf6d7876e2caa56e549b5d9f5cec53cc14297e2a14bc01562b7681526020017f11387245ce800328ca38d492eb21626034c50ba23b0b23cf2815ad5c48bcf60b8152508160800151600d8151811061136f577f4e487b7100000000000000000000000000000000000000000000000000000000600052603260045260246000fd5b602002602001018190525060405180604001604052807f1b41932ec6e37c8960b099cea213732b3d29279a7c9a1489e0f8d6b45bb3f0a481526020017f17358964479fd91de040f6db1498179e8ca80bfb48e04a070ce30f5322f97da48152508160800151600e8151811061140d577f4e487b7100000000000000000000000000000000000000000000000000000000600052603260045260246000fd5b602002602001018190525060405180604001604052807f0684c25329c34199e50f7ba48b6a4decbbc982f3f240de3ec14c8d5b5ec849ad81526020017f1ab5b1362d8393f8cadf8e43aaca088f244148f454b6f29aea92315b99db99f18152508160800151600f815181106114ab577f4e487b7100000000000000000000000000000000000000000000000000000000600052603260045260246000fd5b602002602001018190525060405180604001604052807f202f9c64d4a381caed35ea4ee467d851303fde524bce5c09e1119baf894f27ee81526020017f1f8a6915795c8c6106f7ce84d6c16e3e4e0ecefafed0badeb3fc896caa2e893f8152508160800151601081518110611549577f4e487b7100000000000000000000000000000000000000000000000000000000600052603260045260246000fd5b602002602001018190525060405180604001604052807f03a747c5f37a1cb5b5689af5a85d6ec7a82b89e689a8554009071ba6e574c77a81526020017f0a87305ec80d5d3d5fc6265f0ef24fd1b0f23997795faca69e626d778eab12b181525081608001516011815181106115e7577f4e487b7100000000000000000000000000000000000000000000000000000000600052603260045260246000fd5b602002602001018190525060405180604001604052807f145e5a9964df68b55c6410690ab5661244d4568f43a1bb933787ab81a36d0fea81526020017f2b85b4df650465db057f57aa60e4adc9ceefd7a2a6e26e8753ca9e1d9c66f8268152508160800151601281518110611685577f4e487b7100000000000000000000000000000000000000000000000000000000600052603260045260246000fd5b602002602001018190525060405180604001604052807f0d8b9bd94da9a4618c7d523144db7669b223ea5fe96e142251b3d0effbe3a07581526020017f2ab02958e87217c4518d32928a9870d453dcf7ffa6a5140902d8c8be387ac7a08152508160800151601381518110611723577f4e487b7100000000000000000000000000000000000000000000000000000000600052603260045260246000fd5b602002602001018190525060405180604001604052807f194e276029b99fee2d5d8a649998b710dfb457050a1ab860a03c40d730d0c4f181526020017f19d8cba56a911a681c426f4f96bc1e43ea5feeaaef6d8c8e3feea50c1f93350981525081608001516014815181106117c1577f4e487b7100000000000000000000000000000000000000000000000000000000600052603260045260246000fd5b602002602001018190525060405180604001604052807f0462d1d6f731b7f7cf0fbc74a74e76dace79d4f59ddf789d90c35d1690f318ce81526020017f2aab87960dc95a7e407441236a6417c08ade161c52101a526a9f0ade5d7a7a4f815250816080015160158151811061185f577f4e487b7100000000000000000000000000000000000000000000000000000000600052603260045260246000fd5b602002602001018190525060405180604001604052807f296311ae0db73ea0d49f79e795e5b3ec46da9de1a18a8e3eaac83a34901032ba81526020017f18b9641162e8f34410cf4313f492967916c3b8c1a8cec436c314cb617018bb1381525081608001516016815181106118fd577f4e487b7100000000000000000000000000000000000000000000000000000000600052603260045260246000fd5b602002602001018190525060405180604001604052807f0264e5f6ca5d6f09cc24d554c112bcd323b085775d2a6649a155a3bfa5a3e84781526020017f1d08e6ecb91a9c45bb53d8b33d3d9afd74bdf378040eecb7a18a2cd2c7a25717815250816080015160178151811061199b577f4e487b7100000000000000000000000000000000000000000000000000000000600052603260045260246000fd5b602002602001018190525060405180604001604052807f166212f54508cca156e25581ed166e2a94a31ce117750d3c5c7e928de4200d1d81526020017f109ea2404a9ccd18d78047287ef0d1d444423154bc7f06347bae5a258941fce48152508160800151601881518110611a39577f4e487b7100000000000000000000000000000000000000000000000000000000600052603260045260246000fd5b602002602001018190525060405180604001604052807f0263e73fe7e5b0c6e3cd14d5747ce01c3bfe269c71105cb6c2c4eb50180525e781526020017f2eb2fd2f3d66cb6c7aef4099e13a58ab92abca950b01bfcd6b8bc1f008edea998152508160800151601981518110611ad7577f4e487b7100000000000000000000000000000000000000000000000000000000600052603260045260246000fd5b602002602001018190525060405180604001604052807f1eddb34987248cca46c0642c201326447b90b4774fb76a66a029488853d7b28e81526020017f1d0c7bc6338b82527f3a7e5ca163c607f679e39d44f24118f962dc0ec65348958152508160800151601a81518110611b75577f4e487b7100000000000000000000000000000000000000000000000000000000600052603260045260246000fd5b602002602001018190525060405180604001604052807f01cf798d29675f0b39194c3b4de481d0439b93200836c8ae3c7c4e41f70a1df481526020017f23017187ad5b8019f3a5e7f16fe12ce807e7d316379ccf18ab6cfa1c9c0e375b8152508160800151601b81518110611c13577f4e487b7100000000000000000000000000000000000000000000000000000000600052603260045260246000fd5b602002602001018190525060405180604001604052807f2132c44a7c0b15fa9804d6f0313fb5a411f570cb7484338239c47eb21f8c242c81526020017f133eb9a37b490b8ea6f49c0dc7dcf2ff41d2e94ae77fbdd5de7d00434cc0431d8152508160800151601c81518110611cb1577f4e487b7100000000000000000000000000000000000000000000000000000000600052603260045260246000fd5b602002602001018190525060405180604001604052807f18dff70ce31b00a76275dd291234b3c8bbb9e10650f597b279bf4fbe4378ce1e81526020017f18c483cfb3397a949f0e38b4bc59b765afdc7996508b65f8dcf6b45f2b9c61668152508160800151601d81518110611d4f577f4e487b7100000000000000000000000000000000000000000000000000000000600052603260045260246000fd5b602002602001018190525060405180604001604052807f11c07ae86f9355eda201eabedf3ead6f14fad22da9a6837bcdca8282a425ba7c81526020017f0e30a851b36e76c7c6645bf22bc52347d07d882f8689fadf3b865866e2870c418152508160800151601e81518110611ded577f4e487b7100000000000000000000000000000000000000000000000000000000600052603260045260246000fd5b602002602001018190525060405180604001604052807f1ee90c1ea418a557fdb1aadebd59956982b41a640cb69814af397c533905d1a181526020017f1c980bdaab1ebe0f41566e7016eb3728acebee7b925a4c12d8bfc4de78e9a9f18152508160800151601f81518110611e8b577f4e487b7100000000000000000000000000000000000000000000000000000000600052603260045260246000fd5b602002602001018190525060405180604001604052807f1f674deb407be2ac4e755a075ab2760dab431fad34d8c36e67fe8f24dfd9c43a81526020017f13bb9b125f4e5d9ef2d4b2df937d178cca144ab3d57ee12a9a0c60dd359dfb6d8152508160800151602081518110611f29577f4e487b7100000000000000000000000000000000000000000000000000000000600052603260045260246000fd5b602002602001018190525060405180604001604052807f093e368bc1546880efa1109812b3d9f1cf6a8cfae22cebb4511d7e23ea0783fc81526020017f2955793a70e42df31d51a913c7af673840fe81924d40e2064dcb5129bb825b098152508160800151602181518110611fc7577f4e487b7100000000000000000000000000000000000000000000000000000000600052603260045260246000fd5b602002602001018190525060405180604001604052807f0cb1870fef0f92fcaf0d06dd52399ad2b2755090f7c306ef9541dc0103821cc181526020017f29478fbd958ed59df94bd4b6a1d8053abfff7a609468dcf5ada05fdd25f790fc8152508160800151602281518110612065577f4e487b7100000000000000000000000000000000000000000000000000000000600052603260045260246000fd5b602002602001018190525060405180604001604052807f268f6f6d2b0226b8ea8cb72836b22486548f0541c7a39fc5f27bb91d99e855b681526020017f0d2716b8c569f299732120cb73319feebff10bb23356bf19d0a2fd77b84ede188152508160800151602381518110612103577f4e487b7100000000000000000000000000000000000000000000000000000000600052603260045260246000fd5b602002602001018190525060405180604001604052807f277c80b0135fa4ff0047514769f149d125f5fd0a12ce0e1d1dd8e232f13408b581526020017f15670316538ee92c1a952beabc9d51727717929c4c33bd0e961d295ba7c3a1f081525081608001516024815181106121a1577f4e487b7100000000000000000000000000000000000000000000000000000000600052603260045260246000fd5b602002602001018190525060405180604001604052807f2e51ef7a378579fb7e7a7f7acf66d49a84a26ac4847190a4d1d839f07dcbf39d81526020017f2a1975d3548973eebe5b54728289cd5f8ead3aeb1e888da77c22e5893224ebba815250816080015160258151811061223f577f4e487b7100000000000000000000000000000000000000000000000000000000600052603260045260246000fd5b602002602001018190525060405180604001604052807f09191a8805e5484cfe23601eefa76e04649b260bffc3949b8f85fa08b38f528881526020017f2821cf57e203346f73757b53b7b5bcf97a1b8407395349cfa863050dda4733d681525081608001516026815181106122dd577f4e487b7100000000000000000000000000000000000000000000000000000000600052603260045260246000fd5b602002602001018190525060405180604001604052807f2c62ceb38955f644604ef100fe5adc63809a8206cea4b6b8d96fed05281631d081526020017f2c15a0cc3dd68686cc5f14fb99b88436ce18fd9336c9afc433da751ffafce67b815250816080015160278151811061237b577f4e487b7100000000000000000000000000000000000000000000000000000000600052603260045260246000fd5b602002602001018190525060405180604001604052807f07aebbec34371fd0031b21a19a48e1c7380f6669d56c5705f97080740f81550881526020017f2b7b167733ca16039c8acfa1e02ae8c39e79dc4bd421e53bcd728f8334975b438152508160800151602881518110612419577f4e487b7100000000000000000000000000000000000000000000000000000000600052603260045260246000fd5b602002602001018190525060405180604001604052807f2c524d4d49cd59dc9ad3bdacd95d90f0e354ae3201854bca6d4fb977df4b534381526020017f231fe37d892b35bca851b9c7b7e4634a354c4d4e2a5ec32e74c5eca0189f4f0c81525081608001516029815181106124b7577f4e487b7100000000000000000000000000000000000000000000000000000000600052603260045260246000fd5b602002602001018190525060405180604001604052807f240ec09334cefcf0dcfe4eaaa935b352614d637ed8b37c2c9855d826b76a7b8b81526020017f18dd87c7d582b4b56b4d9ca331dfce66befceb8554f104085175e9077fd883c78152508160800151602a81518110612555577f4e487b7100000000000000000000000000000000000000000000000000000000600052603260045260246000fd5b602002602001018190525060405180604001604052807f13d80d14062bd68740533c5b436c5868d42d36c32be83c2722a93debf6f56f9781526020017f03712c4286649e822b2a428660ab943b4f686485eba7a9016c682315ee2113848152508160800151602b815181106125f3577f4e487b7100000000000000000000000000000000000000000000000000000000600052603260045260246000fd5b602002602001018190525060405180604001604052807f132887d651ea835f5edc8a0b46378dcf1660ce3c5572f502439e8fe9c81128e881526020017f20d49e1b8a382c43c922471b30775c479edcd6be245f945d2f07e8f01133f3028152508160800151602c81518110612691577f4e487b7100000000000000000000000000000000000000000000000000000000600052603260045260246000fd5b602002602001018190525060405180604001604052807f05581541b1843ded646559f4b16999eca94468a5e4da878aee7b30dc9304e9d581526020017f2c5dd4b48695fa73b9926c1ef4dd76f5191accd89aa1108431af44e582c42cd08152508160800151602d8151811061272f577f4e487b7100000000000000000000000000000000000000000000000000000000600052603260045260246000fd5b602002602001018190525060405180604001604052807f21fe4df81e6d39f9503251de7e52b8ff91041122534fc93200a06641c817a57881526020017f24f5a22ad0ac2097db12492956ed37b1f0e2dacfae9c4cbb7e251fb795a6cc058152508160800151602e815181106127cd577f4e487b7100000000000000000000000000000000000000000000000000000000600052603260045260246000fd5b602002602001018190525060405180604001604052807f08f40188d70f374f569244953dc72cf6d18974968f961ca772445e1130d3e46681526020017f175e45fc98fd4a07ee1982fc2a4e60c45acc30732ae67757d26a6438060181d28152508160800151602f8151811061286b577f4e487b7100000000000000000000000000000000000000000000000000000000600052603260045260246000fd5b602002602001018190525060405180604001604052807f127ce912aa3f3bd26659b82e44dd9ad91e2d8be47bcfbb2fb234755d34125bfe81526020017f0c4032341090469fa8154754dfec2f542460133dede42cf2cbc0165c84cbc5738152508160800151603081518110612909577f4e487b7100000000000000000000000000000000000000000000000000000000600052603260045260246000fd5b602002602001018190525060405180604001604052807f1cbcb94ce859463cb57042860e1ffb63f0f6393818c7c6007eed8bf3eec7eeea81526020017f0ee7b686218cf9997d30079e5388dc0cf23adeef03747d1d96876c641db48dd881525081608001516031815181106129a7577f4e487b7100000000000000000000000000000000000000000000000000000000600052603260045260246000fd5b602002602001018190525060405180604001604052807f2aff3ff478f2e0aeb5ea5a6a1946fe39792e8ac5d720ee8677a4679270a7599081526020017f0f15c7c64fe72ebfbe954d121737ba9b9b21ab93e0cfc855c2759cc6357eeba48152508160800151603281518110612a45577f4e487b7100000000000000000000000000000000000000000000000000000000600052603260045260246000fd5b602002602001018190525060405180604001604052807f1764925f9ccf24e222386db04205ac8651f1104793679f44c40e9a6ccedbb2b981526020017f238748d37a776128d23ca8aa79119f33e26f5e64c519aa2ad50a36073637e36c8152508160800151603381518110612ae3577f4e487b7100000000000000000000000000000000000000000000000000000000600052603260045260246000fd5b602002602001018190525060405180604001604052807f0ce2bfd2ac1e80fc1a7c2056c862abaab230ad7a0a69a0c1dbbdf0cd3507165b81526020017f2b53ea6a4702571ee13c7054585fa880ef1843ce37c62ac8e846f6e19b781d548152508160800151603481518110612b81577f4e487b7100000000000000000000000000000000000000000000000000000000600052603260045260246000fd5b602002602001018190525060405180604001604052807f198b41cd0026c3e34abff589e325f5240e4838723a0f95e795c76987236a920581526020017f1cda7be36e9c28fa02adfcce8176b79f45ae7a0fde8501a32085e90a84a1a5608152508160800151603581518110612c1f577f4e487b7100000000000000000000000000000000000000000000000000000000600052603260045260246000fd5b602002602001018190525060405180604001604052807f0cda69e215f2708e7d5439e8004df8e1d057e6354a2bd6e6b12fada829bda5ae81526020017f06f931fb4023b8d194119bfed3fd14d5c701d8ada8ecef97788dcc8cc16e18c18152508160800151603681518110612cbd577f4e487b7100000000000000000000000000000000000000000000000000000000600052603260045260246000fd5b602002602001018190525060405180604001604052807f0f8301d589e2d991d87c6898539db602b00e0170a7ebc13850ff8e5138e968ec81526020017f0da6b66755369245c89e27f1c612e266a143016cf1cd69845b2575efd207ede68152508160800151603781518110612d5b577f4e487b7100000000000000000000000000000000000000000000000000000000600052603260045260246000fd5b602002602001018190525060405180604001604052807f2d97110aab5bdac87044009fb037e2755e489c4752bb15cca2136d0471ce5f9181526020017f2140ca6b4d713facadaacea3218cec1d066babcfbbe3c7de998ee5e93e3375458152508160800151603881518110612df9577f4e487b7100000000000000000000000000000000000000000000000000000000600052603260045260246000fd5b602002602001018190525060405180604001604052807f023b8978845084e3e4cecb9c4cd9fc5c4652a08d80df693032d26f22d9b32be581526020017f0835a6a1e3e8621ae1d379c870d2a3260ba2c3bfbd891bda369ef329e6d090798152508160800151603981518110612e97577f4e487b7100000000000000000000000000000000000000000000000000000000600052603260045260246000fd5b602002602001018190525060405180604001604052807f01698b9fc56c9d09fd8150b384cedc876fee75f5eddd05560a78cd6b75c9114e81526020017f09c985de9e358b363f0d821c31b9bcb9614e7e2d5eb405d5c55aa160b5148caf8152508160800151603a81518110612f35577f4e487b7100000000000000000000000000000000000000000000000000000000600052603260045260246000fd5b602002602001018190525060405180604001604052807f16bdd9cae93f096a2b225e35d92f22d69ff250456d1f445ac3e57bd5398dbfda81526020017f106f89261b60cce5d70be17a19e57c939c919eb2eca5786da569b2394c93876c8152508160800151603b81518110612fd3577f4e487b7100000000000000000000000000000000000000000000000000000000600052603260045260246000fd5b602002602001018190525060405180604001604052807f08c982641db95cfeabf9abd30a3f6f1dbba4acf6d23d2e1d2b4de13f35d4384d81526020017f1d7f94fd2a580a9ebda77be5c8233d3e5ca8e421ad2b1fa4b67f559dde58924f8152508160800151603c81518110613071577f4e487b7100000000000000000000000000000000000000000000000000000000600052603260045260246000fd5b602002602001018190525060405180604001604052807f1a1744fc50b2a1e1ad28dcfd87bdef7b73e104f57df891ef568eb9ad64d87b8181526020017f0f601e7efe212d9bc59b3215cfd0b4f2ba5f8f28f08474cb2863210cca69bcc08152508160800151603d8151811061310f577f4e487b7100000000000000000000000000000000000000000000000000000000600052603260045260246000fd5b602002602001018190525060405180604001604052807f04fd36d37c97062f1ce07cac45d07696beef700b3c80377dfeeea36105e28cfd81526020017f1a8df12698932c78403b75c017b9877c1a0ffc2c13e4ff9e3b3f13f986dde3cb8152508160800151603e815181106131ad577f4e487b7100000000000000000000000000000000000000000000000000000000600052603260045260246000fd5b602002602001018190525060405180604001604052807f06eb273841164e51e98069dc5a51b3d4663884104cf82e867e4d9414c9e2f16f81526020017f0258195ea0900175d5ce7c4076971f6436f32bf2e751439f2bb20089fb8ceca18152508160800151603f8151811061324b577f4e487b7100000000000000000000000000000000000000000000000000000000600052603260045260246000fd5b602002602001018190525060405180604001604052807f10c6291896ba71222c96a909cec9efc496c62a9350673a0b8721c44748d6b22e81526020017f2e1d20f556b375a8da2b09a3a5c9164666fe91ae6d55a8208ef948b38d865ab281525081608001516040815181106132e9577f4e487b7100000000000000000000000000000000000000000000000000000000600052603260045260246000fd5b602002602001018190525060405180604001604052807f1441bd935233c6c9bb05747c2288f85fd63064ae65d04204f272cf5c64f32a0b81526020017f1c85d465f135f301412107dab9d85d585340fe172314990225dfb004db1981958152508160800151604181518110613387577f4e487b7100000000000000000000000000000000000000000000000000000000600052603260045260246000fd5b602002602001018190525090565b61339d61415a565b6133a5614174565b8360000151816000600381106133e4577f4e487b7100000000000000000000000000000000000000000000000000000000600052603260045260246000fd5b60200201818152505083602001518160016003811061342c577f4e487b7100000000000000000000000000000000000000000000000000000000600052603260045260246000fd5b6020020181815250508281600260038110613470577f4e487b7100000000000000000000000000000000000000000000000000000000600052603260045260246000fd5b602002018181525050600060608360808460076107d05a03fa905080600081146134995761349b565bfe5b50806134dc576040517f08c379a00000000000000000000000000000000000000000000000000000000081526004016134d390614556565b60405180910390fd5b505092915050565b6134ec61415a565b6134f4614196565b836000015181600060048110613533577f4e487b7100000000000000000000000000000000000000000000000000000000600052603260045260246000fd5b60200201818152505083602001518160016004811061357b577f4e487b7100000000000000000000000000000000000000000000000000000000600052603260045260246000fd5b6020020181815250508260000151816002600481106135c3577f4e487b7100000000000000000000000000000000000000000000000000000000600052603260045260246000fd5b60200201818152505082602001518160036004811061360b577f4e487b7100000000000000000000000000000000000000000000000000000000600052603260045260246000fd5b602002018181525050600060608360c08460066107d05a03fa9050806000811461363457613636565bfe5b5080613677576040517f08c379a000000000000000000000000000000000000000000000000000000000815260040161366e906145b6565b60405180910390fd5b505092915050565b61368761415a565b60007f30644e72e131a029b85045b68181585d97816a916871ca8d3c208c16d87cfd479050600083600001511480156136c4575060008360200151145b156136e857604051806040016040528060008152602001600081525091505061371f565b60405180604001604052808460000151815260200182856020015161370d9190614812565b83613718919061474e565b8152509150505b919050565b600080600467ffffffffffffffff811115613768577f4e487b7100000000000000000000000000000000000000000000000000000000600052604160045260246000fd5b6040519080825280602002602001820160405280156137a157816020015b61378e61415a565b8152602001906001900390816137865790505b5090506000600467ffffffffffffffff8111156137e7577f4e487b7100000000000000000000000000000000000000000000000000000000600052604160045260246000fd5b60405190808252806020026020018201604052801561382057816020015b61380d6141b8565b8152602001906001900390816138055790505b5090508a8260008151811061385e577f4e487b7100000000000000000000000000000000000000000000000000000000600052603260045260246000fd5b602002602001018190525088826001815181106138a4577f4e487b7100000000000000000000000000000000000000000000000000000000600052603260045260246000fd5b602002602001018190525086826002815181106138ea577f4e487b7100000000000000000000000000000000000000000000000000000000600052603260045260246000fd5b60200260200101819052508482600381518110613930577f4e487b7100000000000000000000000000000000000000000000000000000000600052603260045260246000fd5b60200260200101819052508981600081518110613976577f4e487b7100000000000000000000000000000000000000000000000000000000600052603260045260246000fd5b602002602001018190525087816001815181106139bc577f4e487b7100000000000000000000000000000000000000000000000000000000600052603260045260246000fd5b60200260200101819052508581600281518110613a02577f4e487b7100000000000000000000000000000000000000000000000000000000600052603260045260246000fd5b60200260200101819052508381600381518110613a48577f4e487b7100000000000000000000000000000000000000000000000000000000600052603260045260246000fd5b6020026020010181905250613a5d8282613a6d565b9250505098975050505050505050565b60008151835114613ab3576040517f08c379a0000000000000000000000000000000000000000000000000000000008152600401613aaa90614596565b60405180910390fd5b6000835190506000600682613ac891906146f4565b905060008167ffffffffffffffff811115613b0c577f4e487b7100000000000000000000000000000000000000000000000000000000600052604160045260246000fd5b604051908082528060200260200182016040528015613b3a5781602001602082028036833780820191505090505b50905060005b8381101561401f57868181518110613b81577f4e487b7100000000000000000000000000000000000000000000000000000000600052603260045260246000fd5b602002602001015160000151826000600684613b9d91906146f4565b613ba7919061469e565b81518110613bde577f4e487b7100000000000000000000000000000000000000000000000000000000600052603260045260246000fd5b602002602001018181525050868181518110613c23577f4e487b7100000000000000000000000000000000000000000000000000000000600052603260045260246000fd5b602002602001015160200151826001600684613c3f91906146f4565b613c49919061469e565b81518110613c80577f4e487b7100000000000000000000000000000000000000000000000000000000600052603260045260246000fd5b602002602001018181525050858181518110613cc5577f4e487b7100000000000000000000000000000000000000000000000000000000600052603260045260246000fd5b602002602001015160000151600060028110613d0a577f4e487b7100000000000000000000000000000000000000000000000000000000600052603260045260246000fd5b6020020151826002600684613d1f91906146f4565b613d29919061469e565b81518110613d60577f4e487b7100000000000000000000000000000000000000000000000000000000600052603260045260246000fd5b602002602001018181525050858181518110613da5577f4e487b7100000000000000000000000000000000000000000000000000000000600052603260045260246000fd5b602002602001015160000151600160028110613dea577f4e487b7100000000000000000000000000000000000000000000000000000000600052603260045260246000fd5b6020020151826003600684613dff91906146f4565b613e09919061469e565b81518110613e40577f4e487b7100000000000000000000000000000000000000000000000000000000600052603260045260246000fd5b602002602001018181525050858181518110613e85577f4e487b7100000000000000000000000000000000000000000000000000000000600052603260045260246000fd5b602002602001015160200151600060028110613eca577f4e487b7100000000000000000000000000000000000000000000000000000000600052603260045260246000fd5b6020020151826004600684613edf91906146f4565b613ee9919061469e565b81518110613f20577f4e487b7100000000000000000000000000000000000000000000000000000000600052603260045260246000fd5b602002602001018181525050858181518110613f65577f4e487b7100000000000000000000000000000000000000000000000000000000600052603260045260246000fd5b602002602001015160200151600160028110613faa577f4e487b7100000000000000000000000000000000000000000000000000000000600052603260045260246000fd5b6020020151826005600684613fbf91906146f4565b613fc9919061469e565b81518110614000577f4e487b7100000000000000000000000000000000000000000000000000000000600052603260045260246000fd5b6020026020010181815250508080614017906147c9565b915050613b40565b506140286141de565b6000602082602086026020860160086107d05a03fa9050806000811461404d5761404f565bfe5b5080614090576040517f08c379a0000000000000000000000000000000000000000000000000000000008152600401614087906145d6565b60405180910390fd5b6000826000600181106140cc577f4e487b7100000000000000000000000000000000000000000000000000000000600052603260045260246000fd5b602002015114159550505050505092915050565b60405180606001604052806140f361415a565b81526020016141006141b8565b815260200161410d61415a565b81525090565b6040518060a0016040528061412661415a565b81526020016141336141b8565b81526020016141406141b8565b815260200161414d6141b8565b8152602001606081525090565b604051806040016040528060008152602001600081525090565b6040518060600160405280600390602082028036833780820191505090505090565b6040518060800160405280600490602082028036833780820191505090505090565b60405180604001604052806141cb614200565b81526020016141d8614200565b81525090565b6040518060200160405280600190602082028036833780820191505090505090565b6040518060400160405280600290602082028036833780820191505090505090565b60006142356142308461461b565b6145f6565b9050808285604086028201111561424b57600080fd5b60005b8581101561427b57816142618882614372565b84526020840193506040830192505060018101905061424e565b5050509392505050565b600061429861429384614641565b6145f6565b905080828560208602820111156142ae57600080fd5b60005b858110156142de57816142c488826143c0565b8452602084019350602083019250506001810190506142b1565b5050509392505050565b60006142fb6142f684614667565b6145f6565b9050808285602086028201111561431157600080fd5b60005b85811015614341578161432788826143c0565b845260208401935060208301925050600181019050614314565b5050509392505050565b600082601f83011261435c57600080fd5b6002614369848285614222565b91505092915050565b600082601f83011261438357600080fd5b6002614390848285614285565b91505092915050565b600082601f8301126143aa57600080fd5b60416143b78482856142e8565b91505092915050565b6000813590506143cf816149d7565b92915050565b60008060008061092085870312156143ec57600080fd5b60006143fa87828801614372565b945050604061440b8782880161434b565b93505060c061441c87828801614372565b92505061010061442e87828801614399565b91505092959194509250565b61444381614782565b82525050565b600061445660128361468d565b9150614461826148e1565b602082019050919050565b600061447960128361468d565b91506144848261490a565b602082019050919050565b600061449c601f8361468d565b91506144a782614933565b602082019050919050565b60006144bf60168361468d565b91506144ca8261495c565b602082019050919050565b60006144e260128361468d565b91506144ed82614985565b602082019050919050565b600061450560158361468d565b9150614510826149ae565b602082019050919050565b6000602082019050614530600083018461443a565b92915050565b6000602082019050818103600083015261454f81614449565b9050919050565b6000602082019050818103600083015261456f8161446c565b9050919050565b6000602082019050818103600083015261458f8161448f565b9050919050565b600060208201905081810360008301526145af816144b2565b9050919050565b600060208201905081810360008301526145cf816144d5565b9050919050565b600060208201905081810360008301526145ef816144f8565b9050919050565b6000614600614611565b905061460c8282614798565b919050565b6000604051905090565b600067ffffffffffffffff821115614636576146356148a1565b5b602082029050919050565b600067ffffffffffffffff82111561465c5761465b6148a1565b5b602082029050919050565b600067ffffffffffffffff821115614682576146816148a1565b5b602082029050919050565b600082825260208201905092915050565b60006146a98261478e565b91506146b48361478e565b9250827fffffffffffffffffffffffffffffffffffffffffffffffffffffffffffffffff038211156146e9576146e8614843565b5b828201905092915050565b60006146ff8261478e565b915061470a8361478e565b9250817fffffffffffffffffffffffffffffffffffffffffffffffffffffffffffffffff048311821515161561474357614742614843565b5b828202905092915050565b60006147598261478e565b91506147648361478e565b92508282101561477757614776614843565b5b828203905092915050565b60008115159050919050565b6000819050919050565b6147a1826148d0565b810181811067ffffffffffffffff821117156147c0576147bf6148a1565b5b80604052505050565b60006147d48261478e565b91507fffffffffffffffffffffffffffffffffffffffffffffffffffffffffffffffff82141561480757614806614843565b5b600182019050919050565b600061481d8261478e565b91506148288361478e565b92508261483857614837614872565b5b828206905092915050565b7f4e487b7100000000000000000000000000000000000000000000000000000000600052601160045260246000fd5b7f4e487b7100000000000000000000000000000000000000000000000000000000600052601260045260246000fd5b7f4e487b7100000000000000000000000000000000000000000000000000000000600052604160045260246000fd5b6000601f19601f8301169050919050565b7f76657269666965722d6261642d696e7075740000000000000000000000000000600082015250565b7f70616972696e672d6d756c2d6661696c65640000000000000000000000000000600082015250565b7f76657269666965722d6774652d736e61726b2d7363616c61722d6669656c6400600082015250565b7f70616972696e672d6c656e677468732d6661696c656400000000000000000000600082015250565b7f70616972696e672d6164642d6661696c65640000000000000000000000000000600082015250565b7f70616972696e672d6f70636f64652d6661696c65640000000000000000000000600082015250565b6149e08161478e565b81146149eb57600080fd5b5056fea264697066735822122075e36ef31cb9cf8b07843ddd3c9612d0f587fc75b30d3504c36979a9c3e98cb064736f6c63430008040033",
  "linkReferences": {},
  "deployedLinkReferences": {}
}