{
  "_format": "hh-sol-artifact-1",
  "contractName": "zkPhoto",
  "sourceName": "contracts/zkPhoto.sol",
  "abi": [
    {
      "inputs": [
        {
          "internalType": "address",
          "name": "_verifier",
          "type": "address"
        }
      ],
      "stateMutability": "nonpayable",
      "type": "constructor"
    },
    {
      "anonymous": false,
      "inputs": [
        {
          "indexed": true,
          "internalType": "address",
          "name": "owner",
          "type": "address"
        },
        {
          "indexed": true,
          "internalType": "address",
          "name": "approved",
          "type": "address"
        },
        {
          "indexed": true,
          "internalType": "uint256",
          "name": "tokenId",
          "type": "uint256"
        }
      ],
      "name": "Approval",
      "type": "event"
    },
    {
      "anonymous": false,
      "inputs": [
        {
          "indexed": true,
          "internalType": "address",
          "name": "owner",
          "type": "address"
        },
        {
          "indexed": true,
          "internalType": "address",
          "name": "operator",
          "type": "address"
        },
        {
          "indexed": false,
          "internalType": "bool",
          "name": "approved",
          "type": "bool"
        }
      ],
      "name": "ApprovalForAll",
      "type": "event"
    },
    {
      "anonymous": false,
      "inputs": [
        {
          "indexed": true,
          "internalType": "address",
          "name": "from",
          "type": "address"
        },
        {
          "indexed": true,
          "internalType": "address",
          "name": "to",
          "type": "address"
        },
        {
          "indexed": true,
          "internalType": "uint256",
          "name": "tokenId",
          "type": "uint256"
        }
      ],
      "name": "Transfer",
      "type": "event"
    },
    {
      "inputs": [
        {
          "internalType": "address",
          "name": "to",
          "type": "address"
        },
        {
          "internalType": "uint256",
          "name": "tokenId",
          "type": "uint256"
        }
      ],
      "name": "approve",
      "outputs": [],
      "stateMutability": "nonpayable",
      "type": "function"
    },
    {
      "inputs": [
        {
          "internalType": "address",
          "name": "owner",
          "type": "address"
        }
      ],
      "name": "balanceOf",
      "outputs": [
        {
          "internalType": "uint256",
          "name": "",
          "type": "uint256"
        }
      ],
      "stateMutability": "view",
      "type": "function"
    },
    {
      "inputs": [],
      "name": "baseURI",
      "outputs": [
        {
          "internalType": "string",
          "name": "",
          "type": "string"
        }
      ],
      "stateMutability": "view",
      "type": "function"
    },
    {
      "inputs": [
        {
          "internalType": "uint256",
          "name": "tokenId",
          "type": "uint256"
        }
      ],
      "name": "getApproved",
      "outputs": [
        {
          "internalType": "address",
          "name": "",
          "type": "address"
        }
      ],
      "stateMutability": "view",
      "type": "function"
    },
    {
      "inputs": [
        {
          "internalType": "uint256",
          "name": "tokenId",
          "type": "uint256"
        }
      ],
      "name": "getData",
      "outputs": [
        {
          "internalType": "uint256[65][16]",
          "name": "",
          "type": "uint256[65][16]"
        }
      ],
      "stateMutability": "view",
      "type": "function"
    },
    {
      "inputs": [
        {
          "internalType": "address",
          "name": "owner",
          "type": "address"
        },
        {
          "internalType": "address",
          "name": "operator",
          "type": "address"
        }
      ],
      "name": "isApprovedForAll",
      "outputs": [
        {
          "internalType": "bool",
          "name": "",
          "type": "bool"
        }
      ],
      "stateMutability": "view",
      "type": "function"
    },
    {
      "inputs": [
        {
          "internalType": "string",
          "name": "name",
          "type": "string"
        },
        {
          "internalType": "string",
          "name": "description",
          "type": "string"
        },
        {
          "internalType": "string",
          "name": "image",
          "type": "string"
        },
        {
          "internalType": "uint256[2][16]",
          "name": "a",
          "type": "uint256[2][16]"
        },
        {
          "internalType": "uint256[2][2][16]",
          "name": "b",
          "type": "uint256[2][2][16]"
        },
        {
          "internalType": "uint256[2][16]",
          "name": "c",
          "type": "uint256[2][16]"
        },
        {
          "internalType": "uint256[65][16]",
          "name": "input",
          "type": "uint256[65][16]"
        }
      ],
      "name": "mint",
      "outputs": [
        {
          "internalType": "uint256",
          "name": "",
          "type": "uint256"
        }
      ],
      "stateMutability": "nonpayable",
      "type": "function"
    },
    {
      "inputs": [],
      "name": "name",
      "outputs": [
        {
          "internalType": "string",
          "name": "",
          "type": "string"
        }
      ],
      "stateMutability": "view",
      "type": "function"
    },
    {
      "inputs": [
        {
          "internalType": "uint256",
          "name": "tokenId",
          "type": "uint256"
        }
      ],
      "name": "ownerOf",
      "outputs": [
        {
          "internalType": "address",
          "name": "",
          "type": "address"
        }
      ],
      "stateMutability": "view",
      "type": "function"
    },
    {
      "inputs": [
        {
          "internalType": "address",
          "name": "from",
          "type": "address"
        },
        {
          "internalType": "address",
          "name": "to",
          "type": "address"
        },
        {
          "internalType": "uint256",
          "name": "tokenId",
          "type": "uint256"
        }
      ],
      "name": "safeTransferFrom",
      "outputs": [],
      "stateMutability": "nonpayable",
      "type": "function"
    },
    {
      "inputs": [
        {
          "internalType": "address",
          "name": "from",
          "type": "address"
        },
        {
          "internalType": "address",
          "name": "to",
          "type": "address"
        },
        {
          "internalType": "uint256",
          "name": "tokenId",
          "type": "uint256"
        },
        {
          "internalType": "bytes",
          "name": "_data",
          "type": "bytes"
        }
      ],
      "name": "safeTransferFrom",
      "outputs": [],
      "stateMutability": "nonpayable",
      "type": "function"
    },
    {
      "inputs": [
        {
          "internalType": "address",
          "name": "operator",
          "type": "address"
        },
        {
          "internalType": "bool",
          "name": "approved",
          "type": "bool"
        }
      ],
      "name": "setApprovalForAll",
      "outputs": [],
      "stateMutability": "nonpayable",
      "type": "function"
    },
    {
      "inputs": [
        {
          "internalType": "bytes4",
          "name": "interfaceId",
          "type": "bytes4"
        }
      ],
      "name": "supportsInterface",
      "outputs": [
        {
          "internalType": "bool",
          "name": "",
          "type": "bool"
        }
      ],
      "stateMutability": "view",
      "type": "function"
    },
    {
      "inputs": [],
      "name": "symbol",
      "outputs": [
        {
          "internalType": "string",
          "name": "",
          "type": "string"
        }
      ],
      "stateMutability": "view",
      "type": "function"
    },
    {
      "inputs": [
        {
          "internalType": "uint256",
          "name": "index",
          "type": "uint256"
        }
      ],
      "name": "tokenByIndex",
      "outputs": [
        {
          "internalType": "uint256",
          "name": "",
          "type": "uint256"
        }
      ],
      "stateMutability": "view",
      "type": "function"
    },
    {
      "inputs": [
        {
          "internalType": "address",
          "name": "owner",
          "type": "address"
        },
        {
          "internalType": "uint256",
          "name": "index",
          "type": "uint256"
        }
      ],
      "name": "tokenOfOwnerByIndex",
      "outputs": [
        {
          "internalType": "uint256",
          "name": "",
          "type": "uint256"
        }
      ],
      "stateMutability": "view",
      "type": "function"
    },
    {
      "inputs": [
        {
          "internalType": "uint256",
          "name": "tokenId",
          "type": "uint256"
        }
      ],
      "name": "tokenURI",
      "outputs": [
        {
          "internalType": "string",
          "name": "",
          "type": "string"
        }
      ],
      "stateMutability": "view",
      "type": "function"
    },
    {
      "inputs": [],
      "name": "totalSupply",
      "outputs": [
        {
          "internalType": "uint256",
          "name": "",
          "type": "uint256"
        }
      ],
      "stateMutability": "view",
      "type": "function"
    },
    {
      "inputs": [
        {
          "internalType": "address",
          "name": "from",
          "type": "address"
        },
        {
          "internalType": "address",
          "name": "to",
          "type": "address"
        },
        {
          "internalType": "uint256",
          "name": "tokenId",
          "type": "uint256"
        }
      ],
      "name": "transferFrom",
      "outputs": [],
      "stateMutability": "nonpayable",
      "type": "function"
    },
    {
      "inputs": [],
      "name": "verifierAddr",
      "outputs": [
        {
          "internalType": "address",
          "name": "",
          "type": "address"
        }
      ],
      "stateMutability": "view",
      "type": "function"
    }
  ],
  "bytecode": "0x60806040523480156200001157600080fd5b5060405162004fee38038062004fee83398181016040528101906200003791906200031e565b6040518060400160405280600b81526020017f7a6b50686f746f20322e300000000000000000000000000000000000000000008152506040518060400160405280600781526020017f7a6b50686f746f00000000000000000000000000000000000000000000000000815250620000bb6301ffc9a760e01b6200017f60201b60201c565b8160069080519060200190620000d392919062000257565b508060079080519060200190620000ec92919062000257565b50620001056380ac58cd60e01b6200017f60201b60201c565b6200011d635b5e139f60e01b6200017f60201b60201c565b6200013563780e9d6360e01b6200017f60201b60201c565b505080600a60006101000a81548173ffffffffffffffffffffffffffffffffffffffff021916908373ffffffffffffffffffffffffffffffffffffffff1602179055505062000480565b63ffffffff60e01b817bffffffffffffffffffffffffffffffffffffffffffffffffffffffff19161415620001eb576040517f08c379a0000000000000000000000000000000000000000000000000000000008152600401620001e29062000371565b60405180910390fd5b6001600080837bffffffffffffffffffffffffffffffffffffffffffffffffffffffff19167bffffffffffffffffffffffffffffffffffffffffffffffffffffffff1916815260200190815260200160002060006101000a81548160ff02191690831515021790555050565b8280546200026590620003d8565b90600052602060002090601f016020900481019282620002895760008555620002d5565b82601f10620002a457805160ff1916838001178555620002d5565b82800160010185558215620002d5579182015b82811115620002d4578251825591602001919060010190620002b7565b5b509050620002e49190620002e8565b5090565b5b8082111562000303576000816000905550600101620002e9565b5090565b600081519050620003188162000466565b92915050565b6000602082840312156200033157600080fd5b6000620003418482850162000307565b91505092915050565b600062000359601c8362000393565b915062000366826200043d565b602082019050919050565b600060208201905081810360008301526200038c816200034a565b9050919050565b600082825260208201905092915050565b6000620003b182620003b8565b9050919050565b600073ffffffffffffffffffffffffffffffffffffffff82169050919050565b60006002820490506001821680620003f157607f821691505b602082108114156200040857620004076200040e565b5b50919050565b7f4e487b7100000000000000000000000000000000000000000000000000000000600052602260045260246000fd5b7f4552433136353a20696e76616c696420696e7465726661636520696400000000600082015250565b6200047181620003a4565b81146200047d57600080fd5b50565b614b5e80620004906000396000f3fe608060405234801561001057600080fd5b506004361061012c5760003560e01c806350d638ab116100ad57806395d89b411161007157806395d89b411461037d578063a22cb4651461039b578063b88d4fde146103b7578063c87b56dd146103d3578063e985e9c5146104035761012c565b806350d638ab146102b15780636352211e146102e1578063663ea2e2146103115780636c0360eb1461032f57806370a082311461034d5761012c565b806318160ddd116100f457806318160ddd146101fb57806323b872dd146102195780632f745c591461023557806342842e0e146102655780634f6ccce7146102815761012c565b80630178fe3f1461013157806301ffc9a71461016157806306fdde0314610191578063081812fc146101af578063095ea7b3146101df575b600080fd5b61014b6004803603810190610146919061315d565b610433565b6040516101589190613ad3565b60405180910390f35b61017b60048036038101906101769190613014565b610511565b6040516101889190613b36565b60405180910390f35b610199610578565b6040516101a69190613b51565b60405180910390f35b6101c960048036038101906101c4919061315d565b61060a565b6040516101d69190613a50565b60405180910390f35b6101f960048036038101906101f49190612faf565b61068f565b005b6102036107a7565b6040516102109190613e13565b60405180910390f35b610233600480360381019061022e9190612ea9565b6107b8565b005b61024f600480360381019061024a9190612faf565b610818565b60405161025c9190613e13565b60405180910390f35b61027f600480360381019061027a9190612ea9565b610873565b005b61029b6004803603810190610296919061315d565b610893565b6040516102a89190613e13565b60405180910390f35b6102cb60048036038101906102c69190613066565b6108b6565b6040516102d89190613e13565b60405180910390f35b6102fb60048036038101906102f6919061315d565b6110f0565b6040516103089190613a50565b60405180910390f35b610319611127565b6040516103269190613a50565b60405180910390f35b61033761114d565b6040516103449190613b51565b60405180910390f35b61036760048036038101906103629190612e44565b6111df565b6040516103749190613e13565b60405180910390f35b61038561129e565b6040516103929190613b51565b60405180910390f35b6103b560048036038101906103b09190612f73565b611330565b005b6103d160048036038101906103cc9190612ef8565b6114b1565b005b6103ed60048036038101906103e8919061315d565b611513565b6040516103fa9190613b51565b60405180910390f35b61041d60048036038101906104189190612e6d565b611686565b60405161042a9190613b36565b60405180910390f35b61043b612afc565b6104448261171a565b610483576040517f08c379a000000000000000000000000000000000000000000000000000000000815260040161047a90613c73565b60405180910390fd5b600c6000838152602001908152602001600020601080602002604051908101604052809291906000905b82821015610506578382604102016041806020026040519081016040528092919082604180156104f2576020028201915b8154815260200190600101908083116104de575b5050505050815260200190600101906104ad565b505050509050919050565b6000806000837bffffffffffffffffffffffffffffffffffffffffffffffffffffffff19167bffffffffffffffffffffffffffffffffffffffffffffffffffffffff1916815260200190815260200160002060009054906101000a900460ff169050919050565b606060068054610587906141d1565b80601f01602080910402602001604051908101604052809291908181526020018280546105b3906141d1565b80156106005780601f106105d557610100808354040283529160200191610600565b820191906000526020600020905b8154815290600101906020018083116105e357829003601f168201915b5050505050905090565b60006106158261171a565b610654576040517f08c379a000000000000000000000000000000000000000000000000000000000815260040161064b90613cf3565b60405180910390fd5b6004600083815260200190815260200160002060009054906101000a900473ffffffffffffffffffffffffffffffffffffffff169050919050565b600061069a826110f0565b90508073ffffffffffffffffffffffffffffffffffffffff168373ffffffffffffffffffffffffffffffffffffffff16141561070b576040517f08c379a000000000000000000000000000000000000000000000000000000000815260040161070290613d73565b60405180910390fd5b8073ffffffffffffffffffffffffffffffffffffffff1661072a611737565b73ffffffffffffffffffffffffffffffffffffffff161480610759575061075881610753611737565b611686565b5b610798576040517f08c379a000000000000000000000000000000000000000000000000000000000815260040161078f90613c53565b60405180910390fd5b6107a2838361173f565b505050565b60006107b360026117f8565b905090565b6107c96107c3611737565b8261180d565b610808576040517f08c379a00000000000000000000000000000000000000000000000000000000081526004016107ff90613d93565b60405180910390fd5b6108138383836118eb565b505050565b600061086b82600160008673ffffffffffffffffffffffffffffffffffffffff1673ffffffffffffffffffffffffffffffffffffffff168152602001908152602001600020611b0290919063ffffffff16565b905092915050565b61088e838383604051806020016040528060008152506114b1565b505050565b6000806108aa836002611b1c90919063ffffffff16565b50905080915050919050565b6000806108c283611b48565b9050600d600082815260200190815260200160002060009054906101000a900460ff1615610925576040517f08c379a000000000000000000000000000000000000000000000000000000000815260040161091c90613dd3565b60405180910390fd5b60005b60108110156110545760006040518060400160405280898460108110610977577f4e487b7100000000000000000000000000000000000000000000000000000000600052603260045260246000fd5b604002016000600281106109b4577f4e487b7100000000000000000000000000000000000000000000000000000000600052603260045260246000fd5b602002013581526020018984601081106109f7577f4e487b7100000000000000000000000000000000000000000000000000000000600052603260045260246000fd5b60400201600160028110610a34577f4e487b7100000000000000000000000000000000000000000000000000000000600052603260045260246000fd5b602002013581525090506000604051806040016040528060405180604001604052808b8760108110610a8f577f4e487b7100000000000000000000000000000000000000000000000000000000600052603260045260246000fd5b60800201600060028110610acc577f4e487b7100000000000000000000000000000000000000000000000000000000600052603260045260246000fd5b60400201600060028110610b09577f4e487b7100000000000000000000000000000000000000000000000000000000600052603260045260246000fd5b602002013581526020018b8760108110610b4c577f4e487b7100000000000000000000000000000000000000000000000000000000600052603260045260246000fd5b60800201600060028110610b89577f4e487b7100000000000000000000000000000000000000000000000000000000600052603260045260246000fd5b60400201600160028110610bc6577f4e487b7100000000000000000000000000000000000000000000000000000000600052603260045260246000fd5b6020020135815250815260200160405180604001604052808b8760108110610c17577f4e487b7100000000000000000000000000000000000000000000000000000000600052603260045260246000fd5b60800201600160028110610c54577f4e487b7100000000000000000000000000000000000000000000000000000000600052603260045260246000fd5b60400201600060028110610c91577f4e487b7100000000000000000000000000000000000000000000000000000000600052603260045260246000fd5b602002013581526020018b8760108110610cd4577f4e487b7100000000000000000000000000000000000000000000000000000000600052603260045260246000fd5b60800201600160028110610d11577f4e487b7100000000000000000000000000000000000000000000000000000000600052603260045260246000fd5b60400201600160028110610d4e577f4e487b7100000000000000000000000000000000000000000000000000000000600052603260045260246000fd5b6020020135815250815250905060006040518060400160405280898660108110610da1577f4e487b7100000000000000000000000000000000000000000000000000000000600052603260045260246000fd5b60400201600060028110610dde577f4e487b7100000000000000000000000000000000000000000000000000000000600052603260045260246000fd5b60200201358152602001898660108110610e21577f4e487b7100000000000000000000000000000000000000000000000000000000600052603260045260246000fd5b60400201600160028110610e5e577f4e487b7100000000000000000000000000000000000000000000000000000000600052603260045260246000fd5b60200201358152509050610e70612b2a565b60005b6041811015610f4c57888660108110610eb5577f4e487b7100000000000000000000000000000000000000000000000000000000600052603260045260246000fd5b61082002018160418110610ef2577f4e487b7100000000000000000000000000000000000000000000000000000000600052603260045260246000fd5b6020020135828260418110610f30577f4e487b7100000000000000000000000000000000000000000000000000000000600052603260045260246000fd5b6020020181815250508080610f4490614234565b915050610e73565b50600a60009054906101000a900473ffffffffffffffffffffffffffffffffffffffff1673ffffffffffffffffffffffffffffffffffffffff16637ab45abb858585856040518563ffffffff1660e01b8152600401610fae9493929190613aef565b60206040518083038186803b158015610fc657600080fd5b505afa158015610fda573d6000803e3d6000fd5b505050506040513d601f19601f82011682018060405250810190610ffe9190612feb565b61103d576040517f08c379a000000000000000000000000000000000000000000000000000000000815260040161103490613df3565b60405180910390fd5b50505050808061104c90614234565b915050610928565b5061105f600b611b78565b600061106b600b611b97565b90506110773382611ba5565b61108e816110898f8f8f8f8f8f611d33565b611d98565b83600c60008381526020019081526020016000209060106110b0929190612b4d565b506001600d600084815260200190815260200160002060006101000a81548160ff02191690831515021790555080925050509a9950505050505050505050565b600061112082604051806060016040528060298152602001614ac0602991396002611e0c9092919063ffffffff16565b9050919050565b600a60009054906101000a900473ffffffffffffffffffffffffffffffffffffffff1681565b60606009805461115c906141d1565b80601f0160208091040260200160405190810160405280929190818152602001828054611188906141d1565b80156111d55780601f106111aa576101008083540402835291602001916111d5565b820191906000526020600020905b8154815290600101906020018083116111b857829003601f168201915b5050505050905090565b60008073ffffffffffffffffffffffffffffffffffffffff168273ffffffffffffffffffffffffffffffffffffffff161415611250576040517f08c379a000000000000000000000000000000000000000000000000000000000815260040161124790613c93565b60405180910390fd5b611297600160008473ffffffffffffffffffffffffffffffffffffffff1673ffffffffffffffffffffffffffffffffffffffff168152602001908152602001600020611e2b565b9050919050565b6060600780546112ad906141d1565b80601f01602080910402602001604051908101604052809291908181526020018280546112d9906141d1565b80156113265780601f106112fb57610100808354040283529160200191611326565b820191906000526020600020905b81548152906001019060200180831161130957829003601f168201915b5050505050905090565b611338611737565b73ffffffffffffffffffffffffffffffffffffffff168273ffffffffffffffffffffffffffffffffffffffff1614156113a6576040517f08c379a000000000000000000000000000000000000000000000000000000000815260040161139d90613bf3565b60405180910390fd5b80600560006113b3611737565b73ffffffffffffffffffffffffffffffffffffffff1673ffffffffffffffffffffffffffffffffffffffff16815260200190815260200160002060008473ffffffffffffffffffffffffffffffffffffffff1673ffffffffffffffffffffffffffffffffffffffff16815260200190815260200160002060006101000a81548160ff0219169083151502179055508173ffffffffffffffffffffffffffffffffffffffff16611460611737565b73ffffffffffffffffffffffffffffffffffffffff167f17307eab39ab6107e8899845ad3d59bd9653f200f220920489ca2b5937696c31836040516114a59190613b36565b60405180910390a35050565b6114c26114bc611737565b8361180d565b611501576040517f08c379a00000000000000000000000000000000000000000000000000000000081526004016114f890613d93565b60405180910390fd5b61150d84848484611e40565b50505050565b606061151e8261171a565b61155d576040517f08c379a000000000000000000000000000000000000000000000000000000000815260040161155490613d53565b60405180910390fd5b600060086000848152602001908152602001600020805461157d906141d1565b80601f01602080910402602001604051908101604052809291908181526020018280546115a9906141d1565b80156115f65780601f106115cb576101008083540402835291602001916115f6565b820191906000526020600020905b8154815290600101906020018083116115d957829003601f168201915b50505050509050600061160761114d565b905060008151141561161d578192505050611681565b60008251111561165257808260405160200161163a929190613991565b60405160208183030381529060405292505050611681565b8061165c85611e9c565b60405160200161166d929190613991565b604051602081830303815290604052925050505b919050565b6000600560008473ffffffffffffffffffffffffffffffffffffffff1673ffffffffffffffffffffffffffffffffffffffff16815260200190815260200160002060008373ffffffffffffffffffffffffffffffffffffffff1673ffffffffffffffffffffffffffffffffffffffff16815260200190815260200160002060009054906101000a900460ff16905092915050565b600061173082600261205b90919063ffffffff16565b9050919050565b600033905090565b816004600083815260200190815260200160002060006101000a81548173ffffffffffffffffffffffffffffffffffffffff021916908373ffffffffffffffffffffffffffffffffffffffff160217905550808273ffffffffffffffffffffffffffffffffffffffff166117b2836110f0565b73ffffffffffffffffffffffffffffffffffffffff167f8c5be1e5ebec7d5bd14f71427d1e84f3dd0314c0f7b2291e5b200ac8c7c3b92560405160405180910390a45050565b600061180682600001612075565b9050919050565b60006118188261171a565b611857576040517f08c379a000000000000000000000000000000000000000000000000000000000815260040161184e90613c33565b60405180910390fd5b6000611862836110f0565b90508073ffffffffffffffffffffffffffffffffffffffff168473ffffffffffffffffffffffffffffffffffffffff1614806118d157508373ffffffffffffffffffffffffffffffffffffffff166118b98461060a565b73ffffffffffffffffffffffffffffffffffffffff16145b806118e257506118e18185611686565b5b91505092915050565b8273ffffffffffffffffffffffffffffffffffffffff1661190b826110f0565b73ffffffffffffffffffffffffffffffffffffffff1614611961576040517f08c379a000000000000000000000000000000000000000000000000000000000815260040161195890613d33565b60405180910390fd5b600073ffffffffffffffffffffffffffffffffffffffff168273ffffffffffffffffffffffffffffffffffffffff1614156119d1576040517f08c379a00000000000000000000000000000000000000000000000000000000081526004016119c890613bd3565b60405180910390fd5b6119dc838383612086565b6119e760008261173f565b611a3881600160008673ffffffffffffffffffffffffffffffffffffffff1673ffffffffffffffffffffffffffffffffffffffff16815260200190815260200160002061208b90919063ffffffff16565b50611a8a81600160008573ffffffffffffffffffffffffffffffffffffffff1673ffffffffffffffffffffffffffffffffffffffff1681526020019081526020016000206120a590919063ffffffff16565b50611aa1818360026120bf9092919063ffffffff16565b50808273ffffffffffffffffffffffffffffffffffffffff168473ffffffffffffffffffffffffffffffffffffffff167fddf252ad1be2c89b69c2b068fc378daa952ba7f163c4a11628f55a4df523b3ef60405160405180910390a4505050565b6000611b1183600001836120f4565b60001c905092915050565b600080600080611b2f866000018661218e565b915091508160001c8160001c9350935050509250929050565b600081604051602001611b5b9190613ab7565b604051602081830303815290604052805190602001209050919050565b6001816000016000828254611b8d9190613fca565b9250508190555050565b600081600001549050919050565b600073ffffffffffffffffffffffffffffffffffffffff168273ffffffffffffffffffffffffffffffffffffffff161415611c15576040517f08c379a0000000000000000000000000000000000000000000000000000000008152600401611c0c90613cd3565b60405180910390fd5b611c1e8161171a565b15611c5e576040517f08c379a0000000000000000000000000000000000000000000000000000000008152600401611c5590613bb3565b60405180910390fd5b611c6a60008383612086565b611cbb81600160008573ffffffffffffffffffffffffffffffffffffffff1673ffffffffffffffffffffffffffffffffffffffff1681526020019081526020016000206120a590919063ffffffff16565b50611cd2818360026120bf9092919063ffffffff16565b50808273ffffffffffffffffffffffffffffffffffffffff16600073ffffffffffffffffffffffffffffffffffffffff167fddf252ad1be2c89b69c2b068fc378daa952ba7f163c4a11628f55a4df523b3ef60405160405180910390a45050565b60606000878787878787604051602001611d52969594939291906139b5565b6040516020818303038152906040529050611d6c8161223e565b604051602001611d7c9190613a2e565b6040516020818303038152906040529150509695505050505050565b611da18261171a565b611de0576040517f08c379a0000000000000000000000000000000000000000000000000000000008152600401611dd790613d13565b60405180910390fd5b80600860008481526020019081526020016000209080519060200190611e07929190612b9f565b505050565b6000611e1f846000018460001b846123c8565b60001c90509392505050565b6000611e398260000161248f565b9050919050565b611e4b8484846118eb565b611e57848484846124a0565b611e96576040517f08c379a0000000000000000000000000000000000000000000000000000000008152600401611e8d90613b93565b60405180910390fd5b50505050565b60606000821415611ee4576040518060400160405280600181526020017f30000000000000000000000000000000000000000000000000000000000000008152509050612056565b600082905060005b60008214611f16578080611eff90614234565b915050600a82611f0f9190614020565b9150611eec565b60008167ffffffffffffffff811115611f58577f4e487b7100000000000000000000000000000000000000000000000000000000600052604160045260246000fd5b6040519080825280601f01601f191660200182016040528015611f8a5781602001600182028036833780820191505090505b5090506000600183611f9c91906140ab565b90508593505b6000841461204e57600a84611fb7919061427d565b6030611fc39190613fca565b60f81b828280611fd2906141a7565b93508151811061200b577f4e487b7100000000000000000000000000000000000000000000000000000000600052603260045260246000fd5b60200101907effffffffffffffffffffffffffffffffffffffffffffffffffffffffffffff1916908160001a905350600a846120479190614020565b9350611fa2565b819450505050505b919050565b600061206d836000018360001b612604565b905092915050565b600081600001805490509050919050565b505050565b600061209d836000018360001b612627565b905092915050565b60006120b7836000018360001b6127b1565b905092915050565b60006120eb846000018460001b8473ffffffffffffffffffffffffffffffffffffffff1660001b612821565b90509392505050565b60008183600001805490501161213f576040517f08c379a000000000000000000000000000000000000000000000000000000000815260040161213690613b73565b60405180910390fd5b82600001828154811061217b577f4e487b7100000000000000000000000000000000000000000000000000000000600052603260045260246000fd5b9060005260206000200154905092915050565b600080828460000180549050116121da576040517f08c379a00000000000000000000000000000000000000000000000000000000081526004016121d190613cb3565b60405180910390fd5b6000846000018481548110612218577f4e487b7100000000000000000000000000000000000000000000000000000000600052603260045260246000fd5b906000526020600020906002020190508060000154816001015492509250509250929050565b6060600082511415612261576040518060200160405280600081525090506123c3565b6000604051806060016040528060408152602001614ae960409139905060006003600285516122909190613fca565b61229a9190614020565b60046122a69190614051565b67ffffffffffffffff8111156122e5577f4e487b7100000000000000000000000000000000000000000000000000000000600052604160045260246000fd5b6040519080825280601f01601f1916602001820160405280156123175781602001600182028036833780820191505090505b509050600182016020820185865187015b80821015612383576003820191508151603f8160121c168501518453600184019350603f81600c1c168501518453600184019350603f8160061c168501518453600184019350603f8116850151845360018401935050612328565b505060038651066001811461239f57600281146123b2576123ba565b603d6001830353603d60028303536123ba565b603d60018303535b50505080925050505b919050565b6000808460010160008581526020019081526020016000205490506000811415839061242a576040517f08c379a00000000000000000000000000000000000000000000000000000000081526004016124219190613b51565b60405180910390fd5b508460000160018261243c91906140ab565b81548110612473577f4e487b7100000000000000000000000000000000000000000000000000000000600052603260045260246000fd5b9060005260206000209060020201600101549150509392505050565b600081600001805490509050919050565b60006124c18473ffffffffffffffffffffffffffffffffffffffff16612933565b6124ce57600190506125fc565b600061259563150b7a0260e01b6124e3611737565b8887876040516024016124f99493929190613a6b565b604051602081830303815290604052907bffffffffffffffffffffffffffffffffffffffffffffffffffffffff19166020820180517bffffffffffffffffffffffffffffffffffffffffffffffffffffffff8381831617835250505050604051806060016040528060328152602001614a8e603291398773ffffffffffffffffffffffffffffffffffffffff166129469092919063ffffffff16565b90506000818060200190518101906125ad919061303d565b905063150b7a0260e01b7bffffffffffffffffffffffffffffffffffffffffffffffffffffffff1916817bffffffffffffffffffffffffffffffffffffffffffffffffffffffff191614925050505b949350505050565b600080836001016000848152602001908152602001600020541415905092915050565b600080836001016000848152602001908152602001600020549050600081146127a557600060018261265991906140ab565b905060006001866000018054905061267191906140ab565b905060008660000182815481106126b1577f4e487b7100000000000000000000000000000000000000000000000000000000600052603260045260246000fd5b90600052602060002001549050808760000184815481106126fb577f4e487b7100000000000000000000000000000000000000000000000000000000600052603260045260246000fd5b90600052602060002001819055506001836127169190613fca565b8760010160008381526020019081526020016000208190555086600001805480612769577f4e487b7100000000000000000000000000000000000000000000000000000000600052603160045260246000fd5b600190038181906000526020600020016000905590558660010160008781526020019081526020016000206000905560019450505050506127ab565b60009150505b92915050565b60006127bd838361295e565b61281657826000018290806001815401808255809150506001900390600052602060002001600090919091909150558260000180549050836001016000848152602001908152602001600020819055506001905061281b565b600090505b92915050565b60008084600101600085815260200190815260200160002054905060008114156128c85784600001604051806040016040528086815260200185815250908060018154018082558091505060019003906000526020600020906002020160009091909190915060008201518160000155602082015181600101555050846000018054905085600101600086815260200190815260200160002081905550600191505061292c565b82856000016001836128da91906140ab565b81548110612911577f4e487b7100000000000000000000000000000000000000000000000000000000600052603260045260246000fd5b90600052602060002090600202016001018190555060009150505b9392505050565b600080823b905060008111915050919050565b60606129558484600085612981565b90509392505050565b600080836001016000848152602001908152602001600020541415905092915050565b6060824710156129c6576040517f08c379a00000000000000000000000000000000000000000000000000000000081526004016129bd90613c13565b60405180910390fd5b6129cf85612933565b612a0e576040517f08c379a0000000000000000000000000000000000000000000000000000000008152600401612a0590613db3565b60405180910390fd5b6000808673ffffffffffffffffffffffffffffffffffffffff168587604051612a37919061397a565b60006040518083038185875af1925050503d8060008114612a74576040519150601f19603f3d011682016040523d82523d6000602084013e612a79565b606091505b5091509150612a89828286612a95565b92505050949350505050565b60608315612aa557829050612af5565b600083511115612ab85782518084602001fd5b816040517f08c379a0000000000000000000000000000000000000000000000000000000008152600401612aec9190613b51565b60405180910390fd5b9392505050565b6040518061020001604052806010905b612b14612b2a565b815260200190600190039081612b0c5790505090565b604051806108200160405280604190602082028036833780820191505090505090565b8260106041028101928215612b8e57916108200282015b82811115612b8d578282906041612b7c929190612c25565b509161082001919060410190612b64565b5b509050612b9b9190612c65565b5090565b828054612bab906141d1565b90600052602060002090601f016020900481019282612bcd5760008555612c14565b82601f10612be657805160ff1916838001178555612c14565b82800160010185558215612c14579182015b82811115612c13578251825591602001919060010190612bf8565b5b509050612c219190612c89565b5090565b8260418101928215612c54579160200282015b82811115612c53578235825591602001919060010190612c38565b5b509050612c619190612c89565b5090565b5b80821115612c855760008181612c7c9190612ca6565b50604101612c66565b5090565b5b80821115612ca2576000816000905550600101612c8a565b5090565b508060410190612cb69190612c89565b50565b6000612ccc612cc784613e53565b613e2e565b905082815260208101848484011115612ce457600080fd5b612cef848285614165565b509392505050565b600081359050612d0681614a31565b92915050565b600081905082608060100282011115612d2457600080fd5b92915050565b600081905082604060100282011115612d4257600080fd5b92915050565b60008190508261082060100282011115612d6157600080fd5b92915050565b600081359050612d7681614a48565b92915050565b600081519050612d8b81614a48565b92915050565b600081359050612da081614a5f565b92915050565b600081519050612db581614a5f565b92915050565b600082601f830112612dcc57600080fd5b8135612ddc848260208601612cb9565b91505092915050565b60008083601f840112612df757600080fd5b8235905067ffffffffffffffff811115612e1057600080fd5b602083019150836001820283011115612e2857600080fd5b9250929050565b600081359050612e3e81614a76565b92915050565b600060208284031215612e5657600080fd5b6000612e6484828501612cf7565b91505092915050565b60008060408385031215612e8057600080fd5b6000612e8e85828601612cf7565b9250506020612e9f85828601612cf7565b9150509250929050565b600080600060608486031215612ebe57600080fd5b6000612ecc86828701612cf7565b9350506020612edd86828701612cf7565b9250506040612eee86828701612e2f565b9150509250925092565b60008060008060808587031215612f0e57600080fd5b6000612f1c87828801612cf7565b9450506020612f2d87828801612cf7565b9350506040612f3e87828801612e2f565b925050606085013567ffffffffffffffff811115612f5b57600080fd5b612f6787828801612dbb565b91505092959194509250565b60008060408385031215612f8657600080fd5b6000612f9485828601612cf7565b9250506020612fa585828601612d67565b9150509250929050565b60008060408385031215612fc257600080fd5b6000612fd085828601612cf7565b9250506020612fe185828601612e2f565b9150509250929050565b600060208284031215612ffd57600080fd5b600061300b84828501612d7c565b91505092915050565b60006020828403121561302657600080fd5b600061303484828501612d91565b91505092915050565b60006020828403121561304f57600080fd5b600061305d84828501612da6565b91505092915050565b6000806000806000806000806000806192608b8d03121561308657600080fd5b60008b013567ffffffffffffffff8111156130a057600080fd5b6130ac8d828e01612de5565b9a509a505060208b013567ffffffffffffffff8111156130cb57600080fd5b6130d78d828e01612de5565b985098505060408b013567ffffffffffffffff8111156130f657600080fd5b6131028d828e01612de5565b965096505060606131158d828e01612d2a565b9450506104606131278d828e01612d0c565b935050610c606131398d828e01612d2a565b92505061106061314b8d828e01612d48565b9150509295989b9194979a5092959850565b60006020828403121561316f57600080fd5b600061317d84828501612e2f565b91505092915050565b60006131928383613313565b60408301905092915050565b60006131aa83836133c1565b6108208301905092915050565b60006131c383836133d2565b6108208301905092915050565b60006131dc838361395c565b60208301905092915050565b6131f1816140f1565b82525050565b613200816140df565b82525050565b61320f81613eb6565b6132198184613f45565b925061322482613e84565b8060005b8381101561325557815161323c8782613186565b965061324783613f03565b925050600181019050613228565b505050505050565b61326681613ec1565b6132708184613f50565b925061327b82613e8e565b8060005b838110156132b4576132918284613fbf565b61329b878261319e565b96506132a683613f10565b92505060018101905061327f565b505050505050565b6132c581613ecc565b6132cf8184613f50565b92506132da82613e98565b8060005b8381101561330b5781516132f287826131b7565b96506132fd83613f1e565b9250506001810190506132de565b505050505050565b61331c81613ed7565b6133268184613f5b565b925061333182613ea2565b8060005b8381101561336257815161334987826131d0565b965061335483613f2b565b925050600181019050613335565b505050505050565b61337381613ed7565b61337d8184613f66565b925061338882613ea2565b8060005b838110156133b95781516133a087826131d0565b96506133ab83613f2b565b92505060018101905061338c565b505050505050565b6133ce6108208383614165565b5050565b6133db81613ee2565b6133e58184613f71565b92506133f082613eac565b8060005b8381101561342157815161340887826131d0565b965061341383613f38565b9250506001810190506133f4565b505050505050565b61343281613ee2565b61343c8184613f7c565b925061344782613eac565b8060005b8381101561347857815161345f87826131d0565b965061346a83613f38565b92505060018101905061344b565b505050505050565b61348981614103565b82525050565b600061349a82613eed565b6134a48185613f87565b93506134b4818560208601614174565b6134bd8161436a565b840191505092915050565b60006134d382613eed565b6134dd8185613f98565b93506134ed818560208601614174565b80840191505092915050565b60006135058385613fb4565b9350613512838584614165565b82840190509392505050565b600061352982613ef8565b6135338185613fa3565b9350613543818560208601614174565b61354c8161436a565b840191505092915050565b600061356282613ef8565b61356c8185613fb4565b935061357c818560208601614174565b80840191505092915050565b6000613595602283613fa3565b91506135a08261437b565b604082019050919050565b60006135b8601383613fb4565b91506135c3826143ca565b601382019050919050565b60006135db603283613fa3565b91506135e6826143f3565b604082019050919050565b60006135fe601c83613fa3565b915061360982614442565b602082019050919050565b6000613621602483613fa3565b915061362c8261446b565b604082019050919050565b6000613644601983613fa3565b915061364f826144ba565b602082019050919050565b6000613667602683613fa3565b9150613672826144e3565b604082019050919050565b600061368a602c83613fa3565b915061369582614532565b604082019050919050565b60006136ad603883613fa3565b91506136b882614581565b604082019050919050565b60006136d0601183613fa3565b91506136db826145d0565b602082019050919050565b60006136f3602a83613fa3565b91506136fe826145f9565b604082019050919050565b6000613716602283613fa3565b915061372182614648565b604082019050919050565b6000613739602083613fa3565b915061374482614697565b602082019050919050565b600061375c600d83613fb4565b9150613767826146c0565b600d82019050919050565b600061377f600183613fb4565b915061378a826146e9565b600182019050919050565b60006137a2602c83613fa3565b91506137ad82614712565b604082019050919050565b60006137c5600983613fb4565b91506137d082614761565b600982019050919050565b60006137e8602c83613fa3565b91506137f38261478a565b604082019050919050565b600061380b602983613fa3565b9150613816826147d9565b604082019050919050565b600061382e602f83613fa3565b915061383982614828565b604082019050919050565b6000613851600183613fb4565b915061385c82614877565b600182019050919050565b6000613874602183613fa3565b915061387f826148a0565b604082019050919050565b6000613897601d83613fb4565b91506138a2826148ef565b601d82019050919050565b60006138ba603183613fa3565b91506138c582614918565b604082019050919050565b60006138dd601d83613fa3565b91506138e882614967565b602082019050919050565b6000613900601483613fa3565b915061390b82614990565b602082019050919050565b6000613923600d83613fa3565b915061392e826149b9565b602082019050919050565b6000613946602883613fb4565b9150613951826149e2565b602882019050919050565b6139658161415b565b82525050565b6139748161415b565b82525050565b600061398682846134c8565b915081905092915050565b600061399d8285613557565b91506139a98284613557565b91508190509392505050565b60006139c082613844565b91506139cb826137b8565b91506139d882888a6134f9565b91506139e3826135ab565b91506139f08286886134f9565b91506139fb8261374f565b9150613a088284866134f9565b9150613a1382613939565b9150613a1e82613772565b9150819050979650505050505050565b6000613a398261388a565b9150613a458284613557565b915081905092915050565b6000602082019050613a6560008301846131f7565b92915050565b6000608082019050613a8060008301876131e8565b613a8d60208301866131f7565b613a9a604083018561396b565b8181036060830152613aac818461348f565b905095945050505050565b600061820082019050613acd600083018461325d565b92915050565b600061820082019050613ae960008301846132bc565b92915050565b600061092082019050613b05600083018761336a565b613b126040830186613206565b613b1f60c083018561336a565b613b2d610100830184613429565b95945050505050565b6000602082019050613b4b6000830184613480565b92915050565b60006020820190508181036000830152613b6b818461351e565b905092915050565b60006020820190508181036000830152613b8c81613588565b9050919050565b60006020820190508181036000830152613bac816135ce565b9050919050565b60006020820190508181036000830152613bcc816135f1565b9050919050565b60006020820190508181036000830152613bec81613614565b9050919050565b60006020820190508181036000830152613c0c81613637565b9050919050565b60006020820190508181036000830152613c2c8161365a565b9050919050565b60006020820190508181036000830152613c4c8161367d565b9050919050565b60006020820190508181036000830152613c6c816136a0565b9050919050565b60006020820190508181036000830152613c8c816136c3565b9050919050565b60006020820190508181036000830152613cac816136e6565b9050919050565b60006020820190508181036000830152613ccc81613709565b9050919050565b60006020820190508181036000830152613cec8161372c565b9050919050565b60006020820190508181036000830152613d0c81613795565b9050919050565b60006020820190508181036000830152613d2c816137db565b9050919050565b60006020820190508181036000830152613d4c816137fe565b9050919050565b60006020820190508181036000830152613d6c81613821565b9050919050565b60006020820190508181036000830152613d8c81613867565b9050919050565b60006020820190508181036000830152613dac816138ad565b9050919050565b60006020820190508181036000830152613dcc816138d0565b9050919050565b60006020820190508181036000830152613dec816138f3565b9050919050565b60006020820190508181036000830152613e0c81613916565b9050919050565b6000602082019050613e28600083018461396b565b92915050565b6000613e38613e49565b9050613e448282614203565b919050565b6000604051905090565b600067ffffffffffffffff821115613e6e57613e6d61433b565b5b613e778261436a565b9050602081019050919050565b6000819050919050565b6000819050919050565b6000819050919050565b6000819050919050565b6000819050919050565b600060029050919050565b600060109050919050565b600060109050919050565b600060029050919050565b600060419050919050565b600081519050919050565b600081519050919050565b6000602082019050919050565b600061082082019050919050565b6000602082019050919050565b6000602082019050919050565b6000602082019050919050565b600081905092915050565b600081905092915050565b600081905092915050565b600081905092915050565b600081905092915050565b600081905092915050565b600082825260208201905092915050565b600081905092915050565b600082825260208201905092915050565b600081905092915050565b600082905092915050565b6000613fd58261415b565b9150613fe08361415b565b9250827fffffffffffffffffffffffffffffffffffffffffffffffffffffffffffffffff03821115614015576140146142ae565b5b828201905092915050565b600061402b8261415b565b91506140368361415b565b925082614046576140456142dd565b5b828204905092915050565b600061405c8261415b565b91506140678361415b565b9250817fffffffffffffffffffffffffffffffffffffffffffffffffffffffffffffffff04831182151516156140a05761409f6142ae565b5b828202905092915050565b60006140b68261415b565b91506140c18361415b565b9250828210156140d4576140d36142ae565b5b828203905092915050565b60006140ea8261413b565b9050919050565b60006140fc8261413b565b9050919050565b60008115159050919050565b60007fffffffff0000000000000000000000000000000000000000000000000000000082169050919050565b600073ffffffffffffffffffffffffffffffffffffffff82169050919050565b6000819050919050565b82818337600083830152505050565b60005b83811015614192578082015181840152602081019050614177565b838111156141a1576000848401525b50505050565b60006141b28261415b565b915060008214156141c6576141c56142ae565b5b600182039050919050565b600060028204905060018216806141e957607f821691505b602082108114156141fd576141fc61430c565b5b50919050565b61420c8261436a565b810181811067ffffffffffffffff8211171561422b5761422a61433b565b5b80604052505050565b600061423f8261415b565b91507fffffffffffffffffffffffffffffffffffffffffffffffffffffffffffffffff821415614272576142716142ae565b5b600182019050919050565b60006142888261415b565b91506142938361415b565b9250826142a3576142a26142dd565b5b828206905092915050565b7f4e487b7100000000000000000000000000000000000000000000000000000000600052601160045260246000fd5b7f4e487b7100000000000000000000000000000000000000000000000000000000600052601260045260246000fd5b7f4e487b7100000000000000000000000000000000000000000000000000000000600052602260045260246000fd5b7f4e487b7100000000000000000000000000000000000000000000000000000000600052604160045260246000fd5b6000601f19601f8301169050919050565b7f456e756d657261626c655365743a20696e646578206f7574206f6620626f756e60008201527f6473000000000000000000000000000000000000000000000000000000000000602082015250565b7f222c20226465736372697074696f6e223a202200000000000000000000000000600082015250565b7f4552433732313a207472616e7366657220746f206e6f6e20455243373231526560008201527f63656976657220696d706c656d656e7465720000000000000000000000000000602082015250565b7f4552433732313a20746f6b656e20616c7265616479206d696e74656400000000600082015250565b7f4552433732313a207472616e7366657220746f20746865207a65726f2061646460008201527f7265737300000000000000000000000000000000000000000000000000000000602082015250565b7f4552433732313a20617070726f766520746f2063616c6c657200000000000000600082015250565b7f416464726573733a20696e73756666696369656e742062616c616e636520666f60008201527f722063616c6c0000000000000000000000000000000000000000000000000000602082015250565b7f4552433732313a206f70657261746f7220717565727920666f72206e6f6e657860008201527f697374656e7420746f6b656e0000000000000000000000000000000000000000602082015250565b7f4552433732313a20617070726f76652063616c6c6572206973206e6f74206f7760008201527f6e6572206e6f7220617070726f76656420666f7220616c6c0000000000000000602082015250565b7f4e6f6e6578697374656e7420746f6b656e000000000000000000000000000000600082015250565b7f4552433732313a2062616c616e636520717565727920666f7220746865207a6560008201527f726f206164647265737300000000000000000000000000000000000000000000602082015250565b7f456e756d657261626c654d61703a20696e646578206f7574206f6620626f756e60008201527f6473000000000000000000000000000000000000000000000000000000000000602082015250565b7f4552433732313a206d696e7420746f20746865207a65726f2061646472657373600082015250565b7f222c2022696d616765223a202200000000000000000000000000000000000000600082015250565b7f7d00000000000000000000000000000000000000000000000000000000000000600082015250565b7f4552433732313a20617070726f76656420717565727920666f72206e6f6e657860008201527f697374656e7420746f6b656e0000000000000000000000000000000000000000602082015250565b7f226e616d65223a20220000000000000000000000000000000000000000000000600082015250565b7f4552433732314d657461646174613a2055524920736574206f66206e6f6e657860008201527f697374656e7420746f6b656e0000000000000000000000000000000000000000602082015250565b7f4552433732313a207472616e73666572206f6620746f6b656e2074686174206960008201527f73206e6f74206f776e0000000000000000000000000000000000000000000000602082015250565b7f4552433732314d657461646174613a2055524920717565727920666f72206e6f60008201527f6e6578697374656e7420746f6b656e0000000000000000000000000000000000602082015250565b7f7b00000000000000000000000000000000000000000000000000000000000000600082015250565b7f4552433732313a20617070726f76616c20746f2063757272656e74206f776e6560008201527f7200000000000000000000000000000000000000000000000000000000000000602082015250565b7f646174613a6170706c69636174696f6e2f6a736f6e3b6261736536342c000000600082015250565b7f4552433732313a207472616e736665722063616c6c6572206973206e6f74206f60008201527f776e6572206e6f7220617070726f766564000000000000000000000000000000602082015250565b7f416464726573733a2063616c6c20746f206e6f6e2d636f6e7472616374000000600082015250565b7f496d61676520616c726561647920657869737473000000000000000000000000600082015250565b7f496e76616c69642070726f6f6600000000000000000000000000000000000000600082015250565b7f222c202265787465726e616c5f75726c223a202268747470733a2f2f7a6b506860008201527f6f746f2e6f6e6522000000000000000000000000000000000000000000000000602082015250565b614a3a816140df565b8114614a4557600080fd5b50565b614a5181614103565b8114614a5c57600080fd5b50565b614a688161410f565b8114614a7357600080fd5b50565b614a7f8161415b565b8114614a8a57600080fd5b5056fe4552433732313a207472616e7366657220746f206e6f6e20455243373231526563656976657220696d706c656d656e7465724552433732313a206f776e657220717565727920666f72206e6f6e6578697374656e7420746f6b656e4142434445464748494a4b4c4d4e4f505152535455565758595a6162636465666768696a6b6c6d6e6f707172737475767778797a303132333435363738392b2fa2646970667358221220e7d56da70fbf834b262576d9e0bacef9bbe463082a87915794424ed1252ebaca64736f6c63430008040033",
  "linkReferences": {},
  "deployedLinkReferences": {}
}