{
  "_format": "hh-sol-artifact-1",
  "contractName": "zkWitches",
  "sourceName": "contracts/zkWitches.sol",
  "abi": [
    {
      "inputs": [
        {
          "internalType": "address",
          "name": "hc_verifier",
          "type": "address"
        },
        {
          "internalType": "address",
          "name": "vm_verifier",
          "type": "address"
        },
        {
          "internalType": "address",
          "name": "nw_verifier",
          "type": "address"
        }
      ],
      "stateMutability": "nonpayable",
      "type": "constructor"
    },
    {
      "inputs": [
        {
          "internalType": "uint256",
          "name": "actionType",
          "type": "uint256"
        },
        {
          "internalType": "uint256",
          "name": "actionTarget",
          "type": "uint256"
        },
        {
          "internalType": "uint256",
          "name": "witchType",
          "type": "uint256"
        }
      ],
      "name": "ActionNoProof",
      "outputs": [],
      "stateMutability": "nonpayable",
      "type": "function"
    },
    {
      "inputs": [
        {
          "internalType": "uint256",
          "name": "actionTarget",
          "type": "uint256"
        },
        {
          "internalType": "uint256",
          "name": "witchType",
          "type": "uint256"
        },
        {
          "internalType": "uint256[2]",
          "name": "a",
          "type": "uint256[2]"
        },
        {
          "internalType": "uint256[2][2]",
          "name": "b",
          "type": "uint256[2][2]"
        },
        {
          "internalType": "uint256[2]",
          "name": "c",
          "type": "uint256[2]"
        },
        {
          "internalType": "uint256[7]",
          "name": "input",
          "type": "uint256[7]"
        }
      ],
      "name": "ActionWithProof",
      "outputs": [],
      "stateMutability": "nonpayable",
      "type": "function"
    },
    {
      "inputs": [],
      "name": "DEBUG_Reset",
      "outputs": [],
      "stateMutability": "nonpayable",
      "type": "function"
    },
    {
      "inputs": [
        {
          "components": [
            {
              "components": [
                {
                  "internalType": "int8",
                  "name": "stateEnum",
                  "type": "int8"
                },
                {
                  "internalType": "int8",
                  "name": "playerSlotWaiting",
                  "type": "int8"
                },
                {
                  "internalType": "int8",
                  "name": "currentNumberOfPlayers",
                  "type": "int8"
                },
                {
                  "internalType": "int8",
                  "name": "playerAccusing",
                  "type": "int8"
                },
                {
                  "internalType": "int8",
                  "name": "accusationWitchType",
                  "type": "int8"
                },
                {
                  "internalType": "uint256",
                  "name": "previous_action_game_block",
                  "type": "uint256"
                },
                {
                  "internalType": "uint256",
                  "name": "current_block",
                  "type": "uint256"
                },
                {
                  "internalType": "uint256",
                  "name": "current_sequence_number",
                  "type": "uint256"
                }
              ],
              "internalType": "struct zkWitches.SharedState",
              "name": "shared",
              "type": "tuple"
            },
            {
              "internalType": "address",
              "name": "address0",
              "type": "address"
            },
            {
              "internalType": "address",
              "name": "address1",
              "type": "address"
            },
            {
              "internalType": "address",
              "name": "address2",
              "type": "address"
            },
            {
              "internalType": "address",
              "name": "address3",
              "type": "address"
            },
            {
              "components": [
                {
                  "internalType": "bool",
                  "name": "isAlive",
                  "type": "bool"
                },
                {
                  "internalType": "uint256",
                  "name": "handCommitment",
                  "type": "uint256"
                },
                {
                  "internalType": "int8",
                  "name": "food",
                  "type": "int8"
                },
                {
                  "internalType": "int8",
                  "name": "lumber",
                  "type": "int8"
                },
                {
                  "internalType": "int8",
                  "name": "WitchAlive0",
                  "type": "int8"
                },
                {
                  "internalType": "int8",
                  "name": "WitchAlive1",
                  "type": "int8"
                },
                {
                  "internalType": "int8",
                  "name": "WitchAlive2",
                  "type": "int8"
                },
                {
                  "internalType": "int8",
                  "name": "WitchAlive3",
                  "type": "int8"
                }
              ],
              "internalType": "struct zkWitches.PlayerState",
              "name": "player0",
              "type": "tuple"
            },
            {
              "components": [
                {
                  "internalType": "bool",
                  "name": "isAlive",
                  "type": "bool"
                },
                {
                  "internalType": "uint256",
                  "name": "handCommitment",
                  "type": "uint256"
                },
                {
                  "internalType": "int8",
                  "name": "food",
                  "type": "int8"
                },
                {
                  "internalType": "int8",
                  "name": "lumber",
                  "type": "int8"
                },
                {
                  "internalType": "int8",
                  "name": "WitchAlive0",
                  "type": "int8"
                },
                {
                  "internalType": "int8",
                  "name": "WitchAlive1",
                  "type": "int8"
                },
                {
                  "internalType": "int8",
                  "name": "WitchAlive2",
                  "type": "int8"
                },
                {
                  "internalType": "int8",
                  "name": "WitchAlive3",
                  "type": "int8"
                }
              ],
              "internalType": "struct zkWitches.PlayerState",
              "name": "player1",
              "type": "tuple"
            },
            {
              "components": [
                {
                  "internalType": "bool",
                  "name": "isAlive",
                  "type": "bool"
                },
                {
                  "internalType": "uint256",
                  "name": "handCommitment",
                  "type": "uint256"
                },
                {
                  "internalType": "int8",
                  "name": "food",
                  "type": "int8"
                },
                {
                  "internalType": "int8",
                  "name": "lumber",
                  "type": "int8"
                },
                {
                  "internalType": "int8",
                  "name": "WitchAlive0",
                  "type": "int8"
                },
                {
                  "internalType": "int8",
                  "name": "WitchAlive1",
                  "type": "int8"
                },
                {
                  "internalType": "int8",
                  "name": "WitchAlive2",
                  "type": "int8"
                },
                {
                  "internalType": "int8",
                  "name": "WitchAlive3",
                  "type": "int8"
                }
              ],
              "internalType": "struct zkWitches.PlayerState",
              "name": "player2",
              "type": "tuple"
            },
            {
              "components": [
                {
                  "internalType": "bool",
                  "name": "isAlive",
                  "type": "bool"
                },
                {
                  "internalType": "uint256",
                  "name": "handCommitment",
                  "type": "uint256"
                },
                {
                  "internalType": "int8",
                  "name": "food",
                  "type": "int8"
                },
                {
                  "internalType": "int8",
                  "name": "lumber",
                  "type": "int8"
                },
                {
                  "internalType": "int8",
                  "name": "WitchAlive0",
                  "type": "int8"
                },
                {
                  "internalType": "int8",
                  "name": "WitchAlive1",
                  "type": "int8"
                },
                {
                  "internalType": "int8",
                  "name": "WitchAlive2",
                  "type": "int8"
                },
                {
                  "internalType": "int8",
                  "name": "WitchAlive3",
                  "type": "int8"
                }
              ],
              "internalType": "struct zkWitches.PlayerState",
              "name": "player3",
              "type": "tuple"
            }
          ],
          "internalType": "struct zkWitches.TotalGameState",
          "name": "inputTgs",
          "type": "tuple"
        }
      ],
      "name": "DEBUG_SetGameState",
      "outputs": [],
      "stateMutability": "nonpayable",
      "type": "function"
    },
    {
      "inputs": [],
      "name": "GetTGS",
      "outputs": [
        {
          "components": [
            {
              "components": [
                {
                  "internalType": "int8",
                  "name": "stateEnum",
                  "type": "int8"
                },
                {
                  "internalType": "int8",
                  "name": "playerSlotWaiting",
                  "type": "int8"
                },
                {
                  "internalType": "int8",
                  "name": "currentNumberOfPlayers",
                  "type": "int8"
                },
                {
                  "internalType": "int8",
                  "name": "playerAccusing",
                  "type": "int8"
                },
                {
                  "internalType": "int8",
                  "name": "accusationWitchType",
                  "type": "int8"
                },
                {
                  "internalType": "uint256",
                  "name": "previous_action_game_block",
                  "type": "uint256"
                },
                {
                  "internalType": "uint256",
                  "name": "current_block",
                  "type": "uint256"
                },
                {
                  "internalType": "uint256",
                  "name": "current_sequence_number",
                  "type": "uint256"
                }
              ],
              "internalType": "struct zkWitches.SharedState",
              "name": "shared",
              "type": "tuple"
            },
            {
              "internalType": "address",
              "name": "address0",
              "type": "address"
            },
            {
              "internalType": "address",
              "name": "address1",
              "type": "address"
            },
            {
              "internalType": "address",
              "name": "address2",
              "type": "address"
            },
            {
              "internalType": "address",
              "name": "address3",
              "type": "address"
            },
            {
              "components": [
                {
                  "internalType": "bool",
                  "name": "isAlive",
                  "type": "bool"
                },
                {
                  "internalType": "uint256",
                  "name": "handCommitment",
                  "type": "uint256"
                },
                {
                  "internalType": "int8",
                  "name": "food",
                  "type": "int8"
                },
                {
                  "internalType": "int8",
                  "name": "lumber",
                  "type": "int8"
                },
                {
                  "internalType": "int8",
                  "name": "WitchAlive0",
                  "type": "int8"
                },
                {
                  "internalType": "int8",
                  "name": "WitchAlive1",
                  "type": "int8"
                },
                {
                  "internalType": "int8",
                  "name": "WitchAlive2",
                  "type": "int8"
                },
                {
                  "internalType": "int8",
                  "name": "WitchAlive3",
                  "type": "int8"
                }
              ],
              "internalType": "struct zkWitches.PlayerState",
              "name": "player0",
              "type": "tuple"
            },
            {
              "components": [
                {
                  "internalType": "bool",
                  "name": "isAlive",
                  "type": "bool"
                },
                {
                  "internalType": "uint256",
                  "name": "handCommitment",
                  "type": "uint256"
                },
                {
                  "internalType": "int8",
                  "name": "food",
                  "type": "int8"
                },
                {
                  "internalType": "int8",
                  "name": "lumber",
                  "type": "int8"
                },
                {
                  "internalType": "int8",
                  "name": "WitchAlive0",
                  "type": "int8"
                },
                {
                  "internalType": "int8",
                  "name": "WitchAlive1",
                  "type": "int8"
                },
                {
                  "internalType": "int8",
                  "name": "WitchAlive2",
                  "type": "int8"
                },
                {
                  "internalType": "int8",
                  "name": "WitchAlive3",
                  "type": "int8"
                }
              ],
              "internalType": "struct zkWitches.PlayerState",
              "name": "player1",
              "type": "tuple"
            },
            {
              "components": [
                {
                  "internalType": "bool",
                  "name": "isAlive",
                  "type": "bool"
                },
                {
                  "internalType": "uint256",
                  "name": "handCommitment",
                  "type": "uint256"
                },
                {
                  "internalType": "int8",
                  "name": "food",
                  "type": "int8"
                },
                {
                  "internalType": "int8",
                  "name": "lumber",
                  "type": "int8"
                },
                {
                  "internalType": "int8",
                  "name": "WitchAlive0",
                  "type": "int8"
                },
                {
                  "internalType": "int8",
                  "name": "WitchAlive1",
                  "type": "int8"
                },
                {
                  "internalType": "int8",
                  "name": "WitchAlive2",
                  "type": "int8"
                },
                {
                  "internalType": "int8",
                  "name": "WitchAlive3",
                  "type": "int8"
                }
              ],
              "internalType": "struct zkWitches.PlayerState",
              "name": "player2",
              "type": "tuple"
            },
            {
              "components": [
                {
                  "internalType": "bool",
                  "name": "isAlive",
                  "type": "bool"
                },
                {
                  "internalType": "uint256",
                  "name": "handCommitment",
                  "type": "uint256"
                },
                {
                  "internalType": "int8",
                  "name": "food",
                  "type": "int8"
                },
                {
                  "internalType": "int8",
                  "name": "lumber",
                  "type": "int8"
                },
                {
                  "internalType": "int8",
                  "name": "WitchAlive0",
                  "type": "int8"
                },
                {
                  "internalType": "int8",
                  "name": "WitchAlive1",
                  "type": "int8"
                },
                {
                  "internalType": "int8",
                  "name": "WitchAlive2",
                  "type": "int8"
                },
                {
                  "internalType": "int8",
                  "name": "WitchAlive3",
                  "type": "int8"
                }
              ],
              "internalType": "struct zkWitches.PlayerState",
              "name": "player3",
              "type": "tuple"
            }
          ],
          "internalType": "struct zkWitches.TotalGameState",
          "name": "",
          "type": "tuple"
        }
      ],
      "stateMutability": "view",
      "type": "function"
    },
    {
      "inputs": [
        {
          "internalType": "uint256[2]",
          "name": "a",
          "type": "uint256[2]"
        },
        {
          "internalType": "uint256[2][2]",
          "name": "b",
          "type": "uint256[2][2]"
        },
        {
          "internalType": "uint256[2]",
          "name": "c",
          "type": "uint256[2]"
        },
        {
          "internalType": "uint256[1]",
          "name": "input",
          "type": "uint256[1]"
        }
      ],
      "name": "JoinGame",
      "outputs": [],
      "stateMutability": "nonpayable",
      "type": "function"
    },
    {
      "inputs": [],
      "name": "KickCurrentPlayer",
      "outputs": [],
      "stateMutability": "nonpayable",
      "type": "function"
    },
    {
      "inputs": [
        {
          "internalType": "uint256[2]",
          "name": "a",
          "type": "uint256[2]"
        },
        {
          "internalType": "uint256[2][2]",
          "name": "b",
          "type": "uint256[2][2]"
        },
        {
          "internalType": "uint256[2]",
          "name": "c",
          "type": "uint256[2]"
        },
        {
          "internalType": "uint256[6]",
          "name": "input",
          "type": "uint256[6]"
        }
      ],
      "name": "RespondAccusation_NoWitch",
      "outputs": [],
      "stateMutability": "nonpayable",
      "type": "function"
    },
    {
      "inputs": [],
      "name": "RespondAccusation_YesWitch",
      "outputs": [],
      "stateMutability": "nonpayable",
      "type": "function"
    },
    {
      "inputs": [],
      "name": "Surrender",
      "outputs": [],
      "stateMutability": "nonpayable",
      "type": "function"
    },
    {
      "inputs": [
        {
          "internalType": "int8",
          "name": "slot",
          "type": "int8"
        }
      ],
      "name": "getPlayer",
      "outputs": [
        {
          "components": [
            {
              "internalType": "bool",
              "name": "isAlive",
              "type": "bool"
            },
            {
              "internalType": "uint256",
              "name": "handCommitment",
              "type": "uint256"
            },
            {
              "internalType": "int8",
              "name": "food",
              "type": "int8"
            },
            {
              "internalType": "int8",
              "name": "lumber",
              "type": "int8"
            },
            {
              "internalType": "int8",
              "name": "WitchAlive0",
              "type": "int8"
            },
            {
              "internalType": "int8",
              "name": "WitchAlive1",
              "type": "int8"
            },
            {
              "internalType": "int8",
              "name": "WitchAlive2",
              "type": "int8"
            },
            {
              "internalType": "int8",
              "name": "WitchAlive3",
              "type": "int8"
            }
          ],
          "internalType": "struct zkWitches.PlayerState",
          "name": "",
          "type": "tuple"
        }
      ],
      "stateMutability": "view",
      "type": "function"
    },
    {
      "inputs": [
        {
          "internalType": "int8",
          "name": "slot",
          "type": "int8"
        }
      ],
      "name": "getPlayerAddress",
      "outputs": [
        {
          "internalType": "address",
          "name": "",
          "type": "address"
        }
      ],
      "stateMutability": "view",
      "type": "function"
    },
    {
      "inputs": [
        {
          "components": [
            {
              "internalType": "bool",
              "name": "isAlive",
              "type": "bool"
            },
            {
              "internalType": "uint256",
              "name": "handCommitment",
              "type": "uint256"
            },
            {
              "internalType": "int8",
              "name": "food",
              "type": "int8"
            },
            {
              "internalType": "int8",
              "name": "lumber",
              "type": "int8"
            },
            {
              "internalType": "int8",
              "name": "WitchAlive0",
              "type": "int8"
            },
            {
              "internalType": "int8",
              "name": "WitchAlive1",
              "type": "int8"
            },
            {
              "internalType": "int8",
              "name": "WitchAlive2",
              "type": "int8"
            },
            {
              "internalType": "int8",
              "name": "WitchAlive3",
              "type": "int8"
            }
          ],
          "internalType": "struct zkWitches.PlayerState",
          "name": "inputPlayer",
          "type": "tuple"
        },
        {
          "internalType": "int8",
          "name": "witchType",
          "type": "int8"
        }
      ],
      "name": "getWitchAlive",
      "outputs": [
        {
          "internalType": "int8",
          "name": "",
          "type": "int8"
        }
      ],
      "stateMutability": "view",
      "type": "function"
    },
    {
      "inputs": [],
      "name": "hc_verifierAddr",
      "outputs": [
        {
          "internalType": "address",
          "name": "",
          "type": "address"
        }
      ],
      "stateMutability": "view",
      "type": "function"
    },
    {
      "inputs": [],
      "name": "nw_verifierAddr",
      "outputs": [
        {
          "internalType": "address",
          "name": "",
          "type": "address"
        }
      ],
      "stateMutability": "view",
      "type": "function"
    },
    {
      "inputs": [
        {
          "internalType": "address",
          "name": "a",
          "type": "address"
        }
      ],
      "name": "slotByAddress",
      "outputs": [
        {
          "internalType": "int8",
          "name": "",
          "type": "int8"
        }
      ],
      "stateMutability": "view",
      "type": "function"
    },
    {
      "inputs": [],
      "name": "tgs",
      "outputs": [
        {
          "components": [
            {
              "internalType": "int8",
              "name": "stateEnum",
              "type": "int8"
            },
            {
              "internalType": "int8",
              "name": "playerSlotWaiting",
              "type": "int8"
            },
            {
              "internalType": "int8",
              "name": "currentNumberOfPlayers",
              "type": "int8"
            },
            {
              "internalType": "int8",
              "name": "playerAccusing",
              "type": "int8"
            },
            {
              "internalType": "int8",
              "name": "accusationWitchType",
              "type": "int8"
            },
            {
              "internalType": "uint256",
              "name": "previous_action_game_block",
              "type": "uint256"
            },
            {
              "internalType": "uint256",
              "name": "current_block",
              "type": "uint256"
            },
            {
              "internalType": "uint256",
              "name": "current_sequence_number",
              "type": "uint256"
            }
          ],
          "internalType": "struct zkWitches.SharedState",
          "name": "shared",
          "type": "tuple"
        },
        {
          "internalType": "address",
          "name": "address0",
          "type": "address"
        },
        {
          "internalType": "address",
          "name": "address1",
          "type": "address"
        },
        {
          "internalType": "address",
          "name": "address2",
          "type": "address"
        },
        {
          "internalType": "address",
          "name": "address3",
          "type": "address"
        },
        {
          "components": [
            {
              "internalType": "bool",
              "name": "isAlive",
              "type": "bool"
            },
            {
              "internalType": "uint256",
              "name": "handCommitment",
              "type": "uint256"
            },
            {
              "internalType": "int8",
              "name": "food",
              "type": "int8"
            },
            {
              "internalType": "int8",
              "name": "lumber",
              "type": "int8"
            },
            {
              "internalType": "int8",
              "name": "WitchAlive0",
              "type": "int8"
            },
            {
              "internalType": "int8",
              "name": "WitchAlive1",
              "type": "int8"
            },
            {
              "internalType": "int8",
              "name": "WitchAlive2",
              "type": "int8"
            },
            {
              "internalType": "int8",
              "name": "WitchAlive3",
              "type": "int8"
            }
          ],
          "internalType": "struct zkWitches.PlayerState",
          "name": "player0",
          "type": "tuple"
        },
        {
          "components": [
            {
              "internalType": "bool",
              "name": "isAlive",
              "type": "bool"
            },
            {
              "internalType": "uint256",
              "name": "handCommitment",
              "type": "uint256"
            },
            {
              "internalType": "int8",
              "name": "food",
              "type": "int8"
            },
            {
              "internalType": "int8",
              "name": "lumber",
              "type": "int8"
            },
            {
              "internalType": "int8",
              "name": "WitchAlive0",
              "type": "int8"
            },
            {
              "internalType": "int8",
              "name": "WitchAlive1",
              "type": "int8"
            },
            {
              "internalType": "int8",
              "name": "WitchAlive2",
              "type": "int8"
            },
            {
              "internalType": "int8",
              "name": "WitchAlive3",
              "type": "int8"
            }
          ],
          "internalType": "struct zkWitches.PlayerState",
          "name": "player1",
          "type": "tuple"
        },
        {
          "components": [
            {
              "internalType": "bool",
              "name": "isAlive",
              "type": "bool"
            },
            {
              "internalType": "uint256",
              "name": "handCommitment",
              "type": "uint256"
            },
            {
              "internalType": "int8",
              "name": "food",
              "type": "int8"
            },
            {
              "internalType": "int8",
              "name": "lumber",
              "type": "int8"
            },
            {
              "internalType": "int8",
              "name": "WitchAlive0",
              "type": "int8"
            },
            {
              "internalType": "int8",
              "name": "WitchAlive1",
              "type": "int8"
            },
            {
              "internalType": "int8",
              "name": "WitchAlive2",
              "type": "int8"
            },
            {
              "internalType": "int8",
              "name": "WitchAlive3",
              "type": "int8"
            }
          ],
          "internalType": "struct zkWitches.PlayerState",
          "name": "player2",
          "type": "tuple"
        },
        {
          "components": [
            {
              "internalType": "bool",
              "name": "isAlive",
              "type": "bool"
            },
            {
              "internalType": "uint256",
              "name": "handCommitment",
              "type": "uint256"
            },
            {
              "internalType": "int8",
              "name": "food",
              "type": "int8"
            },
            {
              "internalType": "int8",
              "name": "lumber",
              "type": "int8"
            },
            {
              "internalType": "int8",
              "name": "WitchAlive0",
              "type": "int8"
            },
            {
              "internalType": "int8",
              "name": "WitchAlive1",
              "type": "int8"
            },
            {
              "internalType": "int8",
              "name": "WitchAlive2",
              "type": "int8"
            },
            {
              "internalType": "int8",
              "name": "WitchAlive3",
              "type": "int8"
            }
          ],
          "internalType": "struct zkWitches.PlayerState",
          "name": "player3",
          "type": "tuple"
        }
      ],
      "stateMutability": "view",
      "type": "function"
    },
    {
      "inputs": [],
      "name": "vm_verifierAddr",
      "outputs": [
        {
          "internalType": "address",
          "name": "",
          "type": "address"
        }
      ],
      "stateMutability": "view",
      "type": "function"
    }
  ],
  "bytecode": "0x60806040523480156200001157600080fd5b5060405162006d6e38038062006d6e833981810160405281019062000037919062000981565b82601460006101000a81548173ffffffffffffffffffffffffffffffffffffffff021916908373ffffffffffffffffffffffffffffffffffffffff16021790555081601560006101000a81548173ffffffffffffffffffffffffffffffffffffffff021916908373ffffffffffffffffffffffffffffffffffffffff16021790555080601660006101000a81548173ffffffffffffffffffffffffffffffffffffffff021916908373ffffffffffffffffffffffffffffffffffffffff1602179055506200010a6200011360201b60201c565b50505062000a25565b6040518061012001604052806040518061010001604052806000800b81526020016000800b81526020016000800b81526020016000800b81526020016000800b8152602001600081526020016000815260200160008152508152602001600073ffffffffffffffffffffffffffffffffffffffff168152602001600073ffffffffffffffffffffffffffffffffffffffff168152602001600073ffffffffffffffffffffffffffffffffffffffff168152602001600073ffffffffffffffffffffffffffffffffffffffff168152602001604051806101000160405280600015158152602001600081526020016000800b81526020016000800b81526020016000800b81526020016000800b81526020016000800b81526020016000800b8152508152602001604051806101000160405280600015158152602001600081526020016000800b81526020016000800b81526020016000800b81526020016000800b81526020016000800b81526020016000800b8152508152602001604051806101000160405280600015158152602001600081526020016000800b81526020016000800b81526020016000800b81526020016000800b81526020016000800b81526020016000800b8152508152602001604051806101000160405280600015158152602001600081526020016000800b81526020016000800b81526020016000800b81526020016000800b81526020016000800b81526020016000800b8152508152506000808201518160000160008201518160000160006101000a81548160ff021916908360000b60ff16021790555060208201518160000160016101000a81548160ff021916908360000b60ff16021790555060408201518160000160026101000a81548160ff021916908360000b60ff16021790555060608201518160000160036101000a81548160ff021916908360000b60ff16021790555060808201518160000160046101000a81548160ff021916908360000b60ff16021790555060a0820151816001015560c0820151816002015560e08201518160030155505060208201518160040160006101000a81548173ffffffffffffffffffffffffffffffffffffffff021916908373ffffffffffffffffffffffffffffffffffffffff16021790555060408201518160050160006101000a81548173ffffffffffffffffffffffffffffffffffffffff021916908373ffffffffffffffffffffffffffffffffffffffff16021790555060608201518160060160006101000a81548173ffffffffffffffffffffffffffffffffffffffff021916908373ffffffffffffffffffffffffffffffffffffffff16021790555060808201518160070160006101000a81548173ffffffffffffffffffffffffffffffffffffffff021916908373ffffffffffffffffffffffffffffffffffffffff16021790555060a08201518160080160008201518160000160006101000a81548160ff0219169083151502179055506020820151816001015560408201518160020160006101000a81548160ff021916908360000b60ff16021790555060608201518160020160016101000a81548160ff021916908360000b60ff16021790555060808201518160020160026101000a81548160ff021916908360000b60ff16021790555060a08201518160020160036101000a81548160ff021916908360000b60ff16021790555060c08201518160020160046101000a81548160ff021916908360000b60ff16021790555060e08201518160020160056101000a81548160ff021916908360000b60ff160217905550505060c082015181600b0160008201518160000160006101000a81548160ff0219169083151502179055506020820151816001015560408201518160020160006101000a81548160ff021916908360000b60ff16021790555060608201518160020160016101000a81548160ff021916908360000b60ff16021790555060808201518160020160026101000a81548160ff021916908360000b60ff16021790555060a08201518160020160036101000a81548160ff021916908360000b60ff16021790555060c08201518160020160046101000a81548160ff021916908360000b60ff16021790555060e08201518160020160056101000a81548160ff021916908360000b60ff160217905550505060e082015181600e0160008201518160000160006101000a81548160ff0219169083151502179055506020820151816001015560408201518160020160006101000a81548160ff021916908360000b60ff16021790555060608201518160020160016101000a81548160ff021916908360000b60ff16021790555060808201518160020160026101000a81548160ff021916908360000b60ff16021790555060a08201518160020160036101000a81548160ff021916908360000b60ff16021790555060c08201518160020160046101000a81548160ff021916908360000b60ff16021790555060e08201518160020160056101000a81548160ff021916908360000b60ff16021790555050506101008201518160110160008201518160000160006101000a81548160ff0219169083151502179055506020820151816001015560408201518160020160006101000a81548160ff021916908360000b60ff16021790555060608201518160020160016101000a81548160ff021916908360000b60ff16021790555060808201518160020160026101000a81548160ff021916908360000b60ff16021790555060a08201518160020160036101000a81548160ff021916908360000b60ff16021790555060c08201518160020160046101000a81548160ff021916908360000b60ff16021790555060e08201518160020160056101000a81548160ff021916908360000b60ff1602179055505050905050565b6000815190506200097b8162000a0b565b92915050565b6000806000606084860312156200099757600080fd5b6000620009a7868287016200096a565b9350506020620009ba868287016200096a565b9250506040620009cd868287016200096a565b9150509250925092565b6000620009e482620009eb565b9050919050565b600073ffffffffffffffffffffffffffffffffffffffff82169050919050565b62000a1681620009d7565b811462000a2257600080fd5b50565b6163398062000a356000396000f3fe608060405234801561001057600080fd5b50600436106101165760003560e01c80637438e6cd116100a25780639ac8736e116100715780639ac8736e14610281578063c6cfc9c5146102b1578063ca9e7f32146102cd578063d8de5d21146102f3578063f5e44b361461031157610116565b80637438e6cd146101fb5780637cf1d4e81461022b578063834f98931461023557806390ea24351461025157610116565b80633259e60f116100e95780633259e60f146101695780634c9063cb14610173578063500dfd161461018f57806357cf2467146101bf5780635a5afe0d146101dd57610116565b8063209f06121461011b578063236fc9161461012557806323918059146101435780633168748b1461015f575b600080fd5b61012361032d565b005b61012d6103b7565b60405161013a9190615612565b60405180910390f35b61015d60048036038101906101589190614c38565b6103dd565b005b610167610967565b005b6101716109a0565b005b61018d60048036038101906101889190614ab4565b610a2a565b005b6101a960048036038101906101a49190614bd0565b610cfc565b6040516101b69190615702565b60405180910390f35b6101c7610d99565b6040516101d49190615612565b60405180910390f35b6101e5610dbf565b6040516101f29190615aad565b60405180910390f35b61021560048036038101906102109190614ba7565b611396565b6040516102229190615612565b60405180910390f35b6102336114de565b005b61024f600480360381019061024a9190614b19565b611d35565b005b61026b60048036038101906102669190614ba7565b6122cf565b60405161027891906159fd565b60405180910390f35b61029b60048036038101906102969190614a8b565b6127d4565b6040516102a89190615702565b60405180910390f35b6102cb60048036038101906102c69190614cc4565b612867565b005b6102d56129b1565b6040516102ea99989796959493929190615a19565b60405180910390f35b6102fb612e9f565b6040516103089190615612565b60405180910390f35b61032b60048036038101906103269190614c0e565b612ec5565b005b7fffffffffffffffffffffffffffffffffffffffffffffffffffffffffffffffff60000b61035a336127d4565b60000b141561039e576040517f08c379a0000000000000000000000000000000000000000000000000000000008152600401610395906159dd565b60405180910390fd5b60006103a9336127d4565b90506103b481613866565b50565b601560009054906101000a900473ffffffffffffffffffffffffffffffffffffffff1681565b7fffffffffffffffffffffffffffffffffffffffffffffffffffffffffffffffff60000b61040a336127d4565b60000b141561044e576040517f08c379a0000000000000000000000000000000000000000000000000000000008152600401610445906159dd565b60405180910390fd5b6000610459336127d4565b9050600160000b6000800160000160009054906101000a900460000b60000b146104b8576040517f08c379a00000000000000000000000000000000000000000000000000000000081526004016104af9061597d565b60405180910390fd5b8060000b6000800160000160019054906101000a900460000b60000b14610514576040517f08c379a000000000000000000000000000000000000000000000000000000000815260040161050b9061585d565b60405180910390fd5b600061051f826122cf565b90508260006007811061055b577f4e487b7100000000000000000000000000000000000000000000000000000000600052603260045260246000fd5b60200201518160200151146105a5576040517f08c379a000000000000000000000000000000000000000000000000000000000815260040161059c9061599d565b60405180910390fd5b826001600781106105df577f4e487b7100000000000000000000000000000000000000000000000000000000600052603260045260246000fd5b602002015160000b6105f2826000610cfc565b60000b14610635576040517f08c379a000000000000000000000000000000000000000000000000000000000815260040161062c906158dd565b60405180910390fd5b8260026007811061066f577f4e487b7100000000000000000000000000000000000000000000000000000000600052603260045260246000fd5b602002015160000b610682826001610cfc565b60000b146106c5576040517f08c379a00000000000000000000000000000000000000000000000000000000081526004016106bc9061573d565b60405180910390fd5b826003600781106106ff577f4e487b7100000000000000000000000000000000000000000000000000000000600052603260045260246000fd5b602002015160000b610712826002610cfc565b60000b14610755576040517f08c379a000000000000000000000000000000000000000000000000000000000815260040161074c9061579d565b60405180910390fd5b8260046007811061078f577f4e487b7100000000000000000000000000000000000000000000000000000000600052603260045260246000fd5b602002015160000b6107a2826003610cfc565b60000b146107e5576040517f08c379a00000000000000000000000000000000000000000000000000000000081526004016107dc906159bd565b60405180910390fd5b601560009054906101000a900473ffffffffffffffffffffffffffffffffffffffff1673ffffffffffffffffffffffffffffffffffffffff1663c894e757878787876040518563ffffffff1660e01b815260040161084694939291906156bb565b60206040518083038186803b15801561085e57600080fd5b505afa158015610872573d6000803e3d6000fd5b505050506040513d601f19601f820116820180604052508101906108969190614b7e565b6108d5576040517f08c379a00000000000000000000000000000000000000000000000000000000081526004016108cc906157bd565b60405180910390fd5b61095d83600560078110610912577f4e487b7100000000000000000000000000000000000000000000000000000000600052603260045260246000fd5b60200201518985600660078110610952577f4e487b7100000000000000000000000000000000000000000000000000000000600052603260045260246000fd5b60200201518a613922565b5050505050505050565b60007fffffffffffffffffffffffffffffffffffffffffffffffffffffffffffffffff905060001561099d5761099c81613bb5565b5b50565b7fffffffffffffffffffffffffffffffffffffffffffffffffffffffffffffffff60000b6109cd336127d4565b60000b1415610a11576040517f08c379a0000000000000000000000000000000000000000000000000000000008152600401610a08906159dd565b60405180910390fd5b6000610a1c336127d4565b9050610a2781613bb5565b50565b7fffffffffffffffffffffffffffffffffffffffffffffffffffffffffffffffff60000b610a57336127d4565b60000b14610a9a576040517f08c379a0000000000000000000000000000000000000000000000000000000008152600401610a919061591d565b60405180910390fd5b6000800b6000800160000160009054906101000a900460000b60000b14610af6576040517f08c379a0000000000000000000000000000000000000000000000000000000008152600401610aed906157fd565b60405180910390fd5b601460009054906101000a900473ffffffffffffffffffffffffffffffffffffffff1673ffffffffffffffffffffffffffffffffffffffff166343753b4d858585856040518563ffffffff1660e01b8152600401610b57949392919061562d565b60206040518083038186803b158015610b6f57600080fd5b505afa158015610b83573d6000803e3d6000fd5b505050506040513d601f19601f82011682018060405250810190610ba79190614b7e565b610be6576040517f08c379a0000000000000000000000000000000000000000000000000000000008152600401610bdd9061595d565b60405180910390fd5b60008001600001600281819054906101000a900460000b80929190610c0a90615da4565b91906101000a81548160ff021916908360000b60ff16021790555050600060016000800160000160029054906101000a900460000b610c499190615ca9565b9050610c558133613d5f565b600060405180610100016040528060011515815260200184600060018110610ca6577f4e487b7100000000000000000000000000000000000000000000000000000000600052603260045260246000fd5b602002015181526020016000800b81526020016000800b8152602001600160000b8152602001600160000b8152602001600160000b8152602001600160000b8152509050610cf48282613ef0565b505050505050565b6000808260000b1415610d155782608001519050610d93565b60018260000b1415610d2d578260a001519050610d93565b60028260000b1415610d45578260c001519050610d93565b60038260000b1415610d5d578260e001519050610d93565b6000610d92577f4e487b7100000000000000000000000000000000000000000000000000000000600052600160045260246000fd5b5b92915050565b601460009054906101000a900473ffffffffffffffffffffffffffffffffffffffff1681565b610dc761439d565b60006040518061012001604052908160008201604051806101000160405290816000820160009054906101000a900460000b60000b60000b81526020016000820160019054906101000a900460000b60000b60000b81526020016000820160029054906101000a900460000b60000b60000b81526020016000820160039054906101000a900460000b60000b60000b81526020016000820160049054906101000a900460000b60000b60000b8152602001600182015481526020016002820154815260200160038201548152505081526020016004820160009054906101000a900473ffffffffffffffffffffffffffffffffffffffff1673ffffffffffffffffffffffffffffffffffffffff1673ffffffffffffffffffffffffffffffffffffffff1681526020016005820160009054906101000a900473ffffffffffffffffffffffffffffffffffffffff1673ffffffffffffffffffffffffffffffffffffffff1673ffffffffffffffffffffffffffffffffffffffff1681526020016006820160009054906101000a900473ffffffffffffffffffffffffffffffffffffffff1673ffffffffffffffffffffffffffffffffffffffff1673ffffffffffffffffffffffffffffffffffffffff1681526020016007820160009054906101000a900473ffffffffffffffffffffffffffffffffffffffff1673ffffffffffffffffffffffffffffffffffffffff1673ffffffffffffffffffffffffffffffffffffffff16815260200160088201604051806101000160405290816000820160009054906101000a900460ff16151515158152602001600182015481526020016002820160009054906101000a900460000b60000b60000b81526020016002820160019054906101000a900460000b60000b60000b81526020016002820160029054906101000a900460000b60000b60000b81526020016002820160039054906101000a900460000b60000b60000b81526020016002820160049054906101000a900460000b60000b60000b81526020016002820160059054906101000a900460000b60000b60000b815250508152602001600b8201604051806101000160405290816000820160009054906101000a900460ff16151515158152602001600182015481526020016002820160009054906101000a900460000b60000b60000b81526020016002820160019054906101000a900460000b60000b60000b81526020016002820160029054906101000a900460000b60000b60000b81526020016002820160039054906101000a900460000b60000b60000b81526020016002820160049054906101000a900460000b60000b60000b81526020016002820160059054906101000a900460000b60000b60000b815250508152602001600e8201604051806101000160405290816000820160009054906101000a900460ff16151515158152602001600182015481526020016002820160009054906101000a900460000b60000b60000b81526020016002820160019054906101000a900460000b60000b60000b81526020016002820160029054906101000a900460000b60000b60000b81526020016002820160039054906101000a900460000b60000b60000b81526020016002820160049054906101000a900460000b60000b60000b81526020016002820160059054906101000a900460000b60000b60000b81525050815260200160118201604051806101000160405290816000820160009054906101000a900460ff16151515158152602001600182015481526020016002820160009054906101000a900460000b60000b60000b81526020016002820160019054906101000a900460000b60000b60000b81526020016002820160029054906101000a900460000b60000b60000b81526020016002820160039054906101000a900460000b60000b60000b81526020016002820160049054906101000a900460000b60000b60000b81526020016002820160059054906101000a900460000b60000b60000b8152505081525050905090565b6000808260000b14156113d057600060040160009054906101000a900473ffffffffffffffffffffffffffffffffffffffff1690506114d9565b60018260000b141561140957600060050160009054906101000a900473ffffffffffffffffffffffffffffffffffffffff1690506114d9565b60028260000b141561144257600060060160009054906101000a900473ffffffffffffffffffffffffffffffffffffffff1690506114d9565b60038260000b141561147b57600060070160009054906101000a900473ffffffffffffffffffffffffffffffffffffffff1690506114d9565b60006114b0577f4e487b7100000000000000000000000000000000000000000000000000000000600052600160045260246000fd5b600060040160009054906101000a900473ffffffffffffffffffffffffffffffffffffffff1690505b919050565b6040518061012001604052806040518061010001604052806000800b81526020016000800b81526020016000800b81526020016000800b81526020016000800b8152602001600081526020016000815260200160008152508152602001600073ffffffffffffffffffffffffffffffffffffffff168152602001600073ffffffffffffffffffffffffffffffffffffffff168152602001600073ffffffffffffffffffffffffffffffffffffffff168152602001600073ffffffffffffffffffffffffffffffffffffffff168152602001604051806101000160405280600015158152602001600081526020016000800b81526020016000800b81526020016000800b81526020016000800b81526020016000800b81526020016000800b8152508152602001604051806101000160405280600015158152602001600081526020016000800b81526020016000800b81526020016000800b81526020016000800b81526020016000800b81526020016000800b8152508152602001604051806101000160405280600015158152602001600081526020016000800b81526020016000800b81526020016000800b81526020016000800b81526020016000800b81526020016000800b8152508152602001604051806101000160405280600015158152602001600081526020016000800b81526020016000800b81526020016000800b81526020016000800b81526020016000800b81526020016000800b8152508152506000808201518160000160008201518160000160006101000a81548160ff021916908360000b60ff16021790555060208201518160000160016101000a81548160ff021916908360000b60ff16021790555060408201518160000160026101000a81548160ff021916908360000b60ff16021790555060608201518160000160036101000a81548160ff021916908360000b60ff16021790555060808201518160000160046101000a81548160ff021916908360000b60ff16021790555060a0820151816001015560c0820151816002015560e08201518160030155505060208201518160040160006101000a81548173ffffffffffffffffffffffffffffffffffffffff021916908373ffffffffffffffffffffffffffffffffffffffff16021790555060408201518160050160006101000a81548173ffffffffffffffffffffffffffffffffffffffff021916908373ffffffffffffffffffffffffffffffffffffffff16021790555060608201518160060160006101000a81548173ffffffffffffffffffffffffffffffffffffffff021916908373ffffffffffffffffffffffffffffffffffffffff16021790555060808201518160070160006101000a81548173ffffffffffffffffffffffffffffffffffffffff021916908373ffffffffffffffffffffffffffffffffffffffff16021790555060a08201518160080160008201518160000160006101000a81548160ff0219169083151502179055506020820151816001015560408201518160020160006101000a81548160ff021916908360000b60ff16021790555060608201518160020160016101000a81548160ff021916908360000b60ff16021790555060808201518160020160026101000a81548160ff021916908360000b60ff16021790555060a08201518160020160036101000a81548160ff021916908360000b60ff16021790555060c08201518160020160046101000a81548160ff021916908360000b60ff16021790555060e08201518160020160056101000a81548160ff021916908360000b60ff160217905550505060c082015181600b0160008201518160000160006101000a81548160ff0219169083151502179055506020820151816001015560408201518160020160006101000a81548160ff021916908360000b60ff16021790555060608201518160020160016101000a81548160ff021916908360000b60ff16021790555060808201518160020160026101000a81548160ff021916908360000b60ff16021790555060a08201518160020160036101000a81548160ff021916908360000b60ff16021790555060c08201518160020160046101000a81548160ff021916908360000b60ff16021790555060e08201518160020160056101000a81548160ff021916908360000b60ff160217905550505060e082015181600e0160008201518160000160006101000a81548160ff0219169083151502179055506020820151816001015560408201518160020160006101000a81548160ff021916908360000b60ff16021790555060608201518160020160016101000a81548160ff021916908360000b60ff16021790555060808201518160020160026101000a81548160ff021916908360000b60ff16021790555060a08201518160020160036101000a81548160ff021916908360000b60ff16021790555060c08201518160020160046101000a81548160ff021916908360000b60ff16021790555060e08201518160020160056101000a81548160ff021916908360000b60ff16021790555050506101008201518160110160008201518160000160006101000a81548160ff0219169083151502179055506020820151816001015560408201518160020160006101000a81548160ff021916908360000b60ff16021790555060608201518160020160016101000a81548160ff021916908360000b60ff16021790555060808201518160020160026101000a81548160ff021916908360000b60ff16021790555060a08201518160020160036101000a81548160ff021916908360000b60ff16021790555060c08201518160020160046101000a81548160ff021916908360000b60ff16021790555060e08201518160020160056101000a81548160ff021916908360000b60ff1602179055505050905050565b7fffffffffffffffffffffffffffffffffffffffffffffffffffffffffffffffff60000b611d62336127d4565b60000b1415611da6576040517f08c379a0000000000000000000000000000000000000000000000000000000008152600401611d9d906159dd565b60405180910390fd5b6000611db1336127d4565b9050600260000b6000800160000160009054906101000a900460000b60000b14611e10576040517f08c379a0000000000000000000000000000000000000000000000000000000008152600401611e079061583d565b60405180910390fd5b8060000b6000800160000160019054906101000a900460000b60000b14611e6c576040517f08c379a0000000000000000000000000000000000000000000000000000000008152600401611e63906158fd565b60405180910390fd5b6000611e77826122cf565b905082600060068110611eb3577f4e487b7100000000000000000000000000000000000000000000000000000000600052603260045260246000fd5b6020020151816020015114611efd576040517f08c379a0000000000000000000000000000000000000000000000000000000008152600401611ef49061599d565b60405180910390fd5b82600160068110611f37577f4e487b7100000000000000000000000000000000000000000000000000000000600052603260045260246000fd5b602002015160000b611f4a826000610cfc565b60000b14611f8d576040517f08c379a0000000000000000000000000000000000000000000000000000000008152600401611f84906158dd565b60405180910390fd5b82600260068110611fc7577f4e487b7100000000000000000000000000000000000000000000000000000000600052603260045260246000fd5b602002015160000b611fda826001610cfc565b60000b1461201d576040517f08c379a00000000000000000000000000000000000000000000000000000000081526004016120149061573d565b60405180910390fd5b82600360068110612057577f4e487b7100000000000000000000000000000000000000000000000000000000600052603260045260246000fd5b602002015160000b61206a826002610cfc565b60000b146120ad576040517f08c379a00000000000000000000000000000000000000000000000000000000081526004016120a49061579d565b60405180910390fd5b826004600681106120e7577f4e487b7100000000000000000000000000000000000000000000000000000000600052603260045260246000fd5b602002015160000b6120fa826003610cfc565b60000b1461213d576040517f08c379a0000000000000000000000000000000000000000000000000000000008152600401612134906159bd565b60405180910390fd5b82600560068110612177577f4e487b7100000000000000000000000000000000000000000000000000000000600052603260045260246000fd5b602002015160000b6000800160000160049054906101000a900460000b60000b146121d7576040517f08c379a00000000000000000000000000000000000000000000000000000000081526004016121ce9061571d565b60405180910390fd5b601660009054906101000a900473ffffffffffffffffffffffffffffffffffffffff1673ffffffffffffffffffffffffffffffffffffffff1663f398789b878787876040518563ffffffff1660e01b81526004016122389493929190615674565b60206040518083038186803b15801561225057600080fd5b505afa158015612264573d6000803e3d6000fd5b505050506040513d601f19601f820116820180604052508101906122889190614b7e565b6122c7576040517f08c379a00000000000000000000000000000000000000000000000000000000081526004016122be9061593d565b60405180910390fd5b505050505050565b6122d761445f565b60008260000b14156123ce576000600801604051806101000160405290816000820160009054906101000a900460ff16151515158152602001600182015481526020016002820160009054906101000a900460000b60000b60000b81526020016002820160019054906101000a900460000b60000b60000b81526020016002820160029054906101000a900460000b60000b60000b81526020016002820160039054906101000a900460000b60000b60000b81526020016002820160049054906101000a900460000b60000b60000b81526020016002820160059054906101000a900460000b60000b60000b8152505090506127cf565b60018260000b14156124c5576000600b01604051806101000160405290816000820160009054906101000a900460ff16151515158152602001600182015481526020016002820160009054906101000a900460000b60000b60000b81526020016002820160019054906101000a900460000b60000b60000b81526020016002820160029054906101000a900460000b60000b60000b81526020016002820160039054906101000a900460000b60000b60000b81526020016002820160049054906101000a900460000b60000b60000b81526020016002820160059054906101000a900460000b60000b60000b8152505090506127cf565b60028260000b14156125bc576000600e01604051806101000160405290816000820160009054906101000a900460ff16151515158152602001600182015481526020016002820160009054906101000a900460000b60000b60000b81526020016002820160019054906101000a900460000b60000b60000b81526020016002820160029054906101000a900460000b60000b60000b81526020016002820160039054906101000a900460000b60000b60000b81526020016002820160049054906101000a900460000b60000b60000b81526020016002820160059054906101000a900460000b60000b60000b8152505090506127cf565b60038260000b14156126b3576000601101604051806101000160405290816000820160009054906101000a900460ff16151515158152602001600182015481526020016002820160009054906101000a900460000b60000b60000b81526020016002820160019054906101000a900460000b60000b60000b81526020016002820160029054906101000a900460000b60000b60000b81526020016002820160039054906101000a900460000b60000b60000b81526020016002820160049054906101000a900460000b60000b60000b81526020016002820160059054906101000a900460000b60000b60000b8152505090506127cf565b60006126e8577f4e487b7100000000000000000000000000000000000000000000000000000000600052600160045260246000fd5b6000600801604051806101000160405290816000820160009054906101000a900460ff16151515158152602001600182015481526020016002820160009054906101000a900460000b60000b60000b81526020016002820160019054906101000a900460000b60000b60000b81526020016002820160029054906101000a900460000b60000b60000b81526020016002820160039054906101000a900460000b60000b60000b81526020016002820160049054906101000a900460000b60000b60000b81526020016002820160059054906101000a900460000b60000b60000b8152505090505b919050565b600080600090505b600481101561283d578273ffffffffffffffffffffffffffffffffffffffff1661280582611396565b73ffffffffffffffffffffffffffffffffffffffff16141561282a5780915050612862565b808061283590615dce565b9150506127dc565b507fffffffffffffffffffffffffffffffffffffffffffffffffffffffffffffffff90505b919050565b7fffffffffffffffffffffffffffffffffffffffffffffffffffffffffffffffff60000b612894336127d4565b60000b14156128d8576040517f08c379a00000000000000000000000000000000000000000000000000000000081526004016128cf906159dd565b60405180910390fd5b60006128e3336127d4565b9050600160000b6000800160000160009054906101000a900460000b60000b14612942576040517f08c379a00000000000000000000000000000000000000000000000000000000081526004016129399061597d565b60405180910390fd5b8060000b6000800160000160019054906101000a900460000b60000b1461299e576040517f08c379a00000000000000000000000000000000000000000000000000000000081526004016129959061585d565b60405180910390fd5b6129ab8484846000613922565b50505050565b600080600001604051806101000160405290816000820160009054906101000a900460000b60000b60000b81526020016000820160019054906101000a900460000b60000b60000b81526020016000820160029054906101000a900460000b60000b60000b81526020016000820160039054906101000a900460000b60000b60000b81526020016000820160049054906101000a900460000b60000b60000b81526020016001820154815260200160028201548152602001600382015481525050908060040160009054906101000a900473ffffffffffffffffffffffffffffffffffffffff16908060050160009054906101000a900473ffffffffffffffffffffffffffffffffffffffff16908060060160009054906101000a900473ffffffffffffffffffffffffffffffffffffffff16908060070160009054906101000a900473ffffffffffffffffffffffffffffffffffffffff169080600801604051806101000160405290816000820160009054906101000a900460ff16151515158152602001600182015481526020016002820160009054906101000a900460000b60000b60000b81526020016002820160019054906101000a900460000b60000b60000b81526020016002820160029054906101000a900460000b60000b60000b81526020016002820160039054906101000a900460000b60000b60000b81526020016002820160049054906101000a900460000b60000b60000b81526020016002820160059054906101000a900460000b60000b60000b815250509080600b01604051806101000160405290816000820160009054906101000a900460ff16151515158152602001600182015481526020016002820160009054906101000a900460000b60000b60000b81526020016002820160019054906101000a900460000b60000b60000b81526020016002820160029054906101000a900460000b60000b60000b81526020016002820160039054906101000a900460000b60000b60000b81526020016002820160049054906101000a900460000b60000b60000b81526020016002820160059054906101000a900460000b60000b60000b815250509080600e01604051806101000160405290816000820160009054906101000a900460ff16151515158152602001600182015481526020016002820160009054906101000a900460000b60000b60000b81526020016002820160019054906101000a900460000b60000b60000b81526020016002820160029054906101000a900460000b60000b60000b81526020016002820160039054906101000a900460000b60000b60000b81526020016002820160049054906101000a900460000b60000b60000b81526020016002820160059054906101000a900460000b60000b60000b815250509080601101604051806101000160405290816000820160009054906101000a900460ff16151515158152602001600182015481526020016002820160009054906101000a900460000b60000b60000b81526020016002820160019054906101000a900460000b60000b60000b81526020016002820160029054906101000a900460000b60000b60000b81526020016002820160039054906101000a900460000b60000b60000b81526020016002820160049054906101000a900460000b60000b60000b81526020016002820160059054906101000a900460000b60000b60000b81525050905089565b601660009054906101000a900473ffffffffffffffffffffffffffffffffffffffff1681565b60405180610120016040528060405180610100016040528084600001516000015160000b815260200184600001516020015160000b815260200184600001516040015160000b815260200184600001516060015160000b815260200184600001516080015160000b8152602001846000015160a001518152602001846000015160c001518152602001846000015160e001518152508152602001826020015173ffffffffffffffffffffffffffffffffffffffff168152602001826040015173ffffffffffffffffffffffffffffffffffffffff168152602001826060015173ffffffffffffffffffffffffffffffffffffffff168152602001826080015173ffffffffffffffffffffffffffffffffffffffff1681526020016040518061010001604052808460a0015160000151151581526020018460a001516020015181526020018460a001516040015160000b81526020018460a001516060015160000b81526020018460a001516080015160000b81526020018460a0015160a0015160000b81526020018460a0015160c0015160000b81526020018460a0015160e0015160000b81525081526020016040518061010001604052808460c0015160000151151581526020018460c001516020015181526020018460c001516040015160000b81526020018460c001516060015160000b81526020018460c001516080015160000b81526020018460c0015160a0015160000b81526020018460c0015160c0015160000b81526020018460c0015160e0015160000b81525081526020016040518061010001604052808460e0015160000151151581526020018460e001516020015181526020018460e001516040015160000b81526020018460e001516060015160000b81526020018460e001516080015160000b81526020018460e0015160a0015160000b81526020018460e0015160c0015160000b81526020018460e0015160e0015160000b815250815260200160405180610100016040528084610100015160000151151581526020018461010001516020015181526020018461010001516040015160000b81526020018461010001516060015160000b81526020018461010001516080015160000b815260200184610100015160a0015160000b815260200184610100015160c0015160000b815260200184610100015160e0015160000b8152508152506000808201518160000160008201518160000160006101000a81548160ff021916908360000b60ff16021790555060208201518160000160016101000a81548160ff021916908360000b60ff16021790555060408201518160000160026101000a81548160ff021916908360000b60ff16021790555060608201518160000160036101000a81548160ff021916908360000b60ff16021790555060808201518160000160046101000a81548160ff021916908360000b60ff16021790555060a0820151816001015560c0820151816002015560e08201518160030155505060208201518160040160006101000a81548173ffffffffffffffffffffffffffffffffffffffff021916908373ffffffffffffffffffffffffffffffffffffffff16021790555060408201518160050160006101000a81548173ffffffffffffffffffffffffffffffffffffffff021916908373ffffffffffffffffffffffffffffffffffffffff16021790555060608201518160060160006101000a81548173ffffffffffffffffffffffffffffffffffffffff021916908373ffffffffffffffffffffffffffffffffffffffff16021790555060808201518160070160006101000a81548173ffffffffffffffffffffffffffffffffffffffff021916908373ffffffffffffffffffffffffffffffffffffffff16021790555060a08201518160080160008201518160000160006101000a81548160ff0219169083151502179055506020820151816001015560408201518160020160006101000a81548160ff021916908360000b60ff16021790555060608201518160020160016101000a81548160ff021916908360000b60ff16021790555060808201518160020160026101000a81548160ff021916908360000b60ff16021790555060a08201518160020160036101000a81548160ff021916908360000b60ff16021790555060c08201518160020160046101000a81548160ff021916908360000b60ff16021790555060e08201518160020160056101000a81548160ff021916908360000b60ff160217905550505060c082015181600b0160008201518160000160006101000a81548160ff0219169083151502179055506020820151816001015560408201518160020160006101000a81548160ff021916908360000b60ff16021790555060608201518160020160016101000a81548160ff021916908360000b60ff16021790555060808201518160020160026101000a81548160ff021916908360000b60ff16021790555060a08201518160020160036101000a81548160ff021916908360000b60ff16021790555060c08201518160020160046101000a81548160ff021916908360000b60ff16021790555060e08201518160020160056101000a81548160ff021916908360000b60ff160217905550505060e082015181600e0160008201518160000160006101000a81548160ff0219169083151502179055506020820151816001015560408201518160020160006101000a81548160ff021916908360000b60ff16021790555060608201518160020160016101000a81548160ff021916908360000b60ff16021790555060808201518160020160026101000a81548160ff021916908360000b60ff16021790555060a08201518160020160036101000a81548160ff021916908360000b60ff16021790555060c08201518160020160046101000a81548160ff021916908360000b60ff16021790555060e08201518160020160056101000a81548160ff021916908360000b60ff16021790555050506101008201518160110160008201518160000160006101000a81548160ff0219169083151502179055506020820151816001015560408201518160020160006101000a81548160ff021916908360000b60ff16021790555060608201518160020160016101000a81548160ff021916908360000b60ff16021790555060808201518160020160026101000a81548160ff021916908360000b60ff16021790555060a08201518160020160036101000a81548160ff021916908360000b60ff16021790555060c08201518160020160046101000a81548160ff021916908360000b60ff16021790555060e08201518160020160056101000a81548160ff021916908360000b60ff160217905550505090505050565b600260000b6000800160000160009054906101000a900460000b60000b146138c3576040517f08c379a00000000000000000000000000000000000000000000000000000000081526004016138ba9061583d565b60405180910390fd5b8060000b6000800160000160019054906101000a900460000b60000b1461391f576040517f08c379a0000000000000000000000000000000000000000000000000000000008152600401613916906158fd565b60405180910390fd5b50565b60008460000b1215801561393a575060038460000b13155b613979576040517f08c379a00000000000000000000000000000000000000000000000000000000081526004016139709061575d565b60405180910390fd5b6000800b8460000b141561398c57613baf565b600160000b8460000b14156139a057613bae565b600260000b8460000b1415613aa8578260000b6139bc336127d4565b60000b1415613a00576040517f08c379a00000000000000000000000000000000000000000000000000000000081526004016139f79061577d565b60405180910390fd5b60008360000b12158015613a18575060038360000b13155b613a57576040517f08c379a0000000000000000000000000000000000000000000000000000000008152600401613a4e9061587d565b60405180910390fd5b613a60836122cf565b60000151613aa3576040517f08c379a0000000000000000000000000000000000000000000000000000000008152600401613a9a906157dd565b60405180910390fd5b613bad565b600360000b8460000b1415613bac578260000b613ac4336127d4565b60000b1415613b08576040517f08c379a0000000000000000000000000000000000000000000000000000000008152600401613aff9061577d565b60405180910390fd5b60008360000b12158015613b20575060038360000b13155b613b5f576040517f08c379a0000000000000000000000000000000000000000000000000000000008152600401613b569061587d565b60405180910390fd5b613b68836122cf565b60000151613bab576040517f08c379a0000000000000000000000000000000000000000000000000000000008152600401613ba2906157dd565b60405180910390fd5b5b5b5b5b50505050565b6000800b6000800160000160009054906101000a900460000b60000b1415613c12576040517f08c379a0000000000000000000000000000000000000000000000000000000008152600401613c099061581d565b60405180910390fd5b600360000b6000800160000160009054906101000a900460000b60000b1415613c70576040517f08c379a0000000000000000000000000000000000000000000000000000000008152600401613c679061589d565b60405180910390fd5b613c79816122cf565b60000151613cbc576040517f08c379a0000000000000000000000000000000000000000000000000000000008152600401613cb3906158bd565b60405180910390fd5b600160000b6000800160000160009054906101000a900460000b60000b148015613cff57508060000b6000800160000160019054906101000a900460000b60000b145b15613d0957613d5c565b600260000b6000800160000160009054906101000a900460000b60000b148015613d4c57508060000b6000800160000160019054906101000a900460000b60000b145b15613d5b57613d5a81613866565b5b5b50565b60008260000b1415613db45780600060040160006101000a81548173ffffffffffffffffffffffffffffffffffffffff021916908373ffffffffffffffffffffffffffffffffffffffff160217905550613eec565b60018260000b1415613e095780600060050160006101000a81548173ffffffffffffffffffffffffffffffffffffffff021916908373ffffffffffffffffffffffffffffffffffffffff160217905550613eeb565b60028260000b1415613e5e5780600060060160006101000a81548173ffffffffffffffffffffffffffffffffffffffff021916908373ffffffffffffffffffffffffffffffffffffffff160217905550613eea565b60038260000b1415613eb35780600060070160006101000a81548173ffffffffffffffffffffffffffffffffffffffff021916908373ffffffffffffffffffffffffffffffffffffffff160217905550613ee9565b6000613ee8577f4e487b7100000000000000000000000000000000000000000000000000000000600052600160045260246000fd5b5b5b5b5b5050565b60008260000b141561400c5780600060080160008201518160000160006101000a81548160ff0219169083151502179055506020820151816001015560408201518160020160006101000a81548160ff021916908360000b60ff16021790555060608201518160020160016101000a81548160ff021916908360000b60ff16021790555060808201518160020160026101000a81548160ff021916908360000b60ff16021790555060a08201518160020160036101000a81548160ff021916908360000b60ff16021790555060c08201518160020160046101000a81548160ff021916908360000b60ff16021790555060e08201518160020160056101000a81548160ff021916908360000b60ff160217905550905050614399565b60018260000b141561412857806000600b0160008201518160000160006101000a81548160ff0219169083151502179055506020820151816001015560408201518160020160006101000a81548160ff021916908360000b60ff16021790555060608201518160020160016101000a81548160ff021916908360000b60ff16021790555060808201518160020160026101000a81548160ff021916908360000b60ff16021790555060a08201518160020160036101000a81548160ff021916908360000b60ff16021790555060c08201518160020160046101000a81548160ff021916908360000b60ff16021790555060e08201518160020160056101000a81548160ff021916908360000b60ff160217905550905050614398565b60028260000b141561424457806000600e0160008201518160000160006101000a81548160ff0219169083151502179055506020820151816001015560408201518160020160006101000a81548160ff021916908360000b60ff16021790555060608201518160020160016101000a81548160ff021916908360000b60ff16021790555060808201518160020160026101000a81548160ff021916908360000b60ff16021790555060a08201518160020160036101000a81548160ff021916908360000b60ff16021790555060c08201518160020160046101000a81548160ff021916908360000b60ff16021790555060e08201518160020160056101000a81548160ff021916908360000b60ff160217905550905050614397565b60038260000b14156143605780600060110160008201518160000160006101000a81548160ff0219169083151502179055506020820151816001015560408201518160020160006101000a81548160ff021916908360000b60ff16021790555060608201518160020160016101000a81548160ff021916908360000b60ff16021790555060808201518160020160026101000a81548160ff021916908360000b60ff16021790555060a08201518160020160036101000a81548160ff021916908360000b60ff16021790555060c08201518160020160046101000a81548160ff021916908360000b60ff16021790555060e08201518160020160056101000a81548160ff021916908360000b60ff160217905550905050614396565b6000614395577f4e487b7100000000000000000000000000000000000000000000000000000000600052600160045260246000fd5b5b5b5b5b5050565b6040518061012001604052806143b16144b2565b8152602001600073ffffffffffffffffffffffffffffffffffffffff168152602001600073ffffffffffffffffffffffffffffffffffffffff168152602001600073ffffffffffffffffffffffffffffffffffffffff168152602001600073ffffffffffffffffffffffffffffffffffffffff16815260200161443261445f565b815260200161443f61445f565b815260200161444c61445f565b815260200161445961445f565b81525090565b604051806101000160405280600015158152602001600081526020016000800b81526020016000800b81526020016000800b81526020016000800b81526020016000800b81526020016000800b81525090565b6040518061010001604052806000800b81526020016000800b81526020016000800b81526020016000800b81526020016000800b81526020016000815260200160008152602001600081525090565b600061451461450f84615aee565b615ac9565b9050808285604086028201111561452a57600080fd5b60005b8581101561455a57816145408882614753565b84526020840193506040830192505060018101905061452d565b5050509392505050565b600061457761457284615b14565b615ac9565b9050808285602086028201111561458d57600080fd5b60005b858110156145bd57816145a38882614a76565b845260208401935060208301925050600181019050614590565b5050509392505050565b60006145da6145d584615b3a565b615ac9565b905080828560208602820111156145f057600080fd5b60005b8581101561462057816146068882614a76565b8452602084019350602083019250506001810190506145f3565b5050509392505050565b600061463d61463884615b60565b615ac9565b9050808285602086028201111561465357600080fd5b60005b8581101561468357816146698882614a76565b845260208401935060208301925050600181019050614656565b5050509392505050565b60006146a061469b84615b86565b615ac9565b905080828560208602820111156146b657600080fd5b60005b858110156146e657816146cc8882614a76565b8452602084019350602083019250506001810190506146b9565b5050509392505050565b6000813590506146ff816162a7565b92915050565b600082601f83011261471657600080fd5b6002614723848285614501565b91505092915050565b600082601f83011261473d57600080fd5b600161474a848285614564565b91505092915050565b600082601f83011261476457600080fd5b60026147718482856145c7565b91505092915050565b600082601f83011261478b57600080fd5b600661479884828561462a565b91505092915050565b600082601f8301126147b257600080fd5b60076147bf84828561468d565b91505092915050565b6000813590506147d7816162be565b92915050565b6000815190506147ec816162be565b92915050565b600081359050614801816162d5565b92915050565b6000610100828403121561481a57600080fd5b614825610100615ac9565b90506000614835848285016147c8565b600083015250602061484984828501614a76565b602083015250604061485d848285016147f2565b6040830152506060614871848285016147f2565b6060830152506080614885848285016147f2565b60808301525060a0614899848285016147f2565b60a08301525060c06148ad848285016147f2565b60c08301525060e06148c1848285016147f2565b60e08301525092915050565b600061010082840312156148e057600080fd5b6148eb610100615ac9565b905060006148fb848285016147f2565b600083015250602061490f848285016147f2565b6020830152506040614923848285016147f2565b6040830152506060614937848285016147f2565b606083015250608061494b848285016147f2565b60808301525060a061495f84828501614a76565b60a08301525060c061497384828501614a76565b60c08301525060e061498784828501614a76565b60e08301525092915050565b600061058082840312156149a657600080fd5b6149b1610120615ac9565b905060006149c1848285016148cd565b6000830152506101006149d6848285016146f0565b6020830152506101206149eb848285016146f0565b604083015250610140614a00848285016146f0565b606083015250610160614a15848285016146f0565b608083015250610180614a2a84828501614807565b60a083015250610280614a3f84828501614807565b60c083015250610380614a5484828501614807565b60e083015250610480614a6984828501614807565b6101008301525092915050565b600081359050614a85816162ec565b92915050565b600060208284031215614a9d57600080fd5b6000614aab848285016146f0565b91505092915050565b6000806000806101208587031215614acb57600080fd5b6000614ad987828801614753565b9450506040614aea87828801614705565b93505060c0614afb87828801614753565b925050610100614b0d8782880161472c565b91505092959194509250565b6000806000806101c08587031215614b3057600080fd5b6000614b3e87828801614753565b9450506040614b4f87828801614705565b93505060c0614b6087828801614753565b925050610100614b728782880161477a565b91505092959194509250565b600060208284031215614b9057600080fd5b6000614b9e848285016147dd565b91505092915050565b600060208284031215614bb957600080fd5b6000614bc7848285016147f2565b91505092915050565b6000806101208385031215614be457600080fd5b6000614bf285828601614807565b925050610100614c04858286016147f2565b9150509250929050565b60006105808284031215614c2157600080fd5b6000614c2f84828501614993565b91505092915050565b6000806000806000806102208789031215614c5257600080fd5b6000614c6089828a01614a76565b9650506020614c7189828a01614a76565b9550506040614c8289828a01614753565b9450506080614c9389828a01614705565b935050610100614ca589828a01614753565b925050610140614cb789828a016147a1565b9150509295509295509295565b600080600060608486031215614cd957600080fd5b6000614ce786828701614a76565b9350506020614cf886828701614a76565b9250506040614d0986828701614a76565b9150509250925092565b6000614d1f8383614e0f565b60408301905092915050565b6000614d378383615603565b60208301905092915050565b614d4c81615d1e565b82525050565b614d5b81615d1e565b82525050565b614d6a81615bde565b614d748184615c56565b9250614d7f82615bac565b8060005b83811015614db0578151614d978782614d13565b9650614da283615c15565b925050600181019050614d83565b505050505050565b614dc181615be9565b614dcb8184615c61565b9250614dd682615bb6565b8060005b83811015614e07578151614dee8782614d2b565b9650614df983615c22565b925050600181019050614dda565b505050505050565b614e1881615bf4565b614e228184615c6c565b9250614e2d82615bc0565b8060005b83811015614e5e578151614e458782614d2b565b9650614e5083615c2f565b925050600181019050614e31565b505050505050565b614e6f81615bf4565b614e798184615c77565b9250614e8482615bc0565b8060005b83811015614eb5578151614e9c8782614d2b565b9650614ea783615c2f565b925050600181019050614e88565b505050505050565b614ec681615bff565b614ed08184615c82565b9250614edb82615bca565b8060005b83811015614f0c578151614ef38782614d2b565b9650614efe83615c3c565b925050600181019050614edf565b505050505050565b614f1d81615c0a565b614f278184615c8d565b9250614f3282615bd4565b8060005b83811015614f63578151614f4a8782614d2b565b9650614f5583615c49565b925050600181019050614f36565b505050505050565b614f7481615d30565b82525050565b614f8381615d3c565b82525050565b614f9281615d3c565b82525050565b6000614fa5602383615c98565b9150614fb082615e86565b604082019050919050565b6000614fc8601c83615c98565b9150614fd382615ed5565b602082019050919050565b6000614feb600e83615c98565b9150614ff682615efe565b602082019050919050565b600061500e601683615c98565b915061501982615f27565b602082019050919050565b6000615031601c83615c98565b915061503c82615f50565b602082019050919050565b6000615054601783615c98565b915061505f82615f79565b602082019050919050565b6000615077601b83615c98565b915061508282615fa2565b602082019050919050565b600061509a601883615c98565b91506150a582615fcb565b602082019050919050565b60006150bd602c83615c98565b91506150c882615ff4565b604082019050919050565b60006150e0602f83615c98565b91506150eb82616043565b604082019050919050565b6000615103600e83615c98565b915061510e82616092565b602082019050919050565b6000615126601d83615c98565b9150615131826160bb565b602082019050919050565b6000615149601983615c98565b9150615154826160e4565b602082019050919050565b600061516c601783615c98565b91506151778261610d565b602082019050919050565b600061518f601c83615c98565b915061519a82616136565b602082019050919050565b60006151b2601283615c98565b91506151bd8261615f565b602082019050919050565b60006151d5601b83615c98565b91506151e082616188565b602082019050919050565b60006151f8601583615c98565b9150615203826161b1565b602082019050919050565b600061521b601c83615c98565b9150615226826161da565b602082019050919050565b600061523e601f83615c98565b915061524982616203565b602082019050919050565b6000615261601d83615c98565b915061526c8261622c565b602082019050919050565b6000615284601c83615c98565b915061528f82616255565b602082019050919050565b60006152a7601d83615c98565b91506152b28261627e565b602082019050919050565b610100820160008201516152d46000850182614f6b565b5060208201516152e76020850182615603565b5060408201516152fa6040850182614f7a565b50606082015161530d6060850182614f7a565b5060808201516153206080850182614f7a565b5060a082015161533360a0850182614f7a565b5060c082015161534660c0850182614f7a565b5060e082015161535960e0850182614f7a565b50505050565b610100820160008201516153766000850182614f6b565b5060208201516153896020850182615603565b50604082015161539c6040850182614f7a565b5060608201516153af6060850182614f7a565b5060808201516153c26080850182614f7a565b5060a08201516153d560a0850182614f7a565b5060c08201516153e860c0850182614f7a565b5060e08201516153fb60e0850182614f7a565b50505050565b610100820160008201516154186000850182614f7a565b50602082015161542b6020850182614f7a565b50604082015161543e6040850182614f7a565b5060608201516154516060850182614f7a565b5060808201516154646080850182614f7a565b5060a082015161547760a0850182615603565b5060c082015161548a60c0850182615603565b5060e082015161549d60e0850182615603565b50505050565b610100820160008201516154ba6000850182614f7a565b5060208201516154cd6020850182614f7a565b5060408201516154e06040850182614f7a565b5060608201516154f36060850182614f7a565b5060808201516155066080850182614f7a565b5060a082015161551960a0850182615603565b5060c082015161552c60c0850182615603565b5060e082015161553f60e0850182615603565b50505050565b6105808201600082015161555c6000850182615401565b506020820151615570610100850182614d43565b506040820151615584610120850182614d43565b506060820151615598610140850182614d43565b5060808201516155ac610160850182614d43565b5060a08201516155c06101808501826152bd565b5060c08201516155d46102808501826152bd565b5060e08201516155e86103808501826152bd565b506101008201516155fd6104808501826152bd565b50505050565b61560c81615d69565b82525050565b60006020820190506156276000830184614d52565b92915050565b6000610120820190506156436000830187614e66565b6156506040830186614d61565b61565d60c0830185614e66565b61566b610100830184614db8565b95945050505050565b60006101c08201905061568a6000830187614e66565b6156976040830186614d61565b6156a460c0830185614e66565b6156b2610100830184614ebd565b95945050505050565b60006101e0820190506156d16000830187614e66565b6156de6040830186614d61565b6156eb60c0830185614e66565b6156f9610100830184614f14565b95945050505050565b60006020820190506157176000830184614f89565b92915050565b6000602082019050818103600083015261573681614f98565b9050919050565b6000602082019050818103600083015261575681614fbb565b9050919050565b6000602082019050818103600083015261577681614fde565b9050919050565b6000602082019050818103600083015261579681615001565b9050919050565b600060208201905081810360008301526157b681615024565b9050919050565b600060208201905081810360008301526157d681615047565b9050919050565b600060208201905081810360008301526157f68161506a565b9050919050565b600060208201905081810360008301526158168161508d565b9050919050565b60006020820190508181036000830152615836816150b0565b9050919050565b60006020820190508181036000830152615856816150d3565b9050919050565b60006020820190508181036000830152615876816150f6565b9050919050565b6000602082019050818103600083015261589681615119565b9050919050565b600060208201905081810360008301526158b68161513c565b9050919050565b600060208201905081810360008301526158d68161515f565b9050919050565b600060208201905081810360008301526158f681615182565b9050919050565b60006020820190508181036000830152615916816151a5565b9050919050565b60006020820190508181036000830152615936816151c8565b9050919050565b60006020820190508181036000830152615956816151eb565b9050919050565b600060208201905081810360008301526159768161520e565b9050919050565b6000602082019050818103600083015261599681615231565b9050919050565b600060208201905081810360008301526159b681615254565b9050919050565b600060208201905081810360008301526159d681615277565b9050919050565b600060208201905081810360008301526159f68161529a565b9050919050565b600061010082019050615a13600083018461535f565b92915050565b600061058082019050615a2f600083018c6154a3565b615a3d61010083018b614d52565b615a4b61012083018a614d52565b615a59610140830189614d52565b615a67610160830188614d52565b615a7561018083018761535f565b615a8361028083018661535f565b615a9161038083018561535f565b615a9f61048083018461535f565b9a9950505050505050505050565b600061058082019050615ac36000830184615545565b92915050565b6000615ad3615ae4565b9050615adf8282615d73565b919050565b6000604051905090565b600067ffffffffffffffff821115615b0957615b08615e46565b5b602082029050919050565b600067ffffffffffffffff821115615b2f57615b2e615e46565b5b602082029050919050565b600067ffffffffffffffff821115615b5557615b54615e46565b5b602082029050919050565b600067ffffffffffffffff821115615b7b57615b7a615e46565b5b602082029050919050565b600067ffffffffffffffff821115615ba157615ba0615e46565b5b602082029050919050565b6000819050919050565b6000819050919050565b6000819050919050565b6000819050919050565b6000819050919050565b600060029050919050565b600060019050919050565b600060029050919050565b600060069050919050565b600060079050919050565b6000602082019050919050565b6000602082019050919050565b6000602082019050919050565b6000602082019050919050565b6000602082019050919050565b600081905092915050565b600081905092915050565b600081905092915050565b600081905092915050565b600081905092915050565b600081905092915050565b600082825260208201905092915050565b6000615cb482615d3c565b9150615cbf83615d3c565b9250827fffffffffffffffffffffffffffffffffffffffffffffffffffffffffffffff8001821260008412151615615cfa57615cf9615e17565b5b82607f018213600084121615615d1357615d12615e17565b5b828203905092915050565b6000615d2982615d49565b9050919050565b60008115159050919050565b60008160000b9050919050565b600073ffffffffffffffffffffffffffffffffffffffff82169050919050565b6000819050919050565b615d7c82615e75565b810181811067ffffffffffffffff82111715615d9b57615d9a615e46565b5b80604052505050565b6000615daf82615d3c565b9150607f821415615dc357615dc2615e17565b5b600182019050919050565b6000615dd982615d69565b91507fffffffffffffffffffffffffffffffffffffffffffffffffffffffffffffffff821415615e0c57615e0b615e17565b5b600182019050919050565b7f4e487b7100000000000000000000000000000000000000000000000000000000600052601160045260246000fd5b7f4e487b7100000000000000000000000000000000000000000000000000000000600052604160045260246000fd5b6000601f19601f8301169050919050565b7f526573706f6e64696e6720746f2077726f6e672061636375736174696f6e207460008201527f7970650000000000000000000000000000000000000000000000000000000000602082015250565b7f5769746368203120416c69766520646f6573206e6f74206d6174636800000000600082015250565b7f556e6b6e6f776e20616374696f6e000000000000000000000000000000000000600082015250565b7f43616e6e6f742074617267657420796f757273656c6600000000000000000000600082015250565b7f5769746368203220416c69766520646f6573206e6f74206d6174636800000000600082015250565b7f496e76616c69642076616c69646d6f76652070726f6f66000000000000000000600082015250565b7f43616e6e6f74207461726765742061206465616420706c617965720000000000600082015250565b7f47616d652068617320616c726561647920737461727465640000000000000000600082015250565b7f4120506c617965722063616e6e6f74206c6f7365206265666f7265207468652060008201527f67616d65207374617274732e0000000000000000000000000000000000000000602082015250565b7f4e6f742077616974696e6720666f72206120706c6179657220726573706f6e7360008201527f6520746f2061636375736174696f6e0000000000000000000000000000000000602082015250565b7f4e6f7420796f7572207475726e2e000000000000000000000000000000000000600082015250565b7f4d757374207461726765742061206578697374696e6720706c61796572000000600082015250565b7f5468652067616d6520697320616c7265616479206f7665722e00000000000000600082015250565b7f506c6179657220697320616c726561647920646561642e000000000000000000600082015250565b7f5769746368203020416c69766520646f6573206e6f74206d6174636800000000600082015250565b7f4e6f7420796f757220726573706f6e73652e0000000000000000000000000000600082015250565b7f596f752061726520616c726561647920696e207468652067616d650000000000600082015250565b7f496e76616c6964206e6f77697463682070726f6f660000000000000000000000600082015250565b7f496e76616c69642068616e64636f6d6d69746d656e742070726f6f6600000000600082015250565b7f4e6f742077616974696e6720666f72206120706c6179657220616374696f6e00600082015250565b7f48616e6420636f6d6d69746d656e747320646f206e6f74206d61746368000000600082015250565b7f5769746368203320416c69766520646f6573206e6f74206d6174636800000000600082015250565b7f41646472657373206973204e6f7420612076616c696420506c61796572000000600082015250565b6162b081615d1e565b81146162bb57600080fd5b50565b6162c781615d30565b81146162d257600080fd5b50565b6162de81615d3c565b81146162e957600080fd5b50565b6162f581615d69565b811461630057600080fd5b5056fea2646970667358221220a2bd4738eaee3ceafc0430f96331873e0f114e49cf4f819297a7a9030ce17c4e64736f6c63430008040033",
  "linkReferences": {},
  "deployedLinkReferences": {}
}