{
  "_format": "hh-sol-artifact-1",
  "contractName": "zkWitches",
  "sourceName": "contracts/zkWitches.sol",
  "abi": [
    {
      "inputs": [
        {
          "internalType": "address",
          "name": "hc_verifier",
          "type": "address"
        },
        {
          "internalType": "address",
          "name": "vm_verifier",
          "type": "address"
        },
        {
          "internalType": "address",
          "name": "nw_verifier",
          "type": "address"
        }
      ],
      "stateMutability": "nonpayable",
      "type": "constructor"
    },
    {
      "inputs": [
        {
          "internalType": "uint256",
          "name": "actionType",
          "type": "uint256"
        },
        {
          "internalType": "uint256",
          "name": "actionTarget",
          "type": "uint256"
        },
        {
          "internalType": "uint256",
          "name": "witchType",
          "type": "uint256"
        }
      ],
      "name": "ActionNoProof",
      "outputs": [],
      "stateMutability": "nonpayable",
      "type": "function"
    },
    {
      "inputs": [
        {
          "internalType": "uint256",
          "name": "actionTarget",
          "type": "uint256"
        },
        {
          "internalType": "uint256",
          "name": "witchType",
          "type": "uint256"
        },
        {
          "internalType": "uint256[2]",
          "name": "a",
          "type": "uint256[2]"
        },
        {
          "internalType": "uint256[2][2]",
          "name": "b",
          "type": "uint256[2][2]"
        },
        {
          "internalType": "uint256[2]",
          "name": "c",
          "type": "uint256[2]"
        },
        {
          "internalType": "uint256[7]",
          "name": "input",
          "type": "uint256[7]"
        }
      ],
      "name": "ActionWithProof",
      "outputs": [],
      "stateMutability": "nonpayable",
      "type": "function"
    },
    {
      "inputs": [],
      "name": "DEBUG_Reset",
      "outputs": [],
      "stateMutability": "nonpayable",
      "type": "function"
    },
    {
      "inputs": [
        {
          "components": [
            {
              "components": [
                {
                  "internalType": "int8",
                  "name": "stateEnum",
                  "type": "int8"
                },
                {
                  "internalType": "int8",
                  "name": "playerSlotWaiting",
                  "type": "int8"
                },
                {
                  "internalType": "int8",
                  "name": "currentNumberOfPlayers",
                  "type": "int8"
                },
                {
                  "internalType": "int8",
                  "name": "playerAccusing",
                  "type": "int8"
                },
                {
                  "internalType": "int8",
                  "name": "accusationWitchType",
                  "type": "int8"
                },
                {
                  "internalType": "uint256",
                  "name": "previous_action_game_block",
                  "type": "uint256"
                },
                {
                  "internalType": "uint256",
                  "name": "current_block",
                  "type": "uint256"
                },
                {
                  "internalType": "uint256",
                  "name": "current_sequence_number",
                  "type": "uint256"
                }
              ],
              "internalType": "struct zkWitches.SharedState",
              "name": "shared",
              "type": "tuple"
            },
            {
              "internalType": "address",
              "name": "address0",
              "type": "address"
            },
            {
              "internalType": "address",
              "name": "address1",
              "type": "address"
            },
            {
              "internalType": "address",
              "name": "address2",
              "type": "address"
            },
            {
              "internalType": "address",
              "name": "address3",
              "type": "address"
            },
            {
              "components": [
                {
                  "internalType": "bool",
                  "name": "isAlive",
                  "type": "bool"
                },
                {
                  "internalType": "uint256",
                  "name": "handCommitment",
                  "type": "uint256"
                },
                {
                  "internalType": "int8",
                  "name": "food",
                  "type": "int8"
                },
                {
                  "internalType": "int8",
                  "name": "lumber",
                  "type": "int8"
                },
                {
                  "internalType": "int8",
                  "name": "WitchAlive0",
                  "type": "int8"
                },
                {
                  "internalType": "int8",
                  "name": "WitchAlive1",
                  "type": "int8"
                },
                {
                  "internalType": "int8",
                  "name": "WitchAlive2",
                  "type": "int8"
                },
                {
                  "internalType": "int8",
                  "name": "WitchAlive3",
                  "type": "int8"
                }
              ],
              "internalType": "struct zkWitches.PlayerState",
              "name": "player0",
              "type": "tuple"
            },
            {
              "components": [
                {
                  "internalType": "bool",
                  "name": "isAlive",
                  "type": "bool"
                },
                {
                  "internalType": "uint256",
                  "name": "handCommitment",
                  "type": "uint256"
                },
                {
                  "internalType": "int8",
                  "name": "food",
                  "type": "int8"
                },
                {
                  "internalType": "int8",
                  "name": "lumber",
                  "type": "int8"
                },
                {
                  "internalType": "int8",
                  "name": "WitchAlive0",
                  "type": "int8"
                },
                {
                  "internalType": "int8",
                  "name": "WitchAlive1",
                  "type": "int8"
                },
                {
                  "internalType": "int8",
                  "name": "WitchAlive2",
                  "type": "int8"
                },
                {
                  "internalType": "int8",
                  "name": "WitchAlive3",
                  "type": "int8"
                }
              ],
              "internalType": "struct zkWitches.PlayerState",
              "name": "player1",
              "type": "tuple"
            },
            {
              "components": [
                {
                  "internalType": "bool",
                  "name": "isAlive",
                  "type": "bool"
                },
                {
                  "internalType": "uint256",
                  "name": "handCommitment",
                  "type": "uint256"
                },
                {
                  "internalType": "int8",
                  "name": "food",
                  "type": "int8"
                },
                {
                  "internalType": "int8",
                  "name": "lumber",
                  "type": "int8"
                },
                {
                  "internalType": "int8",
                  "name": "WitchAlive0",
                  "type": "int8"
                },
                {
                  "internalType": "int8",
                  "name": "WitchAlive1",
                  "type": "int8"
                },
                {
                  "internalType": "int8",
                  "name": "WitchAlive2",
                  "type": "int8"
                },
                {
                  "internalType": "int8",
                  "name": "WitchAlive3",
                  "type": "int8"
                }
              ],
              "internalType": "struct zkWitches.PlayerState",
              "name": "player2",
              "type": "tuple"
            },
            {
              "components": [
                {
                  "internalType": "bool",
                  "name": "isAlive",
                  "type": "bool"
                },
                {
                  "internalType": "uint256",
                  "name": "handCommitment",
                  "type": "uint256"
                },
                {
                  "internalType": "int8",
                  "name": "food",
                  "type": "int8"
                },
                {
                  "internalType": "int8",
                  "name": "lumber",
                  "type": "int8"
                },
                {
                  "internalType": "int8",
                  "name": "WitchAlive0",
                  "type": "int8"
                },
                {
                  "internalType": "int8",
                  "name": "WitchAlive1",
                  "type": "int8"
                },
                {
                  "internalType": "int8",
                  "name": "WitchAlive2",
                  "type": "int8"
                },
                {
                  "internalType": "int8",
                  "name": "WitchAlive3",
                  "type": "int8"
                }
              ],
              "internalType": "struct zkWitches.PlayerState",
              "name": "player3",
              "type": "tuple"
            }
          ],
          "internalType": "struct zkWitches.TotalGameState",
          "name": "inputTgs",
          "type": "tuple"
        }
      ],
      "name": "DEBUG_SetGameState",
      "outputs": [],
      "stateMutability": "nonpayable",
      "type": "function"
    },
    {
      "inputs": [
        {
          "internalType": "uint256[2]",
          "name": "a",
          "type": "uint256[2]"
        },
        {
          "internalType": "uint256[2][2]",
          "name": "b",
          "type": "uint256[2][2]"
        },
        {
          "internalType": "uint256[2]",
          "name": "c",
          "type": "uint256[2]"
        },
        {
          "internalType": "uint256[1]",
          "name": "input",
          "type": "uint256[1]"
        }
      ],
      "name": "JoinGame",
      "outputs": [],
      "stateMutability": "nonpayable",
      "type": "function"
    },
    {
      "inputs": [],
      "name": "KickCurrentPlayer",
      "outputs": [],
      "stateMutability": "nonpayable",
      "type": "function"
    },
    {
      "inputs": [
        {
          "internalType": "uint256[2]",
          "name": "a",
          "type": "uint256[2]"
        },
        {
          "internalType": "uint256[2][2]",
          "name": "b",
          "type": "uint256[2][2]"
        },
        {
          "internalType": "uint256[2]",
          "name": "c",
          "type": "uint256[2]"
        },
        {
          "internalType": "uint256[6]",
          "name": "input",
          "type": "uint256[6]"
        }
      ],
      "name": "RespondAccusation_NoWitch",
      "outputs": [],
      "stateMutability": "nonpayable",
      "type": "function"
    },
    {
      "inputs": [],
      "name": "RespondAccusation_YesWitch",
      "outputs": [],
      "stateMutability": "nonpayable",
      "type": "function"
    },
    {
      "inputs": [],
      "name": "Surrender",
      "outputs": [],
      "stateMutability": "nonpayable",
      "type": "function"
    },
    {
      "inputs": [
        {
          "internalType": "int8",
          "name": "slot",
          "type": "int8"
        }
      ],
      "name": "getPlayer",
      "outputs": [
        {
          "components": [
            {
              "internalType": "bool",
              "name": "isAlive",
              "type": "bool"
            },
            {
              "internalType": "uint256",
              "name": "handCommitment",
              "type": "uint256"
            },
            {
              "internalType": "int8",
              "name": "food",
              "type": "int8"
            },
            {
              "internalType": "int8",
              "name": "lumber",
              "type": "int8"
            },
            {
              "internalType": "int8",
              "name": "WitchAlive0",
              "type": "int8"
            },
            {
              "internalType": "int8",
              "name": "WitchAlive1",
              "type": "int8"
            },
            {
              "internalType": "int8",
              "name": "WitchAlive2",
              "type": "int8"
            },
            {
              "internalType": "int8",
              "name": "WitchAlive3",
              "type": "int8"
            }
          ],
          "internalType": "struct zkWitches.PlayerState",
          "name": "",
          "type": "tuple"
        }
      ],
      "stateMutability": "view",
      "type": "function"
    },
    {
      "inputs": [
        {
          "internalType": "int8",
          "name": "slot",
          "type": "int8"
        }
      ],
      "name": "getPlayerAddress",
      "outputs": [
        {
          "internalType": "address",
          "name": "",
          "type": "address"
        }
      ],
      "stateMutability": "view",
      "type": "function"
    },
    {
      "inputs": [
        {
          "components": [
            {
              "internalType": "bool",
              "name": "isAlive",
              "type": "bool"
            },
            {
              "internalType": "uint256",
              "name": "handCommitment",
              "type": "uint256"
            },
            {
              "internalType": "int8",
              "name": "food",
              "type": "int8"
            },
            {
              "internalType": "int8",
              "name": "lumber",
              "type": "int8"
            },
            {
              "internalType": "int8",
              "name": "WitchAlive0",
              "type": "int8"
            },
            {
              "internalType": "int8",
              "name": "WitchAlive1",
              "type": "int8"
            },
            {
              "internalType": "int8",
              "name": "WitchAlive2",
              "type": "int8"
            },
            {
              "internalType": "int8",
              "name": "WitchAlive3",
              "type": "int8"
            }
          ],
          "internalType": "struct zkWitches.PlayerState",
          "name": "inputPlayer",
          "type": "tuple"
        },
        {
          "internalType": "int8",
          "name": "witchType",
          "type": "int8"
        }
      ],
      "name": "getWitchAlive",
      "outputs": [
        {
          "internalType": "int8",
          "name": "",
          "type": "int8"
        }
      ],
      "stateMutability": "view",
      "type": "function"
    },
    {
      "inputs": [],
      "name": "hc_verifierAddr",
      "outputs": [
        {
          "internalType": "address",
          "name": "",
          "type": "address"
        }
      ],
      "stateMutability": "view",
      "type": "function"
    },
    {
      "inputs": [],
      "name": "nw_verifierAddr",
      "outputs": [
        {
          "internalType": "address",
          "name": "",
          "type": "address"
        }
      ],
      "stateMutability": "view",
      "type": "function"
    },
    {
      "inputs": [
        {
          "internalType": "address",
          "name": "a",
          "type": "address"
        }
      ],
      "name": "slotByAddress",
      "outputs": [
        {
          "internalType": "int8",
          "name": "",
          "type": "int8"
        }
      ],
      "stateMutability": "view",
      "type": "function"
    },
    {
      "inputs": [],
      "name": "tgs",
      "outputs": [
        {
          "components": [
            {
              "internalType": "int8",
              "name": "stateEnum",
              "type": "int8"
            },
            {
              "internalType": "int8",
              "name": "playerSlotWaiting",
              "type": "int8"
            },
            {
              "internalType": "int8",
              "name": "currentNumberOfPlayers",
              "type": "int8"
            },
            {
              "internalType": "int8",
              "name": "playerAccusing",
              "type": "int8"
            },
            {
              "internalType": "int8",
              "name": "accusationWitchType",
              "type": "int8"
            },
            {
              "internalType": "uint256",
              "name": "previous_action_game_block",
              "type": "uint256"
            },
            {
              "internalType": "uint256",
              "name": "current_block",
              "type": "uint256"
            },
            {
              "internalType": "uint256",
              "name": "current_sequence_number",
              "type": "uint256"
            }
          ],
          "internalType": "struct zkWitches.SharedState",
          "name": "shared",
          "type": "tuple"
        },
        {
          "internalType": "address",
          "name": "address0",
          "type": "address"
        },
        {
          "internalType": "address",
          "name": "address1",
          "type": "address"
        },
        {
          "internalType": "address",
          "name": "address2",
          "type": "address"
        },
        {
          "internalType": "address",
          "name": "address3",
          "type": "address"
        },
        {
          "components": [
            {
              "internalType": "bool",
              "name": "isAlive",
              "type": "bool"
            },
            {
              "internalType": "uint256",
              "name": "handCommitment",
              "type": "uint256"
            },
            {
              "internalType": "int8",
              "name": "food",
              "type": "int8"
            },
            {
              "internalType": "int8",
              "name": "lumber",
              "type": "int8"
            },
            {
              "internalType": "int8",
              "name": "WitchAlive0",
              "type": "int8"
            },
            {
              "internalType": "int8",
              "name": "WitchAlive1",
              "type": "int8"
            },
            {
              "internalType": "int8",
              "name": "WitchAlive2",
              "type": "int8"
            },
            {
              "internalType": "int8",
              "name": "WitchAlive3",
              "type": "int8"
            }
          ],
          "internalType": "struct zkWitches.PlayerState",
          "name": "player0",
          "type": "tuple"
        },
        {
          "components": [
            {
              "internalType": "bool",
              "name": "isAlive",
              "type": "bool"
            },
            {
              "internalType": "uint256",
              "name": "handCommitment",
              "type": "uint256"
            },
            {
              "internalType": "int8",
              "name": "food",
              "type": "int8"
            },
            {
              "internalType": "int8",
              "name": "lumber",
              "type": "int8"
            },
            {
              "internalType": "int8",
              "name": "WitchAlive0",
              "type": "int8"
            },
            {
              "internalType": "int8",
              "name": "WitchAlive1",
              "type": "int8"
            },
            {
              "internalType": "int8",
              "name": "WitchAlive2",
              "type": "int8"
            },
            {
              "internalType": "int8",
              "name": "WitchAlive3",
              "type": "int8"
            }
          ],
          "internalType": "struct zkWitches.PlayerState",
          "name": "player1",
          "type": "tuple"
        },
        {
          "components": [
            {
              "internalType": "bool",
              "name": "isAlive",
              "type": "bool"
            },
            {
              "internalType": "uint256",
              "name": "handCommitment",
              "type": "uint256"
            },
            {
              "internalType": "int8",
              "name": "food",
              "type": "int8"
            },
            {
              "internalType": "int8",
              "name": "lumber",
              "type": "int8"
            },
            {
              "internalType": "int8",
              "name": "WitchAlive0",
              "type": "int8"
            },
            {
              "internalType": "int8",
              "name": "WitchAlive1",
              "type": "int8"
            },
            {
              "internalType": "int8",
              "name": "WitchAlive2",
              "type": "int8"
            },
            {
              "internalType": "int8",
              "name": "WitchAlive3",
              "type": "int8"
            }
          ],
          "internalType": "struct zkWitches.PlayerState",
          "name": "player2",
          "type": "tuple"
        },
        {
          "components": [
            {
              "internalType": "bool",
              "name": "isAlive",
              "type": "bool"
            },
            {
              "internalType": "uint256",
              "name": "handCommitment",
              "type": "uint256"
            },
            {
              "internalType": "int8",
              "name": "food",
              "type": "int8"
            },
            {
              "internalType": "int8",
              "name": "lumber",
              "type": "int8"
            },
            {
              "internalType": "int8",
              "name": "WitchAlive0",
              "type": "int8"
            },
            {
              "internalType": "int8",
              "name": "WitchAlive1",
              "type": "int8"
            },
            {
              "internalType": "int8",
              "name": "WitchAlive2",
              "type": "int8"
            },
            {
              "internalType": "int8",
              "name": "WitchAlive3",
              "type": "int8"
            }
          ],
          "internalType": "struct zkWitches.PlayerState",
          "name": "player3",
          "type": "tuple"
        }
      ],
      "stateMutability": "view",
      "type": "function"
    },
    {
      "inputs": [],
      "name": "vm_verifierAddr",
      "outputs": [
        {
          "internalType": "address",
          "name": "",
          "type": "address"
        }
      ],
      "stateMutability": "view",
      "type": "function"
    }
  ],
  "bytecode": "0x60806040523480156200001157600080fd5b5060405162005a9238038062005a92833981810160405281019062000037919062000981565b82601460006101000a81548173ffffffffffffffffffffffffffffffffffffffff021916908373ffffffffffffffffffffffffffffffffffffffff16021790555081601560006101000a81548173ffffffffffffffffffffffffffffffffffffffff021916908373ffffffffffffffffffffffffffffffffffffffff16021790555080601660006101000a81548173ffffffffffffffffffffffffffffffffffffffff021916908373ffffffffffffffffffffffffffffffffffffffff1602179055506200010a6200011360201b60201c565b50505062000a25565b6040518061012001604052806040518061010001604052806000800b81526020016000800b81526020016000800b81526020016000800b81526020016000800b8152602001600081526020016000815260200160008152508152602001600073ffffffffffffffffffffffffffffffffffffffff168152602001600073ffffffffffffffffffffffffffffffffffffffff168152602001600073ffffffffffffffffffffffffffffffffffffffff168152602001600073ffffffffffffffffffffffffffffffffffffffff168152602001604051806101000160405280600015158152602001600081526020016000800b81526020016000800b81526020016000800b81526020016000800b81526020016000800b81526020016000800b8152508152602001604051806101000160405280600015158152602001600081526020016000800b81526020016000800b81526020016000800b81526020016000800b81526020016000800b81526020016000800b8152508152602001604051806101000160405280600015158152602001600081526020016000800b81526020016000800b81526020016000800b81526020016000800b81526020016000800b81526020016000800b8152508152602001604051806101000160405280600015158152602001600081526020016000800b81526020016000800b81526020016000800b81526020016000800b81526020016000800b81526020016000800b8152508152506000808201518160000160008201518160000160006101000a81548160ff021916908360000b60ff16021790555060208201518160000160016101000a81548160ff021916908360000b60ff16021790555060408201518160000160026101000a81548160ff021916908360000b60ff16021790555060608201518160000160036101000a81548160ff021916908360000b60ff16021790555060808201518160000160046101000a81548160ff021916908360000b60ff16021790555060a0820151816001015560c0820151816002015560e08201518160030155505060208201518160040160006101000a81548173ffffffffffffffffffffffffffffffffffffffff021916908373ffffffffffffffffffffffffffffffffffffffff16021790555060408201518160050160006101000a81548173ffffffffffffffffffffffffffffffffffffffff021916908373ffffffffffffffffffffffffffffffffffffffff16021790555060608201518160060160006101000a81548173ffffffffffffffffffffffffffffffffffffffff021916908373ffffffffffffffffffffffffffffffffffffffff16021790555060808201518160070160006101000a81548173ffffffffffffffffffffffffffffffffffffffff021916908373ffffffffffffffffffffffffffffffffffffffff16021790555060a08201518160080160008201518160000160006101000a81548160ff0219169083151502179055506020820151816001015560408201518160020160006101000a81548160ff021916908360000b60ff16021790555060608201518160020160016101000a81548160ff021916908360000b60ff16021790555060808201518160020160026101000a81548160ff021916908360000b60ff16021790555060a08201518160020160036101000a81548160ff021916908360000b60ff16021790555060c08201518160020160046101000a81548160ff021916908360000b60ff16021790555060e08201518160020160056101000a81548160ff021916908360000b60ff160217905550505060c082015181600b0160008201518160000160006101000a81548160ff0219169083151502179055506020820151816001015560408201518160020160006101000a81548160ff021916908360000b60ff16021790555060608201518160020160016101000a81548160ff021916908360000b60ff16021790555060808201518160020160026101000a81548160ff021916908360000b60ff16021790555060a08201518160020160036101000a81548160ff021916908360000b60ff16021790555060c08201518160020160046101000a81548160ff021916908360000b60ff16021790555060e08201518160020160056101000a81548160ff021916908360000b60ff160217905550505060e082015181600e0160008201518160000160006101000a81548160ff0219169083151502179055506020820151816001015560408201518160020160006101000a81548160ff021916908360000b60ff16021790555060608201518160020160016101000a81548160ff021916908360000b60ff16021790555060808201518160020160026101000a81548160ff021916908360000b60ff16021790555060a08201518160020160036101000a81548160ff021916908360000b60ff16021790555060c08201518160020160046101000a81548160ff021916908360000b60ff16021790555060e08201518160020160056101000a81548160ff021916908360000b60ff16021790555050506101008201518160110160008201518160000160006101000a81548160ff0219169083151502179055506020820151816001015560408201518160020160006101000a81548160ff021916908360000b60ff16021790555060608201518160020160016101000a81548160ff021916908360000b60ff16021790555060808201518160020160026101000a81548160ff021916908360000b60ff16021790555060a08201518160020160036101000a81548160ff021916908360000b60ff16021790555060c08201518160020160046101000a81548160ff021916908360000b60ff16021790555060e08201518160020160056101000a81548160ff021916908360000b60ff1602179055505050905050565b6000815190506200097b8162000a0b565b92915050565b6000806000606084860312156200099757600080fd5b6000620009a7868287016200096a565b9350506020620009ba868287016200096a565b9250506040620009cd868287016200096a565b9150509250925092565b6000620009e482620009eb565b9050919050565b600073ffffffffffffffffffffffffffffffffffffffff82169050919050565b62000a1681620009d7565b811462000a2257600080fd5b50565b61505d8062000a356000396000f3fe608060405234801561001057600080fd5b506004361061010b5760003560e01c80637438e6cd116100a25780639ac8736e116100715780639ac8736e14610258578063c6cfc9c514610288578063ca9e7f32146102a4578063d8de5d21146102ca578063f5e44b36146102e85761010b565b80637438e6cd146101d25780637cf1d4e814610202578063834f98931461020c57806390ea2435146102285761010b565b80633259e60f116100de5780633259e60f1461015e5780634c9063cb14610168578063500dfd161461018457806357cf2467146101b45761010b565b8063209f061214610110578063236fc9161461011a57806323918059146101385780633168748b14610154575b600080fd5b610118610304565b005b61012261038e565b60405161012f9190614352565b60405180910390f35b610152600480360381019061014d9190613b89565b6103b4565b005b61015c61093e565b005b610166610977565b005b610182600480360381019061017d9190613a05565b610a01565b005b61019e60048036038101906101999190613b21565b610cd3565b6040516101ab9190614442565b60405180910390f35b6101bc610d70565b6040516101c99190614352565b60405180910390f35b6101ec60048036038101906101e79190613af8565b610d96565b6040516101f99190614352565b60405180910390f35b61020a610ede565b005b61022660048036038101906102219190613a6a565b611735565b005b610242600480360381019061023d9190613af8565b611ccf565b60405161024f919061473d565b60405180910390f35b610272600480360381019061026d91906139dc565b6121d4565b60405161027f9190614442565b60405180910390f35b6102a2600480360381019061029d9190613c15565b612267565b005b6102ac6123b1565b6040516102c199989796959493929190614759565b60405180910390f35b6102d261289f565b6040516102df9190614352565b60405180910390f35b61030260048036038101906102fd9190613b5f565b6128c5565b005b7fffffffffffffffffffffffffffffffffffffffffffffffffffffffffffffffff60000b610331336121d4565b60000b1415610375576040517f08c379a000000000000000000000000000000000000000000000000000000000815260040161036c9061471d565b60405180910390fd5b6000610380336121d4565b905061038b816128c8565b50565b601560009054906101000a900473ffffffffffffffffffffffffffffffffffffffff1681565b7fffffffffffffffffffffffffffffffffffffffffffffffffffffffffffffffff60000b6103e1336121d4565b60000b1415610425576040517f08c379a000000000000000000000000000000000000000000000000000000000815260040161041c9061471d565b60405180910390fd5b6000610430336121d4565b9050600160000b6000800160000160009054906101000a900460000b60000b1461048f576040517f08c379a0000000000000000000000000000000000000000000000000000000008152600401610486906146bd565b60405180910390fd5b8060000b6000800160000160019054906101000a900460000b60000b146104eb576040517f08c379a00000000000000000000000000000000000000000000000000000000081526004016104e29061459d565b60405180910390fd5b60006104f682611ccf565b905082600060078110610532577f4e487b7100000000000000000000000000000000000000000000000000000000600052603260045260246000fd5b602002015181602001511461057c576040517f08c379a0000000000000000000000000000000000000000000000000000000008152600401610573906146dd565b60405180910390fd5b826001600781106105b6577f4e487b7100000000000000000000000000000000000000000000000000000000600052603260045260246000fd5b602002015160000b6105c9826000610cd3565b60000b1461060c576040517f08c379a00000000000000000000000000000000000000000000000000000000081526004016106039061461d565b60405180910390fd5b82600260078110610646577f4e487b7100000000000000000000000000000000000000000000000000000000600052603260045260246000fd5b602002015160000b610659826001610cd3565b60000b1461069c576040517f08c379a00000000000000000000000000000000000000000000000000000000081526004016106939061447d565b60405180910390fd5b826003600781106106d6577f4e487b7100000000000000000000000000000000000000000000000000000000600052603260045260246000fd5b602002015160000b6106e9826002610cd3565b60000b1461072c576040517f08c379a0000000000000000000000000000000000000000000000000000000008152600401610723906144dd565b60405180910390fd5b82600460078110610766577f4e487b7100000000000000000000000000000000000000000000000000000000600052603260045260246000fd5b602002015160000b610779826003610cd3565b60000b146107bc576040517f08c379a00000000000000000000000000000000000000000000000000000000081526004016107b3906146fd565b60405180910390fd5b601560009054906101000a900473ffffffffffffffffffffffffffffffffffffffff1673ffffffffffffffffffffffffffffffffffffffff1663c894e757878787876040518563ffffffff1660e01b815260040161081d94939291906143fb565b60206040518083038186803b15801561083557600080fd5b505afa158015610849573d6000803e3d6000fd5b505050506040513d601f19601f8201168201806040525081019061086d9190613acf565b6108ac576040517f08c379a00000000000000000000000000000000000000000000000000000000081526004016108a3906144fd565b60405180910390fd5b610934836005600781106108e9577f4e487b7100000000000000000000000000000000000000000000000000000000600052603260045260246000fd5b60200201518985600660078110610929577f4e487b7100000000000000000000000000000000000000000000000000000000600052603260045260246000fd5b60200201518a612984565b5050505050505050565b60007fffffffffffffffffffffffffffffffffffffffffffffffffffffffffffffffff90506000156109745761097381612c17565b5b50565b7fffffffffffffffffffffffffffffffffffffffffffffffffffffffffffffffff60000b6109a4336121d4565b60000b14156109e8576040517f08c379a00000000000000000000000000000000000000000000000000000000081526004016109df9061471d565b60405180910390fd5b60006109f3336121d4565b90506109fe81612c17565b50565b7fffffffffffffffffffffffffffffffffffffffffffffffffffffffffffffffff60000b610a2e336121d4565b60000b14610a71576040517f08c379a0000000000000000000000000000000000000000000000000000000008152600401610a689061465d565b60405180910390fd5b6000800b6000800160000160009054906101000a900460000b60000b14610acd576040517f08c379a0000000000000000000000000000000000000000000000000000000008152600401610ac49061453d565b60405180910390fd5b601460009054906101000a900473ffffffffffffffffffffffffffffffffffffffff1673ffffffffffffffffffffffffffffffffffffffff166343753b4d858585856040518563ffffffff1660e01b8152600401610b2e949392919061436d565b60206040518083038186803b158015610b4657600080fd5b505afa158015610b5a573d6000803e3d6000fd5b505050506040513d601f19601f82011682018060405250810190610b7e9190613acf565b610bbd576040517f08c379a0000000000000000000000000000000000000000000000000000000008152600401610bb49061469d565b60405180910390fd5b60008001600001600281819054906101000a900460000b80929190610be190614ac8565b91906101000a81548160ff021916908360000b60ff16021790555050600060016000800160000160029054906101000a900460000b610c2091906149cd565b9050610c2c8133612dc1565b600060405180610100016040528060011515815260200184600060018110610c7d577f4e487b7100000000000000000000000000000000000000000000000000000000600052603260045260246000fd5b602002015181526020016000800b81526020016000800b8152602001600160000b8152602001600160000b8152602001600160000b8152602001600160000b8152509050610ccb8282612f52565b505050505050565b6000808260000b1415610cec5782608001519050610d6a565b60018260000b1415610d04578260a001519050610d6a565b60028260000b1415610d1c578260c001519050610d6a565b60038260000b1415610d34578260e001519050610d6a565b6000610d69577f4e487b7100000000000000000000000000000000000000000000000000000000600052600160045260246000fd5b5b92915050565b601460009054906101000a900473ffffffffffffffffffffffffffffffffffffffff1681565b6000808260000b1415610dd057600060040160009054906101000a900473ffffffffffffffffffffffffffffffffffffffff169050610ed9565b60018260000b1415610e0957600060050160009054906101000a900473ffffffffffffffffffffffffffffffffffffffff169050610ed9565b60028260000b1415610e4257600060060160009054906101000a900473ffffffffffffffffffffffffffffffffffffffff169050610ed9565b60038260000b1415610e7b57600060070160009054906101000a900473ffffffffffffffffffffffffffffffffffffffff169050610ed9565b6000610eb0577f4e487b7100000000000000000000000000000000000000000000000000000000600052600160045260246000fd5b600060040160009054906101000a900473ffffffffffffffffffffffffffffffffffffffff1690505b919050565b6040518061012001604052806040518061010001604052806000800b81526020016000800b81526020016000800b81526020016000800b81526020016000800b8152602001600081526020016000815260200160008152508152602001600073ffffffffffffffffffffffffffffffffffffffff168152602001600073ffffffffffffffffffffffffffffffffffffffff168152602001600073ffffffffffffffffffffffffffffffffffffffff168152602001600073ffffffffffffffffffffffffffffffffffffffff168152602001604051806101000160405280600015158152602001600081526020016000800b81526020016000800b81526020016000800b81526020016000800b81526020016000800b81526020016000800b8152508152602001604051806101000160405280600015158152602001600081526020016000800b81526020016000800b81526020016000800b81526020016000800b81526020016000800b81526020016000800b8152508152602001604051806101000160405280600015158152602001600081526020016000800b81526020016000800b81526020016000800b81526020016000800b81526020016000800b81526020016000800b8152508152602001604051806101000160405280600015158152602001600081526020016000800b81526020016000800b81526020016000800b81526020016000800b81526020016000800b81526020016000800b8152508152506000808201518160000160008201518160000160006101000a81548160ff021916908360000b60ff16021790555060208201518160000160016101000a81548160ff021916908360000b60ff16021790555060408201518160000160026101000a81548160ff021916908360000b60ff16021790555060608201518160000160036101000a81548160ff021916908360000b60ff16021790555060808201518160000160046101000a81548160ff021916908360000b60ff16021790555060a0820151816001015560c0820151816002015560e08201518160030155505060208201518160040160006101000a81548173ffffffffffffffffffffffffffffffffffffffff021916908373ffffffffffffffffffffffffffffffffffffffff16021790555060408201518160050160006101000a81548173ffffffffffffffffffffffffffffffffffffffff021916908373ffffffffffffffffffffffffffffffffffffffff16021790555060608201518160060160006101000a81548173ffffffffffffffffffffffffffffffffffffffff021916908373ffffffffffffffffffffffffffffffffffffffff16021790555060808201518160070160006101000a81548173ffffffffffffffffffffffffffffffffffffffff021916908373ffffffffffffffffffffffffffffffffffffffff16021790555060a08201518160080160008201518160000160006101000a81548160ff0219169083151502179055506020820151816001015560408201518160020160006101000a81548160ff021916908360000b60ff16021790555060608201518160020160016101000a81548160ff021916908360000b60ff16021790555060808201518160020160026101000a81548160ff021916908360000b60ff16021790555060a08201518160020160036101000a81548160ff021916908360000b60ff16021790555060c08201518160020160046101000a81548160ff021916908360000b60ff16021790555060e08201518160020160056101000a81548160ff021916908360000b60ff160217905550505060c082015181600b0160008201518160000160006101000a81548160ff0219169083151502179055506020820151816001015560408201518160020160006101000a81548160ff021916908360000b60ff16021790555060608201518160020160016101000a81548160ff021916908360000b60ff16021790555060808201518160020160026101000a81548160ff021916908360000b60ff16021790555060a08201518160020160036101000a81548160ff021916908360000b60ff16021790555060c08201518160020160046101000a81548160ff021916908360000b60ff16021790555060e08201518160020160056101000a81548160ff021916908360000b60ff160217905550505060e082015181600e0160008201518160000160006101000a81548160ff0219169083151502179055506020820151816001015560408201518160020160006101000a81548160ff021916908360000b60ff16021790555060608201518160020160016101000a81548160ff021916908360000b60ff16021790555060808201518160020160026101000a81548160ff021916908360000b60ff16021790555060a08201518160020160036101000a81548160ff021916908360000b60ff16021790555060c08201518160020160046101000a81548160ff021916908360000b60ff16021790555060e08201518160020160056101000a81548160ff021916908360000b60ff16021790555050506101008201518160110160008201518160000160006101000a81548160ff0219169083151502179055506020820151816001015560408201518160020160006101000a81548160ff021916908360000b60ff16021790555060608201518160020160016101000a81548160ff021916908360000b60ff16021790555060808201518160020160026101000a81548160ff021916908360000b60ff16021790555060a08201518160020160036101000a81548160ff021916908360000b60ff16021790555060c08201518160020160046101000a81548160ff021916908360000b60ff16021790555060e08201518160020160056101000a81548160ff021916908360000b60ff1602179055505050905050565b7fffffffffffffffffffffffffffffffffffffffffffffffffffffffffffffffff60000b611762336121d4565b60000b14156117a6576040517f08c379a000000000000000000000000000000000000000000000000000000000815260040161179d9061471d565b60405180910390fd5b60006117b1336121d4565b9050600260000b6000800160000160009054906101000a900460000b60000b14611810576040517f08c379a00000000000000000000000000000000000000000000000000000000081526004016118079061457d565b60405180910390fd5b8060000b6000800160000160019054906101000a900460000b60000b1461186c576040517f08c379a00000000000000000000000000000000000000000000000000000000081526004016118639061463d565b60405180910390fd5b600061187782611ccf565b9050826000600681106118b3577f4e487b7100000000000000000000000000000000000000000000000000000000600052603260045260246000fd5b60200201518160200151146118fd576040517f08c379a00000000000000000000000000000000000000000000000000000000081526004016118f4906146dd565b60405180910390fd5b82600160068110611937577f4e487b7100000000000000000000000000000000000000000000000000000000600052603260045260246000fd5b602002015160000b61194a826000610cd3565b60000b1461198d576040517f08c379a00000000000000000000000000000000000000000000000000000000081526004016119849061461d565b60405180910390fd5b826002600681106119c7577f4e487b7100000000000000000000000000000000000000000000000000000000600052603260045260246000fd5b602002015160000b6119da826001610cd3565b60000b14611a1d576040517f08c379a0000000000000000000000000000000000000000000000000000000008152600401611a149061447d565b60405180910390fd5b82600360068110611a57577f4e487b7100000000000000000000000000000000000000000000000000000000600052603260045260246000fd5b602002015160000b611a6a826002610cd3565b60000b14611aad576040517f08c379a0000000000000000000000000000000000000000000000000000000008152600401611aa4906144dd565b60405180910390fd5b82600460068110611ae7577f4e487b7100000000000000000000000000000000000000000000000000000000600052603260045260246000fd5b602002015160000b611afa826003610cd3565b60000b14611b3d576040517f08c379a0000000000000000000000000000000000000000000000000000000008152600401611b34906146fd565b60405180910390fd5b82600560068110611b77577f4e487b7100000000000000000000000000000000000000000000000000000000600052603260045260246000fd5b602002015160000b6000800160000160049054906101000a900460000b60000b14611bd7576040517f08c379a0000000000000000000000000000000000000000000000000000000008152600401611bce9061445d565b60405180910390fd5b601660009054906101000a900473ffffffffffffffffffffffffffffffffffffffff1673ffffffffffffffffffffffffffffffffffffffff1663f398789b878787876040518563ffffffff1660e01b8152600401611c3894939291906143b4565b60206040518083038186803b158015611c5057600080fd5b505afa158015611c64573d6000803e3d6000fd5b505050506040513d601f19601f82011682018060405250810190611c889190613acf565b611cc7576040517f08c379a0000000000000000000000000000000000000000000000000000000008152600401611cbe9061467d565b60405180910390fd5b505050505050565b611cd76133ff565b60008260000b1415611dce576000600801604051806101000160405290816000820160009054906101000a900460ff16151515158152602001600182015481526020016002820160009054906101000a900460000b60000b60000b81526020016002820160019054906101000a900460000b60000b60000b81526020016002820160029054906101000a900460000b60000b60000b81526020016002820160039054906101000a900460000b60000b60000b81526020016002820160049054906101000a900460000b60000b60000b81526020016002820160059054906101000a900460000b60000b60000b8152505090506121cf565b60018260000b1415611ec5576000600b01604051806101000160405290816000820160009054906101000a900460ff16151515158152602001600182015481526020016002820160009054906101000a900460000b60000b60000b81526020016002820160019054906101000a900460000b60000b60000b81526020016002820160029054906101000a900460000b60000b60000b81526020016002820160039054906101000a900460000b60000b60000b81526020016002820160049054906101000a900460000b60000b60000b81526020016002820160059054906101000a900460000b60000b60000b8152505090506121cf565b60028260000b1415611fbc576000600e01604051806101000160405290816000820160009054906101000a900460ff16151515158152602001600182015481526020016002820160009054906101000a900460000b60000b60000b81526020016002820160019054906101000a900460000b60000b60000b81526020016002820160029054906101000a900460000b60000b60000b81526020016002820160039054906101000a900460000b60000b60000b81526020016002820160049054906101000a900460000b60000b60000b81526020016002820160059054906101000a900460000b60000b60000b8152505090506121cf565b60038260000b14156120b3576000601101604051806101000160405290816000820160009054906101000a900460ff16151515158152602001600182015481526020016002820160009054906101000a900460000b60000b60000b81526020016002820160019054906101000a900460000b60000b60000b81526020016002820160029054906101000a900460000b60000b60000b81526020016002820160039054906101000a900460000b60000b60000b81526020016002820160049054906101000a900460000b60000b60000b81526020016002820160059054906101000a900460000b60000b60000b8152505090506121cf565b60006120e8577f4e487b7100000000000000000000000000000000000000000000000000000000600052600160045260246000fd5b6000600801604051806101000160405290816000820160009054906101000a900460ff16151515158152602001600182015481526020016002820160009054906101000a900460000b60000b60000b81526020016002820160019054906101000a900460000b60000b60000b81526020016002820160029054906101000a900460000b60000b60000b81526020016002820160039054906101000a900460000b60000b60000b81526020016002820160049054906101000a900460000b60000b60000b81526020016002820160059054906101000a900460000b60000b60000b8152505090505b919050565b600080600090505b600481101561223d578273ffffffffffffffffffffffffffffffffffffffff1661220582610d96565b73ffffffffffffffffffffffffffffffffffffffff16141561222a5780915050612262565b808061223590614af2565b9150506121dc565b507fffffffffffffffffffffffffffffffffffffffffffffffffffffffffffffffff90505b919050565b7fffffffffffffffffffffffffffffffffffffffffffffffffffffffffffffffff60000b612294336121d4565b60000b14156122d8576040517f08c379a00000000000000000000000000000000000000000000000000000000081526004016122cf9061471d565b60405180910390fd5b60006122e3336121d4565b9050600160000b6000800160000160009054906101000a900460000b60000b14612342576040517f08c379a0000000000000000000000000000000000000000000000000000000008152600401612339906146bd565b60405180910390fd5b8060000b6000800160000160019054906101000a900460000b60000b1461239e576040517f08c379a00000000000000000000000000000000000000000000000000000000081526004016123959061459d565b60405180910390fd5b6123ab8484846000612984565b50505050565b600080600001604051806101000160405290816000820160009054906101000a900460000b60000b60000b81526020016000820160019054906101000a900460000b60000b60000b81526020016000820160029054906101000a900460000b60000b60000b81526020016000820160039054906101000a900460000b60000b60000b81526020016000820160049054906101000a900460000b60000b60000b81526020016001820154815260200160028201548152602001600382015481525050908060040160009054906101000a900473ffffffffffffffffffffffffffffffffffffffff16908060050160009054906101000a900473ffffffffffffffffffffffffffffffffffffffff16908060060160009054906101000a900473ffffffffffffffffffffffffffffffffffffffff16908060070160009054906101000a900473ffffffffffffffffffffffffffffffffffffffff169080600801604051806101000160405290816000820160009054906101000a900460ff16151515158152602001600182015481526020016002820160009054906101000a900460000b60000b60000b81526020016002820160019054906101000a900460000b60000b60000b81526020016002820160029054906101000a900460000b60000b60000b81526020016002820160039054906101000a900460000b60000b60000b81526020016002820160049054906101000a900460000b60000b60000b81526020016002820160059054906101000a900460000b60000b60000b815250509080600b01604051806101000160405290816000820160009054906101000a900460ff16151515158152602001600182015481526020016002820160009054906101000a900460000b60000b60000b81526020016002820160019054906101000a900460000b60000b60000b81526020016002820160029054906101000a900460000b60000b60000b81526020016002820160039054906101000a900460000b60000b60000b81526020016002820160049054906101000a900460000b60000b60000b81526020016002820160059054906101000a900460000b60000b60000b815250509080600e01604051806101000160405290816000820160009054906101000a900460ff16151515158152602001600182015481526020016002820160009054906101000a900460000b60000b60000b81526020016002820160019054906101000a900460000b60000b60000b81526020016002820160029054906101000a900460000b60000b60000b81526020016002820160039054906101000a900460000b60000b60000b81526020016002820160049054906101000a900460000b60000b60000b81526020016002820160059054906101000a900460000b60000b60000b815250509080601101604051806101000160405290816000820160009054906101000a900460ff16151515158152602001600182015481526020016002820160009054906101000a900460000b60000b60000b81526020016002820160019054906101000a900460000b60000b60000b81526020016002820160029054906101000a900460000b60000b60000b81526020016002820160039054906101000a900460000b60000b60000b81526020016002820160049054906101000a900460000b60000b60000b81526020016002820160059054906101000a900460000b60000b60000b81525050905089565b601660009054906101000a900473ffffffffffffffffffffffffffffffffffffffff1681565b50565b600260000b6000800160000160009054906101000a900460000b60000b14612925576040517f08c379a000000000000000000000000000000000000000000000000000000000815260040161291c9061457d565b60405180910390fd5b8060000b6000800160000160019054906101000a900460000b60000b14612981576040517f08c379a00000000000000000000000000000000000000000000000000000000081526004016129789061463d565b60405180910390fd5b50565b60008460000b1215801561299c575060038460000b13155b6129db576040517f08c379a00000000000000000000000000000000000000000000000000000000081526004016129d29061449d565b60405180910390fd5b6000800b8460000b14156129ee57612c11565b600160000b8460000b1415612a0257612c10565b600260000b8460000b1415612b0a578260000b612a1e336121d4565b60000b1415612a62576040517f08c379a0000000000000000000000000000000000000000000000000000000008152600401612a59906144bd565b60405180910390fd5b60008360000b12158015612a7a575060038360000b13155b612ab9576040517f08c379a0000000000000000000000000000000000000000000000000000000008152600401612ab0906145bd565b60405180910390fd5b612ac283611ccf565b60000151612b05576040517f08c379a0000000000000000000000000000000000000000000000000000000008152600401612afc9061451d565b60405180910390fd5b612c0f565b600360000b8460000b1415612c0e578260000b612b26336121d4565b60000b1415612b6a576040517f08c379a0000000000000000000000000000000000000000000000000000000008152600401612b61906144bd565b60405180910390fd5b60008360000b12158015612b82575060038360000b13155b612bc1576040517f08c379a0000000000000000000000000000000000000000000000000000000008152600401612bb8906145bd565b60405180910390fd5b612bca83611ccf565b60000151612c0d576040517f08c379a0000000000000000000000000000000000000000000000000000000008152600401612c049061451d565b60405180910390fd5b5b5b5b5b50505050565b6000800b6000800160000160009054906101000a900460000b60000b1415612c74576040517f08c379a0000000000000000000000000000000000000000000000000000000008152600401612c6b9061455d565b60405180910390fd5b600360000b6000800160000160009054906101000a900460000b60000b1415612cd2576040517f08c379a0000000000000000000000000000000000000000000000000000000008152600401612cc9906145dd565b60405180910390fd5b612cdb81611ccf565b60000151612d1e576040517f08c379a0000000000000000000000000000000000000000000000000000000008152600401612d15906145fd565b60405180910390fd5b600160000b6000800160000160009054906101000a900460000b60000b148015612d6157508060000b6000800160000160019054906101000a900460000b60000b145b15612d6b57612dbe565b600260000b6000800160000160009054906101000a900460000b60000b148015612dae57508060000b6000800160000160019054906101000a900460000b60000b145b15612dbd57612dbc816128c8565b5b5b50565b60008260000b1415612e165780600060040160006101000a81548173ffffffffffffffffffffffffffffffffffffffff021916908373ffffffffffffffffffffffffffffffffffffffff160217905550612f4e565b60018260000b1415612e6b5780600060050160006101000a81548173ffffffffffffffffffffffffffffffffffffffff021916908373ffffffffffffffffffffffffffffffffffffffff160217905550612f4d565b60028260000b1415612ec05780600060060160006101000a81548173ffffffffffffffffffffffffffffffffffffffff021916908373ffffffffffffffffffffffffffffffffffffffff160217905550612f4c565b60038260000b1415612f155780600060070160006101000a81548173ffffffffffffffffffffffffffffffffffffffff021916908373ffffffffffffffffffffffffffffffffffffffff160217905550612f4b565b6000612f4a577f4e487b7100000000000000000000000000000000000000000000000000000000600052600160045260246000fd5b5b5b5b5b5050565b60008260000b141561306e5780600060080160008201518160000160006101000a81548160ff0219169083151502179055506020820151816001015560408201518160020160006101000a81548160ff021916908360000b60ff16021790555060608201518160020160016101000a81548160ff021916908360000b60ff16021790555060808201518160020160026101000a81548160ff021916908360000b60ff16021790555060a08201518160020160036101000a81548160ff021916908360000b60ff16021790555060c08201518160020160046101000a81548160ff021916908360000b60ff16021790555060e08201518160020160056101000a81548160ff021916908360000b60ff1602179055509050506133fb565b60018260000b141561318a57806000600b0160008201518160000160006101000a81548160ff0219169083151502179055506020820151816001015560408201518160020160006101000a81548160ff021916908360000b60ff16021790555060608201518160020160016101000a81548160ff021916908360000b60ff16021790555060808201518160020160026101000a81548160ff021916908360000b60ff16021790555060a08201518160020160036101000a81548160ff021916908360000b60ff16021790555060c08201518160020160046101000a81548160ff021916908360000b60ff16021790555060e08201518160020160056101000a81548160ff021916908360000b60ff1602179055509050506133fa565b60028260000b14156132a657806000600e0160008201518160000160006101000a81548160ff0219169083151502179055506020820151816001015560408201518160020160006101000a81548160ff021916908360000b60ff16021790555060608201518160020160016101000a81548160ff021916908360000b60ff16021790555060808201518160020160026101000a81548160ff021916908360000b60ff16021790555060a08201518160020160036101000a81548160ff021916908360000b60ff16021790555060c08201518160020160046101000a81548160ff021916908360000b60ff16021790555060e08201518160020160056101000a81548160ff021916908360000b60ff1602179055509050506133f9565b60038260000b14156133c25780600060110160008201518160000160006101000a81548160ff0219169083151502179055506020820151816001015560408201518160020160006101000a81548160ff021916908360000b60ff16021790555060608201518160020160016101000a81548160ff021916908360000b60ff16021790555060808201518160020160026101000a81548160ff021916908360000b60ff16021790555060a08201518160020160036101000a81548160ff021916908360000b60ff16021790555060c08201518160020160046101000a81548160ff021916908360000b60ff16021790555060e08201518160020160056101000a81548160ff021916908360000b60ff1602179055509050506133f8565b60006133f7577f4e487b7100000000000000000000000000000000000000000000000000000000600052600160045260246000fd5b5b5b5b5b5050565b604051806101000160405280600015158152602001600081526020016000800b81526020016000800b81526020016000800b81526020016000800b81526020016000800b81526020016000800b81525090565b600061346561346084614812565b6147ed565b9050808285604086028201111561347b57600080fd5b60005b858110156134ab578161349188826136a4565b84526020840193506040830192505060018101905061347e565b5050509392505050565b60006134c86134c384614838565b6147ed565b905080828560208602820111156134de57600080fd5b60005b8581101561350e57816134f488826139c7565b8452602084019350602083019250506001810190506134e1565b5050509392505050565b600061352b6135268461485e565b6147ed565b9050808285602086028201111561354157600080fd5b60005b85811015613571578161355788826139c7565b845260208401935060208301925050600181019050613544565b5050509392505050565b600061358e61358984614884565b6147ed565b905080828560208602820111156135a457600080fd5b60005b858110156135d457816135ba88826139c7565b8452602084019350602083019250506001810190506135a7565b5050509392505050565b60006135f16135ec846148aa565b6147ed565b9050808285602086028201111561360757600080fd5b60005b85811015613637578161361d88826139c7565b84526020840193506020830192505060018101905061360a565b5050509392505050565b60008135905061365081614fcb565b92915050565b600082601f83011261366757600080fd5b6002613674848285613452565b91505092915050565b600082601f83011261368e57600080fd5b600161369b8482856134b5565b91505092915050565b600082601f8301126136b557600080fd5b60026136c2848285613518565b91505092915050565b600082601f8301126136dc57600080fd5b60066136e984828561357b565b91505092915050565b600082601f83011261370357600080fd5b60076137108482856135de565b91505092915050565b60008135905061372881614fe2565b92915050565b60008151905061373d81614fe2565b92915050565b60008135905061375281614ff9565b92915050565b6000610100828403121561376b57600080fd5b6137766101006147ed565b9050600061378684828501613719565b600083015250602061379a848285016139c7565b60208301525060406137ae84828501613743565b60408301525060606137c284828501613743565b60608301525060806137d684828501613743565b60808301525060a06137ea84828501613743565b60a08301525060c06137fe84828501613743565b60c08301525060e061381284828501613743565b60e08301525092915050565b6000610100828403121561383157600080fd5b61383c6101006147ed565b9050600061384c84828501613743565b600083015250602061386084828501613743565b602083015250604061387484828501613743565b604083015250606061388884828501613743565b606083015250608061389c84828501613743565b60808301525060a06138b0848285016139c7565b60a08301525060c06138c4848285016139c7565b60c08301525060e06138d8848285016139c7565b60e08301525092915050565b600061058082840312156138f757600080fd5b6139026101206147ed565b905060006139128482850161381e565b60008301525061010061392784828501613641565b60208301525061012061393c84828501613641565b60408301525061014061395184828501613641565b60608301525061016061396684828501613641565b60808301525061018061397b84828501613758565b60a08301525061028061399084828501613758565b60c0830152506103806139a584828501613758565b60e0830152506104806139ba84828501613758565b6101008301525092915050565b6000813590506139d681615010565b92915050565b6000602082840312156139ee57600080fd5b60006139fc84828501613641565b91505092915050565b6000806000806101208587031215613a1c57600080fd5b6000613a2a878288016136a4565b9450506040613a3b87828801613656565b93505060c0613a4c878288016136a4565b925050610100613a5e8782880161367d565b91505092959194509250565b6000806000806101c08587031215613a8157600080fd5b6000613a8f878288016136a4565b9450506040613aa087828801613656565b93505060c0613ab1878288016136a4565b925050610100613ac3878288016136cb565b91505092959194509250565b600060208284031215613ae157600080fd5b6000613aef8482850161372e565b91505092915050565b600060208284031215613b0a57600080fd5b6000613b1884828501613743565b91505092915050565b6000806101208385031215613b3557600080fd5b6000613b4385828601613758565b925050610100613b5585828601613743565b9150509250929050565b60006105808284031215613b7257600080fd5b6000613b80848285016138e4565b91505092915050565b6000806000806000806102208789031215613ba357600080fd5b6000613bb189828a016139c7565b9650506020613bc289828a016139c7565b9550506040613bd389828a016136a4565b9450506080613be489828a01613656565b935050610100613bf689828a016136a4565b925050610140613c0889828a016136f2565b9150509295509295509295565b600080600060608486031215613c2a57600080fd5b6000613c38868287016139c7565b9350506020613c49868287016139c7565b9250506040613c5a868287016139c7565b9150509250925092565b6000613c708383613d51565b60408301905092915050565b6000613c888383614343565b60208301905092915050565b613c9d81614a42565b82525050565b613cac81614902565b613cb6818461497a565b9250613cc1826148d0565b8060005b83811015613cf2578151613cd98782613c64565b9650613ce483614939565b925050600181019050613cc5565b505050505050565b613d038161490d565b613d0d8184614985565b9250613d18826148da565b8060005b83811015613d49578151613d308782613c7c565b9650613d3b83614946565b925050600181019050613d1c565b505050505050565b613d5a81614918565b613d648184614990565b9250613d6f826148e4565b8060005b83811015613da0578151613d878782613c7c565b9650613d9283614953565b925050600181019050613d73565b505050505050565b613db181614918565b613dbb818461499b565b9250613dc6826148e4565b8060005b83811015613df7578151613dde8782613c7c565b9650613de983614953565b925050600181019050613dca565b505050505050565b613e0881614923565b613e1281846149a6565b9250613e1d826148ee565b8060005b83811015613e4e578151613e358782613c7c565b9650613e4083614960565b925050600181019050613e21565b505050505050565b613e5f8161492e565b613e6981846149b1565b9250613e74826148f8565b8060005b83811015613ea5578151613e8c8782613c7c565b9650613e978361496d565b925050600181019050613e78565b505050505050565b613eb681614a54565b82525050565b613ec581614a60565b82525050565b613ed481614a60565b82525050565b6000613ee76023836149bc565b9150613ef282614baa565b604082019050919050565b6000613f0a601c836149bc565b9150613f1582614bf9565b602082019050919050565b6000613f2d600e836149bc565b9150613f3882614c22565b602082019050919050565b6000613f506016836149bc565b9150613f5b82614c4b565b602082019050919050565b6000613f73601c836149bc565b9150613f7e82614c74565b602082019050919050565b6000613f966017836149bc565b9150613fa182614c9d565b602082019050919050565b6000613fb9601b836149bc565b9150613fc482614cc6565b602082019050919050565b6000613fdc6018836149bc565b9150613fe782614cef565b602082019050919050565b6000613fff602c836149bc565b915061400a82614d18565b604082019050919050565b6000614022602f836149bc565b915061402d82614d67565b604082019050919050565b6000614045600e836149bc565b915061405082614db6565b602082019050919050565b6000614068601d836149bc565b915061407382614ddf565b602082019050919050565b600061408b6019836149bc565b915061409682614e08565b602082019050919050565b60006140ae6017836149bc565b91506140b982614e31565b602082019050919050565b60006140d1601c836149bc565b91506140dc82614e5a565b602082019050919050565b60006140f46012836149bc565b91506140ff82614e83565b602082019050919050565b6000614117601b836149bc565b915061412282614eac565b602082019050919050565b600061413a6015836149bc565b915061414582614ed5565b602082019050919050565b600061415d601c836149bc565b915061416882614efe565b602082019050919050565b6000614180601f836149bc565b915061418b82614f27565b602082019050919050565b60006141a3601d836149bc565b91506141ae82614f50565b602082019050919050565b60006141c6601c836149bc565b91506141d182614f79565b602082019050919050565b60006141e9601d836149bc565b91506141f482614fa2565b602082019050919050565b610100820160008201516142166000850182613ead565b5060208201516142296020850182614343565b50604082015161423c6040850182613ebc565b50606082015161424f6060850182613ebc565b5060808201516142626080850182613ebc565b5060a082015161427560a0850182613ebc565b5060c082015161428860c0850182613ebc565b5060e082015161429b60e0850182613ebc565b50505050565b610100820160008201516142b86000850182613ebc565b5060208201516142cb6020850182613ebc565b5060408201516142de6040850182613ebc565b5060608201516142f16060850182613ebc565b5060808201516143046080850182613ebc565b5060a082015161431760a0850182614343565b5060c082015161432a60c0850182614343565b5060e082015161433d60e0850182614343565b50505050565b61434c81614a8d565b82525050565b60006020820190506143676000830184613c94565b92915050565b6000610120820190506143836000830187613da8565b6143906040830186613ca3565b61439d60c0830185613da8565b6143ab610100830184613cfa565b95945050505050565b60006101c0820190506143ca6000830187613da8565b6143d76040830186613ca3565b6143e460c0830185613da8565b6143f2610100830184613dff565b95945050505050565b60006101e0820190506144116000830187613da8565b61441e6040830186613ca3565b61442b60c0830185613da8565b614439610100830184613e56565b95945050505050565b60006020820190506144576000830184613ecb565b92915050565b6000602082019050818103600083015261447681613eda565b9050919050565b6000602082019050818103600083015261449681613efd565b9050919050565b600060208201905081810360008301526144b681613f20565b9050919050565b600060208201905081810360008301526144d681613f43565b9050919050565b600060208201905081810360008301526144f681613f66565b9050919050565b6000602082019050818103600083015261451681613f89565b9050919050565b6000602082019050818103600083015261453681613fac565b9050919050565b6000602082019050818103600083015261455681613fcf565b9050919050565b6000602082019050818103600083015261457681613ff2565b9050919050565b6000602082019050818103600083015261459681614015565b9050919050565b600060208201905081810360008301526145b681614038565b9050919050565b600060208201905081810360008301526145d68161405b565b9050919050565b600060208201905081810360008301526145f68161407e565b9050919050565b60006020820190508181036000830152614616816140a1565b9050919050565b60006020820190508181036000830152614636816140c4565b9050919050565b60006020820190508181036000830152614656816140e7565b9050919050565b600060208201905081810360008301526146768161410a565b9050919050565b600060208201905081810360008301526146968161412d565b9050919050565b600060208201905081810360008301526146b681614150565b9050919050565b600060208201905081810360008301526146d681614173565b9050919050565b600060208201905081810360008301526146f681614196565b9050919050565b60006020820190508181036000830152614716816141b9565b9050919050565b60006020820190508181036000830152614736816141dc565b9050919050565b60006101008201905061475360008301846141ff565b92915050565b60006105808201905061476f600083018c6142a1565b61477d61010083018b613c94565b61478b61012083018a613c94565b614799610140830189613c94565b6147a7610160830188613c94565b6147b56101808301876141ff565b6147c36102808301866141ff565b6147d16103808301856141ff565b6147df6104808301846141ff565b9a9950505050505050505050565b60006147f7614808565b90506148038282614a97565b919050565b6000604051905090565b600067ffffffffffffffff82111561482d5761482c614b6a565b5b602082029050919050565b600067ffffffffffffffff82111561485357614852614b6a565b5b602082029050919050565b600067ffffffffffffffff82111561487957614878614b6a565b5b602082029050919050565b600067ffffffffffffffff82111561489f5761489e614b6a565b5b602082029050919050565b600067ffffffffffffffff8211156148c5576148c4614b6a565b5b602082029050919050565b6000819050919050565b6000819050919050565b6000819050919050565b6000819050919050565b6000819050919050565b600060029050919050565b600060019050919050565b600060029050919050565b600060069050919050565b600060079050919050565b6000602082019050919050565b6000602082019050919050565b6000602082019050919050565b6000602082019050919050565b6000602082019050919050565b600081905092915050565b600081905092915050565b600081905092915050565b600081905092915050565b600081905092915050565b600081905092915050565b600082825260208201905092915050565b60006149d882614a60565b91506149e383614a60565b9250827fffffffffffffffffffffffffffffffffffffffffffffffffffffffffffffff8001821260008412151615614a1e57614a1d614b3b565b5b82607f018213600084121615614a3757614a36614b3b565b5b828203905092915050565b6000614a4d82614a6d565b9050919050565b60008115159050919050565b60008160000b9050919050565b600073ffffffffffffffffffffffffffffffffffffffff82169050919050565b6000819050919050565b614aa082614b99565b810181811067ffffffffffffffff82111715614abf57614abe614b6a565b5b80604052505050565b6000614ad382614a60565b9150607f821415614ae757614ae6614b3b565b5b600182019050919050565b6000614afd82614a8d565b91507fffffffffffffffffffffffffffffffffffffffffffffffffffffffffffffffff821415614b3057614b2f614b3b565b5b600182019050919050565b7f4e487b7100000000000000000000000000000000000000000000000000000000600052601160045260246000fd5b7f4e487b7100000000000000000000000000000000000000000000000000000000600052604160045260246000fd5b6000601f19601f8301169050919050565b7f526573706f6e64696e6720746f2077726f6e672061636375736174696f6e207460008201527f7970650000000000000000000000000000000000000000000000000000000000602082015250565b7f5769746368203120416c69766520646f6573206e6f74206d6174636800000000600082015250565b7f556e6b6e6f776e20616374696f6e000000000000000000000000000000000000600082015250565b7f43616e6e6f742074617267657420796f757273656c6600000000000000000000600082015250565b7f5769746368203220416c69766520646f6573206e6f74206d6174636800000000600082015250565b7f496e76616c69642076616c69646d6f76652070726f6f66000000000000000000600082015250565b7f43616e6e6f74207461726765742061206465616420706c617965720000000000600082015250565b7f47616d652068617320616c726561647920737461727465640000000000000000600082015250565b7f4120506c617965722063616e6e6f74206c6f7365206265666f7265207468652060008201527f67616d65207374617274732e0000000000000000000000000000000000000000602082015250565b7f4e6f742077616974696e6720666f72206120706c6179657220726573706f6e7360008201527f6520746f2061636375736174696f6e0000000000000000000000000000000000602082015250565b7f4e6f7420796f7572207475726e2e000000000000000000000000000000000000600082015250565b7f4d757374207461726765742061206578697374696e6720706c61796572000000600082015250565b7f5468652067616d6520697320616c7265616479206f7665722e00000000000000600082015250565b7f506c6179657220697320616c726561647920646561642e000000000000000000600082015250565b7f5769746368203020416c69766520646f6573206e6f74206d6174636800000000600082015250565b7f4e6f7420796f757220726573706f6e73652e0000000000000000000000000000600082015250565b7f596f752061726520616c726561647920696e207468652067616d650000000000600082015250565b7f496e76616c6964206e6f77697463682070726f6f660000000000000000000000600082015250565b7f496e76616c69642068616e64636f6d6d69746d656e742070726f6f6600000000600082015250565b7f4e6f742077616974696e6720666f72206120706c6179657220616374696f6e00600082015250565b7f48616e6420636f6d6d69746d656e747320646f206e6f74206d61746368000000600082015250565b7f5769746368203320416c69766520646f6573206e6f74206d6174636800000000600082015250565b7f41646472657373206973204e6f7420612076616c696420506c61796572000000600082015250565b614fd481614a42565b8114614fdf57600080fd5b50565b614feb81614a54565b8114614ff657600080fd5b50565b61500281614a60565b811461500d57600080fd5b50565b61501981614a8d565b811461502457600080fd5b5056fea2646970667358221220d17e125872186f5bd6e1eb11020aa306322802e03dc5e2bea3d940a90e03ea2364736f6c63430008040033",
  "linkReferences": {},
  "deployedLinkReferences": {}
}