{
  "_format": "hh-sol-artifact-1",
  "contractName": "zkWitches",
  "sourceName": "contracts/zkWitches.sol",
  "abi": [
    {
      "inputs": [
        {
          "internalType": "address",
          "name": "hc_verifier",
          "type": "address"
        },
        {
          "internalType": "address",
          "name": "vm_verifier",
          "type": "address"
        },
        {
          "internalType": "address",
          "name": "nw_verifier",
          "type": "address"
        }
      ],
      "stateMutability": "nonpayable",
      "type": "constructor"
    },
    {
      "inputs": [
        {
          "internalType": "uint256",
          "name": "actionType",
          "type": "uint256"
        },
        {
          "internalType": "uint256",
          "name": "actionTarget",
          "type": "uint256"
        },
        {
          "internalType": "uint256",
          "name": "witchType",
          "type": "uint256"
        }
      ],
      "name": "ActionNoProof",
      "outputs": [],
      "stateMutability": "nonpayable",
      "type": "function"
    },
    {
      "inputs": [
        {
          "internalType": "uint256",
          "name": "actionTarget",
          "type": "uint256"
        },
        {
          "internalType": "uint256",
          "name": "witchType",
          "type": "uint256"
        },
        {
          "internalType": "uint256[2]",
          "name": "a",
          "type": "uint256[2]"
        },
        {
          "internalType": "uint256[2][2]",
          "name": "b",
          "type": "uint256[2][2]"
        },
        {
          "internalType": "uint256[2]",
          "name": "c",
          "type": "uint256[2]"
        },
        {
          "internalType": "uint256[7]",
          "name": "input",
          "type": "uint256[7]"
        }
      ],
      "name": "ActionWithProof",
      "outputs": [],
      "stateMutability": "nonpayable",
      "type": "function"
    },
    {
      "inputs": [],
      "name": "DEBUG_Reset",
      "outputs": [],
      "stateMutability": "nonpayable",
      "type": "function"
    },
    {
      "inputs": [
        {
          "components": [
            {
              "components": [
                {
                  "internalType": "int8",
                  "name": "stateEnum",
                  "type": "int8"
                },
                {
                  "internalType": "int8",
                  "name": "playerSlotWaiting",
                  "type": "int8"
                },
                {
                  "internalType": "int8",
                  "name": "currentNumberOfPlayers",
                  "type": "int8"
                },
                {
                  "internalType": "int8",
                  "name": "playerAccusing",
                  "type": "int8"
                },
                {
                  "internalType": "int8",
                  "name": "accusationWitchType",
                  "type": "int8"
                },
                {
                  "internalType": "uint256",
                  "name": "previous_action_game_block",
                  "type": "uint256"
                },
                {
                  "internalType": "uint256",
                  "name": "current_block",
                  "type": "uint256"
                },
                {
                  "internalType": "uint256",
                  "name": "current_sequence_number",
                  "type": "uint256"
                }
              ],
              "internalType": "struct zkWitches.SharedState",
              "name": "shared",
              "type": "tuple"
            },
            {
              "internalType": "address",
              "name": "address0",
              "type": "address"
            },
            {
              "internalType": "address",
              "name": "address1",
              "type": "address"
            },
            {
              "internalType": "address",
              "name": "address2",
              "type": "address"
            },
            {
              "internalType": "address",
              "name": "address3",
              "type": "address"
            },
            {
              "components": [
                {
                  "internalType": "bool",
                  "name": "isAlive",
                  "type": "bool"
                },
                {
                  "internalType": "uint256",
                  "name": "handCommitment",
                  "type": "uint256"
                },
                {
                  "internalType": "int8",
                  "name": "food",
                  "type": "int8"
                },
                {
                  "internalType": "int8",
                  "name": "lumber",
                  "type": "int8"
                },
                {
                  "internalType": "int8",
                  "name": "WitchAlive0",
                  "type": "int8"
                },
                {
                  "internalType": "int8",
                  "name": "WitchAlive1",
                  "type": "int8"
                },
                {
                  "internalType": "int8",
                  "name": "WitchAlive2",
                  "type": "int8"
                },
                {
                  "internalType": "int8",
                  "name": "WitchAlive3",
                  "type": "int8"
                }
              ],
              "internalType": "struct zkWitches.PlayerState",
              "name": "player0",
              "type": "tuple"
            },
            {
              "components": [
                {
                  "internalType": "bool",
                  "name": "isAlive",
                  "type": "bool"
                },
                {
                  "internalType": "uint256",
                  "name": "handCommitment",
                  "type": "uint256"
                },
                {
                  "internalType": "int8",
                  "name": "food",
                  "type": "int8"
                },
                {
                  "internalType": "int8",
                  "name": "lumber",
                  "type": "int8"
                },
                {
                  "internalType": "int8",
                  "name": "WitchAlive0",
                  "type": "int8"
                },
                {
                  "internalType": "int8",
                  "name": "WitchAlive1",
                  "type": "int8"
                },
                {
                  "internalType": "int8",
                  "name": "WitchAlive2",
                  "type": "int8"
                },
                {
                  "internalType": "int8",
                  "name": "WitchAlive3",
                  "type": "int8"
                }
              ],
              "internalType": "struct zkWitches.PlayerState",
              "name": "player1",
              "type": "tuple"
            },
            {
              "components": [
                {
                  "internalType": "bool",
                  "name": "isAlive",
                  "type": "bool"
                },
                {
                  "internalType": "uint256",
                  "name": "handCommitment",
                  "type": "uint256"
                },
                {
                  "internalType": "int8",
                  "name": "food",
                  "type": "int8"
                },
                {
                  "internalType": "int8",
                  "name": "lumber",
                  "type": "int8"
                },
                {
                  "internalType": "int8",
                  "name": "WitchAlive0",
                  "type": "int8"
                },
                {
                  "internalType": "int8",
                  "name": "WitchAlive1",
                  "type": "int8"
                },
                {
                  "internalType": "int8",
                  "name": "WitchAlive2",
                  "type": "int8"
                },
                {
                  "internalType": "int8",
                  "name": "WitchAlive3",
                  "type": "int8"
                }
              ],
              "internalType": "struct zkWitches.PlayerState",
              "name": "player2",
              "type": "tuple"
            },
            {
              "components": [
                {
                  "internalType": "bool",
                  "name": "isAlive",
                  "type": "bool"
                },
                {
                  "internalType": "uint256",
                  "name": "handCommitment",
                  "type": "uint256"
                },
                {
                  "internalType": "int8",
                  "name": "food",
                  "type": "int8"
                },
                {
                  "internalType": "int8",
                  "name": "lumber",
                  "type": "int8"
                },
                {
                  "internalType": "int8",
                  "name": "WitchAlive0",
                  "type": "int8"
                },
                {
                  "internalType": "int8",
                  "name": "WitchAlive1",
                  "type": "int8"
                },
                {
                  "internalType": "int8",
                  "name": "WitchAlive2",
                  "type": "int8"
                },
                {
                  "internalType": "int8",
                  "name": "WitchAlive3",
                  "type": "int8"
                }
              ],
              "internalType": "struct zkWitches.PlayerState",
              "name": "player3",
              "type": "tuple"
            }
          ],
          "internalType": "struct zkWitches.TotalGameState",
          "name": "inputTgs",
          "type": "tuple"
        }
      ],
      "name": "DEBUG_SetGameState",
      "outputs": [],
      "stateMutability": "nonpayable",
      "type": "function"
    },
    {
      "inputs": [],
      "name": "GetTGS",
      "outputs": [
        {
          "components": [
            {
              "components": [
                {
                  "internalType": "int8",
                  "name": "stateEnum",
                  "type": "int8"
                },
                {
                  "internalType": "int8",
                  "name": "playerSlotWaiting",
                  "type": "int8"
                },
                {
                  "internalType": "int8",
                  "name": "currentNumberOfPlayers",
                  "type": "int8"
                },
                {
                  "internalType": "int8",
                  "name": "playerAccusing",
                  "type": "int8"
                },
                {
                  "internalType": "int8",
                  "name": "accusationWitchType",
                  "type": "int8"
                },
                {
                  "internalType": "uint256",
                  "name": "previous_action_game_block",
                  "type": "uint256"
                },
                {
                  "internalType": "uint256",
                  "name": "current_block",
                  "type": "uint256"
                },
                {
                  "internalType": "uint256",
                  "name": "current_sequence_number",
                  "type": "uint256"
                }
              ],
              "internalType": "struct zkWitches.SharedState",
              "name": "shared",
              "type": "tuple"
            },
            {
              "internalType": "address",
              "name": "address0",
              "type": "address"
            },
            {
              "internalType": "address",
              "name": "address1",
              "type": "address"
            },
            {
              "internalType": "address",
              "name": "address2",
              "type": "address"
            },
            {
              "internalType": "address",
              "name": "address3",
              "type": "address"
            },
            {
              "components": [
                {
                  "internalType": "bool",
                  "name": "isAlive",
                  "type": "bool"
                },
                {
                  "internalType": "uint256",
                  "name": "handCommitment",
                  "type": "uint256"
                },
                {
                  "internalType": "int8",
                  "name": "food",
                  "type": "int8"
                },
                {
                  "internalType": "int8",
                  "name": "lumber",
                  "type": "int8"
                },
                {
                  "internalType": "int8",
                  "name": "WitchAlive0",
                  "type": "int8"
                },
                {
                  "internalType": "int8",
                  "name": "WitchAlive1",
                  "type": "int8"
                },
                {
                  "internalType": "int8",
                  "name": "WitchAlive2",
                  "type": "int8"
                },
                {
                  "internalType": "int8",
                  "name": "WitchAlive3",
                  "type": "int8"
                }
              ],
              "internalType": "struct zkWitches.PlayerState",
              "name": "player0",
              "type": "tuple"
            },
            {
              "components": [
                {
                  "internalType": "bool",
                  "name": "isAlive",
                  "type": "bool"
                },
                {
                  "internalType": "uint256",
                  "name": "handCommitment",
                  "type": "uint256"
                },
                {
                  "internalType": "int8",
                  "name": "food",
                  "type": "int8"
                },
                {
                  "internalType": "int8",
                  "name": "lumber",
                  "type": "int8"
                },
                {
                  "internalType": "int8",
                  "name": "WitchAlive0",
                  "type": "int8"
                },
                {
                  "internalType": "int8",
                  "name": "WitchAlive1",
                  "type": "int8"
                },
                {
                  "internalType": "int8",
                  "name": "WitchAlive2",
                  "type": "int8"
                },
                {
                  "internalType": "int8",
                  "name": "WitchAlive3",
                  "type": "int8"
                }
              ],
              "internalType": "struct zkWitches.PlayerState",
              "name": "player1",
              "type": "tuple"
            },
            {
              "components": [
                {
                  "internalType": "bool",
                  "name": "isAlive",
                  "type": "bool"
                },
                {
                  "internalType": "uint256",
                  "name": "handCommitment",
                  "type": "uint256"
                },
                {
                  "internalType": "int8",
                  "name": "food",
                  "type": "int8"
                },
                {
                  "internalType": "int8",
                  "name": "lumber",
                  "type": "int8"
                },
                {
                  "internalType": "int8",
                  "name": "WitchAlive0",
                  "type": "int8"
                },
                {
                  "internalType": "int8",
                  "name": "WitchAlive1",
                  "type": "int8"
                },
                {
                  "internalType": "int8",
                  "name": "WitchAlive2",
                  "type": "int8"
                },
                {
                  "internalType": "int8",
                  "name": "WitchAlive3",
                  "type": "int8"
                }
              ],
              "internalType": "struct zkWitches.PlayerState",
              "name": "player2",
              "type": "tuple"
            },
            {
              "components": [
                {
                  "internalType": "bool",
                  "name": "isAlive",
                  "type": "bool"
                },
                {
                  "internalType": "uint256",
                  "name": "handCommitment",
                  "type": "uint256"
                },
                {
                  "internalType": "int8",
                  "name": "food",
                  "type": "int8"
                },
                {
                  "internalType": "int8",
                  "name": "lumber",
                  "type": "int8"
                },
                {
                  "internalType": "int8",
                  "name": "WitchAlive0",
                  "type": "int8"
                },
                {
                  "internalType": "int8",
                  "name": "WitchAlive1",
                  "type": "int8"
                },
                {
                  "internalType": "int8",
                  "name": "WitchAlive2",
                  "type": "int8"
                },
                {
                  "internalType": "int8",
                  "name": "WitchAlive3",
                  "type": "int8"
                }
              ],
              "internalType": "struct zkWitches.PlayerState",
              "name": "player3",
              "type": "tuple"
            }
          ],
          "internalType": "struct zkWitches.TotalGameState",
          "name": "",
          "type": "tuple"
        }
      ],
      "stateMutability": "view",
      "type": "function"
    },
    {
      "inputs": [
        {
          "internalType": "uint256[2]",
          "name": "a",
          "type": "uint256[2]"
        },
        {
          "internalType": "uint256[2][2]",
          "name": "b",
          "type": "uint256[2][2]"
        },
        {
          "internalType": "uint256[2]",
          "name": "c",
          "type": "uint256[2]"
        },
        {
          "internalType": "uint256[1]",
          "name": "input",
          "type": "uint256[1]"
        }
      ],
      "name": "JoinGame",
      "outputs": [],
      "stateMutability": "nonpayable",
      "type": "function"
    },
    {
      "inputs": [],
      "name": "KickCurrentPlayer",
      "outputs": [],
      "stateMutability": "nonpayable",
      "type": "function"
    },
    {
      "inputs": [
        {
          "internalType": "uint256[2]",
          "name": "a",
          "type": "uint256[2]"
        },
        {
          "internalType": "uint256[2][2]",
          "name": "b",
          "type": "uint256[2][2]"
        },
        {
          "internalType": "uint256[2]",
          "name": "c",
          "type": "uint256[2]"
        },
        {
          "internalType": "uint256[6]",
          "name": "input",
          "type": "uint256[6]"
        }
      ],
      "name": "RespondAccusation_NoWitch",
      "outputs": [],
      "stateMutability": "nonpayable",
      "type": "function"
    },
    {
      "inputs": [],
      "name": "RespondAccusation_YesWitch",
      "outputs": [],
      "stateMutability": "nonpayable",
      "type": "function"
    },
    {
      "inputs": [],
      "name": "Surrender",
      "outputs": [],
      "stateMutability": "nonpayable",
      "type": "function"
    },
    {
      "inputs": [
        {
          "internalType": "int8",
          "name": "slot",
          "type": "int8"
        }
      ],
      "name": "getPlayer",
      "outputs": [
        {
          "components": [
            {
              "internalType": "bool",
              "name": "isAlive",
              "type": "bool"
            },
            {
              "internalType": "uint256",
              "name": "handCommitment",
              "type": "uint256"
            },
            {
              "internalType": "int8",
              "name": "food",
              "type": "int8"
            },
            {
              "internalType": "int8",
              "name": "lumber",
              "type": "int8"
            },
            {
              "internalType": "int8",
              "name": "WitchAlive0",
              "type": "int8"
            },
            {
              "internalType": "int8",
              "name": "WitchAlive1",
              "type": "int8"
            },
            {
              "internalType": "int8",
              "name": "WitchAlive2",
              "type": "int8"
            },
            {
              "internalType": "int8",
              "name": "WitchAlive3",
              "type": "int8"
            }
          ],
          "internalType": "struct zkWitches.PlayerState",
          "name": "",
          "type": "tuple"
        }
      ],
      "stateMutability": "view",
      "type": "function"
    },
    {
      "inputs": [
        {
          "internalType": "int8",
          "name": "slot",
          "type": "int8"
        }
      ],
      "name": "getPlayerAddress",
      "outputs": [
        {
          "internalType": "address",
          "name": "",
          "type": "address"
        }
      ],
      "stateMutability": "view",
      "type": "function"
    },
    {
      "inputs": [
        {
          "components": [
            {
              "internalType": "bool",
              "name": "isAlive",
              "type": "bool"
            },
            {
              "internalType": "uint256",
              "name": "handCommitment",
              "type": "uint256"
            },
            {
              "internalType": "int8",
              "name": "food",
              "type": "int8"
            },
            {
              "internalType": "int8",
              "name": "lumber",
              "type": "int8"
            },
            {
              "internalType": "int8",
              "name": "WitchAlive0",
              "type": "int8"
            },
            {
              "internalType": "int8",
              "name": "WitchAlive1",
              "type": "int8"
            },
            {
              "internalType": "int8",
              "name": "WitchAlive2",
              "type": "int8"
            },
            {
              "internalType": "int8",
              "name": "WitchAlive3",
              "type": "int8"
            }
          ],
          "internalType": "struct zkWitches.PlayerState",
          "name": "inputPlayer",
          "type": "tuple"
        },
        {
          "internalType": "int8",
          "name": "witchType",
          "type": "int8"
        }
      ],
      "name": "getWitchAlive",
      "outputs": [
        {
          "internalType": "int8",
          "name": "",
          "type": "int8"
        }
      ],
      "stateMutability": "view",
      "type": "function"
    },
    {
      "inputs": [],
      "name": "hc_verifierAddr",
      "outputs": [
        {
          "internalType": "address",
          "name": "",
          "type": "address"
        }
      ],
      "stateMutability": "view",
      "type": "function"
    },
    {
      "inputs": [],
      "name": "nw_verifierAddr",
      "outputs": [
        {
          "internalType": "address",
          "name": "",
          "type": "address"
        }
      ],
      "stateMutability": "view",
      "type": "function"
    },
    {
      "inputs": [
        {
          "internalType": "address",
          "name": "a",
          "type": "address"
        }
      ],
      "name": "slotByAddress",
      "outputs": [
        {
          "internalType": "int8",
          "name": "",
          "type": "int8"
        }
      ],
      "stateMutability": "view",
      "type": "function"
    },
    {
      "inputs": [],
      "name": "tgs",
      "outputs": [
        {
          "components": [
            {
              "internalType": "int8",
              "name": "stateEnum",
              "type": "int8"
            },
            {
              "internalType": "int8",
              "name": "playerSlotWaiting",
              "type": "int8"
            },
            {
              "internalType": "int8",
              "name": "currentNumberOfPlayers",
              "type": "int8"
            },
            {
              "internalType": "int8",
              "name": "playerAccusing",
              "type": "int8"
            },
            {
              "internalType": "int8",
              "name": "accusationWitchType",
              "type": "int8"
            },
            {
              "internalType": "uint256",
              "name": "previous_action_game_block",
              "type": "uint256"
            },
            {
              "internalType": "uint256",
              "name": "current_block",
              "type": "uint256"
            },
            {
              "internalType": "uint256",
              "name": "current_sequence_number",
              "type": "uint256"
            }
          ],
          "internalType": "struct zkWitches.SharedState",
          "name": "shared",
          "type": "tuple"
        },
        {
          "internalType": "address",
          "name": "address0",
          "type": "address"
        },
        {
          "internalType": "address",
          "name": "address1",
          "type": "address"
        },
        {
          "internalType": "address",
          "name": "address2",
          "type": "address"
        },
        {
          "internalType": "address",
          "name": "address3",
          "type": "address"
        },
        {
          "components": [
            {
              "internalType": "bool",
              "name": "isAlive",
              "type": "bool"
            },
            {
              "internalType": "uint256",
              "name": "handCommitment",
              "type": "uint256"
            },
            {
              "internalType": "int8",
              "name": "food",
              "type": "int8"
            },
            {
              "internalType": "int8",
              "name": "lumber",
              "type": "int8"
            },
            {
              "internalType": "int8",
              "name": "WitchAlive0",
              "type": "int8"
            },
            {
              "internalType": "int8",
              "name": "WitchAlive1",
              "type": "int8"
            },
            {
              "internalType": "int8",
              "name": "WitchAlive2",
              "type": "int8"
            },
            {
              "internalType": "int8",
              "name": "WitchAlive3",
              "type": "int8"
            }
          ],
          "internalType": "struct zkWitches.PlayerState",
          "name": "player0",
          "type": "tuple"
        },
        {
          "components": [
            {
              "internalType": "bool",
              "name": "isAlive",
              "type": "bool"
            },
            {
              "internalType": "uint256",
              "name": "handCommitment",
              "type": "uint256"
            },
            {
              "internalType": "int8",
              "name": "food",
              "type": "int8"
            },
            {
              "internalType": "int8",
              "name": "lumber",
              "type": "int8"
            },
            {
              "internalType": "int8",
              "name": "WitchAlive0",
              "type": "int8"
            },
            {
              "internalType": "int8",
              "name": "WitchAlive1",
              "type": "int8"
            },
            {
              "internalType": "int8",
              "name": "WitchAlive2",
              "type": "int8"
            },
            {
              "internalType": "int8",
              "name": "WitchAlive3",
              "type": "int8"
            }
          ],
          "internalType": "struct zkWitches.PlayerState",
          "name": "player1",
          "type": "tuple"
        },
        {
          "components": [
            {
              "internalType": "bool",
              "name": "isAlive",
              "type": "bool"
            },
            {
              "internalType": "uint256",
              "name": "handCommitment",
              "type": "uint256"
            },
            {
              "internalType": "int8",
              "name": "food",
              "type": "int8"
            },
            {
              "internalType": "int8",
              "name": "lumber",
              "type": "int8"
            },
            {
              "internalType": "int8",
              "name": "WitchAlive0",
              "type": "int8"
            },
            {
              "internalType": "int8",
              "name": "WitchAlive1",
              "type": "int8"
            },
            {
              "internalType": "int8",
              "name": "WitchAlive2",
              "type": "int8"
            },
            {
              "internalType": "int8",
              "name": "WitchAlive3",
              "type": "int8"
            }
          ],
          "internalType": "struct zkWitches.PlayerState",
          "name": "player2",
          "type": "tuple"
        },
        {
          "components": [
            {
              "internalType": "bool",
              "name": "isAlive",
              "type": "bool"
            },
            {
              "internalType": "uint256",
              "name": "handCommitment",
              "type": "uint256"
            },
            {
              "internalType": "int8",
              "name": "food",
              "type": "int8"
            },
            {
              "internalType": "int8",
              "name": "lumber",
              "type": "int8"
            },
            {
              "internalType": "int8",
              "name": "WitchAlive0",
              "type": "int8"
            },
            {
              "internalType": "int8",
              "name": "WitchAlive1",
              "type": "int8"
            },
            {
              "internalType": "int8",
              "name": "WitchAlive2",
              "type": "int8"
            },
            {
              "internalType": "int8",
              "name": "WitchAlive3",
              "type": "int8"
            }
          ],
          "internalType": "struct zkWitches.PlayerState",
          "name": "player3",
          "type": "tuple"
        }
      ],
      "stateMutability": "view",
      "type": "function"
    },
    {
      "inputs": [],
      "name": "vm_verifierAddr",
      "outputs": [
        {
          "internalType": "address",
          "name": "",
          "type": "address"
        }
      ],
      "stateMutability": "view",
      "type": "function"
    }
  ],
  "bytecode": "0x60806040523480156200001157600080fd5b50604051620063d0380380620063d0833981810160405281019062000037919062000981565b82601460006101000a81548173ffffffffffffffffffffffffffffffffffffffff021916908373ffffffffffffffffffffffffffffffffffffffff16021790555081601560006101000a81548173ffffffffffffffffffffffffffffffffffffffff021916908373ffffffffffffffffffffffffffffffffffffffff16021790555080601660006101000a81548173ffffffffffffffffffffffffffffffffffffffff021916908373ffffffffffffffffffffffffffffffffffffffff1602179055506200010a6200011360201b60201c565b50505062000a25565b6040518061012001604052806040518061010001604052806000800b81526020016000800b81526020016000800b81526020016000800b81526020016000800b8152602001600081526020016000815260200160008152508152602001600073ffffffffffffffffffffffffffffffffffffffff168152602001600073ffffffffffffffffffffffffffffffffffffffff168152602001600073ffffffffffffffffffffffffffffffffffffffff168152602001600073ffffffffffffffffffffffffffffffffffffffff168152602001604051806101000160405280600015158152602001600081526020016000800b81526020016000800b81526020016000800b81526020016000800b81526020016000800b81526020016000800b8152508152602001604051806101000160405280600015158152602001600081526020016000800b81526020016000800b81526020016000800b81526020016000800b81526020016000800b81526020016000800b8152508152602001604051806101000160405280600015158152602001600081526020016000800b81526020016000800b81526020016000800b81526020016000800b81526020016000800b81526020016000800b8152508152602001604051806101000160405280600015158152602001600081526020016000800b81526020016000800b81526020016000800b81526020016000800b81526020016000800b81526020016000800b8152508152506000808201518160000160008201518160000160006101000a81548160ff021916908360000b60ff16021790555060208201518160000160016101000a81548160ff021916908360000b60ff16021790555060408201518160000160026101000a81548160ff021916908360000b60ff16021790555060608201518160000160036101000a81548160ff021916908360000b60ff16021790555060808201518160000160046101000a81548160ff021916908360000b60ff16021790555060a0820151816001015560c0820151816002015560e08201518160030155505060208201518160040160006101000a81548173ffffffffffffffffffffffffffffffffffffffff021916908373ffffffffffffffffffffffffffffffffffffffff16021790555060408201518160050160006101000a81548173ffffffffffffffffffffffffffffffffffffffff021916908373ffffffffffffffffffffffffffffffffffffffff16021790555060608201518160060160006101000a81548173ffffffffffffffffffffffffffffffffffffffff021916908373ffffffffffffffffffffffffffffffffffffffff16021790555060808201518160070160006101000a81548173ffffffffffffffffffffffffffffffffffffffff021916908373ffffffffffffffffffffffffffffffffffffffff16021790555060a08201518160080160008201518160000160006101000a81548160ff0219169083151502179055506020820151816001015560408201518160020160006101000a81548160ff021916908360000b60ff16021790555060608201518160020160016101000a81548160ff021916908360000b60ff16021790555060808201518160020160026101000a81548160ff021916908360000b60ff16021790555060a08201518160020160036101000a81548160ff021916908360000b60ff16021790555060c08201518160020160046101000a81548160ff021916908360000b60ff16021790555060e08201518160020160056101000a81548160ff021916908360000b60ff160217905550505060c082015181600b0160008201518160000160006101000a81548160ff0219169083151502179055506020820151816001015560408201518160020160006101000a81548160ff021916908360000b60ff16021790555060608201518160020160016101000a81548160ff021916908360000b60ff16021790555060808201518160020160026101000a81548160ff021916908360000b60ff16021790555060a08201518160020160036101000a81548160ff021916908360000b60ff16021790555060c08201518160020160046101000a81548160ff021916908360000b60ff16021790555060e08201518160020160056101000a81548160ff021916908360000b60ff160217905550505060e082015181600e0160008201518160000160006101000a81548160ff0219169083151502179055506020820151816001015560408201518160020160006101000a81548160ff021916908360000b60ff16021790555060608201518160020160016101000a81548160ff021916908360000b60ff16021790555060808201518160020160026101000a81548160ff021916908360000b60ff16021790555060a08201518160020160036101000a81548160ff021916908360000b60ff16021790555060c08201518160020160046101000a81548160ff021916908360000b60ff16021790555060e08201518160020160056101000a81548160ff021916908360000b60ff16021790555050506101008201518160110160008201518160000160006101000a81548160ff0219169083151502179055506020820151816001015560408201518160020160006101000a81548160ff021916908360000b60ff16021790555060608201518160020160016101000a81548160ff021916908360000b60ff16021790555060808201518160020160026101000a81548160ff021916908360000b60ff16021790555060a08201518160020160036101000a81548160ff021916908360000b60ff16021790555060c08201518160020160046101000a81548160ff021916908360000b60ff16021790555060e08201518160020160056101000a81548160ff021916908360000b60ff1602179055505050905050565b6000815190506200097b8162000a0b565b92915050565b6000806000606084860312156200099757600080fd5b6000620009a7868287016200096a565b9350506020620009ba868287016200096a565b9250506040620009cd868287016200096a565b9150509250925092565b6000620009e482620009eb565b9050919050565b600073ffffffffffffffffffffffffffffffffffffffff82169050919050565b62000a1681620009d7565b811462000a2257600080fd5b50565b61599b8062000a356000396000f3fe608060405234801561001057600080fd5b50600436106101165760003560e01c80637438e6cd116100a25780639ac8736e116100715780639ac8736e14610281578063c6cfc9c5146102b1578063ca9e7f32146102cd578063d8de5d21146102f3578063f5e44b361461031157610116565b80637438e6cd146101fb5780637cf1d4e81461022b578063834f98931461023557806390ea24351461025157610116565b80633259e60f116100e95780633259e60f146101695780634c9063cb14610173578063500dfd161461018f57806357cf2467146101bf5780635a5afe0d146101dd57610116565b8063209f06121461011b578063236fc9161461012557806323918059146101435780633168748b1461015f575b600080fd5b61012361032d565b005b61012d6103b7565b60405161013a9190614c74565b60405180910390f35b61015d6004803603810190610158919061429a565b6103dd565b005b610167610967565b005b6101716109a0565b005b61018d60048036038101906101889190614116565b610a2a565b005b6101a960048036038101906101a49190614232565b610cfc565b6040516101b69190614d64565b60405180910390f35b6101c7610d99565b6040516101d49190614c74565b60405180910390f35b6101e5610dbf565b6040516101f2919061510f565b60405180910390f35b61021560048036038101906102109190614209565b611396565b6040516102229190614c74565b60405180910390f35b6102336114de565b005b61024f600480360381019061024a919061417b565b611d35565b005b61026b60048036038101906102669190614209565b6122cf565b604051610278919061505f565b60405180910390f35b61029b600480360381019061029691906140ed565b6127d4565b6040516102a89190614d64565b60405180910390f35b6102cb60048036038101906102c69190614326565b612867565b005b6102d56129b1565b6040516102ea9998979695949392919061507b565b60405180910390f35b6102fb612e9f565b6040516103089190614c74565b60405180910390f35b61032b60048036038101906103269190614270565b612ec5565b005b7fffffffffffffffffffffffffffffffffffffffffffffffffffffffffffffffff60000b61035a336127d4565b60000b141561039e576040517f08c379a00000000000000000000000000000000000000000000000000000000081526004016103959061503f565b60405180910390fd5b60006103a9336127d4565b90506103b481612ec8565b50565b601560009054906101000a900473ffffffffffffffffffffffffffffffffffffffff1681565b7fffffffffffffffffffffffffffffffffffffffffffffffffffffffffffffffff60000b61040a336127d4565b60000b141561044e576040517f08c379a00000000000000000000000000000000000000000000000000000000081526004016104459061503f565b60405180910390fd5b6000610459336127d4565b9050600160000b6000800160000160009054906101000a900460000b60000b146104b8576040517f08c379a00000000000000000000000000000000000000000000000000000000081526004016104af90614fdf565b60405180910390fd5b8060000b6000800160000160019054906101000a900460000b60000b14610514576040517f08c379a000000000000000000000000000000000000000000000000000000000815260040161050b90614ebf565b60405180910390fd5b600061051f826122cf565b90508260006007811061055b577f4e487b7100000000000000000000000000000000000000000000000000000000600052603260045260246000fd5b60200201518160200151146105a5576040517f08c379a000000000000000000000000000000000000000000000000000000000815260040161059c90614fff565b60405180910390fd5b826001600781106105df577f4e487b7100000000000000000000000000000000000000000000000000000000600052603260045260246000fd5b602002015160000b6105f2826000610cfc565b60000b14610635576040517f08c379a000000000000000000000000000000000000000000000000000000000815260040161062c90614f3f565b60405180910390fd5b8260026007811061066f577f4e487b7100000000000000000000000000000000000000000000000000000000600052603260045260246000fd5b602002015160000b610682826001610cfc565b60000b146106c5576040517f08c379a00000000000000000000000000000000000000000000000000000000081526004016106bc90614d9f565b60405180910390fd5b826003600781106106ff577f4e487b7100000000000000000000000000000000000000000000000000000000600052603260045260246000fd5b602002015160000b610712826002610cfc565b60000b14610755576040517f08c379a000000000000000000000000000000000000000000000000000000000815260040161074c90614dff565b60405180910390fd5b8260046007811061078f577f4e487b7100000000000000000000000000000000000000000000000000000000600052603260045260246000fd5b602002015160000b6107a2826003610cfc565b60000b146107e5576040517f08c379a00000000000000000000000000000000000000000000000000000000081526004016107dc9061501f565b60405180910390fd5b601560009054906101000a900473ffffffffffffffffffffffffffffffffffffffff1673ffffffffffffffffffffffffffffffffffffffff1663c894e757878787876040518563ffffffff1660e01b81526004016108469493929190614d1d565b60206040518083038186803b15801561085e57600080fd5b505afa158015610872573d6000803e3d6000fd5b505050506040513d601f19601f8201168201806040525081019061089691906141e0565b6108d5576040517f08c379a00000000000000000000000000000000000000000000000000000000081526004016108cc90614e1f565b60405180910390fd5b61095d83600560078110610912577f4e487b7100000000000000000000000000000000000000000000000000000000600052603260045260246000fd5b60200201518985600660078110610952577f4e487b7100000000000000000000000000000000000000000000000000000000600052603260045260246000fd5b60200201518a612f84565b5050505050505050565b60007fffffffffffffffffffffffffffffffffffffffffffffffffffffffffffffffff905060001561099d5761099c81613217565b5b50565b7fffffffffffffffffffffffffffffffffffffffffffffffffffffffffffffffff60000b6109cd336127d4565b60000b1415610a11576040517f08c379a0000000000000000000000000000000000000000000000000000000008152600401610a089061503f565b60405180910390fd5b6000610a1c336127d4565b9050610a2781613217565b50565b7fffffffffffffffffffffffffffffffffffffffffffffffffffffffffffffffff60000b610a57336127d4565b60000b14610a9a576040517f08c379a0000000000000000000000000000000000000000000000000000000008152600401610a9190614f7f565b60405180910390fd5b6000800b6000800160000160009054906101000a900460000b60000b14610af6576040517f08c379a0000000000000000000000000000000000000000000000000000000008152600401610aed90614e5f565b60405180910390fd5b601460009054906101000a900473ffffffffffffffffffffffffffffffffffffffff1673ffffffffffffffffffffffffffffffffffffffff166343753b4d858585856040518563ffffffff1660e01b8152600401610b579493929190614c8f565b60206040518083038186803b158015610b6f57600080fd5b505afa158015610b83573d6000803e3d6000fd5b505050506040513d601f19601f82011682018060405250810190610ba791906141e0565b610be6576040517f08c379a0000000000000000000000000000000000000000000000000000000008152600401610bdd90614fbf565b60405180910390fd5b60008001600001600281819054906101000a900460000b80929190610c0a90615406565b91906101000a81548160ff021916908360000b60ff16021790555050600060016000800160000160029054906101000a900460000b610c49919061530b565b9050610c5581336133c1565b600060405180610100016040528060011515815260200184600060018110610ca6577f4e487b7100000000000000000000000000000000000000000000000000000000600052603260045260246000fd5b602002015181526020016000800b81526020016000800b8152602001600160000b8152602001600160000b8152602001600160000b8152602001600160000b8152509050610cf48282613552565b505050505050565b6000808260000b1415610d155782608001519050610d93565b60018260000b1415610d2d578260a001519050610d93565b60028260000b1415610d45578260c001519050610d93565b60038260000b1415610d5d578260e001519050610d93565b6000610d92577f4e487b7100000000000000000000000000000000000000000000000000000000600052600160045260246000fd5b5b92915050565b601460009054906101000a900473ffffffffffffffffffffffffffffffffffffffff1681565b610dc76139ff565b60006040518061012001604052908160008201604051806101000160405290816000820160009054906101000a900460000b60000b60000b81526020016000820160019054906101000a900460000b60000b60000b81526020016000820160029054906101000a900460000b60000b60000b81526020016000820160039054906101000a900460000b60000b60000b81526020016000820160049054906101000a900460000b60000b60000b8152602001600182015481526020016002820154815260200160038201548152505081526020016004820160009054906101000a900473ffffffffffffffffffffffffffffffffffffffff1673ffffffffffffffffffffffffffffffffffffffff1673ffffffffffffffffffffffffffffffffffffffff1681526020016005820160009054906101000a900473ffffffffffffffffffffffffffffffffffffffff1673ffffffffffffffffffffffffffffffffffffffff1673ffffffffffffffffffffffffffffffffffffffff1681526020016006820160009054906101000a900473ffffffffffffffffffffffffffffffffffffffff1673ffffffffffffffffffffffffffffffffffffffff1673ffffffffffffffffffffffffffffffffffffffff1681526020016007820160009054906101000a900473ffffffffffffffffffffffffffffffffffffffff1673ffffffffffffffffffffffffffffffffffffffff1673ffffffffffffffffffffffffffffffffffffffff16815260200160088201604051806101000160405290816000820160009054906101000a900460ff16151515158152602001600182015481526020016002820160009054906101000a900460000b60000b60000b81526020016002820160019054906101000a900460000b60000b60000b81526020016002820160029054906101000a900460000b60000b60000b81526020016002820160039054906101000a900460000b60000b60000b81526020016002820160049054906101000a900460000b60000b60000b81526020016002820160059054906101000a900460000b60000b60000b815250508152602001600b8201604051806101000160405290816000820160009054906101000a900460ff16151515158152602001600182015481526020016002820160009054906101000a900460000b60000b60000b81526020016002820160019054906101000a900460000b60000b60000b81526020016002820160029054906101000a900460000b60000b60000b81526020016002820160039054906101000a900460000b60000b60000b81526020016002820160049054906101000a900460000b60000b60000b81526020016002820160059054906101000a900460000b60000b60000b815250508152602001600e8201604051806101000160405290816000820160009054906101000a900460ff16151515158152602001600182015481526020016002820160009054906101000a900460000b60000b60000b81526020016002820160019054906101000a900460000b60000b60000b81526020016002820160029054906101000a900460000b60000b60000b81526020016002820160039054906101000a900460000b60000b60000b81526020016002820160049054906101000a900460000b60000b60000b81526020016002820160059054906101000a900460000b60000b60000b81525050815260200160118201604051806101000160405290816000820160009054906101000a900460ff16151515158152602001600182015481526020016002820160009054906101000a900460000b60000b60000b81526020016002820160019054906101000a900460000b60000b60000b81526020016002820160029054906101000a900460000b60000b60000b81526020016002820160039054906101000a900460000b60000b60000b81526020016002820160049054906101000a900460000b60000b60000b81526020016002820160059054906101000a900460000b60000b60000b8152505081525050905090565b6000808260000b14156113d057600060040160009054906101000a900473ffffffffffffffffffffffffffffffffffffffff1690506114d9565b60018260000b141561140957600060050160009054906101000a900473ffffffffffffffffffffffffffffffffffffffff1690506114d9565b60028260000b141561144257600060060160009054906101000a900473ffffffffffffffffffffffffffffffffffffffff1690506114d9565b60038260000b141561147b57600060070160009054906101000a900473ffffffffffffffffffffffffffffffffffffffff1690506114d9565b60006114b0577f4e487b7100000000000000000000000000000000000000000000000000000000600052600160045260246000fd5b600060040160009054906101000a900473ffffffffffffffffffffffffffffffffffffffff1690505b919050565b6040518061012001604052806040518061010001604052806000800b81526020016000800b81526020016000800b81526020016000800b81526020016000800b8152602001600081526020016000815260200160008152508152602001600073ffffffffffffffffffffffffffffffffffffffff168152602001600073ffffffffffffffffffffffffffffffffffffffff168152602001600073ffffffffffffffffffffffffffffffffffffffff168152602001600073ffffffffffffffffffffffffffffffffffffffff168152602001604051806101000160405280600015158152602001600081526020016000800b81526020016000800b81526020016000800b81526020016000800b81526020016000800b81526020016000800b8152508152602001604051806101000160405280600015158152602001600081526020016000800b81526020016000800b81526020016000800b81526020016000800b81526020016000800b81526020016000800b8152508152602001604051806101000160405280600015158152602001600081526020016000800b81526020016000800b81526020016000800b81526020016000800b81526020016000800b81526020016000800b8152508152602001604051806101000160405280600015158152602001600081526020016000800b81526020016000800b81526020016000800b81526020016000800b81526020016000800b81526020016000800b8152508152506000808201518160000160008201518160000160006101000a81548160ff021916908360000b60ff16021790555060208201518160000160016101000a81548160ff021916908360000b60ff16021790555060408201518160000160026101000a81548160ff021916908360000b60ff16021790555060608201518160000160036101000a81548160ff021916908360000b60ff16021790555060808201518160000160046101000a81548160ff021916908360000b60ff16021790555060a0820151816001015560c0820151816002015560e08201518160030155505060208201518160040160006101000a81548173ffffffffffffffffffffffffffffffffffffffff021916908373ffffffffffffffffffffffffffffffffffffffff16021790555060408201518160050160006101000a81548173ffffffffffffffffffffffffffffffffffffffff021916908373ffffffffffffffffffffffffffffffffffffffff16021790555060608201518160060160006101000a81548173ffffffffffffffffffffffffffffffffffffffff021916908373ffffffffffffffffffffffffffffffffffffffff16021790555060808201518160070160006101000a81548173ffffffffffffffffffffffffffffffffffffffff021916908373ffffffffffffffffffffffffffffffffffffffff16021790555060a08201518160080160008201518160000160006101000a81548160ff0219169083151502179055506020820151816001015560408201518160020160006101000a81548160ff021916908360000b60ff16021790555060608201518160020160016101000a81548160ff021916908360000b60ff16021790555060808201518160020160026101000a81548160ff021916908360000b60ff16021790555060a08201518160020160036101000a81548160ff021916908360000b60ff16021790555060c08201518160020160046101000a81548160ff021916908360000b60ff16021790555060e08201518160020160056101000a81548160ff021916908360000b60ff160217905550505060c082015181600b0160008201518160000160006101000a81548160ff0219169083151502179055506020820151816001015560408201518160020160006101000a81548160ff021916908360000b60ff16021790555060608201518160020160016101000a81548160ff021916908360000b60ff16021790555060808201518160020160026101000a81548160ff021916908360000b60ff16021790555060a08201518160020160036101000a81548160ff021916908360000b60ff16021790555060c08201518160020160046101000a81548160ff021916908360000b60ff16021790555060e08201518160020160056101000a81548160ff021916908360000b60ff160217905550505060e082015181600e0160008201518160000160006101000a81548160ff0219169083151502179055506020820151816001015560408201518160020160006101000a81548160ff021916908360000b60ff16021790555060608201518160020160016101000a81548160ff021916908360000b60ff16021790555060808201518160020160026101000a81548160ff021916908360000b60ff16021790555060a08201518160020160036101000a81548160ff021916908360000b60ff16021790555060c08201518160020160046101000a81548160ff021916908360000b60ff16021790555060e08201518160020160056101000a81548160ff021916908360000b60ff16021790555050506101008201518160110160008201518160000160006101000a81548160ff0219169083151502179055506020820151816001015560408201518160020160006101000a81548160ff021916908360000b60ff16021790555060608201518160020160016101000a81548160ff021916908360000b60ff16021790555060808201518160020160026101000a81548160ff021916908360000b60ff16021790555060a08201518160020160036101000a81548160ff021916908360000b60ff16021790555060c08201518160020160046101000a81548160ff021916908360000b60ff16021790555060e08201518160020160056101000a81548160ff021916908360000b60ff1602179055505050905050565b7fffffffffffffffffffffffffffffffffffffffffffffffffffffffffffffffff60000b611d62336127d4565b60000b1415611da6576040517f08c379a0000000000000000000000000000000000000000000000000000000008152600401611d9d9061503f565b60405180910390fd5b6000611db1336127d4565b9050600260000b6000800160000160009054906101000a900460000b60000b14611e10576040517f08c379a0000000000000000000000000000000000000000000000000000000008152600401611e0790614e9f565b60405180910390fd5b8060000b6000800160000160019054906101000a900460000b60000b14611e6c576040517f08c379a0000000000000000000000000000000000000000000000000000000008152600401611e6390614f5f565b60405180910390fd5b6000611e77826122cf565b905082600060068110611eb3577f4e487b7100000000000000000000000000000000000000000000000000000000600052603260045260246000fd5b6020020151816020015114611efd576040517f08c379a0000000000000000000000000000000000000000000000000000000008152600401611ef490614fff565b60405180910390fd5b82600160068110611f37577f4e487b7100000000000000000000000000000000000000000000000000000000600052603260045260246000fd5b602002015160000b611f4a826000610cfc565b60000b14611f8d576040517f08c379a0000000000000000000000000000000000000000000000000000000008152600401611f8490614f3f565b60405180910390fd5b82600260068110611fc7577f4e487b7100000000000000000000000000000000000000000000000000000000600052603260045260246000fd5b602002015160000b611fda826001610cfc565b60000b1461201d576040517f08c379a000000000000000000000000000000000000000000000000000000000815260040161201490614d9f565b60405180910390fd5b82600360068110612057577f4e487b7100000000000000000000000000000000000000000000000000000000600052603260045260246000fd5b602002015160000b61206a826002610cfc565b60000b146120ad576040517f08c379a00000000000000000000000000000000000000000000000000000000081526004016120a490614dff565b60405180910390fd5b826004600681106120e7577f4e487b7100000000000000000000000000000000000000000000000000000000600052603260045260246000fd5b602002015160000b6120fa826003610cfc565b60000b1461213d576040517f08c379a00000000000000000000000000000000000000000000000000000000081526004016121349061501f565b60405180910390fd5b82600560068110612177577f4e487b7100000000000000000000000000000000000000000000000000000000600052603260045260246000fd5b602002015160000b6000800160000160049054906101000a900460000b60000b146121d7576040517f08c379a00000000000000000000000000000000000000000000000000000000081526004016121ce90614d7f565b60405180910390fd5b601660009054906101000a900473ffffffffffffffffffffffffffffffffffffffff1673ffffffffffffffffffffffffffffffffffffffff1663f398789b878787876040518563ffffffff1660e01b81526004016122389493929190614cd6565b60206040518083038186803b15801561225057600080fd5b505afa158015612264573d6000803e3d6000fd5b505050506040513d601f19601f8201168201806040525081019061228891906141e0565b6122c7576040517f08c379a00000000000000000000000000000000000000000000000000000000081526004016122be90614f9f565b60405180910390fd5b505050505050565b6122d7613ac1565b60008260000b14156123ce576000600801604051806101000160405290816000820160009054906101000a900460ff16151515158152602001600182015481526020016002820160009054906101000a900460000b60000b60000b81526020016002820160019054906101000a900460000b60000b60000b81526020016002820160029054906101000a900460000b60000b60000b81526020016002820160039054906101000a900460000b60000b60000b81526020016002820160049054906101000a900460000b60000b60000b81526020016002820160059054906101000a900460000b60000b60000b8152505090506127cf565b60018260000b14156124c5576000600b01604051806101000160405290816000820160009054906101000a900460ff16151515158152602001600182015481526020016002820160009054906101000a900460000b60000b60000b81526020016002820160019054906101000a900460000b60000b60000b81526020016002820160029054906101000a900460000b60000b60000b81526020016002820160039054906101000a900460000b60000b60000b81526020016002820160049054906101000a900460000b60000b60000b81526020016002820160059054906101000a900460000b60000b60000b8152505090506127cf565b60028260000b14156125bc576000600e01604051806101000160405290816000820160009054906101000a900460ff16151515158152602001600182015481526020016002820160009054906101000a900460000b60000b60000b81526020016002820160019054906101000a900460000b60000b60000b81526020016002820160029054906101000a900460000b60000b60000b81526020016002820160039054906101000a900460000b60000b60000b81526020016002820160049054906101000a900460000b60000b60000b81526020016002820160059054906101000a900460000b60000b60000b8152505090506127cf565b60038260000b14156126b3576000601101604051806101000160405290816000820160009054906101000a900460ff16151515158152602001600182015481526020016002820160009054906101000a900460000b60000b60000b81526020016002820160019054906101000a900460000b60000b60000b81526020016002820160029054906101000a900460000b60000b60000b81526020016002820160039054906101000a900460000b60000b60000b81526020016002820160049054906101000a900460000b60000b60000b81526020016002820160059054906101000a900460000b60000b60000b8152505090506127cf565b60006126e8577f4e487b7100000000000000000000000000000000000000000000000000000000600052600160045260246000fd5b6000600801604051806101000160405290816000820160009054906101000a900460ff16151515158152602001600182015481526020016002820160009054906101000a900460000b60000b60000b81526020016002820160019054906101000a900460000b60000b60000b81526020016002820160029054906101000a900460000b60000b60000b81526020016002820160039054906101000a900460000b60000b60000b81526020016002820160049054906101000a900460000b60000b60000b81526020016002820160059054906101000a900460000b60000b60000b8152505090505b919050565b600080600090505b600481101561283d578273ffffffffffffffffffffffffffffffffffffffff1661280582611396565b73ffffffffffffffffffffffffffffffffffffffff16141561282a5780915050612862565b808061283590615430565b9150506127dc565b507fffffffffffffffffffffffffffffffffffffffffffffffffffffffffffffffff90505b919050565b7fffffffffffffffffffffffffffffffffffffffffffffffffffffffffffffffff60000b612894336127d4565b60000b14156128d8576040517f08c379a00000000000000000000000000000000000000000000000000000000081526004016128cf9061503f565b60405180910390fd5b60006128e3336127d4565b9050600160000b6000800160000160009054906101000a900460000b60000b14612942576040517f08c379a000000000000000000000000000000000000000000000000000000000815260040161293990614fdf565b60405180910390fd5b8060000b6000800160000160019054906101000a900460000b60000b1461299e576040517f08c379a000000000000000000000000000000000000000000000000000000000815260040161299590614ebf565b60405180910390fd5b6129ab8484846000612f84565b50505050565b600080600001604051806101000160405290816000820160009054906101000a900460000b60000b60000b81526020016000820160019054906101000a900460000b60000b60000b81526020016000820160029054906101000a900460000b60000b60000b81526020016000820160039054906101000a900460000b60000b60000b81526020016000820160049054906101000a900460000b60000b60000b81526020016001820154815260200160028201548152602001600382015481525050908060040160009054906101000a900473ffffffffffffffffffffffffffffffffffffffff16908060050160009054906101000a900473ffffffffffffffffffffffffffffffffffffffff16908060060160009054906101000a900473ffffffffffffffffffffffffffffffffffffffff16908060070160009054906101000a900473ffffffffffffffffffffffffffffffffffffffff169080600801604051806101000160405290816000820160009054906101000a900460ff16151515158152602001600182015481526020016002820160009054906101000a900460000b60000b60000b81526020016002820160019054906101000a900460000b60000b60000b81526020016002820160029054906101000a900460000b60000b60000b81526020016002820160039054906101000a900460000b60000b60000b81526020016002820160049054906101000a900460000b60000b60000b81526020016002820160059054906101000a900460000b60000b60000b815250509080600b01604051806101000160405290816000820160009054906101000a900460ff16151515158152602001600182015481526020016002820160009054906101000a900460000b60000b60000b81526020016002820160019054906101000a900460000b60000b60000b81526020016002820160029054906101000a900460000b60000b60000b81526020016002820160039054906101000a900460000b60000b60000b81526020016002820160049054906101000a900460000b60000b60000b81526020016002820160059054906101000a900460000b60000b60000b815250509080600e01604051806101000160405290816000820160009054906101000a900460ff16151515158152602001600182015481526020016002820160009054906101000a900460000b60000b60000b81526020016002820160019054906101000a900460000b60000b60000b81526020016002820160029054906101000a900460000b60000b60000b81526020016002820160039054906101000a900460000b60000b60000b81526020016002820160049054906101000a900460000b60000b60000b81526020016002820160059054906101000a900460000b60000b60000b815250509080601101604051806101000160405290816000820160009054906101000a900460ff16151515158152602001600182015481526020016002820160009054906101000a900460000b60000b60000b81526020016002820160019054906101000a900460000b60000b60000b81526020016002820160029054906101000a900460000b60000b60000b81526020016002820160039054906101000a900460000b60000b60000b81526020016002820160049054906101000a900460000b60000b60000b81526020016002820160059054906101000a900460000b60000b60000b81525050905089565b601660009054906101000a900473ffffffffffffffffffffffffffffffffffffffff1681565b50565b600260000b6000800160000160009054906101000a900460000b60000b14612f25576040517f08c379a0000000000000000000000000000000000000000000000000000000008152600401612f1c90614e9f565b60405180910390fd5b8060000b6000800160000160019054906101000a900460000b60000b14612f81576040517f08c379a0000000000000000000000000000000000000000000000000000000008152600401612f7890614f5f565b60405180910390fd5b50565b60008460000b12158015612f9c575060038460000b13155b612fdb576040517f08c379a0000000000000000000000000000000000000000000000000000000008152600401612fd290614dbf565b60405180910390fd5b6000800b8460000b1415612fee57613211565b600160000b8460000b141561300257613210565b600260000b8460000b141561310a578260000b61301e336127d4565b60000b1415613062576040517f08c379a000000000000000000000000000000000000000000000000000000000815260040161305990614ddf565b60405180910390fd5b60008360000b1215801561307a575060038360000b13155b6130b9576040517f08c379a00000000000000000000000000000000000000000000000000000000081526004016130b090614edf565b60405180910390fd5b6130c2836122cf565b60000151613105576040517f08c379a00000000000000000000000000000000000000000000000000000000081526004016130fc90614e3f565b60405180910390fd5b61320f565b600360000b8460000b141561320e578260000b613126336127d4565b60000b141561316a576040517f08c379a000000000000000000000000000000000000000000000000000000000815260040161316190614ddf565b60405180910390fd5b60008360000b12158015613182575060038360000b13155b6131c1576040517f08c379a00000000000000000000000000000000000000000000000000000000081526004016131b890614edf565b60405180910390fd5b6131ca836122cf565b6000015161320d576040517f08c379a000000000000000000000000000000000000000000000000000000000815260040161320490614e3f565b60405180910390fd5b5b5b5b5b50505050565b6000800b6000800160000160009054906101000a900460000b60000b1415613274576040517f08c379a000000000000000000000000000000000000000000000000000000000815260040161326b90614e7f565b60405180910390fd5b600360000b6000800160000160009054906101000a900460000b60000b14156132d2576040517f08c379a00000000000000000000000000000000000000000000000000000000081526004016132c990614eff565b60405180910390fd5b6132db816122cf565b6000015161331e576040517f08c379a000000000000000000000000000000000000000000000000000000000815260040161331590614f1f565b60405180910390fd5b600160000b6000800160000160009054906101000a900460000b60000b14801561336157508060000b6000800160000160019054906101000a900460000b60000b145b1561336b576133be565b600260000b6000800160000160009054906101000a900460000b60000b1480156133ae57508060000b6000800160000160019054906101000a900460000b60000b145b156133bd576133bc81612ec8565b5b5b50565b60008260000b14156134165780600060040160006101000a81548173ffffffffffffffffffffffffffffffffffffffff021916908373ffffffffffffffffffffffffffffffffffffffff16021790555061354e565b60018260000b141561346b5780600060050160006101000a81548173ffffffffffffffffffffffffffffffffffffffff021916908373ffffffffffffffffffffffffffffffffffffffff16021790555061354d565b60028260000b14156134c05780600060060160006101000a81548173ffffffffffffffffffffffffffffffffffffffff021916908373ffffffffffffffffffffffffffffffffffffffff16021790555061354c565b60038260000b14156135155780600060070160006101000a81548173ffffffffffffffffffffffffffffffffffffffff021916908373ffffffffffffffffffffffffffffffffffffffff16021790555061354b565b600061354a577f4e487b7100000000000000000000000000000000000000000000000000000000600052600160045260246000fd5b5b5b5b5b5050565b60008260000b141561366e5780600060080160008201518160000160006101000a81548160ff0219169083151502179055506020820151816001015560408201518160020160006101000a81548160ff021916908360000b60ff16021790555060608201518160020160016101000a81548160ff021916908360000b60ff16021790555060808201518160020160026101000a81548160ff021916908360000b60ff16021790555060a08201518160020160036101000a81548160ff021916908360000b60ff16021790555060c08201518160020160046101000a81548160ff021916908360000b60ff16021790555060e08201518160020160056101000a81548160ff021916908360000b60ff1602179055509050506139fb565b60018260000b141561378a57806000600b0160008201518160000160006101000a81548160ff0219169083151502179055506020820151816001015560408201518160020160006101000a81548160ff021916908360000b60ff16021790555060608201518160020160016101000a81548160ff021916908360000b60ff16021790555060808201518160020160026101000a81548160ff021916908360000b60ff16021790555060a08201518160020160036101000a81548160ff021916908360000b60ff16021790555060c08201518160020160046101000a81548160ff021916908360000b60ff16021790555060e08201518160020160056101000a81548160ff021916908360000b60ff1602179055509050506139fa565b60028260000b14156138a657806000600e0160008201518160000160006101000a81548160ff0219169083151502179055506020820151816001015560408201518160020160006101000a81548160ff021916908360000b60ff16021790555060608201518160020160016101000a81548160ff021916908360000b60ff16021790555060808201518160020160026101000a81548160ff021916908360000b60ff16021790555060a08201518160020160036101000a81548160ff021916908360000b60ff16021790555060c08201518160020160046101000a81548160ff021916908360000b60ff16021790555060e08201518160020160056101000a81548160ff021916908360000b60ff1602179055509050506139f9565b60038260000b14156139c25780600060110160008201518160000160006101000a81548160ff0219169083151502179055506020820151816001015560408201518160020160006101000a81548160ff021916908360000b60ff16021790555060608201518160020160016101000a81548160ff021916908360000b60ff16021790555060808201518160020160026101000a81548160ff021916908360000b60ff16021790555060a08201518160020160036101000a81548160ff021916908360000b60ff16021790555060c08201518160020160046101000a81548160ff021916908360000b60ff16021790555060e08201518160020160056101000a81548160ff021916908360000b60ff1602179055509050506139f8565b60006139f7577f4e487b7100000000000000000000000000000000000000000000000000000000600052600160045260246000fd5b5b5b5b5b5050565b604051806101200160405280613a13613b14565b8152602001600073ffffffffffffffffffffffffffffffffffffffff168152602001600073ffffffffffffffffffffffffffffffffffffffff168152602001600073ffffffffffffffffffffffffffffffffffffffff168152602001600073ffffffffffffffffffffffffffffffffffffffff168152602001613a94613ac1565b8152602001613aa1613ac1565b8152602001613aae613ac1565b8152602001613abb613ac1565b81525090565b604051806101000160405280600015158152602001600081526020016000800b81526020016000800b81526020016000800b81526020016000800b81526020016000800b81526020016000800b81525090565b6040518061010001604052806000800b81526020016000800b81526020016000800b81526020016000800b81526020016000800b81526020016000815260200160008152602001600081525090565b6000613b76613b7184615150565b61512b565b90508082856040860282011115613b8c57600080fd5b60005b85811015613bbc5781613ba28882613db5565b845260208401935060408301925050600181019050613b8f565b5050509392505050565b6000613bd9613bd484615176565b61512b565b90508082856020860282011115613bef57600080fd5b60005b85811015613c1f5781613c0588826140d8565b845260208401935060208301925050600181019050613bf2565b5050509392505050565b6000613c3c613c378461519c565b61512b565b90508082856020860282011115613c5257600080fd5b60005b85811015613c825781613c6888826140d8565b845260208401935060208301925050600181019050613c55565b5050509392505050565b6000613c9f613c9a846151c2565b61512b565b90508082856020860282011115613cb557600080fd5b60005b85811015613ce55781613ccb88826140d8565b845260208401935060208301925050600181019050613cb8565b5050509392505050565b6000613d02613cfd846151e8565b61512b565b90508082856020860282011115613d1857600080fd5b60005b85811015613d485781613d2e88826140d8565b845260208401935060208301925050600181019050613d1b565b5050509392505050565b600081359050613d6181615909565b92915050565b600082601f830112613d7857600080fd5b6002613d85848285613b63565b91505092915050565b600082601f830112613d9f57600080fd5b6001613dac848285613bc6565b91505092915050565b600082601f830112613dc657600080fd5b6002613dd3848285613c29565b91505092915050565b600082601f830112613ded57600080fd5b6006613dfa848285613c8c565b91505092915050565b600082601f830112613e1457600080fd5b6007613e21848285613cef565b91505092915050565b600081359050613e3981615920565b92915050565b600081519050613e4e81615920565b92915050565b600081359050613e6381615937565b92915050565b60006101008284031215613e7c57600080fd5b613e8761010061512b565b90506000613e9784828501613e2a565b6000830152506020613eab848285016140d8565b6020830152506040613ebf84828501613e54565b6040830152506060613ed384828501613e54565b6060830152506080613ee784828501613e54565b60808301525060a0613efb84828501613e54565b60a08301525060c0613f0f84828501613e54565b60c08301525060e0613f2384828501613e54565b60e08301525092915050565b60006101008284031215613f4257600080fd5b613f4d61010061512b565b90506000613f5d84828501613e54565b6000830152506020613f7184828501613e54565b6020830152506040613f8584828501613e54565b6040830152506060613f9984828501613e54565b6060830152506080613fad84828501613e54565b60808301525060a0613fc1848285016140d8565b60a08301525060c0613fd5848285016140d8565b60c08301525060e0613fe9848285016140d8565b60e08301525092915050565b6000610580828403121561400857600080fd5b61401361012061512b565b9050600061402384828501613f2f565b60008301525061010061403884828501613d52565b60208301525061012061404d84828501613d52565b60408301525061014061406284828501613d52565b60608301525061016061407784828501613d52565b60808301525061018061408c84828501613e69565b60a0830152506102806140a184828501613e69565b60c0830152506103806140b684828501613e69565b60e0830152506104806140cb84828501613e69565b6101008301525092915050565b6000813590506140e78161594e565b92915050565b6000602082840312156140ff57600080fd5b600061410d84828501613d52565b91505092915050565b600080600080610120858703121561412d57600080fd5b600061413b87828801613db5565b945050604061414c87828801613d67565b93505060c061415d87828801613db5565b92505061010061416f87828801613d8e565b91505092959194509250565b6000806000806101c0858703121561419257600080fd5b60006141a087828801613db5565b94505060406141b187828801613d67565b93505060c06141c287828801613db5565b9250506101006141d487828801613ddc565b91505092959194509250565b6000602082840312156141f257600080fd5b600061420084828501613e3f565b91505092915050565b60006020828403121561421b57600080fd5b600061422984828501613e54565b91505092915050565b600080610120838503121561424657600080fd5b600061425485828601613e69565b92505061010061426685828601613e54565b9150509250929050565b6000610580828403121561428357600080fd5b600061429184828501613ff5565b91505092915050565b60008060008060008061022087890312156142b457600080fd5b60006142c289828a016140d8565b96505060206142d389828a016140d8565b95505060406142e489828a01613db5565b94505060806142f589828a01613d67565b93505061010061430789828a01613db5565b92505061014061431989828a01613e03565b9150509295509295509295565b60008060006060848603121561433b57600080fd5b6000614349868287016140d8565b935050602061435a868287016140d8565b925050604061436b868287016140d8565b9150509250925092565b60006143818383614471565b60408301905092915050565b60006143998383614c65565b60208301905092915050565b6143ae81615380565b82525050565b6143bd81615380565b82525050565b6143cc81615240565b6143d681846152b8565b92506143e18261520e565b8060005b838110156144125781516143f98782614375565b965061440483615277565b9250506001810190506143e5565b505050505050565b6144238161524b565b61442d81846152c3565b925061443882615218565b8060005b83811015614469578151614450878261438d565b965061445b83615284565b92505060018101905061443c565b505050505050565b61447a81615256565b61448481846152ce565b925061448f82615222565b8060005b838110156144c05781516144a7878261438d565b96506144b283615291565b925050600181019050614493565b505050505050565b6144d181615256565b6144db81846152d9565b92506144e682615222565b8060005b838110156145175781516144fe878261438d565b965061450983615291565b9250506001810190506144ea565b505050505050565b61452881615261565b61453281846152e4565b925061453d8261522c565b8060005b8381101561456e578151614555878261438d565b96506145608361529e565b925050600181019050614541565b505050505050565b61457f8161526c565b61458981846152ef565b925061459482615236565b8060005b838110156145c55781516145ac878261438d565b96506145b7836152ab565b925050600181019050614598565b505050505050565b6145d681615392565b82525050565b6145e58161539e565b82525050565b6145f48161539e565b82525050565b60006146076023836152fa565b9150614612826154e8565b604082019050919050565b600061462a601c836152fa565b915061463582615537565b602082019050919050565b600061464d600e836152fa565b915061465882615560565b602082019050919050565b60006146706016836152fa565b915061467b82615589565b602082019050919050565b6000614693601c836152fa565b915061469e826155b2565b602082019050919050565b60006146b66017836152fa565b91506146c1826155db565b602082019050919050565b60006146d9601b836152fa565b91506146e482615604565b602082019050919050565b60006146fc6018836152fa565b91506147078261562d565b602082019050919050565b600061471f602c836152fa565b915061472a82615656565b604082019050919050565b6000614742602f836152fa565b915061474d826156a5565b604082019050919050565b6000614765600e836152fa565b9150614770826156f4565b602082019050919050565b6000614788601d836152fa565b91506147938261571d565b602082019050919050565b60006147ab6019836152fa565b91506147b682615746565b602082019050919050565b60006147ce6017836152fa565b91506147d98261576f565b602082019050919050565b60006147f1601c836152fa565b91506147fc82615798565b602082019050919050565b60006148146012836152fa565b915061481f826157c1565b602082019050919050565b6000614837601b836152fa565b9150614842826157ea565b602082019050919050565b600061485a6015836152fa565b915061486582615813565b602082019050919050565b600061487d601c836152fa565b91506148888261583c565b602082019050919050565b60006148a0601f836152fa565b91506148ab82615865565b602082019050919050565b60006148c3601d836152fa565b91506148ce8261588e565b602082019050919050565b60006148e6601c836152fa565b91506148f1826158b7565b602082019050919050565b6000614909601d836152fa565b9150614914826158e0565b602082019050919050565b6101008201600082015161493660008501826145cd565b5060208201516149496020850182614c65565b50604082015161495c60408501826145dc565b50606082015161496f60608501826145dc565b50608082015161498260808501826145dc565b5060a082015161499560a08501826145dc565b5060c08201516149a860c08501826145dc565b5060e08201516149bb60e08501826145dc565b50505050565b610100820160008201516149d860008501826145cd565b5060208201516149eb6020850182614c65565b5060408201516149fe60408501826145dc565b506060820151614a1160608501826145dc565b506080820151614a2460808501826145dc565b5060a0820151614a3760a08501826145dc565b5060c0820151614a4a60c08501826145dc565b5060e0820151614a5d60e08501826145dc565b50505050565b61010082016000820151614a7a60008501826145dc565b506020820151614a8d60208501826145dc565b506040820151614aa060408501826145dc565b506060820151614ab360608501826145dc565b506080820151614ac660808501826145dc565b5060a0820151614ad960a0850182614c65565b5060c0820151614aec60c0850182614c65565b5060e0820151614aff60e0850182614c65565b50505050565b61010082016000820151614b1c60008501826145dc565b506020820151614b2f60208501826145dc565b506040820151614b4260408501826145dc565b506060820151614b5560608501826145dc565b506080820151614b6860808501826145dc565b5060a0820151614b7b60a0850182614c65565b5060c0820151614b8e60c0850182614c65565b5060e0820151614ba160e0850182614c65565b50505050565b61058082016000820151614bbe6000850182614a63565b506020820151614bd26101008501826143a5565b506040820151614be66101208501826143a5565b506060820151614bfa6101408501826143a5565b506080820151614c0e6101608501826143a5565b5060a0820151614c2261018085018261491f565b5060c0820151614c3661028085018261491f565b5060e0820151614c4a61038085018261491f565b50610100820151614c5f61048085018261491f565b50505050565b614c6e816153cb565b82525050565b6000602082019050614c8960008301846143b4565b92915050565b600061012082019050614ca560008301876144c8565b614cb260408301866143c3565b614cbf60c08301856144c8565b614ccd61010083018461441a565b95945050505050565b60006101c082019050614cec60008301876144c8565b614cf960408301866143c3565b614d0660c08301856144c8565b614d1461010083018461451f565b95945050505050565b60006101e082019050614d3360008301876144c8565b614d4060408301866143c3565b614d4d60c08301856144c8565b614d5b610100830184614576565b95945050505050565b6000602082019050614d7960008301846145eb565b92915050565b60006020820190508181036000830152614d98816145fa565b9050919050565b60006020820190508181036000830152614db88161461d565b9050919050565b60006020820190508181036000830152614dd881614640565b9050919050565b60006020820190508181036000830152614df881614663565b9050919050565b60006020820190508181036000830152614e1881614686565b9050919050565b60006020820190508181036000830152614e38816146a9565b9050919050565b60006020820190508181036000830152614e58816146cc565b9050919050565b60006020820190508181036000830152614e78816146ef565b9050919050565b60006020820190508181036000830152614e9881614712565b9050919050565b60006020820190508181036000830152614eb881614735565b9050919050565b60006020820190508181036000830152614ed881614758565b9050919050565b60006020820190508181036000830152614ef88161477b565b9050919050565b60006020820190508181036000830152614f188161479e565b9050919050565b60006020820190508181036000830152614f38816147c1565b9050919050565b60006020820190508181036000830152614f58816147e4565b9050919050565b60006020820190508181036000830152614f7881614807565b9050919050565b60006020820190508181036000830152614f988161482a565b9050919050565b60006020820190508181036000830152614fb88161484d565b9050919050565b60006020820190508181036000830152614fd881614870565b9050919050565b60006020820190508181036000830152614ff881614893565b9050919050565b60006020820190508181036000830152615018816148b6565b9050919050565b60006020820190508181036000830152615038816148d9565b9050919050565b60006020820190508181036000830152615058816148fc565b9050919050565b60006101008201905061507560008301846149c1565b92915050565b600061058082019050615091600083018c614b05565b61509f61010083018b6143b4565b6150ad61012083018a6143b4565b6150bb6101408301896143b4565b6150c96101608301886143b4565b6150d76101808301876149c1565b6150e56102808301866149c1565b6150f36103808301856149c1565b6151016104808301846149c1565b9a9950505050505050505050565b6000610580820190506151256000830184614ba7565b92915050565b6000615135615146565b905061514182826153d5565b919050565b6000604051905090565b600067ffffffffffffffff82111561516b5761516a6154a8565b5b602082029050919050565b600067ffffffffffffffff821115615191576151906154a8565b5b602082029050919050565b600067ffffffffffffffff8211156151b7576151b66154a8565b5b602082029050919050565b600067ffffffffffffffff8211156151dd576151dc6154a8565b5b602082029050919050565b600067ffffffffffffffff821115615203576152026154a8565b5b602082029050919050565b6000819050919050565b6000819050919050565b6000819050919050565b6000819050919050565b6000819050919050565b600060029050919050565b600060019050919050565b600060029050919050565b600060069050919050565b600060079050919050565b6000602082019050919050565b6000602082019050919050565b6000602082019050919050565b6000602082019050919050565b6000602082019050919050565b600081905092915050565b600081905092915050565b600081905092915050565b600081905092915050565b600081905092915050565b600081905092915050565b600082825260208201905092915050565b60006153168261539e565b91506153218361539e565b9250827fffffffffffffffffffffffffffffffffffffffffffffffffffffffffffffff800182126000841215161561535c5761535b615479565b5b82607f01821360008412161561537557615374615479565b5b828203905092915050565b600061538b826153ab565b9050919050565b60008115159050919050565b60008160000b9050919050565b600073ffffffffffffffffffffffffffffffffffffffff82169050919050565b6000819050919050565b6153de826154d7565b810181811067ffffffffffffffff821117156153fd576153fc6154a8565b5b80604052505050565b60006154118261539e565b9150607f82141561542557615424615479565b5b600182019050919050565b600061543b826153cb565b91507fffffffffffffffffffffffffffffffffffffffffffffffffffffffffffffffff82141561546e5761546d615479565b5b600182019050919050565b7f4e487b7100000000000000000000000000000000000000000000000000000000600052601160045260246000fd5b7f4e487b7100000000000000000000000000000000000000000000000000000000600052604160045260246000fd5b6000601f19601f8301169050919050565b7f526573706f6e64696e6720746f2077726f6e672061636375736174696f6e207460008201527f7970650000000000000000000000000000000000000000000000000000000000602082015250565b7f5769746368203120416c69766520646f6573206e6f74206d6174636800000000600082015250565b7f556e6b6e6f776e20616374696f6e000000000000000000000000000000000000600082015250565b7f43616e6e6f742074617267657420796f757273656c6600000000000000000000600082015250565b7f5769746368203220416c69766520646f6573206e6f74206d6174636800000000600082015250565b7f496e76616c69642076616c69646d6f76652070726f6f66000000000000000000600082015250565b7f43616e6e6f74207461726765742061206465616420706c617965720000000000600082015250565b7f47616d652068617320616c726561647920737461727465640000000000000000600082015250565b7f4120506c617965722063616e6e6f74206c6f7365206265666f7265207468652060008201527f67616d65207374617274732e0000000000000000000000000000000000000000602082015250565b7f4e6f742077616974696e6720666f72206120706c6179657220726573706f6e7360008201527f6520746f2061636375736174696f6e0000000000000000000000000000000000602082015250565b7f4e6f7420796f7572207475726e2e000000000000000000000000000000000000600082015250565b7f4d757374207461726765742061206578697374696e6720706c61796572000000600082015250565b7f5468652067616d6520697320616c7265616479206f7665722e00000000000000600082015250565b7f506c6179657220697320616c726561647920646561642e000000000000000000600082015250565b7f5769746368203020416c69766520646f6573206e6f74206d6174636800000000600082015250565b7f4e6f7420796f757220726573706f6e73652e0000000000000000000000000000600082015250565b7f596f752061726520616c726561647920696e207468652067616d650000000000600082015250565b7f496e76616c6964206e6f77697463682070726f6f660000000000000000000000600082015250565b7f496e76616c69642068616e64636f6d6d69746d656e742070726f6f6600000000600082015250565b7f4e6f742077616974696e6720666f72206120706c6179657220616374696f6e00600082015250565b7f48616e6420636f6d6d69746d656e747320646f206e6f74206d61746368000000600082015250565b7f5769746368203320416c69766520646f6573206e6f74206d6174636800000000600082015250565b7f41646472657373206973204e6f7420612076616c696420506c61796572000000600082015250565b61591281615380565b811461591d57600080fd5b50565b61592981615392565b811461593457600080fd5b50565b6159408161539e565b811461594b57600080fd5b50565b615957816153cb565b811461596257600080fd5b5056fea26469706673582212203cca1a0a669d64078d757737b5567e01a458c66d8865dc10dec1645ff15089f564736f6c63430008040033",
  "linkReferences": {},
  "deployedLinkReferences": {}
}