{
  "_format": "hh-sol-artifact-1",
  "contractName": "zkWitches",
  "sourceName": "contracts/zkWitches.sol",
  "abi": [
    {
      "inputs": [
        {
          "internalType": "address",
          "name": "hc_verifier",
          "type": "address"
        },
        {
          "internalType": "address",
          "name": "vm_verifier",
          "type": "address"
        },
        {
          "internalType": "address",
          "name": "nw_verifier",
          "type": "address"
        }
      ],
      "stateMutability": "nonpayable",
      "type": "constructor"
    },
    {
      "inputs": [
        {
          "internalType": "uint256",
          "name": "actionType",
          "type": "uint256"
        },
        {
          "internalType": "uint256",
          "name": "actionTarget",
          "type": "uint256"
        },
        {
          "internalType": "uint256",
          "name": "witchType",
          "type": "uint256"
        }
      ],
      "name": "ActionNoProof",
      "outputs": [],
      "stateMutability": "nonpayable",
      "type": "function"
    },
    {
      "inputs": [
        {
          "internalType": "uint256",
          "name": "actionTarget",
          "type": "uint256"
        },
        {
          "internalType": "uint256",
          "name": "witchType",
          "type": "uint256"
        },
        {
          "internalType": "uint256[2]",
          "name": "a",
          "type": "uint256[2]"
        },
        {
          "internalType": "uint256[2][2]",
          "name": "b",
          "type": "uint256[2][2]"
        },
        {
          "internalType": "uint256[2]",
          "name": "c",
          "type": "uint256[2]"
        },
        {
          "internalType": "uint256[7]",
          "name": "input",
          "type": "uint256[7]"
        }
      ],
      "name": "ActionWithProof",
      "outputs": [],
      "stateMutability": "nonpayable",
      "type": "function"
    },
    {
      "inputs": [
        {
          "internalType": "uint256[2]",
          "name": "a",
          "type": "uint256[2]"
        },
        {
          "internalType": "uint256[2][2]",
          "name": "b",
          "type": "uint256[2][2]"
        },
        {
          "internalType": "uint256[2]",
          "name": "c",
          "type": "uint256[2]"
        },
        {
          "internalType": "uint256[1]",
          "name": "input",
          "type": "uint256[1]"
        }
      ],
      "name": "JoinGame",
      "outputs": [],
      "stateMutability": "nonpayable",
      "type": "function"
    },
    {
      "inputs": [],
      "name": "KickCurrentPlayer",
      "outputs": [],
      "stateMutability": "nonpayable",
      "type": "function"
    },
    {
      "inputs": [
        {
          "internalType": "uint256[2]",
          "name": "a",
          "type": "uint256[2]"
        },
        {
          "internalType": "uint256[2][2]",
          "name": "b",
          "type": "uint256[2][2]"
        },
        {
          "internalType": "uint256[2]",
          "name": "c",
          "type": "uint256[2]"
        },
        {
          "internalType": "uint256[6]",
          "name": "input",
          "type": "uint256[6]"
        }
      ],
      "name": "RespondAccusation_NoWitch",
      "outputs": [],
      "stateMutability": "nonpayable",
      "type": "function"
    },
    {
      "inputs": [],
      "name": "RespondAccusation_YesWitch",
      "outputs": [],
      "stateMutability": "nonpayable",
      "type": "function"
    },
    {
      "inputs": [],
      "name": "Surrender",
      "outputs": [],
      "stateMutability": "nonpayable",
      "type": "function"
    },
    {
      "inputs": [
        {
          "internalType": "int8",
          "name": "slot",
          "type": "int8"
        }
      ],
      "name": "getPlayer",
      "outputs": [
        {
          "components": [
            {
              "internalType": "bool",
              "name": "isAlive",
              "type": "bool"
            },
            {
              "internalType": "uint256",
              "name": "handCommitment",
              "type": "uint256"
            },
            {
              "internalType": "int8",
              "name": "food",
              "type": "int8"
            },
            {
              "internalType": "int8",
              "name": "lumber",
              "type": "int8"
            },
            {
              "internalType": "int8[4]",
              "name": "WitchAlive",
              "type": "int8[4]"
            }
          ],
          "internalType": "struct zkWitches.PlayerState",
          "name": "",
          "type": "tuple"
        }
      ],
      "stateMutability": "view",
      "type": "function"
    },
    {
      "inputs": [],
      "name": "hc_verifierAddr",
      "outputs": [
        {
          "internalType": "address",
          "name": "",
          "type": "address"
        }
      ],
      "stateMutability": "view",
      "type": "function"
    },
    {
      "inputs": [],
      "name": "nw_verifierAddr",
      "outputs": [
        {
          "internalType": "address",
          "name": "",
          "type": "address"
        }
      ],
      "stateMutability": "view",
      "type": "function"
    },
    {
      "inputs": [
        {
          "internalType": "address",
          "name": "a",
          "type": "address"
        }
      ],
      "name": "slotByAddress",
      "outputs": [
        {
          "internalType": "int8",
          "name": "",
          "type": "int8"
        }
      ],
      "stateMutability": "view",
      "type": "function"
    },
    {
      "inputs": [],
      "name": "vm_verifierAddr",
      "outputs": [
        {
          "internalType": "address",
          "name": "",
          "type": "address"
        }
      ],
      "stateMutability": "view",
      "type": "function"
    }
  ],
  "bytecode": "0x60806040523480156200001157600080fd5b50604051620038493803806200384983398181016040528101906200003791906200011a565b82601860006101000a81548173ffffffffffffffffffffffffffffffffffffffff021916908373ffffffffffffffffffffffffffffffffffffffff16021790555081601960006101000a81548173ffffffffffffffffffffffffffffffffffffffff021916908373ffffffffffffffffffffffffffffffffffffffff16021790555080601a60006101000a81548173ffffffffffffffffffffffffffffffffffffffff021916908373ffffffffffffffffffffffffffffffffffffffff160217905550505050620001be565b6000815190506200011481620001a4565b92915050565b6000806000606084860312156200013057600080fd5b6000620001408682870162000103565b9350506020620001538682870162000103565b9250506040620001668682870162000103565b9150509250925092565b60006200017d8262000184565b9050919050565b600073ffffffffffffffffffffffffffffffffffffffff82169050919050565b620001af8162000170565b8114620001bb57600080fd5b50565b61367b80620001ce6000396000f3fe608060405234801561001057600080fd5b50600436106100b45760003560e01c806357cf24671161007157806357cf24671461012d578063834f98931461014b57806390ea2435146101675780639ac8736e14610197578063c6cfc9c5146101c7578063d8de5d21146101e3576100b4565b8063209f0612146100b9578063236fc916146100c357806323918059146100e15780633168748b146100fd5780633259e60f146101075780634c9063cb14610111575b600080fd5b6100c1610201565b005b6100cb61028b565b6040516100d891906129d7565b60405180910390f35b6100fb60048036038101906100f6919061227a565b6102b1565b005b61010561091b565b005b61010f610954565b005b61012b6004803603810190610126919061215e565b6109de565b005b610135610dfe565b60405161014291906129d7565b60405180910390f35b610165600480360381019061016091906121c3565b610e24565b005b610181600480360381019061017c9190612251565b61149e565b60405161018e9190612dc2565b60405180910390f35b6101b160048036038101906101ac9190612135565b6115c6565b6040516101be9190612ac7565b60405180910390f35b6101e160048036038101906101dc9190612306565b6116af565b005b6101eb6117f9565b6040516101f891906129d7565b60405180910390f35b7fffffffffffffffffffffffffffffffffffffffffffffffffffffffffffffffff60000b61022e336115c6565b60000b1415610272576040517f08c379a000000000000000000000000000000000000000000000000000000000815260040161026990612da2565b60405180910390fd5b600061027d336115c6565b90506102888161181f565b50565b601960009054906101000a900473ffffffffffffffffffffffffffffffffffffffff1681565b7fffffffffffffffffffffffffffffffffffffffffffffffffffffffffffffffff60000b6102de336115c6565b60000b1415610322576040517f08c379a000000000000000000000000000000000000000000000000000000000815260040161031990612da2565b60405180910390fd5b600061032d336115c6565b9050600160000b6000800160000160009054906101000a900460000b60000b1461038c576040517f08c379a000000000000000000000000000000000000000000000000000000000815260040161038390612d42565b60405180910390fd5b8060000b6000800160000160019054906101000a900460000b60000b146103e8576040517f08c379a00000000000000000000000000000000000000000000000000000000081526004016103df90612c22565b60405180910390fd5b60006103f38261149e565b90508260006007811061042f577f4e487b7100000000000000000000000000000000000000000000000000000000600052603260045260246000fd5b6020020151816020015114610479576040517f08c379a000000000000000000000000000000000000000000000000000000000815260040161047090612d62565b60405180910390fd5b826001600781106104b3577f4e487b7100000000000000000000000000000000000000000000000000000000600052603260045260246000fd5b602002015160000b81608001516000600481106104f9577f4e487b7100000000000000000000000000000000000000000000000000000000600052603260045260246000fd5b602002015160000b14610541576040517f08c379a000000000000000000000000000000000000000000000000000000000815260040161053890612ca2565b60405180910390fd5b8260026007811061057b577f4e487b7100000000000000000000000000000000000000000000000000000000600052603260045260246000fd5b602002015160000b81608001516001600481106105c1577f4e487b7100000000000000000000000000000000000000000000000000000000600052603260045260246000fd5b602002015160000b14610609576040517f08c379a000000000000000000000000000000000000000000000000000000000815260040161060090612b02565b60405180910390fd5b82600360078110610643577f4e487b7100000000000000000000000000000000000000000000000000000000600052603260045260246000fd5b602002015160000b8160800151600260048110610689577f4e487b7100000000000000000000000000000000000000000000000000000000600052603260045260246000fd5b602002015160000b146106d1576040517f08c379a00000000000000000000000000000000000000000000000000000000081526004016106c890612b62565b60405180910390fd5b8260046007811061070b577f4e487b7100000000000000000000000000000000000000000000000000000000600052603260045260246000fd5b602002015160000b8160800151600360048110610751577f4e487b7100000000000000000000000000000000000000000000000000000000600052603260045260246000fd5b602002015160000b14610799576040517f08c379a000000000000000000000000000000000000000000000000000000000815260040161079090612d82565b60405180910390fd5b601960009054906101000a900473ffffffffffffffffffffffffffffffffffffffff1673ffffffffffffffffffffffffffffffffffffffff1663c894e757878787876040518563ffffffff1660e01b81526004016107fa9493929190612a80565b60206040518083038186803b15801561081257600080fd5b505afa158015610826573d6000803e3d6000fd5b505050506040513d601f19601f8201168201806040525081019061084a9190612228565b610889576040517f08c379a000000000000000000000000000000000000000000000000000000000815260040161088090612b82565b60405180910390fd5b610911836005600781106108c6577f4e487b7100000000000000000000000000000000000000000000000000000000600052603260045260246000fd5b60200201518985600660078110610906577f4e487b7100000000000000000000000000000000000000000000000000000000600052603260045260246000fd5b60200201518a6118db565b5050505050505050565b60007fffffffffffffffffffffffffffffffffffffffffffffffffffffffffffffffff90506000156109515761095081611b6e565b5b50565b7fffffffffffffffffffffffffffffffffffffffffffffffffffffffffffffffff60000b610981336115c6565b60000b14156109c5576040517f08c379a00000000000000000000000000000000000000000000000000000000081526004016109bc90612da2565b60405180910390fd5b60006109d0336115c6565b90506109db81611b6e565b50565b7fffffffffffffffffffffffffffffffffffffffffffffffffffffffffffffffff60000b610a0b336115c6565b60000b14610a4e576040517f08c379a0000000000000000000000000000000000000000000000000000000008152600401610a4590612ce2565b60405180910390fd5b6000800b6000800160000160009054906101000a900460000b60000b14610aaa576040517f08c379a0000000000000000000000000000000000000000000000000000000008152600401610aa190612bc2565b60405180910390fd5b601860009054906101000a900473ffffffffffffffffffffffffffffffffffffffff1673ffffffffffffffffffffffffffffffffffffffff166343753b4d858585856040518563ffffffff1660e01b8152600401610b0b94939291906129f2565b60206040518083038186803b158015610b2357600080fd5b505afa158015610b37573d6000803e3d6000fd5b505050506040513d601f19601f82011682018060405250810190610b5b9190612228565b610b9a576040517f08c379a0000000000000000000000000000000000000000000000000000000008152600401610b9190612d22565b60405180910390fd5b60008001600001600281819054906101000a900460000b80929190610bbe906130e6565b91906101000a81548160ff021916908360000b60ff16021790555050600060016000800160000160029054906101000a900460000b610bfd9190612feb565b90503360006004018260ff1660048110610c40577f4e487b7100000000000000000000000000000000000000000000000000000000600052603260045260246000fd5b0160006101000a81548173ffffffffffffffffffffffffffffffffffffffff021916908373ffffffffffffffffffffffffffffffffffffffff16021790555060006040518060a0016040528060011515815260200184600060018110610ccf577f4e487b7100000000000000000000000000000000000000000000000000000000600052603260045260246000fd5b602002015181526020016000800b81526020016000800b81526020016040518060800160405280600160000b60000b8152602001600160000b8152602001600160000b8152602001600160000b81525081525090508060006008018360ff1660048110610d65577f4e487b7100000000000000000000000000000000000000000000000000000000600052603260045260246000fd5b6004020160008201518160000160006101000a81548160ff0219169083151502179055506020820151816001015560408201518160020160006101000a81548160ff021916908360000b60ff16021790555060608201518160020160016101000a81548160ff021916908360000b60ff160217905550608082015181600301906004610df2929190611d18565b50905050505050505050565b601860009054906101000a900473ffffffffffffffffffffffffffffffffffffffff1681565b7fffffffffffffffffffffffffffffffffffffffffffffffffffffffffffffffff60000b610e51336115c6565b60000b1415610e95576040517f08c379a0000000000000000000000000000000000000000000000000000000008152600401610e8c90612da2565b60405180910390fd5b6000610ea0336115c6565b9050600260000b6000800160000160009054906101000a900460000b60000b14610eff576040517f08c379a0000000000000000000000000000000000000000000000000000000008152600401610ef690612c02565b60405180910390fd5b8060000b6000800160000160019054906101000a900460000b60000b14610f5b576040517f08c379a0000000000000000000000000000000000000000000000000000000008152600401610f5290612cc2565b60405180910390fd5b6000610f668261149e565b905082600060068110610fa2577f4e487b7100000000000000000000000000000000000000000000000000000000600052603260045260246000fd5b6020020151816020015114610fec576040517f08c379a0000000000000000000000000000000000000000000000000000000008152600401610fe390612d62565b60405180910390fd5b82600160068110611026577f4e487b7100000000000000000000000000000000000000000000000000000000600052603260045260246000fd5b602002015160000b816080015160006004811061106c577f4e487b7100000000000000000000000000000000000000000000000000000000600052603260045260246000fd5b602002015160000b146110b4576040517f08c379a00000000000000000000000000000000000000000000000000000000081526004016110ab90612ca2565b60405180910390fd5b826002600681106110ee577f4e487b7100000000000000000000000000000000000000000000000000000000600052603260045260246000fd5b602002015160000b8160800151600160048110611134577f4e487b7100000000000000000000000000000000000000000000000000000000600052603260045260246000fd5b602002015160000b1461117c576040517f08c379a000000000000000000000000000000000000000000000000000000000815260040161117390612b02565b60405180910390fd5b826003600681106111b6577f4e487b7100000000000000000000000000000000000000000000000000000000600052603260045260246000fd5b602002015160000b81608001516002600481106111fc577f4e487b7100000000000000000000000000000000000000000000000000000000600052603260045260246000fd5b602002015160000b14611244576040517f08c379a000000000000000000000000000000000000000000000000000000000815260040161123b90612b62565b60405180910390fd5b8260046006811061127e577f4e487b7100000000000000000000000000000000000000000000000000000000600052603260045260246000fd5b602002015160000b81608001516003600481106112c4577f4e487b7100000000000000000000000000000000000000000000000000000000600052603260045260246000fd5b602002015160000b1461130c576040517f08c379a000000000000000000000000000000000000000000000000000000000815260040161130390612d82565b60405180910390fd5b82600560068110611346577f4e487b7100000000000000000000000000000000000000000000000000000000600052603260045260246000fd5b602002015160000b6000800160000160049054906101000a900460000b60000b146113a6576040517f08c379a000000000000000000000000000000000000000000000000000000000815260040161139d90612ae2565b60405180910390fd5b601a60009054906101000a900473ffffffffffffffffffffffffffffffffffffffff1673ffffffffffffffffffffffffffffffffffffffff1663f398789b878787876040518563ffffffff1660e01b81526004016114079493929190612a39565b60206040518083038186803b15801561141f57600080fd5b505afa158015611433573d6000803e3d6000fd5b505050506040513d601f19601f820116820180604052508101906114579190612228565b611496576040517f08c379a000000000000000000000000000000000000000000000000000000000815260040161148d90612d02565b60405180910390fd5b505050505050565b6114a6611db5565b60006008018260ff16600481106114e6577f4e487b7100000000000000000000000000000000000000000000000000000000600052603260045260246000fd5b600402016040518060a00160405290816000820160009054906101000a900460ff16151515158152602001600182015481526020016002820160009054906101000a900460000b60000b60000b81526020016002820160019054906101000a900460000b60000b60000b8152602001600382016004806020026040519081016040528092919082600480156115b6576020028201916000905b82829054906101000a900460000b60000b8152602001906001019060208260000104928301926001038202915080841161157f5790505b5050505050815250509050919050565b600080600090505b6004811015611685578273ffffffffffffffffffffffffffffffffffffffff166000600401826004811061162b577f4e487b7100000000000000000000000000000000000000000000000000000000600052603260045260246000fd5b0160009054906101000a900473ffffffffffffffffffffffffffffffffffffffff1673ffffffffffffffffffffffffffffffffffffffff16141561167257809150506116aa565b808061167d90613110565b9150506115ce565b507fffffffffffffffffffffffffffffffffffffffffffffffffffffffffffffffff90505b919050565b7fffffffffffffffffffffffffffffffffffffffffffffffffffffffffffffffff60000b6116dc336115c6565b60000b1415611720576040517f08c379a000000000000000000000000000000000000000000000000000000000815260040161171790612da2565b60405180910390fd5b600061172b336115c6565b9050600160000b6000800160000160009054906101000a900460000b60000b1461178a576040517f08c379a000000000000000000000000000000000000000000000000000000000815260040161178190612d42565b60405180910390fd5b8060000b6000800160000160019054906101000a900460000b60000b146117e6576040517f08c379a00000000000000000000000000000000000000000000000000000000081526004016117dd90612c22565b60405180910390fd5b6117f384848460006118db565b50505050565b601a60009054906101000a900473ffffffffffffffffffffffffffffffffffffffff1681565b600260000b6000800160000160009054906101000a900460000b60000b1461187c576040517f08c379a000000000000000000000000000000000000000000000000000000000815260040161187390612c02565b60405180910390fd5b8060000b6000800160000160019054906101000a900460000b60000b146118d8576040517f08c379a00000000000000000000000000000000000000000000000000000000081526004016118cf90612cc2565b60405180910390fd5b50565b60008460000b121580156118f3575060038460000b13155b611932576040517f08c379a000000000000000000000000000000000000000000000000000000000815260040161192990612b22565b60405180910390fd5b6000800b8460000b141561194557611b68565b600160000b8460000b141561195957611b67565b600260000b8460000b1415611a61578260000b611975336115c6565b60000b14156119b9576040517f08c379a00000000000000000000000000000000000000000000000000000000081526004016119b090612b42565b60405180910390fd5b60008360000b121580156119d1575060038360000b13155b611a10576040517f08c379a0000000000000000000000000000000000000000000000000000000008152600401611a0790612c42565b60405180910390fd5b611a198361149e565b60000151611a5c576040517f08c379a0000000000000000000000000000000000000000000000000000000008152600401611a5390612ba2565b60405180910390fd5b611b66565b600360000b8460000b1415611b65578260000b611a7d336115c6565b60000b1415611ac1576040517f08c379a0000000000000000000000000000000000000000000000000000000008152600401611ab890612b42565b60405180910390fd5b60008360000b12158015611ad9575060038360000b13155b611b18576040517f08c379a0000000000000000000000000000000000000000000000000000000008152600401611b0f90612c42565b60405180910390fd5b611b218361149e565b60000151611b64576040517f08c379a0000000000000000000000000000000000000000000000000000000008152600401611b5b90612ba2565b60405180910390fd5b5b5b5b5b50505050565b6000800b6000800160000160009054906101000a900460000b60000b1415611bcb576040517f08c379a0000000000000000000000000000000000000000000000000000000008152600401611bc290612be2565b60405180910390fd5b600360000b6000800160000160009054906101000a900460000b60000b1415611c29576040517f08c379a0000000000000000000000000000000000000000000000000000000008152600401611c2090612c62565b60405180910390fd5b611c328161149e565b60000151611c75576040517f08c379a0000000000000000000000000000000000000000000000000000000008152600401611c6c90612c82565b60405180910390fd5b600160000b6000800160000160009054906101000a900460000b60000b148015611cb857508060000b6000800160000160019054906101000a900460000b60000b145b15611cc257611d15565b600260000b6000800160000160009054906101000a900460000b60000b148015611d0557508060000b6000800160000160019054906101000a900460000b60000b145b15611d1457611d138161181f565b5b5b50565b826004601f01602090048101928215611da45791602002820160005b83821115611d7557835183826101000a81548160ff021916908360000b60ff1602179055509260200192600101602081600001049283019260010302611d34565b8015611da25782816101000a81549060ff0219169055600101602081600001049283019260010302611d75565b505b509050611db19190611df0565b5090565b6040518060a00160405280600015158152602001600081526020016000800b81526020016000800b8152602001611dea611e0d565b81525090565b5b80821115611e09576000816000905550600101611df1565b5090565b6040518060800160405280600490602082028036833780820191505090505090565b6000611e42611e3d84612e03565b612dde565b90508082856040860282011115611e5857600080fd5b60005b85811015611e885781611e6e8882612081565b845260208401935060408301925050600181019050611e5b565b5050509392505050565b6000611ea5611ea084612e29565b612dde565b90508082856020860282011115611ebb57600080fd5b60005b85811015611eeb5781611ed18882612120565b845260208401935060208301925050600181019050611ebe565b5050509392505050565b6000611f08611f0384612e4f565b612dde565b90508082856020860282011115611f1e57600080fd5b60005b85811015611f4e5781611f348882612120565b845260208401935060208301925050600181019050611f21565b5050509392505050565b6000611f6b611f6684612e75565b612dde565b90508082856020860282011115611f8157600080fd5b60005b85811015611fb15781611f978882612120565b845260208401935060208301925050600181019050611f84565b5050509392505050565b6000611fce611fc984612e9b565b612dde565b90508082856020860282011115611fe457600080fd5b60005b858110156120145781611ffa8882612120565b845260208401935060208301925050600181019050611fe7565b5050509392505050565b60008135905061202d816135e9565b92915050565b600082601f83011261204457600080fd5b6002612051848285611e2f565b91505092915050565b600082601f83011261206b57600080fd5b6001612078848285611e92565b91505092915050565b600082601f83011261209257600080fd5b600261209f848285611ef5565b91505092915050565b600082601f8301126120b957600080fd5b60066120c6848285611f58565b91505092915050565b600082601f8301126120e057600080fd5b60076120ed848285611fbb565b91505092915050565b60008151905061210581613600565b92915050565b60008135905061211a81613617565b92915050565b60008135905061212f8161362e565b92915050565b60006020828403121561214757600080fd5b60006121558482850161201e565b91505092915050565b600080600080610120858703121561217557600080fd5b600061218387828801612081565b945050604061219487828801612033565b93505060c06121a587828801612081565b9250506101006121b78782880161205a565b91505092959194509250565b6000806000806101c085870312156121da57600080fd5b60006121e887828801612081565b94505060406121f987828801612033565b93505060c061220a87828801612081565b92505061010061221c878288016120a8565b91505092959194509250565b60006020828403121561223a57600080fd5b6000612248848285016120f6565b91505092915050565b60006020828403121561226357600080fd5b60006122718482850161210b565b91505092915050565b600080600080600080610220878903121561229457600080fd5b60006122a289828a01612120565b96505060206122b389828a01612120565b95505060406122c489828a01612081565b94505060806122d589828a01612033565b9350506101006122e789828a01612081565b9250506101406122f989828a016120cf565b9150509295509295509295565b60008060006060848603121561231b57600080fd5b600061232986828701612120565b935050602061233a86828701612120565b925050604061234b86828701612120565b9150509250925092565b600061236183836124b1565b60408301905092915050565b6000612379838361261c565b60208301905092915050565b600061239183836129c8565b60208301905092915050565b6123a681613060565b82525050565b6123b581612efd565b6123bf8184612f8d565b92506123ca82612ec1565b8060005b838110156123fb5781516123e28782612355565b96506123ed83612f3f565b9250506001810190506123ce565b505050505050565b61240c81612f08565b6124168184612f98565b925061242182612ecb565b8060005b83811015612452578151612439878261236d565b965061244483612f4c565b925050600181019050612425565b505050505050565b61246381612f13565b61246d8184612fa3565b925061247882612ed5565b8060005b838110156124a95781516124908782612385565b965061249b83612f59565b92505060018101905061247c565b505050505050565b6124ba81612f1e565b6124c48184612fae565b92506124cf82612edf565b8060005b838110156125005781516124e78782612385565b96506124f283612f66565b9250506001810190506124d3565b505050505050565b61251181612f1e565b61251b8184612fb9565b925061252682612edf565b8060005b8381101561255757815161253e8782612385565b965061254983612f66565b92505060018101905061252a565b505050505050565b61256881612f29565b6125728184612fc4565b925061257d82612ee9565b8060005b838110156125ae5781516125958782612385565b96506125a083612f73565b925050600181019050612581565b505050505050565b6125bf81612f34565b6125c98184612fcf565b92506125d482612ef3565b8060005b838110156126055781516125ec8782612385565b96506125f783612f80565b9250506001810190506125d8565b505050505050565b61261681613072565b82525050565b6126258161307e565b82525050565b6126348161307e565b82525050565b6000612647602383612fda565b9150612652826131c8565b604082019050919050565b600061266a601c83612fda565b915061267582613217565b602082019050919050565b600061268d600e83612fda565b915061269882613240565b602082019050919050565b60006126b0601683612fda565b91506126bb82613269565b602082019050919050565b60006126d3601c83612fda565b91506126de82613292565b602082019050919050565b60006126f6601783612fda565b9150612701826132bb565b602082019050919050565b6000612719601b83612fda565b9150612724826132e4565b602082019050919050565b600061273c601883612fda565b91506127478261330d565b602082019050919050565b600061275f602c83612fda565b915061276a82613336565b604082019050919050565b6000612782602f83612fda565b915061278d82613385565b604082019050919050565b60006127a5600e83612fda565b91506127b0826133d4565b602082019050919050565b60006127c8601d83612fda565b91506127d3826133fd565b602082019050919050565b60006127eb601983612fda565b91506127f682613426565b602082019050919050565b600061280e601783612fda565b91506128198261344f565b602082019050919050565b6000612831601c83612fda565b915061283c82613478565b602082019050919050565b6000612854601283612fda565b915061285f826134a1565b602082019050919050565b6000612877601b83612fda565b9150612882826134ca565b602082019050919050565b600061289a601583612fda565b91506128a5826134f3565b602082019050919050565b60006128bd601c83612fda565b91506128c88261351c565b602082019050919050565b60006128e0601f83612fda565b91506128eb82613545565b602082019050919050565b6000612903601d83612fda565b915061290e8261356e565b602082019050919050565b6000612926601c83612fda565b915061293182613597565b602082019050919050565b6000612949601d83612fda565b9150612954826135c0565b602082019050919050565b61010082016000820151612976600085018261260d565b50602082015161298960208501826129c8565b50604082015161299c604085018261261c565b5060608201516129af606085018261261c565b5060808201516129c26080850182612403565b50505050565b6129d1816130ab565b82525050565b60006020820190506129ec600083018461239d565b92915050565b600061012082019050612a086000830187612508565b612a1560408301866123ac565b612a2260c0830185612508565b612a3061010083018461245a565b95945050505050565b60006101c082019050612a4f6000830187612508565b612a5c60408301866123ac565b612a6960c0830185612508565b612a7761010083018461255f565b95945050505050565b60006101e082019050612a966000830187612508565b612aa360408301866123ac565b612ab060c0830185612508565b612abe6101008301846125b6565b95945050505050565b6000602082019050612adc600083018461262b565b92915050565b60006020820190508181036000830152612afb8161263a565b9050919050565b60006020820190508181036000830152612b1b8161265d565b9050919050565b60006020820190508181036000830152612b3b81612680565b9050919050565b60006020820190508181036000830152612b5b816126a3565b9050919050565b60006020820190508181036000830152612b7b816126c6565b9050919050565b60006020820190508181036000830152612b9b816126e9565b9050919050565b60006020820190508181036000830152612bbb8161270c565b9050919050565b60006020820190508181036000830152612bdb8161272f565b9050919050565b60006020820190508181036000830152612bfb81612752565b9050919050565b60006020820190508181036000830152612c1b81612775565b9050919050565b60006020820190508181036000830152612c3b81612798565b9050919050565b60006020820190508181036000830152612c5b816127bb565b9050919050565b60006020820190508181036000830152612c7b816127de565b9050919050565b60006020820190508181036000830152612c9b81612801565b9050919050565b60006020820190508181036000830152612cbb81612824565b9050919050565b60006020820190508181036000830152612cdb81612847565b9050919050565b60006020820190508181036000830152612cfb8161286a565b9050919050565b60006020820190508181036000830152612d1b8161288d565b9050919050565b60006020820190508181036000830152612d3b816128b0565b9050919050565b60006020820190508181036000830152612d5b816128d3565b9050919050565b60006020820190508181036000830152612d7b816128f6565b9050919050565b60006020820190508181036000830152612d9b81612919565b9050919050565b60006020820190508181036000830152612dbb8161293c565b9050919050565b600061010082019050612dd8600083018461295f565b92915050565b6000612de8612df9565b9050612df482826130b5565b919050565b6000604051905090565b600067ffffffffffffffff821115612e1e57612e1d613188565b5b602082029050919050565b600067ffffffffffffffff821115612e4457612e43613188565b5b602082029050919050565b600067ffffffffffffffff821115612e6a57612e69613188565b5b602082029050919050565b600067ffffffffffffffff821115612e9057612e8f613188565b5b602082029050919050565b600067ffffffffffffffff821115612eb657612eb5613188565b5b602082029050919050565b6000819050919050565b6000819050919050565b6000819050919050565b6000819050919050565b6000819050919050565b6000819050919050565b600060029050919050565b600060049050919050565b600060019050919050565b600060029050919050565b600060069050919050565b600060079050919050565b6000602082019050919050565b6000602082019050919050565b6000602082019050919050565b6000602082019050919050565b6000602082019050919050565b6000602082019050919050565b600081905092915050565b600081905092915050565b600081905092915050565b600081905092915050565b600081905092915050565b600081905092915050565b600081905092915050565b600082825260208201905092915050565b6000612ff68261307e565b91506130018361307e565b9250827fffffffffffffffffffffffffffffffffffffffffffffffffffffffffffffff800182126000841215161561303c5761303b613159565b5b82607f01821360008412161561305557613054613159565b5b828203905092915050565b600061306b8261308b565b9050919050565b60008115159050919050565b60008160000b9050919050565b600073ffffffffffffffffffffffffffffffffffffffff82169050919050565b6000819050919050565b6130be826131b7565b810181811067ffffffffffffffff821117156130dd576130dc613188565b5b80604052505050565b60006130f18261307e565b9150607f82141561310557613104613159565b5b600182019050919050565b600061311b826130ab565b91507fffffffffffffffffffffffffffffffffffffffffffffffffffffffffffffffff82141561314e5761314d613159565b5b600182019050919050565b7f4e487b7100000000000000000000000000000000000000000000000000000000600052601160045260246000fd5b7f4e487b7100000000000000000000000000000000000000000000000000000000600052604160045260246000fd5b6000601f19601f8301169050919050565b7f526573706f6e64696e6720746f2077726f6e672061636375736174696f6e207460008201527f7970650000000000000000000000000000000000000000000000000000000000602082015250565b7f5769746368203120416c69766520646f6573206e6f74206d6174636800000000600082015250565b7f556e6b6e6f776e20616374696f6e000000000000000000000000000000000000600082015250565b7f43616e6e6f742074617267657420796f757273656c6600000000000000000000600082015250565b7f5769746368203220416c69766520646f6573206e6f74206d6174636800000000600082015250565b7f496e76616c69642076616c69646d6f76652070726f6f66000000000000000000600082015250565b7f43616e6e6f74207461726765742061206465616420706c617965720000000000600082015250565b7f47616d652068617320616c726561647920737461727465640000000000000000600082015250565b7f4120506c617965722063616e6e6f74206c6f7365206265666f7265207468652060008201527f67616d65207374617274732e0000000000000000000000000000000000000000602082015250565b7f4e6f742077616974696e6720666f72206120706c6179657220726573706f6e7360008201527f6520746f2061636375736174696f6e0000000000000000000000000000000000602082015250565b7f4e6f7420796f7572207475726e2e000000000000000000000000000000000000600082015250565b7f4d757374207461726765742061206578697374696e6720706c61796572000000600082015250565b7f5468652067616d6520697320616c7265616479206f7665722e00000000000000600082015250565b7f506c6179657220697320616c726561647920646561642e000000000000000000600082015250565b7f5769746368203020416c69766520646f6573206e6f74206d6174636800000000600082015250565b7f4e6f7420796f757220726573706f6e73652e0000000000000000000000000000600082015250565b7f596f752061726520616c726561647920696e207468652067616d650000000000600082015250565b7f496e76616c6964206e6f77697463682070726f6f660000000000000000000000600082015250565b7f496e76616c69642068616e64636f6d6d69746d656e742070726f6f6600000000600082015250565b7f4e6f742077616974696e6720666f72206120706c6179657220616374696f6e00600082015250565b7f48616e6420636f6d6d69746d656e747320646f206e6f74206d61746368000000600082015250565b7f5769746368203320416c69766520646f6573206e6f74206d6174636800000000600082015250565b7f41646472657373206973204e6f7420612076616c696420506c61796572000000600082015250565b6135f281613060565b81146135fd57600080fd5b50565b61360981613072565b811461361457600080fd5b50565b6136208161307e565b811461362b57600080fd5b50565b613637816130ab565b811461364257600080fd5b5056fea26469706673582212205bfa55c789b1efc87c3b2b6407e9ab840271c2fd67f82ac370a5a7669413541264736f6c63430008040033",
  "linkReferences": {},
  "deployedLinkReferences": {}
}