{
  "_format": "hh-sol-artifact-1",
  "contractName": "zkWitches",
  "sourceName": "contracts/zkWitches.sol",
  "abi": [
    {
      "inputs": [
        {
          "internalType": "address",
          "name": "hc_verifier",
          "type": "address"
        },
        {
          "internalType": "address",
          "name": "vm_verifier",
          "type": "address"
        },
        {
          "internalType": "address",
          "name": "nw_verifier",
          "type": "address"
        }
      ],
      "stateMutability": "nonpayable",
      "type": "constructor"
    },
    {
      "inputs": [
        {
          "internalType": "uint256",
          "name": "actionType",
          "type": "uint256"
        },
        {
          "internalType": "uint256",
          "name": "actionTarget",
          "type": "uint256"
        },
        {
          "internalType": "uint256",
          "name": "witchType",
          "type": "uint256"
        }
      ],
      "name": "ActionNoProof",
      "outputs": [],
      "stateMutability": "nonpayable",
      "type": "function"
    },
    {
      "inputs": [
        {
          "internalType": "uint256",
          "name": "actionTarget",
          "type": "uint256"
        },
        {
          "internalType": "uint256",
          "name": "witchType",
          "type": "uint256"
        },
        {
          "internalType": "uint256[2]",
          "name": "a",
          "type": "uint256[2]"
        },
        {
          "internalType": "uint256[2][2]",
          "name": "b",
          "type": "uint256[2][2]"
        },
        {
          "internalType": "uint256[2]",
          "name": "c",
          "type": "uint256[2]"
        },
        {
          "internalType": "uint256[7]",
          "name": "input",
          "type": "uint256[7]"
        }
      ],
      "name": "ActionWithProof",
      "outputs": [],
      "stateMutability": "nonpayable",
      "type": "function"
    },
    {
      "inputs": [
        {
          "components": [
            {
              "components": [
                {
                  "internalType": "int8",
                  "name": "stateEnum",
                  "type": "int8"
                },
                {
                  "internalType": "int8",
                  "name": "playerSlotWaiting",
                  "type": "int8"
                },
                {
                  "internalType": "int8",
                  "name": "currentNumberOfPlayers",
                  "type": "int8"
                },
                {
                  "internalType": "int8",
                  "name": "playerAccusing",
                  "type": "int8"
                },
                {
                  "internalType": "int8",
                  "name": "accusationWitchType",
                  "type": "int8"
                },
                {
                  "internalType": "uint256",
                  "name": "previous_action_game_block",
                  "type": "uint256"
                },
                {
                  "internalType": "uint256",
                  "name": "current_block",
                  "type": "uint256"
                },
                {
                  "internalType": "uint256",
                  "name": "current_sequence_number",
                  "type": "uint256"
                }
              ],
              "internalType": "struct zkWitches.SharedState",
              "name": "shared",
              "type": "tuple"
            },
            {
              "internalType": "address[4]",
              "name": "playerAddresses",
              "type": "address[4]"
            },
            {
              "components": [
                {
                  "internalType": "bool",
                  "name": "isAlive",
                  "type": "bool"
                },
                {
                  "internalType": "uint256",
                  "name": "handCommitment",
                  "type": "uint256"
                },
                {
                  "internalType": "int8",
                  "name": "food",
                  "type": "int8"
                },
                {
                  "internalType": "int8",
                  "name": "lumber",
                  "type": "int8"
                },
                {
                  "internalType": "int8[4]",
                  "name": "WitchAlive",
                  "type": "int8[4]"
                }
              ],
              "internalType": "struct zkWitches.PlayerState[4]",
              "name": "players",
              "type": "tuple[4]"
            }
          ],
          "internalType": "struct zkWitches.TotalGameState",
          "name": "inputTgs",
          "type": "tuple"
        }
      ],
      "name": "DEBUG_SetGameState",
      "outputs": [],
      "stateMutability": "nonpayable",
      "type": "function"
    },
    {
      "inputs": [
        {
          "internalType": "uint256[2]",
          "name": "a",
          "type": "uint256[2]"
        },
        {
          "internalType": "uint256[2][2]",
          "name": "b",
          "type": "uint256[2][2]"
        },
        {
          "internalType": "uint256[2]",
          "name": "c",
          "type": "uint256[2]"
        },
        {
          "internalType": "uint256[1]",
          "name": "input",
          "type": "uint256[1]"
        }
      ],
      "name": "JoinGame",
      "outputs": [],
      "stateMutability": "nonpayable",
      "type": "function"
    },
    {
      "inputs": [],
      "name": "KickCurrentPlayer",
      "outputs": [],
      "stateMutability": "nonpayable",
      "type": "function"
    },
    {
      "inputs": [
        {
          "internalType": "uint256[2]",
          "name": "a",
          "type": "uint256[2]"
        },
        {
          "internalType": "uint256[2][2]",
          "name": "b",
          "type": "uint256[2][2]"
        },
        {
          "internalType": "uint256[2]",
          "name": "c",
          "type": "uint256[2]"
        },
        {
          "internalType": "uint256[6]",
          "name": "input",
          "type": "uint256[6]"
        }
      ],
      "name": "RespondAccusation_NoWitch",
      "outputs": [],
      "stateMutability": "nonpayable",
      "type": "function"
    },
    {
      "inputs": [],
      "name": "RespondAccusation_YesWitch",
      "outputs": [],
      "stateMutability": "nonpayable",
      "type": "function"
    },
    {
      "inputs": [],
      "name": "Surrender",
      "outputs": [],
      "stateMutability": "nonpayable",
      "type": "function"
    },
    {
      "inputs": [
        {
          "internalType": "int8",
          "name": "slot",
          "type": "int8"
        }
      ],
      "name": "getPlayer",
      "outputs": [
        {
          "components": [
            {
              "internalType": "bool",
              "name": "isAlive",
              "type": "bool"
            },
            {
              "internalType": "uint256",
              "name": "handCommitment",
              "type": "uint256"
            },
            {
              "internalType": "int8",
              "name": "food",
              "type": "int8"
            },
            {
              "internalType": "int8",
              "name": "lumber",
              "type": "int8"
            },
            {
              "internalType": "int8[4]",
              "name": "WitchAlive",
              "type": "int8[4]"
            }
          ],
          "internalType": "struct zkWitches.PlayerState",
          "name": "",
          "type": "tuple"
        }
      ],
      "stateMutability": "view",
      "type": "function"
    },
    {
      "inputs": [],
      "name": "hc_verifierAddr",
      "outputs": [
        {
          "internalType": "address",
          "name": "",
          "type": "address"
        }
      ],
      "stateMutability": "view",
      "type": "function"
    },
    {
      "inputs": [],
      "name": "nw_verifierAddr",
      "outputs": [
        {
          "internalType": "address",
          "name": "",
          "type": "address"
        }
      ],
      "stateMutability": "view",
      "type": "function"
    },
    {
      "inputs": [
        {
          "internalType": "address",
          "name": "a",
          "type": "address"
        }
      ],
      "name": "slotByAddress",
      "outputs": [
        {
          "internalType": "int8",
          "name": "",
          "type": "int8"
        }
      ],
      "stateMutability": "view",
      "type": "function"
    },
    {
      "inputs": [],
      "name": "tgs",
      "outputs": [
        {
          "components": [
            {
              "internalType": "int8",
              "name": "stateEnum",
              "type": "int8"
            },
            {
              "internalType": "int8",
              "name": "playerSlotWaiting",
              "type": "int8"
            },
            {
              "internalType": "int8",
              "name": "currentNumberOfPlayers",
              "type": "int8"
            },
            {
              "internalType": "int8",
              "name": "playerAccusing",
              "type": "int8"
            },
            {
              "internalType": "int8",
              "name": "accusationWitchType",
              "type": "int8"
            },
            {
              "internalType": "uint256",
              "name": "previous_action_game_block",
              "type": "uint256"
            },
            {
              "internalType": "uint256",
              "name": "current_block",
              "type": "uint256"
            },
            {
              "internalType": "uint256",
              "name": "current_sequence_number",
              "type": "uint256"
            }
          ],
          "internalType": "struct zkWitches.SharedState",
          "name": "shared",
          "type": "tuple"
        }
      ],
      "stateMutability": "view",
      "type": "function"
    },
    {
      "inputs": [],
      "name": "vm_verifierAddr",
      "outputs": [
        {
          "internalType": "address",
          "name": "",
          "type": "address"
        }
      ],
      "stateMutability": "view",
      "type": "function"
    }
  ],
  "bytecode": "0x60806040523480156200001157600080fd5b50604051620046b9380380620046b983398181016040528101906200003791906200011a565b82601860006101000a81548173ffffffffffffffffffffffffffffffffffffffff021916908373ffffffffffffffffffffffffffffffffffffffff16021790555081601960006101000a81548173ffffffffffffffffffffffffffffffffffffffff021916908373ffffffffffffffffffffffffffffffffffffffff16021790555080601a60006101000a81548173ffffffffffffffffffffffffffffffffffffffff021916908373ffffffffffffffffffffffffffffffffffffffff160217905550505050620001be565b6000815190506200011481620001a4565b92915050565b6000806000606084860312156200013057600080fd5b6000620001408682870162000103565b9350506020620001538682870162000103565b9250506040620001668682870162000103565b9150509250925092565b60006200017d8262000184565b9050919050565b600073ffffffffffffffffffffffffffffffffffffffff82169050919050565b620001af8162000170565b8114620001bb57600080fd5b50565b6144eb80620001ce6000396000f3fe608060405234801561001057600080fd5b50600436106100ea5760003560e01c8063834f98931161008c578063b45dfe4f11610066578063b45dfe4f146101fd578063c6cfc9c514610219578063ca9e7f3214610235578063d8de5d2114610253576100ea565b8063834f98931461018157806390ea24351461019d5780639ac8736e146101cd576100ea565b80633168748b116100c85780633168748b146101335780633259e60f1461013d5780634c9063cb1461014757806357cf246714610163576100ea565b8063209f0612146100ef578063236fc916146100f95780632391805914610117575b600080fd5b6100f7610271565b005b6101016102fb565b60405161010e91906137b9565b60405180910390f35b610131600480360381019061012c9190612fba565b610321565b005b61013b61098b565b005b6101456109c4565b005b610161600480360381019061015c9190612e74565b610a4e565b005b61016b610e6e565b60405161017891906137b9565b60405180910390f35b61019b60048036038101906101969190612ed9565b610e94565b005b6101b760048036038101906101b29190612f67565b61150e565b6040516101c49190613ba4565b60405180910390f35b6101e760048036038101906101e29190612e4b565b611636565b6040516101f491906138a9565b60405180910390f35b61021760048036038101906102129190612f90565b61171f565b005b610233600480360381019061022e9190613046565b611f98565b005b61023d6120e2565b60405161024a9190613bc0565b60405180910390f35b61025b6121a8565b60405161026891906137b9565b60405180910390f35b7fffffffffffffffffffffffffffffffffffffffffffffffffffffffffffffffff60000b61029e33611636565b60000b14156102e2576040517f08c379a00000000000000000000000000000000000000000000000000000000081526004016102d990613b84565b60405180910390fd5b60006102ed33611636565b90506102f8816121ce565b50565b601960009054906101000a900473ffffffffffffffffffffffffffffffffffffffff1681565b7fffffffffffffffffffffffffffffffffffffffffffffffffffffffffffffffff60000b61034e33611636565b60000b1415610392576040517f08c379a000000000000000000000000000000000000000000000000000000000815260040161038990613b84565b60405180910390fd5b600061039d33611636565b9050600160000b6000800160000160009054906101000a900460000b60000b146103fc576040517f08c379a00000000000000000000000000000000000000000000000000000000081526004016103f390613b24565b60405180910390fd5b8060000b6000800160000160019054906101000a900460000b60000b14610458576040517f08c379a000000000000000000000000000000000000000000000000000000000815260040161044f90613a04565b60405180910390fd5b60006104638261150e565b90508260006007811061049f577f4e487b7100000000000000000000000000000000000000000000000000000000600052603260045260246000fd5b60200201518160200151146104e9576040517f08c379a00000000000000000000000000000000000000000000000000000000081526004016104e090613b44565b60405180910390fd5b82600160078110610523577f4e487b7100000000000000000000000000000000000000000000000000000000600052603260045260246000fd5b602002015160000b8160800151600060048110610569577f4e487b7100000000000000000000000000000000000000000000000000000000600052603260045260246000fd5b602002015160000b146105b1576040517f08c379a00000000000000000000000000000000000000000000000000000000081526004016105a890613a84565b60405180910390fd5b826002600781106105eb577f4e487b7100000000000000000000000000000000000000000000000000000000600052603260045260246000fd5b602002015160000b8160800151600160048110610631577f4e487b7100000000000000000000000000000000000000000000000000000000600052603260045260246000fd5b602002015160000b14610679576040517f08c379a0000000000000000000000000000000000000000000000000000000008152600401610670906138e4565b60405180910390fd5b826003600781106106b3577f4e487b7100000000000000000000000000000000000000000000000000000000600052603260045260246000fd5b602002015160000b81608001516002600481106106f9577f4e487b7100000000000000000000000000000000000000000000000000000000600052603260045260246000fd5b602002015160000b14610741576040517f08c379a000000000000000000000000000000000000000000000000000000000815260040161073890613944565b60405180910390fd5b8260046007811061077b577f4e487b7100000000000000000000000000000000000000000000000000000000600052603260045260246000fd5b602002015160000b81608001516003600481106107c1577f4e487b7100000000000000000000000000000000000000000000000000000000600052603260045260246000fd5b602002015160000b14610809576040517f08c379a000000000000000000000000000000000000000000000000000000000815260040161080090613b64565b60405180910390fd5b601960009054906101000a900473ffffffffffffffffffffffffffffffffffffffff1673ffffffffffffffffffffffffffffffffffffffff1663c894e757878787876040518563ffffffff1660e01b815260040161086a9493929190613862565b60206040518083038186803b15801561088257600080fd5b505afa158015610896573d6000803e3d6000fd5b505050506040513d601f19601f820116820180604052508101906108ba9190612f3e565b6108f9576040517f08c379a00000000000000000000000000000000000000000000000000000000081526004016108f090613964565b60405180910390fd5b61098183600560078110610936577f4e487b7100000000000000000000000000000000000000000000000000000000600052603260045260246000fd5b60200201518985600660078110610976577f4e487b7100000000000000000000000000000000000000000000000000000000600052603260045260246000fd5b60200201518a61228a565b5050505050505050565b60007fffffffffffffffffffffffffffffffffffffffffffffffffffffffffffffffff90506000156109c1576109c08161251d565b5b50565b7fffffffffffffffffffffffffffffffffffffffffffffffffffffffffffffffff60000b6109f133611636565b60000b1415610a35576040517f08c379a0000000000000000000000000000000000000000000000000000000008152600401610a2c90613b84565b60405180910390fd5b6000610a4033611636565b9050610a4b8161251d565b50565b7fffffffffffffffffffffffffffffffffffffffffffffffffffffffffffffffff60000b610a7b33611636565b60000b14610abe576040517f08c379a0000000000000000000000000000000000000000000000000000000008152600401610ab590613ac4565b60405180910390fd5b6000800b6000800160000160009054906101000a900460000b60000b14610b1a576040517f08c379a0000000000000000000000000000000000000000000000000000000008152600401610b11906139a4565b60405180910390fd5b601860009054906101000a900473ffffffffffffffffffffffffffffffffffffffff1673ffffffffffffffffffffffffffffffffffffffff166343753b4d858585856040518563ffffffff1660e01b8152600401610b7b94939291906137d4565b60206040518083038186803b158015610b9357600080fd5b505afa158015610ba7573d6000803e3d6000fd5b505050506040513d601f19601f82011682018060405250810190610bcb9190612f3e565b610c0a576040517f08c379a0000000000000000000000000000000000000000000000000000000008152600401610c0190613b04565b60405180910390fd5b60008001600001600281819054906101000a900460000b80929190610c2e90613f56565b91906101000a81548160ff021916908360000b60ff16021790555050600060016000800160000160029054906101000a900460000b610c6d9190613e5b565b90503360006004018260ff1660048110610cb0577f4e487b7100000000000000000000000000000000000000000000000000000000600052603260045260246000fd5b0160006101000a81548173ffffffffffffffffffffffffffffffffffffffff021916908373ffffffffffffffffffffffffffffffffffffffff16021790555060006040518060a0016040528060011515815260200184600060018110610d3f577f4e487b7100000000000000000000000000000000000000000000000000000000600052603260045260246000fd5b602002015181526020016000800b81526020016000800b81526020016040518060800160405280600160000b60000b8152602001600160000b8152602001600160000b8152602001600160000b81525081525090508060006008018360ff1660048110610dd5577f4e487b7100000000000000000000000000000000000000000000000000000000600052603260045260246000fd5b6004020160008201518160000160006101000a81548160ff0219169083151502179055506020820151816001015560408201518160020160006101000a81548160ff021916908360000b60ff16021790555060608201518160020160016101000a81548160ff021916908360000b60ff160217905550608082015181600301906004610e629291906126c7565b50905050505050505050565b601860009054906101000a900473ffffffffffffffffffffffffffffffffffffffff1681565b7fffffffffffffffffffffffffffffffffffffffffffffffffffffffffffffffff60000b610ec133611636565b60000b1415610f05576040517f08c379a0000000000000000000000000000000000000000000000000000000008152600401610efc90613b84565b60405180910390fd5b6000610f1033611636565b9050600260000b6000800160000160009054906101000a900460000b60000b14610f6f576040517f08c379a0000000000000000000000000000000000000000000000000000000008152600401610f66906139e4565b60405180910390fd5b8060000b6000800160000160019054906101000a900460000b60000b14610fcb576040517f08c379a0000000000000000000000000000000000000000000000000000000008152600401610fc290613aa4565b60405180910390fd5b6000610fd68261150e565b905082600060068110611012577f4e487b7100000000000000000000000000000000000000000000000000000000600052603260045260246000fd5b602002015181602001511461105c576040517f08c379a000000000000000000000000000000000000000000000000000000000815260040161105390613b44565b60405180910390fd5b82600160068110611096577f4e487b7100000000000000000000000000000000000000000000000000000000600052603260045260246000fd5b602002015160000b81608001516000600481106110dc577f4e487b7100000000000000000000000000000000000000000000000000000000600052603260045260246000fd5b602002015160000b14611124576040517f08c379a000000000000000000000000000000000000000000000000000000000815260040161111b90613a84565b60405180910390fd5b8260026006811061115e577f4e487b7100000000000000000000000000000000000000000000000000000000600052603260045260246000fd5b602002015160000b81608001516001600481106111a4577f4e487b7100000000000000000000000000000000000000000000000000000000600052603260045260246000fd5b602002015160000b146111ec576040517f08c379a00000000000000000000000000000000000000000000000000000000081526004016111e3906138e4565b60405180910390fd5b82600360068110611226577f4e487b7100000000000000000000000000000000000000000000000000000000600052603260045260246000fd5b602002015160000b816080015160026004811061126c577f4e487b7100000000000000000000000000000000000000000000000000000000600052603260045260246000fd5b602002015160000b146112b4576040517f08c379a00000000000000000000000000000000000000000000000000000000081526004016112ab90613944565b60405180910390fd5b826004600681106112ee577f4e487b7100000000000000000000000000000000000000000000000000000000600052603260045260246000fd5b602002015160000b8160800151600360048110611334577f4e487b7100000000000000000000000000000000000000000000000000000000600052603260045260246000fd5b602002015160000b1461137c576040517f08c379a000000000000000000000000000000000000000000000000000000000815260040161137390613b64565b60405180910390fd5b826005600681106113b6577f4e487b7100000000000000000000000000000000000000000000000000000000600052603260045260246000fd5b602002015160000b6000800160000160049054906101000a900460000b60000b14611416576040517f08c379a000000000000000000000000000000000000000000000000000000000815260040161140d906138c4565b60405180910390fd5b601a60009054906101000a900473ffffffffffffffffffffffffffffffffffffffff1673ffffffffffffffffffffffffffffffffffffffff1663f398789b878787876040518563ffffffff1660e01b8152600401611477949392919061381b565b60206040518083038186803b15801561148f57600080fd5b505afa1580156114a3573d6000803e3d6000fd5b505050506040513d601f19601f820116820180604052508101906114c79190612f3e565b611506576040517f08c379a00000000000000000000000000000000000000000000000000000000081526004016114fd90613ae4565b60405180910390fd5b505050505050565b611516612764565b60006008018260ff1660048110611556577f4e487b7100000000000000000000000000000000000000000000000000000000600052603260045260246000fd5b600402016040518060a00160405290816000820160009054906101000a900460ff16151515158152602001600182015481526020016002820160009054906101000a900460000b60000b60000b81526020016002820160019054906101000a900460000b60000b60000b815260200160038201600480602002604051908101604052809291908260048015611626576020028201916000905b82829054906101000a900460000b60000b815260200190600101906020826000010492830192600103820291508084116115ef5790505b5050505050815250509050919050565b600080600090505b60048110156116f5578273ffffffffffffffffffffffffffffffffffffffff166000600401826004811061169b577f4e487b7100000000000000000000000000000000000000000000000000000000600052603260045260246000fd5b0160009054906101000a900473ffffffffffffffffffffffffffffffffffffffff1673ffffffffffffffffffffffffffffffffffffffff1614156116e2578091505061171a565b80806116ed90613f80565b91505061163e565b507fffffffffffffffffffffffffffffffffffffffffffffffffffffffffffffffff90505b919050565b80600001516000800160008201518160000160006101000a81548160ff021916908360000b60ff16021790555060208201518160000160016101000a81548160ff021916908360000b60ff16021790555060408201518160000160026101000a81548160ff021916908360000b60ff16021790555060608201518160000160036101000a81548160ff021916908360000b60ff16021790555060808201518160000160046101000a81548160ff021916908360000b60ff16021790555060a0820151816001015560c0820151816002015560e08201518160030155905050806020015160006004811061183b577f4e487b7100000000000000000000000000000000000000000000000000000000600052603260045260246000fd5b6020020151600060040160006004811061187e577f4e487b7100000000000000000000000000000000000000000000000000000000600052603260045260246000fd5b0160006101000a81548173ffffffffffffffffffffffffffffffffffffffff021916908373ffffffffffffffffffffffffffffffffffffffff16021790555080602001516001600481106118fb577f4e487b7100000000000000000000000000000000000000000000000000000000600052603260045260246000fd5b6020020151600060040160016004811061193e577f4e487b7100000000000000000000000000000000000000000000000000000000600052603260045260246000fd5b0160006101000a81548173ffffffffffffffffffffffffffffffffffffffff021916908373ffffffffffffffffffffffffffffffffffffffff16021790555080602001516002600481106119bb577f4e487b7100000000000000000000000000000000000000000000000000000000600052603260045260246000fd5b602002015160006004016002600481106119fe577f4e487b7100000000000000000000000000000000000000000000000000000000600052603260045260246000fd5b0160006101000a81548173ffffffffffffffffffffffffffffffffffffffff021916908373ffffffffffffffffffffffffffffffffffffffff1602179055508060200151600360048110611a7b577f4e487b7100000000000000000000000000000000000000000000000000000000600052603260045260246000fd5b60200201516000600401600360048110611abe577f4e487b7100000000000000000000000000000000000000000000000000000000600052603260045260246000fd5b0160006101000a81548173ffffffffffffffffffffffffffffffffffffffff021916908373ffffffffffffffffffffffffffffffffffffffff16021790555060005b60038160000b13611f945760006040518060a0016040528084604001518460ff1660048110611b58577f4e487b7100000000000000000000000000000000000000000000000000000000600052603260045260246000fd5b6020020151600001511515815260200184604001518460ff1660048110611ba8577f4e487b7100000000000000000000000000000000000000000000000000000000600052603260045260246000fd5b602002015160200151815260200184604001518460ff1660048110611bf6577f4e487b7100000000000000000000000000000000000000000000000000000000600052603260045260246000fd5b60200201516040015160000b815260200184604001518460ff1660048110611c47577f4e487b7100000000000000000000000000000000000000000000000000000000600052603260045260246000fd5b60200201516060015160000b8152602001604051806080016040528086604001518660ff1660048110611ca3577f4e487b7100000000000000000000000000000000000000000000000000000000600052603260045260246000fd5b602002015160800151600060048110611ce5577f4e487b7100000000000000000000000000000000000000000000000000000000600052603260045260246000fd5b602002015160000b60000b815260200186604001518660ff1660048110611d35577f4e487b7100000000000000000000000000000000000000000000000000000000600052603260045260246000fd5b602002015160800151600160048110611d77577f4e487b7100000000000000000000000000000000000000000000000000000000600052603260045260246000fd5b602002015160000b60000b815260200186604001518660ff1660048110611dc7577f4e487b7100000000000000000000000000000000000000000000000000000000600052603260045260246000fd5b602002015160800151600260048110611e09577f4e487b7100000000000000000000000000000000000000000000000000000000600052603260045260246000fd5b602002015160000b60000b815260200186604001518660ff1660048110611e59577f4e487b7100000000000000000000000000000000000000000000000000000000600052603260045260246000fd5b602002015160800151600360048110611e9b577f4e487b7100000000000000000000000000000000000000000000000000000000600052603260045260246000fd5b602002015160000b60000b81525081525090508060006008018360ff1660048110611eef577f4e487b7100000000000000000000000000000000000000000000000000000000600052603260045260246000fd5b6004020160008201518160000160006101000a81548160ff0219169083151502179055506020820151816001015560408201518160020160006101000a81548160ff021916908360000b60ff16021790555060608201518160020160016101000a81548160ff021916908360000b60ff160217905550608082015181600301906004611f7c9291906126c7565b50905050508080611f8c90613f56565b915050611b00565b5050565b7fffffffffffffffffffffffffffffffffffffffffffffffffffffffffffffffff60000b611fc533611636565b60000b1415612009576040517f08c379a000000000000000000000000000000000000000000000000000000000815260040161200090613b84565b60405180910390fd5b600061201433611636565b9050600160000b6000800160000160009054906101000a900460000b60000b14612073576040517f08c379a000000000000000000000000000000000000000000000000000000000815260040161206a90613b24565b60405180910390fd5b8060000b6000800160000160019054906101000a900460000b60000b146120cf576040517f08c379a00000000000000000000000000000000000000000000000000000000081526004016120c690613a04565b60405180910390fd5b6120dc848484600061228a565b50505050565b600080600001604051806101000160405290816000820160009054906101000a900460000b60000b60000b81526020016000820160019054906101000a900460000b60000b60000b81526020016000820160029054906101000a900460000b60000b60000b81526020016000820160039054906101000a900460000b60000b60000b81526020016000820160049054906101000a900460000b60000b60000b81526020016001820154815260200160028201548152602001600382015481525050905081565b601a60009054906101000a900473ffffffffffffffffffffffffffffffffffffffff1681565b600260000b6000800160000160009054906101000a900460000b60000b1461222b576040517f08c379a0000000000000000000000000000000000000000000000000000000008152600401612222906139e4565b60405180910390fd5b8060000b6000800160000160019054906101000a900460000b60000b14612287576040517f08c379a000000000000000000000000000000000000000000000000000000000815260040161227e90613aa4565b60405180910390fd5b50565b60008460000b121580156122a2575060038460000b13155b6122e1576040517f08c379a00000000000000000000000000000000000000000000000000000000081526004016122d890613904565b60405180910390fd5b6000800b8460000b14156122f457612517565b600160000b8460000b141561230857612516565b600260000b8460000b1415612410578260000b61232433611636565b60000b1415612368576040517f08c379a000000000000000000000000000000000000000000000000000000000815260040161235f90613924565b60405180910390fd5b60008360000b12158015612380575060038360000b13155b6123bf576040517f08c379a00000000000000000000000000000000000000000000000000000000081526004016123b690613a24565b60405180910390fd5b6123c88361150e565b6000015161240b576040517f08c379a000000000000000000000000000000000000000000000000000000000815260040161240290613984565b60405180910390fd5b612515565b600360000b8460000b1415612514578260000b61242c33611636565b60000b1415612470576040517f08c379a000000000000000000000000000000000000000000000000000000000815260040161246790613924565b60405180910390fd5b60008360000b12158015612488575060038360000b13155b6124c7576040517f08c379a00000000000000000000000000000000000000000000000000000000081526004016124be90613a24565b60405180910390fd5b6124d08361150e565b60000151612513576040517f08c379a000000000000000000000000000000000000000000000000000000000815260040161250a90613984565b60405180910390fd5b5b5b5b5b50505050565b6000800b6000800160000160009054906101000a900460000b60000b141561257a576040517f08c379a0000000000000000000000000000000000000000000000000000000008152600401612571906139c4565b60405180910390fd5b600360000b6000800160000160009054906101000a900460000b60000b14156125d8576040517f08c379a00000000000000000000000000000000000000000000000000000000081526004016125cf90613a44565b60405180910390fd5b6125e18161150e565b60000151612624576040517f08c379a000000000000000000000000000000000000000000000000000000000815260040161261b90613a64565b60405180910390fd5b600160000b6000800160000160009054906101000a900460000b60000b14801561266757508060000b6000800160000160019054906101000a900460000b60000b145b15612671576126c4565b600260000b6000800160000160009054906101000a900460000b60000b1480156126b457508060000b6000800160000160019054906101000a900460000b60000b145b156126c3576126c2816121ce565b5b5b50565b826004601f016020900481019282156127535791602002820160005b8382111561272457835183826101000a81548160ff021916908360000b60ff16021790555092602001926001016020816000010492830192600103026126e3565b80156127515782816101000a81549060ff0219169055600101602081600001049283019260010302612724565b505b509050612760919061279f565b5090565b6040518060a00160405280600015158152602001600081526020016000800b81526020016000800b81526020016127996127bc565b81525090565b5b808211156127b85760008160009055506001016127a0565b5090565b6040518060800160405280600490602082028036833780820191505090505090565b60006127f16127ec84613c01565b613bdc565b9050808285602086028201111561280757600080fd5b60005b85811015612837578161281d8882612af8565b84526020840193506020830192505060018101905061280a565b5050509392505050565b600061285461284f84613c27565b613bdc565b9050808285604086028201111561286a57600080fd5b60005b8581101561289a57816128808882612bd0565b84526020840193506040830192505060018101905061286d565b5050509392505050565b60006128b76128b284613c4d565b613bdc565b905080828560208602820111156128cd57600080fd5b60005b858110156128fd57816128e38882612c6f565b8452602084019350602083019250506001810190506128d0565b5050509392505050565b600061291a61291584613c73565b613bdc565b905080828561010086028201111561293157600080fd5b60005b8581101561296257816129478882612c84565b84526020840193506101008301925050600181019050612934565b5050509392505050565b600061297f61297a84613c99565b613bdc565b9050808285602086028201111561299557600080fd5b60005b858110156129c557816129ab8882612e36565b845260208401935060208301925050600181019050612998565b5050509392505050565b60006129e26129dd84613cbf565b613bdc565b905080828560208602820111156129f857600080fd5b60005b85811015612a285781612a0e8882612e36565b8452602084019350602083019250506001810190506129fb565b5050509392505050565b6000612a45612a4084613ce5565b613bdc565b90508082856020860282011115612a5b57600080fd5b60005b85811015612a8b5781612a718882612e36565b845260208401935060208301925050600181019050612a5e565b5050509392505050565b6000612aa8612aa384613d0b565b613bdc565b90508082856020860282011115612abe57600080fd5b60005b85811015612aee5781612ad48882612e36565b845260208401935060208301925050600181019050612ac1565b5050509392505050565b600081359050612b0781614459565b92915050565b600082601f830112612b1e57600080fd5b6004612b2b8482856127de565b91505092915050565b600082601f830112612b4557600080fd5b6002612b52848285612841565b91505092915050565b600082601f830112612b6c57600080fd5b6004612b798482856128a4565b91505092915050565b600082601f830112612b9357600080fd5b6004612ba0848285612907565b91505092915050565b600082601f830112612bba57600080fd5b6001612bc784828561296c565b91505092915050565b600082601f830112612be157600080fd5b6002612bee8482856129cf565b91505092915050565b600082601f830112612c0857600080fd5b6006612c15848285612a32565b91505092915050565b600082601f830112612c2f57600080fd5b6007612c3c848285612a95565b91505092915050565b600081359050612c5481614470565b92915050565b600081519050612c6981614470565b92915050565b600081359050612c7e81614487565b92915050565b60006101008284031215612c9757600080fd5b612ca160a0613bdc565b90506000612cb184828501612c45565b6000830152506020612cc584828501612e36565b6020830152506040612cd984828501612c6f565b6040830152506060612ced84828501612c6f565b6060830152506080612d0184828501612b5b565b60808301525092915050565b60006101008284031215612d2057600080fd5b612d2b610100613bdc565b90506000612d3b84828501612c6f565b6000830152506020612d4f84828501612c6f565b6020830152506040612d6384828501612c6f565b6040830152506060612d7784828501612c6f565b6060830152506080612d8b84828501612c6f565b60808301525060a0612d9f84828501612e36565b60a08301525060c0612db384828501612e36565b60c08301525060e0612dc784828501612e36565b60e08301525092915050565b60006105808284031215612de657600080fd5b612df06060613bdc565b90506000612e0084828501612d0d565b600083015250610100612e1584828501612b0d565b602083015250610180612e2a84828501612b82565b60408301525092915050565b600081359050612e458161449e565b92915050565b600060208284031215612e5d57600080fd5b6000612e6b84828501612af8565b91505092915050565b6000806000806101208587031215612e8b57600080fd5b6000612e9987828801612bd0565b9450506040612eaa87828801612b34565b93505060c0612ebb87828801612bd0565b925050610100612ecd87828801612ba9565b91505092959194509250565b6000806000806101c08587031215612ef057600080fd5b6000612efe87828801612bd0565b9450506040612f0f87828801612b34565b93505060c0612f2087828801612bd0565b925050610100612f3287828801612bf7565b91505092959194509250565b600060208284031215612f5057600080fd5b6000612f5e84828501612c5a565b91505092915050565b600060208284031215612f7957600080fd5b6000612f8784828501612c6f565b91505092915050565b60006105808284031215612fa357600080fd5b6000612fb184828501612dd3565b91505092915050565b6000806000806000806102208789031215612fd457600080fd5b6000612fe289828a01612e36565b9650506020612ff389828a01612e36565b955050604061300489828a01612bd0565b945050608061301589828a01612b34565b93505061010061302789828a01612bd0565b92505061014061303989828a01612c1e565b9150509295509295509295565b60008060006060848603121561305b57600080fd5b600061306986828701612e36565b935050602061307a86828701612e36565b925050604061308b86828701612e36565b9150509250925092565b60006130a183836131f1565b60408301905092915050565b60006130b9838361335c565b60208301905092915050565b60006130d183836137aa565b60208301905092915050565b6130e681613ed0565b82525050565b6130f581613d6d565b6130ff8184613dfd565b925061310a82613d31565b8060005b8381101561313b5781516131228782613095565b965061312d83613daf565b92505060018101905061310e565b505050505050565b61314c81613d78565b6131568184613e08565b925061316182613d3b565b8060005b8381101561319257815161317987826130ad565b965061318483613dbc565b925050600181019050613165565b505050505050565b6131a381613d83565b6131ad8184613e13565b92506131b882613d45565b8060005b838110156131e95781516131d087826130c5565b96506131db83613dc9565b9250506001810190506131bc565b505050505050565b6131fa81613d8e565b6132048184613e1e565b925061320f82613d4f565b8060005b8381101561324057815161322787826130c5565b965061323283613dd6565b925050600181019050613213565b505050505050565b61325181613d8e565b61325b8184613e29565b925061326682613d4f565b8060005b8381101561329757815161327e87826130c5565b965061328983613dd6565b92505060018101905061326a565b505050505050565b6132a881613d99565b6132b28184613e34565b92506132bd82613d59565b8060005b838110156132ee5781516132d587826130c5565b96506132e083613de3565b9250506001810190506132c1565b505050505050565b6132ff81613da4565b6133098184613e3f565b925061331482613d63565b8060005b8381101561334557815161332c87826130c5565b965061333783613df0565b925050600181019050613318565b505050505050565b61335681613ee2565b82525050565b61336581613eee565b82525050565b61337481613eee565b82525050565b6000613387602383613e4a565b915061339282614038565b604082019050919050565b60006133aa601c83613e4a565b91506133b582614087565b602082019050919050565b60006133cd600e83613e4a565b91506133d8826140b0565b602082019050919050565b60006133f0601683613e4a565b91506133fb826140d9565b602082019050919050565b6000613413601c83613e4a565b915061341e82614102565b602082019050919050565b6000613436601783613e4a565b91506134418261412b565b602082019050919050565b6000613459601b83613e4a565b915061346482614154565b602082019050919050565b600061347c601883613e4a565b91506134878261417d565b602082019050919050565b600061349f602c83613e4a565b91506134aa826141a6565b604082019050919050565b60006134c2602f83613e4a565b91506134cd826141f5565b604082019050919050565b60006134e5600e83613e4a565b91506134f082614244565b602082019050919050565b6000613508601d83613e4a565b91506135138261426d565b602082019050919050565b600061352b601983613e4a565b915061353682614296565b602082019050919050565b600061354e601783613e4a565b9150613559826142bf565b602082019050919050565b6000613571601c83613e4a565b915061357c826142e8565b602082019050919050565b6000613594601283613e4a565b915061359f82614311565b602082019050919050565b60006135b7601b83613e4a565b91506135c28261433a565b602082019050919050565b60006135da601583613e4a565b91506135e582614363565b602082019050919050565b60006135fd601c83613e4a565b91506136088261438c565b602082019050919050565b6000613620601f83613e4a565b915061362b826143b5565b602082019050919050565b6000613643601d83613e4a565b915061364e826143de565b602082019050919050565b6000613666601c83613e4a565b915061367182614407565b602082019050919050565b6000613689601d83613e4a565b915061369482614430565b602082019050919050565b610100820160008201516136b6600085018261334d565b5060208201516136c960208501826137aa565b5060408201516136dc604085018261335c565b5060608201516136ef606085018261335c565b5060808201516137026080850182613143565b50505050565b6101008201600082015161371f600085018261335c565b506020820151613732602085018261335c565b506040820151613745604085018261335c565b506060820151613758606085018261335c565b50608082015161376b608085018261335c565b5060a082015161377e60a08501826137aa565b5060c082015161379160c08501826137aa565b5060e08201516137a460e08501826137aa565b50505050565b6137b381613f1b565b82525050565b60006020820190506137ce60008301846130dd565b92915050565b6000610120820190506137ea6000830187613248565b6137f760408301866130ec565b61380460c0830185613248565b61381261010083018461319a565b95945050505050565b60006101c0820190506138316000830187613248565b61383e60408301866130ec565b61384b60c0830185613248565b61385961010083018461329f565b95945050505050565b60006101e0820190506138786000830187613248565b61388560408301866130ec565b61389260c0830185613248565b6138a06101008301846132f6565b95945050505050565b60006020820190506138be600083018461336b565b92915050565b600060208201905081810360008301526138dd8161337a565b9050919050565b600060208201905081810360008301526138fd8161339d565b9050919050565b6000602082019050818103600083015261391d816133c0565b9050919050565b6000602082019050818103600083015261393d816133e3565b9050919050565b6000602082019050818103600083015261395d81613406565b9050919050565b6000602082019050818103600083015261397d81613429565b9050919050565b6000602082019050818103600083015261399d8161344c565b9050919050565b600060208201905081810360008301526139bd8161346f565b9050919050565b600060208201905081810360008301526139dd81613492565b9050919050565b600060208201905081810360008301526139fd816134b5565b9050919050565b60006020820190508181036000830152613a1d816134d8565b9050919050565b60006020820190508181036000830152613a3d816134fb565b9050919050565b60006020820190508181036000830152613a5d8161351e565b9050919050565b60006020820190508181036000830152613a7d81613541565b9050919050565b60006020820190508181036000830152613a9d81613564565b9050919050565b60006020820190508181036000830152613abd81613587565b9050919050565b60006020820190508181036000830152613add816135aa565b9050919050565b60006020820190508181036000830152613afd816135cd565b9050919050565b60006020820190508181036000830152613b1d816135f0565b9050919050565b60006020820190508181036000830152613b3d81613613565b9050919050565b60006020820190508181036000830152613b5d81613636565b9050919050565b60006020820190508181036000830152613b7d81613659565b9050919050565b60006020820190508181036000830152613b9d8161367c565b9050919050565b600061010082019050613bba600083018461369f565b92915050565b600061010082019050613bd66000830184613708565b92915050565b6000613be6613bf7565b9050613bf28282613f25565b919050565b6000604051905090565b600067ffffffffffffffff821115613c1c57613c1b613ff8565b5b602082029050919050565b600067ffffffffffffffff821115613c4257613c41613ff8565b5b602082029050919050565b600067ffffffffffffffff821115613c6857613c67613ff8565b5b602082029050919050565b600067ffffffffffffffff821115613c8e57613c8d613ff8565b5b602082029050919050565b600067ffffffffffffffff821115613cb457613cb3613ff8565b5b602082029050919050565b600067ffffffffffffffff821115613cda57613cd9613ff8565b5b602082029050919050565b600067ffffffffffffffff821115613d0057613cff613ff8565b5b602082029050919050565b600067ffffffffffffffff821115613d2657613d25613ff8565b5b602082029050919050565b6000819050919050565b6000819050919050565b6000819050919050565b6000819050919050565b6000819050919050565b6000819050919050565b600060029050919050565b600060049050919050565b600060019050919050565b600060029050919050565b600060069050919050565b600060079050919050565b6000602082019050919050565b6000602082019050919050565b6000602082019050919050565b6000602082019050919050565b6000602082019050919050565b6000602082019050919050565b600081905092915050565b600081905092915050565b600081905092915050565b600081905092915050565b600081905092915050565b600081905092915050565b600081905092915050565b600082825260208201905092915050565b6000613e6682613eee565b9150613e7183613eee565b9250827fffffffffffffffffffffffffffffffffffffffffffffffffffffffffffffff8001821260008412151615613eac57613eab613fc9565b5b82607f018213600084121615613ec557613ec4613fc9565b5b828203905092915050565b6000613edb82613efb565b9050919050565b60008115159050919050565b60008160000b9050919050565b600073ffffffffffffffffffffffffffffffffffffffff82169050919050565b6000819050919050565b613f2e82614027565b810181811067ffffffffffffffff82111715613f4d57613f4c613ff8565b5b80604052505050565b6000613f6182613eee565b9150607f821415613f7557613f74613fc9565b5b600182019050919050565b6000613f8b82613f1b565b91507fffffffffffffffffffffffffffffffffffffffffffffffffffffffffffffffff821415613fbe57613fbd613fc9565b5b600182019050919050565b7f4e487b7100000000000000000000000000000000000000000000000000000000600052601160045260246000fd5b7f4e487b7100000000000000000000000000000000000000000000000000000000600052604160045260246000fd5b6000601f19601f8301169050919050565b7f526573706f6e64696e6720746f2077726f6e672061636375736174696f6e207460008201527f7970650000000000000000000000000000000000000000000000000000000000602082015250565b7f5769746368203120416c69766520646f6573206e6f74206d6174636800000000600082015250565b7f556e6b6e6f776e20616374696f6e000000000000000000000000000000000000600082015250565b7f43616e6e6f742074617267657420796f757273656c6600000000000000000000600082015250565b7f5769746368203220416c69766520646f6573206e6f74206d6174636800000000600082015250565b7f496e76616c69642076616c69646d6f76652070726f6f66000000000000000000600082015250565b7f43616e6e6f74207461726765742061206465616420706c617965720000000000600082015250565b7f47616d652068617320616c726561647920737461727465640000000000000000600082015250565b7f4120506c617965722063616e6e6f74206c6f7365206265666f7265207468652060008201527f67616d65207374617274732e0000000000000000000000000000000000000000602082015250565b7f4e6f742077616974696e6720666f72206120706c6179657220726573706f6e7360008201527f6520746f2061636375736174696f6e0000000000000000000000000000000000602082015250565b7f4e6f7420796f7572207475726e2e000000000000000000000000000000000000600082015250565b7f4d757374207461726765742061206578697374696e6720706c61796572000000600082015250565b7f5468652067616d6520697320616c7265616479206f7665722e00000000000000600082015250565b7f506c6179657220697320616c726561647920646561642e000000000000000000600082015250565b7f5769746368203020416c69766520646f6573206e6f74206d6174636800000000600082015250565b7f4e6f7420796f757220726573706f6e73652e0000000000000000000000000000600082015250565b7f596f752061726520616c726561647920696e207468652067616d650000000000600082015250565b7f496e76616c6964206e6f77697463682070726f6f660000000000000000000000600082015250565b7f496e76616c69642068616e64636f6d6d69746d656e742070726f6f6600000000600082015250565b7f4e6f742077616974696e6720666f72206120706c6179657220616374696f6e00600082015250565b7f48616e6420636f6d6d69746d656e747320646f206e6f74206d61746368000000600082015250565b7f5769746368203320416c69766520646f6573206e6f74206d6174636800000000600082015250565b7f41646472657373206973204e6f7420612076616c696420506c61796572000000600082015250565b61446281613ed0565b811461446d57600080fd5b50565b61447981613ee2565b811461448457600080fd5b50565b61449081613eee565b811461449b57600080fd5b50565b6144a781613f1b565b81146144b257600080fd5b5056fea2646970667358221220e6bde00427a6609f28175e28e497535575d3cdc63464dd05e1625e04099cb8d264736f6c63430008040033",
  "linkReferences": {},
  "deployedLinkReferences": {}
}