{
  "_format": "hh-sol-artifact-1",
  "contractName": "zkWitches",
  "sourceName": "contracts/zkWitches.sol",
  "abi": [
    {
      "inputs": [
        {
          "internalType": "address",
          "name": "hc_verifier",
          "type": "address"
        },
        {
          "internalType": "address",
          "name": "vm_verifier",
          "type": "address"
        },
        {
          "internalType": "address",
          "name": "nw_verifier",
          "type": "address"
        }
      ],
      "stateMutability": "nonpayable",
      "type": "constructor"
    },
    {
      "anonymous": false,
      "inputs": [
        {
          "indexed": true,
          "internalType": "int256",
          "name": "gameId",
          "type": "int256"
        },
        {
          "indexed": true,
          "internalType": "address",
          "name": "player",
          "type": "address"
        },
        {
          "indexed": false,
          "internalType": "uint8",
          "name": "slot",
          "type": "uint8"
        },
        {
          "indexed": false,
          "internalType": "bool",
          "name": "innocent",
          "type": "bool"
        },
        {
          "indexed": false,
          "internalType": "uint256",
          "name": "timeStamp",
          "type": "uint256"
        }
      ],
      "name": "AccusationResponse",
      "type": "event"
    },
    {
      "anonymous": false,
      "inputs": [
        {
          "indexed": true,
          "internalType": "int256",
          "name": "gameId",
          "type": "int256"
        },
        {
          "indexed": true,
          "internalType": "address",
          "name": "player",
          "type": "address"
        },
        {
          "indexed": false,
          "internalType": "uint8",
          "name": "slot",
          "type": "uint8"
        },
        {
          "indexed": false,
          "internalType": "uint8",
          "name": "actionType",
          "type": "uint8"
        },
        {
          "indexed": false,
          "internalType": "uint8",
          "name": "target",
          "type": "uint8"
        },
        {
          "indexed": false,
          "internalType": "uint8",
          "name": "witchType",
          "type": "uint8"
        },
        {
          "indexed": false,
          "internalType": "uint8",
          "name": "actionLevel",
          "type": "uint8"
        },
        {
          "indexed": false,
          "internalType": "uint256",
          "name": "timeStamp",
          "type": "uint256"
        }
      ],
      "name": "Action",
      "type": "event"
    },
    {
      "anonymous": false,
      "inputs": [
        {
          "indexed": true,
          "internalType": "int256",
          "name": "gameId",
          "type": "int256"
        },
        {
          "indexed": false,
          "internalType": "uint256",
          "name": "timeStamp",
          "type": "uint256"
        }
      ],
      "name": "GameStart",
      "type": "event"
    },
    {
      "anonymous": false,
      "inputs": [
        {
          "indexed": true,
          "internalType": "int256",
          "name": "gameId",
          "type": "int256"
        },
        {
          "indexed": true,
          "internalType": "address",
          "name": "player",
          "type": "address"
        },
        {
          "indexed": false,
          "internalType": "uint8",
          "name": "slot",
          "type": "uint8"
        },
        {
          "indexed": false,
          "internalType": "uint256",
          "name": "timeStamp",
          "type": "uint256"
        }
      ],
      "name": "Join",
      "type": "event"
    },
    {
      "anonymous": false,
      "inputs": [
        {
          "indexed": true,
          "internalType": "address",
          "name": "previousOwner",
          "type": "address"
        },
        {
          "indexed": true,
          "internalType": "address",
          "name": "newOwner",
          "type": "address"
        }
      ],
      "name": "OwnershipTransferred",
      "type": "event"
    },
    {
      "anonymous": false,
      "inputs": [
        {
          "indexed": true,
          "internalType": "int256",
          "name": "gameId",
          "type": "int256"
        },
        {
          "indexed": true,
          "internalType": "address",
          "name": "player",
          "type": "address"
        },
        {
          "indexed": false,
          "internalType": "uint8",
          "name": "slot",
          "type": "uint8"
        },
        {
          "indexed": false,
          "internalType": "uint8",
          "name": "victoryLossType",
          "type": "uint8"
        },
        {
          "indexed": false,
          "internalType": "uint256",
          "name": "timeStamp",
          "type": "uint256"
        }
      ],
      "name": "VictoryLoss",
      "type": "event"
    },
    {
      "inputs": [
        {
          "internalType": "uint8",
          "name": "actionType",
          "type": "uint8"
        },
        {
          "internalType": "uint8",
          "name": "actionTarget",
          "type": "uint8"
        },
        {
          "internalType": "uint8",
          "name": "witchType",
          "type": "uint8"
        }
      ],
      "name": "ActionNoProof",
      "outputs": [],
      "stateMutability": "nonpayable",
      "type": "function"
    },
    {
      "inputs": [
        {
          "internalType": "uint8",
          "name": "actionTarget",
          "type": "uint8"
        },
        {
          "internalType": "uint8",
          "name": "witchType",
          "type": "uint8"
        },
        {
          "internalType": "uint256[2]",
          "name": "a",
          "type": "uint256[2]"
        },
        {
          "internalType": "uint256[2][2]",
          "name": "b",
          "type": "uint256[2][2]"
        },
        {
          "internalType": "uint256[2]",
          "name": "c",
          "type": "uint256[2]"
        },
        {
          "internalType": "uint256[7]",
          "name": "input",
          "type": "uint256[7]"
        }
      ],
      "name": "ActionWithProof",
      "outputs": [],
      "stateMutability": "nonpayable",
      "type": "function"
    },
    {
      "inputs": [
        {
          "components": [
            {
              "components": [
                {
                  "internalType": "uint8",
                  "name": "stateEnum",
                  "type": "uint8"
                },
                {
                  "internalType": "uint8",
                  "name": "playerSlotWaiting",
                  "type": "uint8"
                },
                {
                  "internalType": "uint8",
                  "name": "currentNumberOfPlayers",
                  "type": "uint8"
                },
                {
                  "internalType": "uint8",
                  "name": "playerAccusing",
                  "type": "uint8"
                },
                {
                  "internalType": "uint8",
                  "name": "accusationWitchType",
                  "type": "uint8"
                },
                {
                  "internalType": "uint256",
                  "name": "previous_action_game_block",
                  "type": "uint256"
                },
                {
                  "internalType": "uint256",
                  "name": "current_block",
                  "type": "uint256"
                },
                {
                  "internalType": "uint256",
                  "name": "current_sequence_number",
                  "type": "uint256"
                },
                {
                  "internalType": "int256",
                  "name": "gameId",
                  "type": "int256"
                }
              ],
              "internalType": "struct zkWitches.SharedState",
              "name": "shared",
              "type": "tuple"
            },
            {
              "internalType": "address[4]",
              "name": "addresses",
              "type": "address[4]"
            },
            {
              "components": [
                {
                  "internalType": "bool",
                  "name": "isAlive",
                  "type": "bool"
                },
                {
                  "internalType": "uint256",
                  "name": "handCommitment",
                  "type": "uint256"
                },
                {
                  "internalType": "uint8",
                  "name": "food",
                  "type": "uint8"
                },
                {
                  "internalType": "uint8",
                  "name": "lumber",
                  "type": "uint8"
                },
                {
                  "internalType": "bool[4]",
                  "name": "WitchAlive",
                  "type": "bool[4]"
                }
              ],
              "internalType": "struct zkWitches.PlayerState[4]",
              "name": "players",
              "type": "tuple[4]"
            }
          ],
          "internalType": "struct zkWitches.TotalGameState",
          "name": "inputTgs",
          "type": "tuple"
        }
      ],
      "name": "DEBUG_SetGameState",
      "outputs": [],
      "stateMutability": "nonpayable",
      "type": "function"
    },
    {
      "inputs": [],
      "name": "GetTGS",
      "outputs": [
        {
          "components": [
            {
              "components": [
                {
                  "internalType": "uint8",
                  "name": "stateEnum",
                  "type": "uint8"
                },
                {
                  "internalType": "uint8",
                  "name": "playerSlotWaiting",
                  "type": "uint8"
                },
                {
                  "internalType": "uint8",
                  "name": "currentNumberOfPlayers",
                  "type": "uint8"
                },
                {
                  "internalType": "uint8",
                  "name": "playerAccusing",
                  "type": "uint8"
                },
                {
                  "internalType": "uint8",
                  "name": "accusationWitchType",
                  "type": "uint8"
                },
                {
                  "internalType": "uint256",
                  "name": "previous_action_game_block",
                  "type": "uint256"
                },
                {
                  "internalType": "uint256",
                  "name": "current_block",
                  "type": "uint256"
                },
                {
                  "internalType": "uint256",
                  "name": "current_sequence_number",
                  "type": "uint256"
                },
                {
                  "internalType": "int256",
                  "name": "gameId",
                  "type": "int256"
                }
              ],
              "internalType": "struct zkWitches.SharedState",
              "name": "shared",
              "type": "tuple"
            },
            {
              "internalType": "address[4]",
              "name": "addresses",
              "type": "address[4]"
            },
            {
              "components": [
                {
                  "internalType": "bool",
                  "name": "isAlive",
                  "type": "bool"
                },
                {
                  "internalType": "uint256",
                  "name": "handCommitment",
                  "type": "uint256"
                },
                {
                  "internalType": "uint8",
                  "name": "food",
                  "type": "uint8"
                },
                {
                  "internalType": "uint8",
                  "name": "lumber",
                  "type": "uint8"
                },
                {
                  "internalType": "bool[4]",
                  "name": "WitchAlive",
                  "type": "bool[4]"
                }
              ],
              "internalType": "struct zkWitches.PlayerState[4]",
              "name": "players",
              "type": "tuple[4]"
            }
          ],
          "internalType": "struct zkWitches.TotalGameState",
          "name": "",
          "type": "tuple"
        }
      ],
      "stateMutability": "view",
      "type": "function"
    },
    {
      "inputs": [
        {
          "internalType": "uint256[2]",
          "name": "a",
          "type": "uint256[2]"
        },
        {
          "internalType": "uint256[2][2]",
          "name": "b",
          "type": "uint256[2][2]"
        },
        {
          "internalType": "uint256[2]",
          "name": "c",
          "type": "uint256[2]"
        },
        {
          "internalType": "uint256[1]",
          "name": "input",
          "type": "uint256[1]"
        }
      ],
      "name": "JoinGame",
      "outputs": [],
      "stateMutability": "nonpayable",
      "type": "function"
    },
    {
      "inputs": [],
      "name": "KickCurrentPlayer",
      "outputs": [],
      "stateMutability": "nonpayable",
      "type": "function"
    },
    {
      "inputs": [
        {
          "internalType": "uint256[2]",
          "name": "a",
          "type": "uint256[2]"
        },
        {
          "internalType": "uint256[2][2]",
          "name": "b",
          "type": "uint256[2][2]"
        },
        {
          "internalType": "uint256[2]",
          "name": "c",
          "type": "uint256[2]"
        },
        {
          "internalType": "uint256[2]",
          "name": "input",
          "type": "uint256[2]"
        }
      ],
      "name": "RespondAccusation_NoWitch",
      "outputs": [],
      "stateMutability": "nonpayable",
      "type": "function"
    },
    {
      "inputs": [],
      "name": "RespondAccusation_YesWitch",
      "outputs": [],
      "stateMutability": "nonpayable",
      "type": "function"
    },
    {
      "inputs": [],
      "name": "Surrender",
      "outputs": [],
      "stateMutability": "nonpayable",
      "type": "function"
    },
    {
      "inputs": [],
      "name": "hc_verifierAddr",
      "outputs": [
        {
          "internalType": "address",
          "name": "",
          "type": "address"
        }
      ],
      "stateMutability": "view",
      "type": "function"
    },
    {
      "inputs": [],
      "name": "nw_verifierAddr",
      "outputs": [
        {
          "internalType": "address",
          "name": "",
          "type": "address"
        }
      ],
      "stateMutability": "view",
      "type": "function"
    },
    {
      "inputs": [],
      "name": "owner",
      "outputs": [
        {
          "internalType": "address",
          "name": "",
          "type": "address"
        }
      ],
      "stateMutability": "view",
      "type": "function"
    },
    {
      "inputs": [],
      "name": "renounceOwnership",
      "outputs": [],
      "stateMutability": "nonpayable",
      "type": "function"
    },
    {
      "inputs": [],
      "name": "tgs",
      "outputs": [
        {
          "components": [
            {
              "internalType": "uint8",
              "name": "stateEnum",
              "type": "uint8"
            },
            {
              "internalType": "uint8",
              "name": "playerSlotWaiting",
              "type": "uint8"
            },
            {
              "internalType": "uint8",
              "name": "currentNumberOfPlayers",
              "type": "uint8"
            },
            {
              "internalType": "uint8",
              "name": "playerAccusing",
              "type": "uint8"
            },
            {
              "internalType": "uint8",
              "name": "accusationWitchType",
              "type": "uint8"
            },
            {
              "internalType": "uint256",
              "name": "previous_action_game_block",
              "type": "uint256"
            },
            {
              "internalType": "uint256",
              "name": "current_block",
              "type": "uint256"
            },
            {
              "internalType": "uint256",
              "name": "current_sequence_number",
              "type": "uint256"
            },
            {
              "internalType": "int256",
              "name": "gameId",
              "type": "int256"
            }
          ],
          "internalType": "struct zkWitches.SharedState",
          "name": "shared",
          "type": "tuple"
        }
      ],
      "stateMutability": "view",
      "type": "function"
    },
    {
      "inputs": [
        {
          "internalType": "address",
          "name": "newOwner",
          "type": "address"
        }
      ],
      "name": "transferOwnership",
      "outputs": [],
      "stateMutability": "nonpayable",
      "type": "function"
    },
    {
      "inputs": [],
      "name": "vm_verifierAddr",
      "outputs": [
        {
          "internalType": "address",
          "name": "",
          "type": "address"
        }
      ],
      "stateMutability": "view",
      "type": "function"
    }
  ],
  "bytecode": "0x60806040523480156200001157600080fd5b506040516200303b3803806200303b8339810160408190526200003491620000ef565b6200003f3362000082565b601a80546001600160a01b039485166001600160a01b031991821617909155601b805493851693821693909317909255601c805491909316911617905562000138565b600080546001600160a01b038381166001600160a01b0319831681178455604051919092169283917f8be0079c531659141344cd1fd0a4f28419497f9722a3daafe3b4186f6b6457e09190a35050565b80516001600160a01b0381168114620000ea57600080fd5b919050565b60008060006060848603121562000104578283fd5b6200010f84620000d2565b92506200011f60208501620000d2565b91506200012f60408501620000d2565b90509250925092565b612ef380620001486000396000f3fe608060405234801561001057600080fd5b50600436106101005760003560e01c806357cf246711610097578063bff3b04211610066578063bff3b042146101dc578063ca9e7f32146101ef578063d8de5d2114610273578063f2fde38b1461028657600080fd5b806357cf24671461019b5780635a5afe0d146101ae578063715018a6146101c35780638da5cb5b146101cb57600080fd5b80633168748b116100d35780633168748b146101655780633259e60f1461016d5780634c9063cb1461017557806351a7c3bb1461018857600080fd5b806302065928146101055780630c7e62731461011a578063209f06121461012d578063236fc91614610135575b600080fd5b61011861011336600461258b565b610299565b005b6101186101283660046126de565b610562565b610118610653565b601b54610148906001600160a01b031681565b6040516001600160a01b0390911681526020015b60405180910390f35b61011861069a565b6101186106e9565b6101186101833660046124ed565b610728565b610118610196366004612600565b610b5a565b601a54610148906001600160a01b031681565b6101b6610b96565b60405161015c91906129ac565b610118610d31565b6000546001600160a01b0316610148565b6101186101ea366004612618565b610d65565b604080516101208101825260015460ff808216835261010080830482166020850152620100008304821694840194909452630100000082048116606084015264010000000090910416608082015260025460a082015260035460c082015260045460e0820152600554918101919091526102669081565b60405161015c9190612997565b601c54610148906001600160a01b031681565b6101186102943660046124ca565b61114b565b60056102a4336111e6565b60ff1614156102ce5760405162461bcd60e51b81526004016102c590612960565b60405180910390fd5b60006102d9336111e6565b60015490915060ff166002146103015760405162461bcd60e51b81526004016102c5906128dc565b60015460ff82811661010090920416146103525760405162461bcd60e51b81526020600482015260126024820152712737ba103cb7bab9103932b9b837b739b29760711b60448201526064016102c5565b8151600a60ff83166004811061037857634e487b7160e01b600052603260045260246000fd5b6004020160010154146103cd5760405162461bcd60e51b815260206004820152601d60248201527f48616e6420636f6d6d69746d656e747320646f206e6f74206d6174636800000060448201526064016102c5565b8160016020020151600154640100000000900460ff9081169116146104405760405162461bcd60e51b815260206004820152602360248201527f526573706f6e64696e6720746f2077726f6e672061636375736174696f6e207460448201526279706560e81b60648201526084016102c5565b601c54604051637ae4eb4f60e11b81526001600160a01b039091169063f5c9d69e9061047690889088908890889060040161284b565b60206040518083038186803b15801561048e57600080fd5b505afa1580156104a2573d6000803e3d6000fd5b505050506040513d601f19601f820116820180604052508101906104c691906125e4565b61050a5760405162461bcd60e51b815260206004820152601560248201527424b73b30b634b2103737bbb4ba31b410383937b7b360591b60448201526064016102c5565b6005546040805160ff8416815260016020820152428183015290513392917fbe2881ec80fb9f3109a4891fad2c5a5b6f0024d08594a078555c534165680d50919081900360600190a361055b61125a565b5050505050565b600561056d336111e6565b60ff16141561058e5760405162461bcd60e51b81526004016102c590612960565b6000610599336111e6565b6001805491925060ff909116146105f25760405162461bcd60e51b815260206004820152601f60248201527f4e6f742077616974696e6720666f72206120706c6179657220616374696f6e0060448201526064016102c5565b60015460ff828116610100909204161461063f5760405162461bcd60e51b815260206004820152600e60248201526d2737ba103cb7bab9103a3ab9371760911b60448201526064016102c5565b61064d818585856000611351565b50505050565b600561065e336111e6565b60ff16141561067f5760405162461bcd60e51b81526004016102c590612960565b61069061068b336111e6565b6119ae565b61069861125a565b565b336106ad6000546001600160a01b031690565b6001600160a01b03161480156106cd575060015462010000900460ff1615155b1561069857600180546106989161010090910460ff1690611bd1565b60056106f4336111e6565b60ff1614156107155760405162461bcd60e51b81526004016102c590612960565b610698610721336111e6565b6000611bd1565b6005610733336111e6565b60ff16146107835760405162461bcd60e51b815260206004820152601b60248201527f596f752061726520616c726561647920696e207468652067616d65000000000060448201526064016102c5565b60015460ff16156107d65760405162461bcd60e51b815260206004820152601860248201527f47616d652068617320616c72656164792073746172746564000000000000000060448201526064016102c5565b601a546040516343753b4d60e01b81526001600160a01b03909116906343753b4d9061080c9087908790879087906004016127ee565b60206040518083038186803b15801561082457600080fd5b505afa158015610838573d6000803e3d6000fd5b505050506040513d601f19601f8201168201806040525081019061085c91906125e4565b6108a85760405162461bcd60e51b815260206004820152601c60248201527f496e76616c69642068616e64636f6d6d69746d656e742070726f6f660000000060448201526064016102c5565b60015462010000900460ff1633600682600481106108d657634e487b7160e01b600052603260045260246000fd5b0180546001600160a01b0319166001600160a01b03929092169190911790556001600a60ff83166004811061091b57634e487b7160e01b600052603260045260246000fd5b60040201805460ff19169115159190911790558160006020020151600a60ff83166004811061095a57634e487b7160e01b600052603260045260246000fd5b6004020160010181905550600260016009018260ff166004811061098e57634e487b7160e01b600052603260045260246000fd5b6004020160020160006101000a81548160ff021916908360ff160217905550600260016009018260ff16600481106109d657634e487b7160e01b600052603260045260246000fd5b6004020160020160016101000a81548160ff021916908360ff16021790555060005b6004811015610a7f576001600a60ff841660048110610a2757634e487b7160e01b600052603260045260246000fd5b600402016003018260048110610a4d57634e487b7160e01b600052603260045260246000fd5b602091828204019190066101000a81548160ff0219169083151502179055508080610a7790612ce2565b9150506109f8565b506005546040805160ff841681524260208201523392917f1d017ce052d32cb6d31dedb05dad27efe1888d704afe8a129985470771004479910160405180910390a36001805462010000900460ff16906002610ada83612cf6565b82546101009290920a60ff8181021990931691831602179091556001546201000090041660041415905061055b576005546040514281527f6be5fd10983a48bd232c46b581d4f0fa6ad494d14841283d100268af2959cb999060200160405180910390a250506001805464ffff00ffff1916640505000001179055505050565b6000546001600160a01b03163314610b845760405162461bcd60e51b81526004016102c59061292b565b806001610b918282612d8a565b505050565b610b9e61232c565b60408051610180810182526001805460ff808216606085019081526101008084048316608080880191909152620100008504841660a088015263010000008504841660c088015264010000000090940490921660e086015260025491850191909152600354610120850152600480546101408601526005546101608601529084528451918201948590529293919260208501926006919082845b81546001600160a01b03168152600190910190602001808311610c3857505050918352505060408051608081019091526020909101906009830160046000835b82821015610d24576040805160a08101825260048481028701805460ff908116151584526001820154602085015260028201548082168587015261010090041660608401528351608080820195869052939491938501929091600385019190826000855b825461010083900a900460ff161515815260206001928301818104948501949093039092029101808411610cdc57905050505050508152505081526020019060010190610c78565b5050505081525050905090565b6000546001600160a01b03163314610d5b5760405162461bcd60e51b81526004016102c59061292b565b6106986000611cc3565b6005610d70336111e6565b60ff161415610d915760405162461bcd60e51b81526004016102c590612960565b6000610d9c336111e6565b6001805491925060ff90911614610df55760405162461bcd60e51b815260206004820152601f60248201527f4e6f742077616974696e6720666f72206120706c6179657220616374696f6e0060448201526064016102c5565b60015460ff8281166101009092041614610e425760405162461bcd60e51b815260206004820152600e60248201526d2737ba103cb7bab9103a3ab9371760911b60448201526064016102c5565b8151600a60ff831660048110610e6857634e487b7160e01b600052603260045260246000fd5b600402016001015414610ebd5760405162461bcd60e51b815260206004820152601d60248201527f48616e6420636f6d6d69746d656e747320646f206e6f74206d6174636800000060448201526064016102c5565b60005b6004811015610fc857600083610ed7836001612afa565b60078110610ef557634e487b7160e01b600052603260045260246000fd5b602002015111600a60ff841660048110610f1f57634e487b7160e01b600052603260045260246000fd5b600402016003018260048110610f4557634e487b7160e01b600052603260045260246000fd5b602081049091015460ff601f9092166101000a900416151514610fb65760405162461bcd60e51b8152602060048201526024808201527f576974636820416c69766520646f6573206e6f74206d6174636820666f7220696044820152630dcc8caf60e31b60648201526084016102c5565b80610fc081612ce2565b915050610ec0565b50601b5460405163c894e75760e01b81526001600160a01b039091169063c894e75790610fff90889088908890889060040161288b565b60206040518083038186803b15801561101757600080fd5b505afa15801561102b573d6000803e3d6000fd5b505050506040513d601f19601f8201168201806040525081019061104f91906125e4565b61109b5760405162461bcd60e51b815260206004820152601760248201527f496e76616c69642076616c69646d6f76652070726f6f6600000000000000000060448201526064016102c5565b60c08201516001118015906110b5575060c0820151600310155b6111275760405162461bcd60e51b815260206004820152603760248201527f436974697a656e436f756e74206d757374206265206265747765656e2031206160448201527f6e64203320666f7220612070726f6f6620616374696f6e00000000000000000060648201526084016102c5565b61114281836005602002015189898660066020020151611351565b50505050505050565b6000546001600160a01b031633146111755760405162461bcd60e51b81526004016102c59061292b565b6001600160a01b0381166111da5760405162461bcd60e51b815260206004820152602660248201527f4f776e61626c653a206e6577206f776e657220697320746865207a65726f206160448201526564647265737360d01b60648201526084016102c5565b6111e381611cc3565b50565b6000805b60015462010000900460ff16811015611251576001600160a01b0383166006826004811061122857634e487b7160e01b600052603260045260246000fd5b01546001600160a01b0316141561123f5792915050565b8061124981612ce2565b9150506111ea565b50600592915050565b60015460ff16600214156112c35760018054600491611283916301000000900460ff1690612b12565b61128d9190612d16565b6001805461ffff191661010060ff939093169290920260ff191691909117811764ffff0000001916640505000000179055611309565b600180546004916112dc91610100900460ff1690612b12565b6112e69190612d16565b6001805461ffff191661010060ff939093169290920260ff191691909117811790555b600154600a90610100900460ff166004811061133557634e487b7160e01b600052603260045260246000fd5b600402015460ff166113495761134961125a565b610698611d13565b600660ff86166004811061137557634e487b7160e01b600052603260045260246000fd5b01546005546040805160ff89811682528881166020830152878116828401528681166060830152851660808201524260a082015290516001600160a01b03909316927f923c39774d7f0d30bf161eb4b56e60134cdacb29cf48852a8e008f3a90bb229d9181900360c00190a3600360ff851611156114265760405162461bcd60e51b815260206004820152600e60248201526d2ab735b737bbb71030b1ba34b7b760911b60448201526064016102c5565b60ff8416611451576114448561143d836001612b12565b6000611f79565b61144c61125a565b61055b565b60ff8416600114156114735761144485600061146e846001612b12565b611f79565b60ff8416600214156117a6578260ff1661148c336111e6565b60ff1614156114d65760405162461bcd60e51b815260206004820152601660248201527521b0b73737ba103a30b933b2ba103cb7bab939b2b63360511b60448201526064016102c5565b60038360ff16111561152a5760405162461bcd60e51b815260206004820152601d60248201527f4d757374207461726765742061206578697374696e6720706c6179657200000060448201526064016102c5565b600a60ff84166004811061154e57634e487b7160e01b600052603260045260246000fd5b600402015460ff166115a25760405162461bcd60e51b815260206004820152601b60248201527f43616e6e6f74207461726765742061206465616420706c61796572000000000060448201526064016102c5565b6040805161010080820183526002808352600060208085018290528486018290526060808601849052608080870184905260a080880185905260c080890186905260e0808a018790528a519889018b528689526001958901869052998801859052928701859052908601849052850182905284015293820193909352909161169b9088908490611633908790612b37565b60ff166008811061165457634e487b7160e01b600052603260045260246000fd5b602002015184611665876002612b37565b611670906001612b12565b60ff166008811061169157634e487b7160e01b600052603260045260246000fd5b602002015161203f565b61171387826116ab866002612b37565b60ff16600881106116cc57634e487b7160e01b600052603260045260246000fd5b6020020151836116dd876002612b37565b6116e8906001612b12565b60ff166008811061170957634e487b7160e01b600052603260045260246000fd5b6020020151611f79565b6117558583611723866002612b37565b60ff166008811061174457634e487b7160e01b600052603260045260246000fd5b6020020151846116dd876002612b37565b6117978582611765866002612b37565b60ff166008811061178657634e487b7160e01b600052603260045260246000fd5b602002015183611665876002612b37565b61179f61125a565b505061055b565b60ff84166003141561055b578260ff166117bf336111e6565b60ff1614156118095760405162461bcd60e51b815260206004820152601660248201527521b0b73737ba103a30b933b2ba103cb7bab939b2b63360511b60448201526064016102c5565b60038360ff16111561185d5760405162461bcd60e51b815260206004820152601d60248201527f4d757374207461726765742061206578697374696e6720706c6179657200000060448201526064016102c5565b600a60ff84166004811061188157634e487b7160e01b600052603260045260246000fd5b600402015460ff166118d55760405162461bcd60e51b815260206004820152601b60248201527f43616e6e6f74207461726765742061206465616420706c61796572000000000060448201526064016102c5565b60408051610100810182526003808252602082015260029181018290526060810182905260016080820181905260a0820152600060c0820181905260e08201529061195b9087908390611929908690612b37565b60ff166008811061194a57634e487b7160e01b600052603260045260246000fd5b602002015183611665866002612b37565b50506001805460ff1960ff948516610100021661ffff199385166401000000000264ff0000000019979095166301000000029690961664ffff000000199091161792909217169290921760021790915550565b60015460ff166002146119d35760405162461bcd60e51b81526004016102c5906128dc565b60015460ff8281166101009092041614611a245760405162461bcd60e51b81526020600482015260126024820152712737ba103cb7bab9103932b9b837b739b29760711b60448201526064016102c5565b600660ff821660048110611a4857634e487b7160e01b600052603260045260246000fd5b01546005546040805160ff8516815260006020820152428183015290516001600160a01b03909316927fbe2881ec80fb9f3109a4891fad2c5a5b6f0024d08594a078555c534165680d509181900360600190a3600154611ab4906301000000900460ff16600280611f79565b6000600a60ff831660048110611ada57634e487b7160e01b600052603260045260246000fd5b60040201600301600160000160000160039054906101000a900460ff1660ff1660048110611b1857634e487b7160e01b600052603260045260246000fd5b602091828204019190066101000a81548160ff021916908315150217905550600260016009018260ff1660048110611b6057634e487b7160e01b600052603260045260246000fd5b600402016002015460ff1610801590611bb557506002600a60ff831660048110611b9a57634e487b7160e01b600052603260045260246000fd5b6004020160020160019054906101000a900460ff1660ff1610155b15611bc6576111e38160028061203f565b6111e38160026121e3565b600a60ff831660048110611bf557634e487b7160e01b600052603260045260246000fd5b600402015460ff16611c495760405162461bcd60e51b815260206004820152601760248201527f506c6179657220697320616c726561647920646561642e00000000000000000060448201526064016102c5565b611c5382826121e3565b6001805460ff16148015611c73575060015460ff83811661010090920416145b15611c8457611c8061125a565b5050565b60015460ff166002148015611ca5575060015460ff83811661010090920416145b15611cbb57611cb3826119ae565b611c8061125a565b611c80611d13565b600080546001600160a01b038381166001600160a01b0319831681178455604051919092169283917f8be0079c531659141344cd1fd0a4f28419497f9722a3daafe3b4186f6b6457e09190a35050565b60006005815b60048160ff161015611eea57600a8060ff831660048110611d4a57634e487b7160e01b600052603260045260246000fd5b600402016002015460ff1610801590611d9e5750600a8060ff831660048110611d8357634e487b7160e01b600052603260045260246000fd5b6004020160020160019054906101000a900460ff1660ff1610155b15611e9257600660ff821660048110611dc757634e487b7160e01b600052603260045260246000fd5b01546005546040805160ff8516815260046020820152428183015290516001600160a01b03909316927f449ad750fdc3adbc0dc4c5ca7f7a754c9397438862b3907a0c1b7de9567739049181900360600190a360005b60048160ff161015611e89578060ff168260ff1614158015611e675750600a60ff821660048110611e5e57634e487b7160e01b600052603260045260246000fd5b600402015460ff165b15611e7757611e778160036121e3565b80611e8181612cf6565b915050611e1d565b50610b9161229e565b600a60ff821660048110611eb657634e487b7160e01b600052603260045260246000fd5b600402015460ff16611ed45782611ecc81612cf6565b935050611ed8565b8091505b80611ee281612cf6565b915050611d19565b5060038260ff1610611c8057600660ff821660048110611f1a57634e487b7160e01b600052603260045260246000fd5b0154600580546040805160ff86168152602081019390935242908301526001600160a01b0390921691907f449ad750fdc3adbc0dc4c5ca7f7a754c9397438862b3907a0c1b7de9567739049060600160405180910390a3611c8061229e565b81600a60ff851660048110611f9e57634e487b7160e01b600052603260045260246000fd5b6004020160020160008282829054906101000a900460ff16611fc09190612b12565b92506101000a81548160ff021916908360ff1602179055508060016009018460ff166004811061200057634e487b7160e01b600052603260045260246000fd5b6004020160020160018282829054906101000a900460ff166120229190612b12565b92506101000a81548160ff021916908360ff160217905550505050565b8160ff1660016009018460ff166004811061206a57634e487b7160e01b600052603260045260246000fd5b600402016002015460ff1610156120b55760405162461bcd60e51b815260206004820152600f60248201526e1d1bdbc81b1a5d1d1b1948199bdbd9608a1b60448201526064016102c5565b8060ff1660016009018460ff16600481106120e057634e487b7160e01b600052603260045260246000fd5b6004020160020160019054906101000a900460ff1660ff16101561213a5760405162461bcd60e51b81526020600482015260116024820152703a37b7903634ba3a363290363ab6b132b960791b60448201526064016102c5565b81600a60ff85166004811061215f57634e487b7160e01b600052603260045260246000fd5b6004020160020160008282829054906101000a900460ff166121819190612b60565b92506101000a81548160ff021916908360ff1602179055508060016009018460ff16600481106121c157634e487b7160e01b600052603260045260246000fd5b6004020160020160018282829054906101000a900460ff166120229190612b60565b6000600a60ff84166004811061220957634e487b7160e01b600052603260045260246000fd5b600490810291909101805460ff19169215159290921790915560069060ff841690811061224657634e487b7160e01b600052603260045260246000fd5b01546005546040805160ff868116825285166020820152428183015290516001600160a01b03909316927f449ad750fdc3adbc0dc4c5ca7f7a754c9397438862b3907a0c1b7de9567739049181900360600190a35050565b60005b60048110156122fe576000600682600481106122cd57634e487b7160e01b600052603260045260246000fd5b0180546001600160a01b0319166001600160a01b0392909216919091179055806122f681612ce2565b9150506122a1565b506001805462ff0000191690556005805490600061231b83612cc2565b90915550506001805460ff19169055565b6040805161018081019091526000606082018181526080830182905260a0830182905260c0830182905260e0830182905261010083018290526101208301829052610140830182905261016083019190915281526020810161238c61239e565b81526020016123996123bc565b905290565b60405180608001604052806004906020820280368337509192915050565b60405180608001604052806004905b6123d36123e9565b8152602001906001900390816123cb5790505090565b6040518060a0016040528060001515815260200160008152602001600060ff168152602001600060ff16815260200161239961239e565b600082601f830112612430578081fd5b612438612a8b565b808385608086011115612449578384fd5b835b60028110156124755761245e8783612480565b84526020909301926040919091019060010161244b565b509095945050505050565b600082601f830112612490578081fd5b612498612a8b565b8083856040860111156124a9578384fd5b835b60028110156124755781358452602093840193909101906001016124ab565b6000602082840312156124db578081fd5b81356124e681612e8b565b9392505050565b600080600080610120808688031215612504578384fd5b61250e8787612480565b945061251d8760408801612420565b935061252c8760c08801612480565b92508661011f87011261253d578182fd5b612545612ab4565b80610100880189848a011115612559578485fd5b8493505b600184101561257d5780358352600193909301926020928301920161255d565b509598949750929550505050565b60008060008061014085870312156125a1578384fd5b6125ab8686612480565b93506125ba8660408701612420565b92506125c98660c08701612480565b91506125d9866101008701612480565b905092959194509250565b6000602082840312156125f5578081fd5b81516124e681612ea0565b60006105a08284031215612612578081fd5b50919050565b60008060008060008061022080888a031215612632578283fd5b873561263d81612eae565b965060208881013561264e81612eae565b965061265d8a60408b01612480565b955061266c8a60808b01612420565b945061267c8a6101008b01612480565b93508961015f8a011261268d578283fd5b612695612ad7565b806101408b018c858d0111156126a9578586fd5b8594505b60078510156126cc5780358352600194909401939183019183016126ad565b50809450505050509295509295509295565b6000806000606084860312156126f2578283fd5b83356126fd81612eae565b9250602084013561270d81612eae565b9150604084013561271d81612eae565b809150509250925092565b8060005b600281101561064d57612740848351612756565b604093909301926020919091019060010161272c565b8060005b600281101561064d57815184526020938401939091019060010161275a565b60ff815116825260ff602082015116602083015260ff604082015116604083015260608101516127ae606084018260ff169052565b5060808101516127c3608084018260ff169052565b5060a0818101519083015260c0808201519083015260e0808201519083015261010090810151910152565b61012081016127fd8287612756565b61280a6040830186612728565b61281760c0830185612756565b61010082018360005b600181101561283f578151835260209283019290910190600101612820565b50505095945050505050565b610140810161285a8287612756565b6128676040830186612728565b61287460c0830185612756565b612882610100830184612756565b95945050505050565b6101e0810161289a8287612756565b6128a76040830186612728565b6128b460c0830185612756565b61010082018360005b600781101561283f5781518352602092830192909101906001016128bd565b6020808252602f908201527f4e6f742077616974696e6720666f72206120706c6179657220726573706f6e7360408201526e32903a379030b1b1bab9b0ba34b7b760891b606082015260800190565b6020808252818101527f4f776e61626c653a2063616c6c6572206973206e6f7420746865206f776e6572604082015260600190565b6020808252601d908201527f41646472657373206973204e6f7420612076616c696420506c61796572000000604082015260600190565b61012081016129a68284612779565b92915050565b60006105a0820190506129c0828451612779565b602080840151610120840160005b60048110156129f45782516001600160a01b0316825291830191908301906001016129ce565b5050506040808501516101a0850160005b6004808210612a145750612a80565b835180511515845286810151878501528581015160ff908116878601526060808301519091169085015260809081015190840160005b83811015612a68578251151582529188019190880190600101612a4a565b50505092850192506101009190910190600101612a05565b505050505092915050565b6040805190810167ffffffffffffffff81118282101715612aae57612aae612d5a565b60405290565b6040516020810167ffffffffffffffff81118282101715612aae57612aae612d5a565b60405160e0810167ffffffffffffffff81118282101715612aae57612aae612d5a565b60008219821115612b0d57612b0d612d44565b500190565b600060ff821660ff84168060ff03821115612b2f57612b2f612d44565b019392505050565b600060ff821660ff84168160ff0481118215151615612b5857612b58612d44565b029392505050565b600060ff821660ff841680821015612b7a57612b7a612d44565b90039392505050565b818160005b600481101561055b578235612b9c81612e8b565b82546001600160a01b0319166001600160a01b03919091161782556020929092019160019182019101612b88565b818160005b6004808210612bde575061055b565b8335612be981612ea0565b60ff1984541660ff82151516811785555050600160208086013582860155600285016040870135612c1981612eae565b815460ff191660ff8216178255506060870135612c3581612eae565b815461ff001916600882901b61ff0016178255505060808601600386016000805b86811015612ca757612c86612c6a85612d70565b845460ff600386901b90811b8019909216921515901b16178455565b9284019290850190601f821115612ca05791850191600091505b8501612c56565b50505061010096909601955050509190910190600101612bcf565b60006001600160ff1b03821415612cdb57612cdb612d44565b5060010190565b6000600019821415612cdb57612cdb612d44565b600060ff821660ff811415612d0d57612d0d612d44565b60010192915050565b600060ff831680612d3557634e487b7160e01b82526012600452602482fd5b8060ff84160691505092915050565b634e487b7160e01b600052601160045260246000fd5b634e487b7160e01b600052604160045260246000fd5b600081356129a681612ea0565b600081356129a681612eae565b8135612d9581612eae565b815460ff191660ff8216178255506020820135612db181612eae565b815461ff001916600882901b61ff001617825550612dec612dd460408401612d7d565b825462ff0000191660109190911b62ff000016178255565b612e15612dfb60608401612d7d565b825463ff000000191660189190911b63ff00000016178255565b612e40612e2460808401612d7d565b825464ff00000000191660209190911b64ff0000000016178255565b60a0820135600182015560c0820135600282015560e082013560038201556101008201356004820155612e7a610120830160058301612b83565b611c806101a0830160098301612bca565b6001600160a01b03811681146111e357600080fd5b80151581146111e357600080fd5b60ff811681146111e357600080fdfea2646970667358221220b5f7ea2ce051102a62e73451d5be6cb46f8d5aff07ff8261898e25909c6179ac64736f6c63430008040033",
  "linkReferences": {},
  "deployedLinkReferences": {}
}