{
  "_format": "hh-sol-artifact-1",
  "contractName": "zkWitches",
  "sourceName": "contracts/zkWitches.sol",
  "abi": [
    {
      "inputs": [
        {
          "internalType": "address",
          "name": "hc_verifier",
          "type": "address"
        },
        {
          "internalType": "address",
          "name": "vm_verifier",
          "type": "address"
        },
        {
          "internalType": "address",
          "name": "nw_verifier",
          "type": "address"
        }
      ],
      "stateMutability": "nonpayable",
      "type": "constructor"
    },
    {
      "inputs": [
        {
          "internalType": "uint8",
          "name": "actionType",
          "type": "uint8"
        },
        {
          "internalType": "uint8",
          "name": "actionTarget",
          "type": "uint8"
        },
        {
          "internalType": "uint8",
          "name": "witchType",
          "type": "uint8"
        }
      ],
      "name": "ActionNoProof",
      "outputs": [],
      "stateMutability": "nonpayable",
      "type": "function"
    },
    {
      "inputs": [
        {
          "internalType": "uint8",
          "name": "actionTarget",
          "type": "uint8"
        },
        {
          "internalType": "uint8",
          "name": "witchType",
          "type": "uint8"
        },
        {
          "internalType": "uint256[2]",
          "name": "a",
          "type": "uint256[2]"
        },
        {
          "internalType": "uint256[2][2]",
          "name": "b",
          "type": "uint256[2][2]"
        },
        {
          "internalType": "uint256[2]",
          "name": "c",
          "type": "uint256[2]"
        },
        {
          "internalType": "uint256[7]",
          "name": "input",
          "type": "uint256[7]"
        }
      ],
      "name": "ActionWithProof",
      "outputs": [],
      "stateMutability": "nonpayable",
      "type": "function"
    },
    {
      "inputs": [
        {
          "components": [
            {
              "components": [
                {
                  "internalType": "uint8",
                  "name": "stateEnum",
                  "type": "uint8"
                },
                {
                  "internalType": "uint8",
                  "name": "playerSlotWaiting",
                  "type": "uint8"
                },
                {
                  "internalType": "uint8",
                  "name": "currentNumberOfPlayers",
                  "type": "uint8"
                },
                {
                  "internalType": "uint8",
                  "name": "playerAccusing",
                  "type": "uint8"
                },
                {
                  "internalType": "uint8",
                  "name": "accusationWitchType",
                  "type": "uint8"
                },
                {
                  "internalType": "uint256",
                  "name": "previous_action_game_block",
                  "type": "uint256"
                },
                {
                  "internalType": "uint256",
                  "name": "current_block",
                  "type": "uint256"
                },
                {
                  "internalType": "uint256",
                  "name": "current_sequence_number",
                  "type": "uint256"
                }
              ],
              "internalType": "struct zkWitches.SharedState",
              "name": "shared",
              "type": "tuple"
            },
            {
              "internalType": "address[4]",
              "name": "addresses",
              "type": "address[4]"
            },
            {
              "components": [
                {
                  "internalType": "bool",
                  "name": "isAlive",
                  "type": "bool"
                },
                {
                  "internalType": "uint256",
                  "name": "handCommitment",
                  "type": "uint256"
                },
                {
                  "internalType": "uint8",
                  "name": "food",
                  "type": "uint8"
                },
                {
                  "internalType": "uint8",
                  "name": "lumber",
                  "type": "uint8"
                },
                {
                  "internalType": "bool[4]",
                  "name": "WitchAlive",
                  "type": "bool[4]"
                }
              ],
              "internalType": "struct zkWitches.PlayerState[4]",
              "name": "players",
              "type": "tuple[4]"
            }
          ],
          "internalType": "struct zkWitches.TotalGameState",
          "name": "inputTgs",
          "type": "tuple"
        }
      ],
      "name": "DEBUG_SetGameState",
      "outputs": [],
      "stateMutability": "nonpayable",
      "type": "function"
    },
    {
      "inputs": [],
      "name": "GetTGS",
      "outputs": [
        {
          "components": [
            {
              "components": [
                {
                  "internalType": "uint8",
                  "name": "stateEnum",
                  "type": "uint8"
                },
                {
                  "internalType": "uint8",
                  "name": "playerSlotWaiting",
                  "type": "uint8"
                },
                {
                  "internalType": "uint8",
                  "name": "currentNumberOfPlayers",
                  "type": "uint8"
                },
                {
                  "internalType": "uint8",
                  "name": "playerAccusing",
                  "type": "uint8"
                },
                {
                  "internalType": "uint8",
                  "name": "accusationWitchType",
                  "type": "uint8"
                },
                {
                  "internalType": "uint256",
                  "name": "previous_action_game_block",
                  "type": "uint256"
                },
                {
                  "internalType": "uint256",
                  "name": "current_block",
                  "type": "uint256"
                },
                {
                  "internalType": "uint256",
                  "name": "current_sequence_number",
                  "type": "uint256"
                }
              ],
              "internalType": "struct zkWitches.SharedState",
              "name": "shared",
              "type": "tuple"
            },
            {
              "internalType": "address[4]",
              "name": "addresses",
              "type": "address[4]"
            },
            {
              "components": [
                {
                  "internalType": "bool",
                  "name": "isAlive",
                  "type": "bool"
                },
                {
                  "internalType": "uint256",
                  "name": "handCommitment",
                  "type": "uint256"
                },
                {
                  "internalType": "uint8",
                  "name": "food",
                  "type": "uint8"
                },
                {
                  "internalType": "uint8",
                  "name": "lumber",
                  "type": "uint8"
                },
                {
                  "internalType": "bool[4]",
                  "name": "WitchAlive",
                  "type": "bool[4]"
                }
              ],
              "internalType": "struct zkWitches.PlayerState[4]",
              "name": "players",
              "type": "tuple[4]"
            }
          ],
          "internalType": "struct zkWitches.TotalGameState",
          "name": "",
          "type": "tuple"
        }
      ],
      "stateMutability": "view",
      "type": "function"
    },
    {
      "inputs": [
        {
          "internalType": "uint256[2]",
          "name": "a",
          "type": "uint256[2]"
        },
        {
          "internalType": "uint256[2][2]",
          "name": "b",
          "type": "uint256[2][2]"
        },
        {
          "internalType": "uint256[2]",
          "name": "c",
          "type": "uint256[2]"
        },
        {
          "internalType": "uint256[1]",
          "name": "input",
          "type": "uint256[1]"
        }
      ],
      "name": "JoinGame",
      "outputs": [],
      "stateMutability": "nonpayable",
      "type": "function"
    },
    {
      "inputs": [],
      "name": "KickCurrentPlayer",
      "outputs": [],
      "stateMutability": "nonpayable",
      "type": "function"
    },
    {
      "inputs": [
        {
          "internalType": "uint256[2]",
          "name": "a",
          "type": "uint256[2]"
        },
        {
          "internalType": "uint256[2][2]",
          "name": "b",
          "type": "uint256[2][2]"
        },
        {
          "internalType": "uint256[2]",
          "name": "c",
          "type": "uint256[2]"
        },
        {
          "internalType": "uint256[2]",
          "name": "input",
          "type": "uint256[2]"
        }
      ],
      "name": "RespondAccusation_NoWitch",
      "outputs": [],
      "stateMutability": "nonpayable",
      "type": "function"
    },
    {
      "inputs": [],
      "name": "RespondAccusation_YesWitch",
      "outputs": [],
      "stateMutability": "nonpayable",
      "type": "function"
    },
    {
      "inputs": [],
      "name": "Surrender",
      "outputs": [],
      "stateMutability": "nonpayable",
      "type": "function"
    },
    {
      "inputs": [],
      "name": "hc_verifierAddr",
      "outputs": [
        {
          "internalType": "address",
          "name": "",
          "type": "address"
        }
      ],
      "stateMutability": "view",
      "type": "function"
    },
    {
      "inputs": [],
      "name": "nw_verifierAddr",
      "outputs": [
        {
          "internalType": "address",
          "name": "",
          "type": "address"
        }
      ],
      "stateMutability": "view",
      "type": "function"
    },
    {
      "inputs": [],
      "name": "tgs",
      "outputs": [
        {
          "components": [
            {
              "internalType": "uint8",
              "name": "stateEnum",
              "type": "uint8"
            },
            {
              "internalType": "uint8",
              "name": "playerSlotWaiting",
              "type": "uint8"
            },
            {
              "internalType": "uint8",
              "name": "currentNumberOfPlayers",
              "type": "uint8"
            },
            {
              "internalType": "uint8",
              "name": "playerAccusing",
              "type": "uint8"
            },
            {
              "internalType": "uint8",
              "name": "accusationWitchType",
              "type": "uint8"
            },
            {
              "internalType": "uint256",
              "name": "previous_action_game_block",
              "type": "uint256"
            },
            {
              "internalType": "uint256",
              "name": "current_block",
              "type": "uint256"
            },
            {
              "internalType": "uint256",
              "name": "current_sequence_number",
              "type": "uint256"
            }
          ],
          "internalType": "struct zkWitches.SharedState",
          "name": "shared",
          "type": "tuple"
        }
      ],
      "stateMutability": "view",
      "type": "function"
    },
    {
      "inputs": [],
      "name": "vm_verifierAddr",
      "outputs": [
        {
          "internalType": "address",
          "name": "",
          "type": "address"
        }
      ],
      "stateMutability": "view",
      "type": "function"
    }
  ],
  "bytecode": "0x60806040523480156200001157600080fd5b50604051620043033803806200430383398181016040528101906200003791906200011a565b82601860006101000a81548173ffffffffffffffffffffffffffffffffffffffff021916908373ffffffffffffffffffffffffffffffffffffffff16021790555081601960006101000a81548173ffffffffffffffffffffffffffffffffffffffff021916908373ffffffffffffffffffffffffffffffffffffffff16021790555080601a60006101000a81548173ffffffffffffffffffffffffffffffffffffffff021916908373ffffffffffffffffffffffffffffffffffffffff160217905550505050620001be565b6000815190506200011481620001a4565b92915050565b6000806000606084860312156200013057600080fd5b6000620001408682870162000103565b9350506020620001538682870162000103565b9250506040620001668682870162000103565b9150509250925092565b60006200017d8262000184565b9050919050565b600073ffffffffffffffffffffffffffffffffffffffff82169050919050565b620001af8162000170565b8114620001bb57600080fd5b50565b61413580620001ce6000396000f3fe608060405234801561001057600080fd5b50600436106100cf5760003560e01c80634c9063cb1161008c578063afbf9d9111610066578063afbf9d91146101a0578063bff3b042146101bc578063ca9e7f32146101d8578063d8de5d21146101f6576100cf565b80634c9063cb1461014857806357cf2467146101645780635a5afe0d14610182576100cf565b806302065928146100d45780630c7e6273146100f0578063209f06121461010c578063236fc916146101165780633168748b146101345780633259e60f1461013e575b600080fd5b6100ee60048036038101906100e99190611fa2565b610214565b005b61010a600480360381019061010591906120e6565b610584565b005b6101146106af565b005b61011e610714565b60405161012b919061295f565b60405180910390f35b61013c61073a565b005b610146610754565b005b610162600480360381019061015d9190611f3d565b6107b9565b005b61016c610c91565b604051610179919061295f565b60405180910390f35b61018a610cb7565b6040516101979190612ceb565b60405180910390f35b6101ba60048036038101906101b59190612030565b610f25565b005b6101d660048036038101906101d1919061205a565b610f3a565b005b6101e06113e0565b6040516101ed9190612ccf565b60405180910390f35b6101fe6114a6565b60405161020b919061295f565b60405180910390f35b600560ff16610222336114cc565b60ff161415610266576040517f08c379a000000000000000000000000000000000000000000000000000000000815260040161025d90612caf565b60405180910390fd5b6000610271336114cc565b9050600260ff166000800160000160009054906101000a900460ff1660ff16146102d0576040517f08c379a00000000000000000000000000000000000000000000000000000000081526004016102c790612b2f565b60405180910390fd5b8060ff166000800160000160019054906101000a900460ff1660ff161461032c576040517f08c379a000000000000000000000000000000000000000000000000000000000815260040161032390612bcf565b60405180910390fd5b81600060028110610366577f4e487b7100000000000000000000000000000000000000000000000000000000600052603260045260246000fd5b602002015160006008018260ff16600481106103ab577f4e487b7100000000000000000000000000000000000000000000000000000000600052603260045260246000fd5b6004020160010154146103f3576040517f08c379a00000000000000000000000000000000000000000000000000000000081526004016103ea90612c8f565b60405180910390fd5b8160016002811061042d577f4e487b7100000000000000000000000000000000000000000000000000000000600052603260045260246000fd5b602002015160ff166000800160000160049054906101000a900460ff1660ff161461048d576040517f08c379a000000000000000000000000000000000000000000000000000000000815260040161048490612a4f565b60405180910390fd5b601a60009054906101000a900473ffffffffffffffffffffffffffffffffffffffff1673ffffffffffffffffffffffffffffffffffffffff1663f5c9d69e868686866040518563ffffffff1660e01b81526004016104ee94939291906129c1565b60206040518083038186803b15801561050657600080fd5b505afa15801561051a573d6000803e3d6000fd5b505050506040513d601f19601f8201168201806040525081019061053e9190612007565b61057d576040517f08c379a000000000000000000000000000000000000000000000000000000000815260040161057490612c0f565b60405180910390fd5b5050505050565b600560ff16610592336114cc565b60ff1614156105d6576040517f08c379a00000000000000000000000000000000000000000000000000000000081526004016105cd90612caf565b60405180910390fd5b60006105e1336114cc565b9050600160ff166000800160000160009054906101000a900460ff1660ff1614610640576040517f08c379a000000000000000000000000000000000000000000000000000000000815260040161063790612c4f565b60405180910390fd5b8060ff166000800160000160019054906101000a900460ff1660ff161461069c576040517f08c379a000000000000000000000000000000000000000000000000000000000815260040161069390612b4f565b60405180910390fd5b6106a984848460006115ac565b50505050565b600560ff166106bd336114cc565b60ff161415610701576040517f08c379a00000000000000000000000000000000000000000000000000000000081526004016106f890612caf565b60405180910390fd5b61071261070d336114cc565b6118d6565b565b601960009054906101000a900473ffffffffffffffffffffffffffffffffffffffff1681565b6000600590506000156107515761075081611992565b5b50565b600560ff16610762336114cc565b60ff1614156107a6576040517f08c379a000000000000000000000000000000000000000000000000000000000815260040161079d90612caf565b60405180910390fd5b6107b76107b2336114cc565b611992565b565b600560ff166107c7336114cc565b60ff161461080a576040517f08c379a000000000000000000000000000000000000000000000000000000000815260040161080190612bef565b60405180910390fd5b600060ff166000800160000160009054906101000a900460ff1660ff1614610867576040517f08c379a000000000000000000000000000000000000000000000000000000000815260040161085e90612aef565b60405180910390fd5b601860009054906101000a900473ffffffffffffffffffffffffffffffffffffffff1673ffffffffffffffffffffffffffffffffffffffff166343753b4d858585856040518563ffffffff1660e01b81526004016108c8949392919061297a565b60206040518083038186803b1580156108e057600080fd5b505afa1580156108f4573d6000803e3d6000fd5b505050506040513d601f19601f820116820180604052508101906109189190612007565b610957576040517f08c379a000000000000000000000000000000000000000000000000000000000815260040161094e90612c2f565b60405180910390fd5b60008060000160000160029054906101000a900460ff1660ff16905060008001600001600281819054906101000a900460ff1680929190610997906135d0565b91906101000a81548160ff021916908360ff1602179055505033600060040182600481106109ee577f4e487b7100000000000000000000000000000000000000000000000000000000600052603260045260246000fd5b0160006101000a81548173ffffffffffffffffffffffffffffffffffffffff021916908373ffffffffffffffffffffffffffffffffffffffff160217905550600160006008018260048110610a6c577f4e487b7100000000000000000000000000000000000000000000000000000000600052603260045260246000fd5b6004020160000160006101000a81548160ff02191690831515021790555081600060018110610ac4577f4e487b7100000000000000000000000000000000000000000000000000000000600052603260045260246000fd5b602002015160006008018260048110610b06577f4e487b7100000000000000000000000000000000000000000000000000000000600052603260045260246000fd5b6004020160010181905550600260006008018260048110610b50577f4e487b7100000000000000000000000000000000000000000000000000000000600052603260045260246000fd5b6004020160020160006101000a81548160ff021916908360ff160217905550600260006008018260048110610bae577f4e487b7100000000000000000000000000000000000000000000000000000000600052603260045260246000fd5b6004020160020160006101000a81548160ff021916908360ff16021790555060005b6004811015610c8957600160006008018360048110610c18577f4e487b7100000000000000000000000000000000000000000000000000000000600052603260045260246000fd5b600402016003018260048110610c57577f4e487b7100000000000000000000000000000000000000000000000000000000600052603260045260246000fd5b602091828204019190066101000a81548160ff0219169083151502179055508080610c8190613587565b915050610bd0565b505050505050565b601860009054906101000a900473ffffffffffffffffffffffffffffffffffffffff1681565b610cbf611b85565b600060405180606001604052908160008201604051806101000160405290816000820160009054906101000a900460ff1660ff1660ff1681526020016000820160019054906101000a900460ff1660ff1660ff1681526020016000820160029054906101000a900460ff1660ff1660ff1681526020016000820160039054906101000a900460ff1660ff1660ff1681526020016000820160049054906101000a900460ff1660ff1660ff1681526020016001820154815260200160028201548152602001600382015481525050815260200160048201600480602002604051908101604052809291908260048015610e02576020028201915b8160009054906101000a900473ffffffffffffffffffffffffffffffffffffffff1673ffffffffffffffffffffffffffffffffffffffff1681526020019060010190808311610db8575b5050505050815260200160088201600480602002604051908101604052809291906000905b82821015610f18578382600402016040518060a00160405290816000820160009054906101000a900460ff16151515158152602001600182015481526020016002820160009054906101000a900460ff1660ff1660ff1681526020016002820160019054906101000a900460ff1660ff1660ff16815260200160038201600480602002604051908101604052809291908260048015610f00576020028201916000905b82829054906101000a900460ff16151581526020019060010190602082600001049283019260010382029150808411610eca5790505b50505050508152505081526020019060010190610e27565b5050505081525050905090565b8060008181610f349190613f31565b90505050565b600560ff16610f48336114cc565b60ff161415610f8c576040517f08c379a0000000000000000000000000000000000000000000000000000000008152600401610f8390612caf565b60405180910390fd5b6000610f97336114cc565b9050600160ff166000800160000160009054906101000a900460ff1660ff1614610ff6576040517f08c379a0000000000000000000000000000000000000000000000000000000008152600401610fed90612c4f565b60405180910390fd5b8060ff166000800160000160019054906101000a900460ff1660ff1614611052576040517f08c379a000000000000000000000000000000000000000000000000000000000815260040161104990612b4f565b60405180910390fd5b8160006007811061108c577f4e487b7100000000000000000000000000000000000000000000000000000000600052603260045260246000fd5b602002015160006008018260ff16600481106110d1577f4e487b7100000000000000000000000000000000000000000000000000000000600052603260045260246000fd5b600402016001015414611119576040517f08c379a000000000000000000000000000000000000000000000000000000000815260040161111090612c8f565b60405180910390fd5b60005b600481101561125e576000838260016111359190612fdb565b6007811061116c577f4e487b7100000000000000000000000000000000000000000000000000000000600052603260045260246000fd5b602002015111151560006008018360ff16600481106111b4577f4e487b7100000000000000000000000000000000000000000000000000000000600052603260045260246000fd5b6004020160030182600481106111f3577f4e487b7100000000000000000000000000000000000000000000000000000000600052603260045260246000fd5b602091828204019190069054906101000a900460ff1615151461124b576040517f08c379a000000000000000000000000000000000000000000000000000000000815260040161124290612c6f565b60405180910390fd5b808061125690613587565b91505061111c565b50601960009054906101000a900473ffffffffffffffffffffffffffffffffffffffff1673ffffffffffffffffffffffffffffffffffffffff1663c894e757868686866040518563ffffffff1660e01b81526004016112c09493929190612a08565b60206040518083038186803b1580156112d857600080fd5b505afa1580156112ec573d6000803e3d6000fd5b505050506040513d601f19601f820116820180604052508101906113109190612007565b61134f576040517f08c379a000000000000000000000000000000000000000000000000000000000815260040161134690612aaf565b60405180910390fd5b6113d78260056007811061138c577f4e487b7100000000000000000000000000000000000000000000000000000000600052603260045260246000fd5b602002015188846006600781106113cc577f4e487b7100000000000000000000000000000000000000000000000000000000600052603260045260246000fd5b6020020151896115ac565b50505050505050565b600080600001604051806101000160405290816000820160009054906101000a900460ff1660ff1660ff1681526020016000820160019054906101000a900460ff1660ff1660ff1681526020016000820160029054906101000a900460ff1660ff1660ff1681526020016000820160039054906101000a900460ff1660ff1660ff1681526020016000820160049054906101000a900460ff1660ff1660ff1681526020016001820154815260200160028201548152602001600382015481525050905081565b601a60009054906101000a900473ffffffffffffffffffffffffffffffffffffffff1681565b600080600090505b6000800160000160029054906101000a900460ff1660ff168110156115a1578273ffffffffffffffffffffffffffffffffffffffff1660006004018260048110611547577f4e487b7100000000000000000000000000000000000000000000000000000000600052603260045260246000fd5b0160009054906101000a900473ffffffffffffffffffffffffffffffffffffffff1673ffffffffffffffffffffffffffffffffffffffff16141561158e57809150506115a7565b808061159990613587565b9150506114d4565b50600590505b919050565b600060ff168460ff16101580156115ca5750600360ff168460ff1611155b611609576040517f08c379a000000000000000000000000000000000000000000000000000000000815260040161160090612a6f565b60405180910390fd5b600060ff168460ff16141561161d576118d0565b600160ff168460ff161415611631576118cf565b600260ff168460ff161415611781578260ff1661164d336114cc565b60ff161415611691576040517f08c379a000000000000000000000000000000000000000000000000000000000815260040161168890612a8f565b60405180910390fd5b60008360ff16101580156116a9575060038360ff1611155b6116e8576040517f08c379a00000000000000000000000000000000000000000000000000000000081526004016116df90612b6f565b60405180910390fd5b60006008018360ff1660048110611728577f4e487b7100000000000000000000000000000000000000000000000000000000600052603260045260246000fd5b6004020160000160009054906101000a900460ff1661177c576040517f08c379a000000000000000000000000000000000000000000000000000000000815260040161177390612acf565b60405180910390fd5b6118ce565b600360ff168460ff1614156118cd578260ff1661179d336114cc565b60ff1614156117e1576040517f08c379a00000000000000000000000000000000000000000000000000000000081526004016117d890612a8f565b60405180910390fd5b60008360ff16101580156117f9575060038360ff1611155b611838576040517f08c379a000000000000000000000000000000000000000000000000000000000815260040161182f90612b6f565b60405180910390fd5b60006008018360ff1660048110611878577f4e487b7100000000000000000000000000000000000000000000000000000000600052603260045260246000fd5b6004020160000160009054906101000a900460ff166118cc576040517f08c379a00000000000000000000000000000000000000000000000000000000081526004016118c390612acf565b60405180910390fd5b5b5b5b5b50505050565b600260ff166000800160000160009054906101000a900460ff1660ff1614611933576040517f08c379a000000000000000000000000000000000000000000000000000000000815260040161192a90612b2f565b60405180910390fd5b8060ff166000800160000160019054906101000a900460ff1660ff161461198f576040517f08c379a000000000000000000000000000000000000000000000000000000000815260040161198690612bcf565b60405180910390fd5b50565b600060ff166000800160000160009054906101000a900460ff1660ff1614156119f0576040517f08c379a00000000000000000000000000000000000000000000000000000000081526004016119e790612b0f565b60405180910390fd5b600360ff166000800160000160009054906101000a900460ff1660ff161415611a4e576040517f08c379a0000000000000000000000000000000000000000000000000000000008152600401611a4590612b8f565b60405180910390fd5b60006008018160ff1660048110611a8e577f4e487b7100000000000000000000000000000000000000000000000000000000600052603260045260246000fd5b6004020160000160009054906101000a900460ff16611ae2576040517f08c379a0000000000000000000000000000000000000000000000000000000008152600401611ad990612baf565b60405180910390fd5b600160ff166000800160000160009054906101000a900460ff1660ff16148015611b2557508060ff166000800160000160019054906101000a900460ff1660ff16145b15611b2f57611b82565b600260ff166000800160000160009054906101000a900460ff1660ff16148015611b7257508060ff166000800160000160019054906101000a900460ff1660ff16145b15611b8157611b80816118d6565b5b5b50565b6040518060600160405280611b98611bb8565b8152602001611ba5611c0c565b8152602001611bb2611c2e565b81525090565b604051806101000160405280600060ff168152602001600060ff168152602001600060ff168152602001600060ff168152602001600060ff1681526020016000815260200160008152602001600081525090565b6040518060800160405280600490602082028036833780820191505090505090565b60405180608001604052806004905b611c45611c5b565b815260200190600190039081611c3d5790505090565b6040518060a0016040528060001515815260200160008152602001600060ff168152602001600060ff168152602001611c92611c98565b81525090565b6040518060800160405280600490602082028036833780820191505090505090565b6000611ccd611cc884612d2c565b612d07565b90508082856040860282011115611ce357600080fd5b60005b85811015611d135781611cf98882611e94565b845260208401935060408301925050600181019050611ce6565b5050509392505050565b6000611d30611d2b84612d52565b612d07565b90508082856020860282011115611d4657600080fd5b60005b85811015611d765781611d5c8882611f13565b845260208401935060208301925050600181019050611d49565b5050509392505050565b6000611d93611d8e84612d78565b612d07565b90508082856020860282011115611da957600080fd5b60005b85811015611dd95781611dbf8882611f13565b845260208401935060208301925050600181019050611dac565b5050509392505050565b6000611df6611df184612d9e565b612d07565b90508082856020860282011115611e0c57600080fd5b60005b85811015611e3c5781611e228882611f13565b845260208401935060208301925050600181019050611e0f565b5050509392505050565b600082601f830112611e5757600080fd5b6002611e64848285611cba565b91505092915050565b600082601f830112611e7e57600080fd5b6001611e8b848285611d1d565b91505092915050565b600082601f830112611ea557600080fd5b6002611eb2848285611d80565b91505092915050565b600082601f830112611ecc57600080fd5b6007611ed9848285611de3565b91505092915050565b600081519050611ef1816140b5565b92915050565b60006105808284031215611f0a57600080fd5b81905092915050565b600081359050611f22816140cc565b92915050565b600081359050611f37816140e3565b92915050565b6000806000806101208587031215611f5457600080fd5b6000611f6287828801611e94565b9450506040611f7387828801611e46565b93505060c0611f8487828801611e94565b925050610100611f9687828801611e6d565b91505092959194509250565b6000806000806101408587031215611fb957600080fd5b6000611fc787828801611e94565b9450506040611fd887828801611e46565b93505060c0611fe987828801611e94565b925050610100611ffb87828801611e94565b91505092959194509250565b60006020828403121561201957600080fd5b600061202784828501611ee2565b91505092915050565b6000610580828403121561204357600080fd5b600061205184828501611ef7565b91505092915050565b600080600080600080610220878903121561207457600080fd5b600061208289828a01611f28565b965050602061209389828a01611f28565b95505060406120a489828a01611e94565b94505060806120b589828a01611e46565b9350506101006120c789828a01611e94565b9250506101406120d989828a01611ebb565b9150509295509295509295565b6000806000606084860312156120fb57600080fd5b600061210986828701611f28565b935050602061211a86828701611f28565b925050604061212b86828701611f28565b9150509250925092565b600061214183836121ae565b60208301905092915050565b6000612159838361237f565b60408301905092915050565b60006121718383612484565b60208301905092915050565b6000612189838361274f565b6101008301905092915050565b60006121a28383612941565b60208301905092915050565b6121b78161308b565b82525050565b6121c68161308b565b82525050565b6121d581612e93565b6121df8184612f72565b92506121ea82612e10565b8060005b8381101561221b5781516122028782612135565b965061220d83612f17565b9250506001810190506121ee565b505050505050565b61222c81612ea9565b6122368184612f7d565b925061224182612e24565b8060005b83811015612272578151612259878261214d565b965061226483612f24565b925050600181019050612245565b505050505050565b61228381612ebf565b61228d8184612f88565b925061229882612e38565b8060005b838110156122c95781516122b08782612165565b96506122bb83612f31565b92505060018101905061229c565b505050505050565b6122da81612ee0565b6122e48184612f93565b92506122ef82612e56565b8060005b83811015612320578151612307878261217d565b965061231283612f3e565b9250506001810190506122f3565b505050505050565b61233181612ef6565b61233b8184612f9e565b925061234682612e6a565b8060005b8381101561237757815161235e8782612196565b965061236983612f4b565b92505060018101905061234a565b505050505050565b61238881612f01565b6123928184612fa9565b925061239d82612e74565b8060005b838110156123ce5781516123b58782612196565b96506123c083612f58565b9250506001810190506123a1565b505050505050565b6123df81612f01565b6123e98184612fb4565b92506123f482612e74565b8060005b8381101561242557815161240c8782612196565b965061241783612f58565b9250506001810190506123f8565b505050505050565b61243681612f0c565b6124408184612fbf565b925061244b82612e7e565b8060005b8381101561247c5781516124638782612196565b965061246e83612f65565b92505060018101905061244f565b505050505050565b61248d8161309d565b82525050565b60006124a0602383612fca565b91506124ab82613944565b604082019050919050565b60006124c3600e83612fca565b91506124ce82613993565b602082019050919050565b60006124e6601683612fca565b91506124f1826139bc565b602082019050919050565b6000612509601783612fca565b9150612514826139e5565b602082019050919050565b600061252c601b83612fca565b915061253782613a0e565b602082019050919050565b600061254f601883612fca565b915061255a82613a37565b602082019050919050565b6000612572602c83612fca565b915061257d82613a60565b604082019050919050565b6000612595602f83612fca565b91506125a082613aaf565b604082019050919050565b60006125b8600e83612fca565b91506125c382613afe565b602082019050919050565b60006125db601d83612fca565b91506125e682613b27565b602082019050919050565b60006125fe601983612fca565b915061260982613b50565b602082019050919050565b6000612621601783612fca565b915061262c82613b79565b602082019050919050565b6000612644601283612fca565b915061264f82613ba2565b602082019050919050565b6000612667601b83612fca565b915061267282613bcb565b602082019050919050565b600061268a601583612fca565b915061269582613bf4565b602082019050919050565b60006126ad601c83612fca565b91506126b882613c1d565b602082019050919050565b60006126d0601f83612fca565b91506126db82613c46565b602082019050919050565b60006126f3602483612fca565b91506126fe82613c6f565b604082019050919050565b6000612716601d83612fca565b915061272182613cbe565b602082019050919050565b6000612739601d83612fca565b915061274482613ce7565b602082019050919050565b610100820160008201516127666000850182612484565b5060208201516127796020850182612941565b50604082015161278c6040850182612950565b50606082015161279f6060850182612950565b5060808201516127b2608085018261227a565b50505050565b610100820160008201516127cf6000850182612950565b5060208201516127e26020850182612950565b5060408201516127f56040850182612950565b5060608201516128086060850182612950565b50608082015161281b6080850182612950565b5060a082015161282e60a0850182612941565b5060c082015161284160c0850182612941565b5060e082015161285460e0850182612941565b50505050565b610100820160008201516128716000850182612950565b5060208201516128846020850182612950565b5060408201516128976040850182612950565b5060608201516128aa6060850182612950565b5060808201516128bd6080850182612950565b5060a08201516128d060a0850182612941565b5060c08201516128e360c0850182612941565b5060e08201516128f660e0850182612941565b50505050565b6105808201600082015161291360008501826127b8565b5060208201516129276101008501826121cc565b50604082015161293b6101808501826122d1565b50505050565b61294a816130c9565b82525050565b612959816130d3565b82525050565b600060208201905061297460008301846121bd565b92915050565b60006101208201905061299060008301876123d6565b61299d6040830186612223565b6129aa60c08301856123d6565b6129b8610100830184612328565b95945050505050565b6000610140820190506129d760008301876123d6565b6129e46040830186612223565b6129f160c08301856123d6565b6129ff6101008301846123d6565b95945050505050565b60006101e082019050612a1e60008301876123d6565b612a2b6040830186612223565b612a3860c08301856123d6565b612a4661010083018461242d565b95945050505050565b60006020820190508181036000830152612a6881612493565b9050919050565b60006020820190508181036000830152612a88816124b6565b9050919050565b60006020820190508181036000830152612aa8816124d9565b9050919050565b60006020820190508181036000830152612ac8816124fc565b9050919050565b60006020820190508181036000830152612ae88161251f565b9050919050565b60006020820190508181036000830152612b0881612542565b9050919050565b60006020820190508181036000830152612b2881612565565b9050919050565b60006020820190508181036000830152612b4881612588565b9050919050565b60006020820190508181036000830152612b68816125ab565b9050919050565b60006020820190508181036000830152612b88816125ce565b9050919050565b60006020820190508181036000830152612ba8816125f1565b9050919050565b60006020820190508181036000830152612bc881612614565b9050919050565b60006020820190508181036000830152612be881612637565b9050919050565b60006020820190508181036000830152612c088161265a565b9050919050565b60006020820190508181036000830152612c288161267d565b9050919050565b60006020820190508181036000830152612c48816126a0565b9050919050565b60006020820190508181036000830152612c68816126c3565b9050919050565b60006020820190508181036000830152612c88816126e6565b9050919050565b60006020820190508181036000830152612ca881612709565b9050919050565b60006020820190508181036000830152612cc88161272c565b9050919050565b600061010082019050612ce5600083018461285a565b92915050565b600061058082019050612d0160008301846128fc565b92915050565b6000612d11612d22565b9050612d1d8282613556565b919050565b6000604051905090565b600067ffffffffffffffff821115612d4757612d46613658565b5b602082029050919050565b600067ffffffffffffffff821115612d6d57612d6c613658565b5b602082029050919050565b600067ffffffffffffffff821115612d9357612d92613658565b5b602082029050919050565b600067ffffffffffffffff821115612db957612db8613658565b5b602082029050919050565b60008190506001806001038301049050919050565b6000819050602060016020038301049050919050565b6000819050612dff826004613031565b9050919050565b6000819050919050565b6000819050919050565b6000819050919050565b6000819050919050565b6000819050919050565b6000819050919050565b6000819050919050565b6000819050919050565b6000819050919050565b6000819050919050565b6000819050919050565b6000819050919050565b6000819050919050565b600060049050919050565b600060049050919050565b600060049050919050565b600060029050919050565b600060049050919050565b600060049050919050565b600060049050919050565b600060049050919050565b600060049050919050565b600060049050919050565b600060019050919050565b600060029050919050565b600060079050919050565b6000602082019050919050565b6000602082019050919050565b6000602082019050919050565b6000602082019050919050565b6000602082019050919050565b6000602082019050919050565b6000602082019050919050565b600081905092915050565b600081905092915050565b600081905092915050565b600081905092915050565b600081905092915050565b600081905092915050565b600081905092915050565b600081905092915050565b600082825260208201905092915050565b6000612fe6826130c9565b9150612ff1836130c9565b9250827fffffffffffffffffffffffffffffffffffffffffffffffffffffffffffffffff0382111561302657613025613629565b5b828201905092915050565b600061303c826130c9565b9150613047836130c9565b9250817fffffffffffffffffffffffffffffffffffffffffffffffffffffffffffffffff04831182151516156130805761307f613629565b5b828202905092915050565b6000613096826130a9565b9050919050565b60008115159050919050565b600073ffffffffffffffffffffffffffffffffffffffff82169050919050565b6000819050919050565b600060ff82169050919050565b6130f56130ed6004612dd9565b820182613161565b50565b5b818110156131175761310c60008261392c565b6001810190506130f9565b5050565b5b8181101561313a5761312f60008261392c565b60018101905061311c565b5050565b5b8181101561315d5761315260008261390e565b60048101905061313f565b5050565b5b818110156131805761317560008261392c565b600181019050613162565b5050565b60008082015561319860006001830161392c565b600060028201556131ad6000600383016138f0565b50565b60006131bb826131d4565b9050919050565b60006131cd8261309d565b9050919050565b60006131df826131e6565b9050919050565b60006131f1826130a9565b9050919050565b6000613203826130c9565b9050919050565b6000613215826130d3565b9050919050565b61322582612e88565b61322f8183613742565b61323883612e06565b61324183612e1a565b6000805b8481101561327c5783613257816136ea565b9050613264818486614011565b60208501945060018401935050600181019050613245565b50505050505050565b61328e82612eb4565b61329881836137a3565b6132a183612e2e565b6132aa83612e42565b6000805b848110156132fc57836132c081613700565b90506132cd818486614036565b60208501945060018301925060016020038311156132f057600092506001840193505b506001810190506132ae565b50505050505050565b61330e82612ed5565b6133188183613823565b61332183612e4c565b61332a83612e60565b6000805b8481101561335b578361334281848661405b565b610100850194506004840193505060018101905061332e565b50505050505050565b60008101600083018061337681613700565b90506133828184613f00565b50505060018101602083018061339781613716565b90506133a38184613f3f565b5050506002810160408301806133b88161372c565b90506133c48184613f62565b5050506002810160608301806133d98161372c565b90506133e58184613f85565b5050506003810160808301806133fb8184613ee4565b5050505050565b6000810160008301806134148161372c565b90506134208184613f62565b5050506000810160208301806134358161372c565b90506134418184613f85565b5050506000810160408301806134568161372c565b90506134628184613fa8565b5050506000810160608301806134778161372c565b90506134838184613fcb565b5050506000810160808301806134988161372c565b90506134a48184613fee565b5050506001810160a08301806134b981613716565b90506134c58184613f3f565b5050506002810160c08301806134da81613716565b90506134e68184613f3f565b5050506003810160e08301806134fb81613716565b90506135078184613f3f565b5050505050565b6000810160008301806135218184613f23565b505050600481016101008301806135388184613ed6565b5050506008810161018083018061354f8184613ef2565b5050505050565b61355f82613884565b810181811067ffffffffffffffff8211171561357e5761357d613658565b5b80604052505050565b6000613592826130c9565b91507fffffffffffffffffffffffffffffffffffffffffffffffffffffffffffffffff8214156135c5576135c4613629565b5b600182019050919050565b60006135db826130d3565b915060ff8214156135ef576135ee613629565b5b600182019050919050565b7f4e487b7100000000000000000000000000000000000000000000000000000000600052600060045260246000fd5b7f4e487b7100000000000000000000000000000000000000000000000000000000600052601160045260246000fd5b7f4e487b7100000000000000000000000000000000000000000000000000000000600052604160045260246000fd5b6136b77fffffffffffffffffffffffffffffffffffffffffffffffffffffffffffffffff836020036008026138e3565b815481168255505050565b6000819050919050565b6000819050919050565b6000819050919050565b6000819050919050565b600081356136f78161409e565b80915050919050565b6000813561370d816140b5565b80915050919050565b60008135613723816140cc565b80915050919050565b60008135613739816140e3565b80915050919050565b6801000000000000000082111561375c5761375b613658565b5b61376581612e9e565b8083101561379e5761377681612dc4565b61377f84612dc4565b61378884612e1a565b81810183820161379881836130f8565b50505050505b505050565b680100000000000000008211156137bd576137bc613658565b5b6137c681612eca565b8083101561381e576137d781612dd9565b6137e084612dd9565b6137e984612e42565b81810183820160016020890602600081111561380d5761380c8160018503613687565b5b613817828461311b565b5050505050505b505050565b6801000000000000000082111561383d5761383c613658565b5b61384681612eeb565b8083101561387f5761385781612def565b61386084612def565b61386984612e60565b818101838201613879818361313e565b50505050505b505050565b6000601f19601f8301169050919050565b60008160001b9050919050565b60008160101b9050919050565b60008160181b9050919050565b60008160201b9050919050565b60008160081b9050919050565b600082821b905092915050565b600082821c905092915050565b60008214613901576139006135fa565b5b61390a816130e0565b5050565b6000821461391f5761391e6135fa565b5b61392881613184565b5050565b6139346140fa565b61393f818484614079565b505050565b7f526573706f6e64696e6720746f2077726f6e672061636375736174696f6e207460008201527f7970650000000000000000000000000000000000000000000000000000000000602082015250565b7f556e6b6e6f776e20616374696f6e000000000000000000000000000000000000600082015250565b7f43616e6e6f742074617267657420796f757273656c6600000000000000000000600082015250565b7f496e76616c69642076616c69646d6f76652070726f6f66000000000000000000600082015250565b7f43616e6e6f74207461726765742061206465616420706c617965720000000000600082015250565b7f47616d652068617320616c726561647920737461727465640000000000000000600082015250565b7f4120506c617965722063616e6e6f74206c6f7365206265666f7265207468652060008201527f67616d65207374617274732e0000000000000000000000000000000000000000602082015250565b7f4e6f742077616974696e6720666f72206120706c6179657220726573706f6e7360008201527f6520746f2061636375736174696f6e0000000000000000000000000000000000602082015250565b7f4e6f7420796f7572207475726e2e000000000000000000000000000000000000600082015250565b7f4d757374207461726765742061206578697374696e6720706c61796572000000600082015250565b7f5468652067616d6520697320616c7265616479206f7665722e00000000000000600082015250565b7f506c6179657220697320616c726561647920646561642e000000000000000000600082015250565b7f4e6f7420796f757220726573706f6e73652e0000000000000000000000000000600082015250565b7f596f752061726520616c726561647920696e207468652067616d650000000000600082015250565b7f496e76616c6964206e6f77697463682070726f6f660000000000000000000000600082015250565b7f496e76616c69642068616e64636f6d6d69746d656e742070726f6f6600000000600082015250565b7f4e6f742077616974696e6720666f72206120706c6179657220616374696f6e00600082015250565b7f576974636820416c69766520646f6573206e6f74206d6174636820666f72206960008201527f6e64657800000000000000000000000000000000000000000000000000000000602082015250565b7f48616e6420636f6d6d69746d656e747320646f206e6f74206d61746368000000600082015250565b7f41646472657373206973204e6f7420612076616c696420506c61796572000000600082015250565b600060ff613d1d84613895565b9350801983169250808416831791505092915050565b600061ff00613d41846138c9565b9350801983169250808416831791505092915050565b600062ff0000613d66846138a2565b9350801983169250808416831791505092915050565b600063ff000000613d8c846138af565b9350801983169250808416831791505092915050565b600064ff00000000613db3846138bc565b9350801983169250808416831791505092915050565b60007fffffffffffffffffffffffffffffffffffffffffffffffffffffffffffffffff613df584613895565b9350801983169250808416831791505092915050565b600060088302613e1c60ff826138d6565b613e2686836138d6565b95508019841693508086168417925050509392505050565b600060088302613e6273ffffffffffffffffffffffffffffffffffffffff826138d6565b613e6c86836138d6565b95508019841693508086168417925050509392505050565b600060088302613eb47fffffffffffffffffffffffffffffffffffffffffffffffffffffffffffffffff826138d6565b613ebe86836138d6565b95508019841693508086168417925050509392505050565b613ee0828261321c565b5050565b613eee8282613285565b5050565b613efc8282613305565b5050565b613f09826131c2565b613f1c613f15826136cc565b8354613d10565b8255505050565b613f2d8282613402565b5050565b613f3b828261350e565b5050565b613f48826131f8565b613f5b613f54826136d6565b8354613dc9565b8255505050565b613f6b8261320a565b613f7e613f77826136e0565b8354613d10565b8255505050565b613f8e8261320a565b613fa1613f9a826136e0565b8354613d33565b8255505050565b613fb18261320a565b613fc4613fbd826136e0565b8354613d57565b8255505050565b613fd48261320a565b613fe7613fe0826136e0565b8354613d7c565b8255505050565b613ff78261320a565b61400a614003826136e0565b8354613da2565b8255505050565b61401a836131b0565b61402e614026826136c2565b848454613e3e565b825550505050565b61403f836131c2565b61405361404b826136cc565b848454613e0b565b825550505050565b811561406a576140696135fa565b5b6140748382613364565b505050565b614082836131f8565b61409661408e826136d6565b848454613e84565b825550505050565b6140a78161308b565b81146140b257600080fd5b50565b6140be8161309d565b81146140c957600080fd5b50565b6140d5816130c9565b81146140e057600080fd5b50565b6140ec816130d3565b81146140f757600080fd5b50565b60009056fea26469706673582212201dda304aca506a467ae11ca5b9a1beed7504ee59e2f7405ca4e505adf58e682564736f6c63430008040033",
  "linkReferences": {},
  "deployedLinkReferences": {}
}