{
  "_format": "hh-sol-artifact-1",
  "contractName": "zkWitches",
  "sourceName": "contracts/zkWitches.sol",
  "abi": [
    {
      "inputs": [
        {
          "internalType": "address",
          "name": "hc_verifier",
          "type": "address"
        },
        {
          "internalType": "address",
          "name": "vm_verifier",
          "type": "address"
        },
        {
          "internalType": "address",
          "name": "nw_verifier",
          "type": "address"
        }
      ],
      "stateMutability": "nonpayable",
      "type": "constructor"
    },
    {
      "inputs": [
        {
          "internalType": "uint8",
          "name": "actionType",
          "type": "uint8"
        },
        {
          "internalType": "uint8",
          "name": "actionTarget",
          "type": "uint8"
        },
        {
          "internalType": "uint8",
          "name": "witchType",
          "type": "uint8"
        }
      ],
      "name": "ActionNoProof",
      "outputs": [],
      "stateMutability": "nonpayable",
      "type": "function"
    },
    {
      "inputs": [
        {
          "internalType": "uint8",
          "name": "actionTarget",
          "type": "uint8"
        },
        {
          "internalType": "uint8",
          "name": "witchType",
          "type": "uint8"
        },
        {
          "internalType": "uint256[2]",
          "name": "a",
          "type": "uint256[2]"
        },
        {
          "internalType": "uint256[2][2]",
          "name": "b",
          "type": "uint256[2][2]"
        },
        {
          "internalType": "uint256[2]",
          "name": "c",
          "type": "uint256[2]"
        },
        {
          "internalType": "uint256[7]",
          "name": "input",
          "type": "uint256[7]"
        }
      ],
      "name": "ActionWithProof",
      "outputs": [],
      "stateMutability": "nonpayable",
      "type": "function"
    },
    {
      "inputs": [
        {
          "components": [
            {
              "components": [
                {
                  "internalType": "uint8",
                  "name": "stateEnum",
                  "type": "uint8"
                },
                {
                  "internalType": "uint8",
                  "name": "playerSlotWaiting",
                  "type": "uint8"
                },
                {
                  "internalType": "uint8",
                  "name": "currentNumberOfPlayers",
                  "type": "uint8"
                },
                {
                  "internalType": "uint8",
                  "name": "playerAccusing",
                  "type": "uint8"
                },
                {
                  "internalType": "uint8",
                  "name": "accusationWitchType",
                  "type": "uint8"
                },
                {
                  "internalType": "uint256",
                  "name": "previous_action_game_block",
                  "type": "uint256"
                },
                {
                  "internalType": "uint256",
                  "name": "current_block",
                  "type": "uint256"
                },
                {
                  "internalType": "uint256",
                  "name": "current_sequence_number",
                  "type": "uint256"
                },
                {
                  "internalType": "int256",
                  "name": "currentGameCount",
                  "type": "int256"
                }
              ],
              "internalType": "struct zkWitches.SharedState",
              "name": "shared",
              "type": "tuple"
            },
            {
              "internalType": "address[4]",
              "name": "addresses",
              "type": "address[4]"
            },
            {
              "components": [
                {
                  "internalType": "bool",
                  "name": "isAlive",
                  "type": "bool"
                },
                {
                  "internalType": "uint256",
                  "name": "handCommitment",
                  "type": "uint256"
                },
                {
                  "internalType": "uint8",
                  "name": "food",
                  "type": "uint8"
                },
                {
                  "internalType": "uint8",
                  "name": "lumber",
                  "type": "uint8"
                },
                {
                  "internalType": "bool[4]",
                  "name": "WitchAlive",
                  "type": "bool[4]"
                }
              ],
              "internalType": "struct zkWitches.PlayerState[4]",
              "name": "players",
              "type": "tuple[4]"
            }
          ],
          "internalType": "struct zkWitches.TotalGameState",
          "name": "inputTgs",
          "type": "tuple"
        }
      ],
      "name": "DEBUG_SetGameState",
      "outputs": [],
      "stateMutability": "nonpayable",
      "type": "function"
    },
    {
      "inputs": [],
      "name": "GetTGS",
      "outputs": [
        {
          "components": [
            {
              "components": [
                {
                  "internalType": "uint8",
                  "name": "stateEnum",
                  "type": "uint8"
                },
                {
                  "internalType": "uint8",
                  "name": "playerSlotWaiting",
                  "type": "uint8"
                },
                {
                  "internalType": "uint8",
                  "name": "currentNumberOfPlayers",
                  "type": "uint8"
                },
                {
                  "internalType": "uint8",
                  "name": "playerAccusing",
                  "type": "uint8"
                },
                {
                  "internalType": "uint8",
                  "name": "accusationWitchType",
                  "type": "uint8"
                },
                {
                  "internalType": "uint256",
                  "name": "previous_action_game_block",
                  "type": "uint256"
                },
                {
                  "internalType": "uint256",
                  "name": "current_block",
                  "type": "uint256"
                },
                {
                  "internalType": "uint256",
                  "name": "current_sequence_number",
                  "type": "uint256"
                },
                {
                  "internalType": "int256",
                  "name": "currentGameCount",
                  "type": "int256"
                }
              ],
              "internalType": "struct zkWitches.SharedState",
              "name": "shared",
              "type": "tuple"
            },
            {
              "internalType": "address[4]",
              "name": "addresses",
              "type": "address[4]"
            },
            {
              "components": [
                {
                  "internalType": "bool",
                  "name": "isAlive",
                  "type": "bool"
                },
                {
                  "internalType": "uint256",
                  "name": "handCommitment",
                  "type": "uint256"
                },
                {
                  "internalType": "uint8",
                  "name": "food",
                  "type": "uint8"
                },
                {
                  "internalType": "uint8",
                  "name": "lumber",
                  "type": "uint8"
                },
                {
                  "internalType": "bool[4]",
                  "name": "WitchAlive",
                  "type": "bool[4]"
                }
              ],
              "internalType": "struct zkWitches.PlayerState[4]",
              "name": "players",
              "type": "tuple[4]"
            }
          ],
          "internalType": "struct zkWitches.TotalGameState",
          "name": "",
          "type": "tuple"
        }
      ],
      "stateMutability": "view",
      "type": "function"
    },
    {
      "inputs": [
        {
          "internalType": "uint256[2]",
          "name": "a",
          "type": "uint256[2]"
        },
        {
          "internalType": "uint256[2][2]",
          "name": "b",
          "type": "uint256[2][2]"
        },
        {
          "internalType": "uint256[2]",
          "name": "c",
          "type": "uint256[2]"
        },
        {
          "internalType": "uint256[1]",
          "name": "input",
          "type": "uint256[1]"
        }
      ],
      "name": "JoinGame",
      "outputs": [],
      "stateMutability": "nonpayable",
      "type": "function"
    },
    {
      "inputs": [],
      "name": "KickCurrentPlayer",
      "outputs": [],
      "stateMutability": "nonpayable",
      "type": "function"
    },
    {
      "inputs": [
        {
          "internalType": "uint256[2]",
          "name": "a",
          "type": "uint256[2]"
        },
        {
          "internalType": "uint256[2][2]",
          "name": "b",
          "type": "uint256[2][2]"
        },
        {
          "internalType": "uint256[2]",
          "name": "c",
          "type": "uint256[2]"
        },
        {
          "internalType": "uint256[2]",
          "name": "input",
          "type": "uint256[2]"
        }
      ],
      "name": "RespondAccusation_NoWitch",
      "outputs": [],
      "stateMutability": "nonpayable",
      "type": "function"
    },
    {
      "inputs": [],
      "name": "RespondAccusation_YesWitch",
      "outputs": [],
      "stateMutability": "nonpayable",
      "type": "function"
    },
    {
      "inputs": [],
      "name": "Surrender",
      "outputs": [],
      "stateMutability": "nonpayable",
      "type": "function"
    },
    {
      "inputs": [],
      "name": "hc_verifierAddr",
      "outputs": [
        {
          "internalType": "address",
          "name": "",
          "type": "address"
        }
      ],
      "stateMutability": "view",
      "type": "function"
    },
    {
      "inputs": [],
      "name": "nw_verifierAddr",
      "outputs": [
        {
          "internalType": "address",
          "name": "",
          "type": "address"
        }
      ],
      "stateMutability": "view",
      "type": "function"
    },
    {
      "inputs": [],
      "name": "tgs",
      "outputs": [
        {
          "components": [
            {
              "internalType": "uint8",
              "name": "stateEnum",
              "type": "uint8"
            },
            {
              "internalType": "uint8",
              "name": "playerSlotWaiting",
              "type": "uint8"
            },
            {
              "internalType": "uint8",
              "name": "currentNumberOfPlayers",
              "type": "uint8"
            },
            {
              "internalType": "uint8",
              "name": "playerAccusing",
              "type": "uint8"
            },
            {
              "internalType": "uint8",
              "name": "accusationWitchType",
              "type": "uint8"
            },
            {
              "internalType": "uint256",
              "name": "previous_action_game_block",
              "type": "uint256"
            },
            {
              "internalType": "uint256",
              "name": "current_block",
              "type": "uint256"
            },
            {
              "internalType": "uint256",
              "name": "current_sequence_number",
              "type": "uint256"
            },
            {
              "internalType": "int256",
              "name": "currentGameCount",
              "type": "int256"
            }
          ],
          "internalType": "struct zkWitches.SharedState",
          "name": "shared",
          "type": "tuple"
        }
      ],
      "stateMutability": "view",
      "type": "function"
    },
    {
      "inputs": [],
      "name": "vm_verifierAddr",
      "outputs": [
        {
          "internalType": "address",
          "name": "",
          "type": "address"
        }
      ],
      "stateMutability": "view",
      "type": "function"
    }
  ],
  "bytecode": "0x60806040523480156200001157600080fd5b506040516200295238038062002952833981016040819052620000349162000094565b601980546001600160a01b039485166001600160a01b031991821617909155601a805493851693821693909317909255601b8054919093169116179055620000dd565b80516001600160a01b03811681146200008f57600080fd5b919050565b600080600060608486031215620000a9578283fd5b620000b48462000077565b9250620000c46020850162000077565b9150620000d46040850162000077565b90509250925092565b61286580620000ed6000396000f3fe608060405234801561001057600080fd5b50600436106100cf5760003560e01c80634c9063cb1161008c5780635a5afe0d116100665780635a5afe0d1461017d578063bff3b04214610192578063ca9e7f32146101a5578063d8de5d211461022957600080fd5b80634c9063cb1461014457806351a7c3bb1461015757806357cf24671461016a57600080fd5b806302065928146100d45780630c7e6273146100e9578063209f0612146100fc578063236fc916146101045780633168748b146101345780633259e60f1461013c575b600080fd5b6100e76100e2366004611f4b565b61023c565b005b6100e76100f73660046120a5565b6104bc565b6100e76105ac565b601a54610117906001600160a01b031681565b6040516001600160a01b0390911681526020015b60405180910390f35b6100e76105f3565b6100e76105f9565b6100e7610152366004611ead565b610636565b6100e7610165366004611fc7565b6109da565b601954610117906001600160a01b031681565b6101856109ec565b60405161012b919061233e565b6100e76101a0366004611fdf565b610b87565b604080516101208101825260005460ff808216835261010080830482166020850152620100008304821694840194909452630100000082048116606084015264010000000090910416608082015260015460a082015260025460c082015260035460e08201526004549181019190915261021c9081565b60405161012b9190612329565b601b54610117906001600160a01b031681565b600561024733610edd565b60ff1614156102715760405162461bcd60e51b8152600401610268906122f2565b60405180910390fd5b600061027c33610edd565b60005490915060ff166002146102a45760405162461bcd60e51b8152600401610268906122a3565b60005460ff82811661010090920416146102f55760405162461bcd60e51b81526020600482015260126024820152712737ba103cb7bab9103932b9b837b739b29760711b6044820152606401610268565b8151600960ff83166004811061031b57634e487b7160e01b600052603260045260246000fd5b6004020160010154146103705760405162461bcd60e51b815260206004820152601d60248201527f48616e6420636f6d6d69746d656e747320646f206e6f74206d617463680000006044820152606401610268565b8160016020020151600054640100000000900460ff9081169116146103e35760405162461bcd60e51b815260206004820152602360248201527f526573706f6e64696e6720746f2077726f6e672061636375736174696f6e207460448201526279706560e81b6064820152608401610268565b601b54604051637ae4eb4f60e11b81526001600160a01b039091169063f5c9d69e90610419908890889088908890600401612212565b60206040518083038186803b15801561043157600080fd5b505afa158015610445573d6000803e3d6000fd5b505050506040513d601f19601f820116820180604052508101906104699190611fa4565b6104ad5760405162461bcd60e51b815260206004820152601560248201527424b73b30b634b2103737bbb4ba31b410383937b7b360591b6044820152606401610268565b6104b5610f51565b5050505050565b60056104c733610edd565b60ff1614156104e85760405162461bcd60e51b8152600401610268906122f2565b60006104f333610edd565b60005490915060ff1660011461054b5760405162461bcd60e51b815260206004820152601f60248201527f4e6f742077616974696e6720666f72206120706c6179657220616374696f6e006044820152606401610268565b60005460ff82811661010090920416146105985760405162461bcd60e51b815260206004820152600e60248201526d2737ba103cb7bab9103a3ab9371760911b6044820152606401610268565b6105a6818585856000611051565b50505050565b60056105b733610edd565b60ff1614156105d85760405162461bcd60e51b8152600401610268906122f2565b6105e96105e433610edd565b61161e565b6105f1610f51565b565b60055b50565b600561060433610edd565b60ff1614156106255760405162461bcd60e51b8152600401610268906122f2565b6105f161063133610edd565b6117c7565b600561064133610edd565b60ff16146106915760405162461bcd60e51b815260206004820152601b60248201527f596f752061726520616c726561647920696e207468652067616d6500000000006044820152606401610268565b60005460ff16156106e45760405162461bcd60e51b815260206004820152601860248201527f47616d652068617320616c7265616479207374617274656400000000000000006044820152606401610268565b6019546040516343753b4d60e01b81526001600160a01b03909116906343753b4d9061071a9087908790879087906004016121b5565b60206040518083038186803b15801561073257600080fd5b505afa158015610746573d6000803e3d6000fd5b505050506040513d601f19601f8201168201806040525081019061076a9190611fa4565b6107b65760405162461bcd60e51b815260206004820152601c60248201527f496e76616c69642068616e64636f6d6d69746d656e742070726f6f66000000006044820152606401610268565b60005462010000900460ff1633600582600481106107e457634e487b7160e01b600052603260045260246000fd5b0180546001600160a01b0319166001600160a01b039290921691909117905560016009826004811061082657634e487b7160e01b600052603260045260246000fd5b60040201805460ff191691151591909117905581600060200201516009826004811061086257634e487b7160e01b600052603260045260246000fd5b600402016001018190555060026000600901826004811061089357634e487b7160e01b600052603260045260246000fd5b6004020160020160006101000a81548160ff021916908360ff1602179055506002600060090182600481106108d857634e487b7160e01b600052603260045260246000fd5b6004020160020160016101000a81548160ff021916908360ff16021790555060005b600481101561097e5760016009836004811061092657634e487b7160e01b600052603260045260246000fd5b60040201600301826004811061094c57634e487b7160e01b600052603260045260246000fd5b602091828204019190066101000a81548160ff02191690831515021790555080806109769061265e565b9150506108fa565b506000805462010000900460ff1690600261099883612679565b82546101009290920a60ff818102199093169183160217909155600054620100009004166004141590506104b5576000805460ff191660011790555050505050565b8060006109e7828261270d565b505050565b6109f4611d0f565b60408051610180810182526000805460ff808216606085019081526101008084048316608080880191909152620100008504841660a088015263010000008504841660c088015264010000000090940490921660e086015260015491850191909152600254610120850152600354610140850152600480546101608601529084528451918201948590529293919260208501926005919082845b81546001600160a01b03168152600190910190602001808311610a8e57505050918352505060408051608081019091526020909101906009830160046000835b82821015610b7a576040805160a08101825260048481028701805460ff908116151584526001820154602085015260028201548082168587015261010090041660608401528351608080820195869052939491938501929091600385019190826000855b825461010083900a900460ff161515815260206001928301818104948501949093039092029101808411610b3257905050505050508152505081526020019060010190610ace565b5050505081525050905090565b6005610b9233610edd565b60ff161415610bb35760405162461bcd60e51b8152600401610268906122f2565b6000610bbe33610edd565b60005490915060ff16600114610c165760405162461bcd60e51b815260206004820152601f60248201527f4e6f742077616974696e6720666f72206120706c6179657220616374696f6e006044820152606401610268565b60005460ff8281166101009092041614610c635760405162461bcd60e51b815260206004820152600e60248201526d2737ba103cb7bab9103a3ab9371760911b6044820152606401610268565b8151600960ff831660048110610c8957634e487b7160e01b600052603260045260246000fd5b600402016001015414610cde5760405162461bcd60e51b815260206004820152601d60248201527f48616e6420636f6d6d69746d656e747320646f206e6f74206d617463680000006044820152606401610268565b60005b6004811015610de957600083610cf883600161248c565b60078110610d1657634e487b7160e01b600052603260045260246000fd5b602002015111600960ff841660048110610d4057634e487b7160e01b600052603260045260246000fd5b600402016003018260048110610d6657634e487b7160e01b600052603260045260246000fd5b602081049091015460ff601f9092166101000a900416151514610dd75760405162461bcd60e51b8152602060048201526024808201527f576974636820416c69766520646f6573206e6f74206d6174636820666f7220696044820152630dcc8caf60e31b6064820152608401610268565b80610de18161265e565b915050610ce1565b50601a5460405163c894e75760e01b81526001600160a01b039091169063c894e75790610e20908890889088908890600401612252565b60206040518083038186803b158015610e3857600080fd5b505afa158015610e4c573d6000803e3d6000fd5b505050506040513d601f19601f82011682018060405250810190610e709190611fa4565b610ebc5760405162461bcd60e51b815260206004820152601760248201527f496e76616c69642076616c69646d6f76652070726f6f660000000000000000006044820152606401610268565b60a082015160c0830151610ed49183918a908a611051565b50505050505050565b6000805b60005462010000900460ff16811015610f48576001600160a01b03831660058260048110610f1f57634e487b7160e01b600052603260045260246000fd5b01546001600160a01b03161415610f365792915050565b80610f408161265e565b915050610ee1565b50600592915050565b60005460ff1660021415610fc057600054600490610f7a906301000000900460ff1660016124a4565b610f849190612699565b60008054600161ffff1990911661010060ff949094169390930260ff1916929092179190911764ffff0000001916640505000000179055611009565b600054600490610fd990610100900460ff1660016124a4565b610fe39190612699565b6000805460ff1960ff93909316610100029290921661ffff199092169190911760011790555b600054600990610100900460ff166004811061103557634e487b7160e01b600052603260045260246000fd5b600402015460ff1661104957611049610f51565b6105f161196e565b600360ff851611156110965760405162461bcd60e51b815260206004820152600e60248201526d2ab735b737bbb71030b1ba34b7b760911b6044820152606401610268565b60ff84166110c1576110b4856110ad8360016124a4565b6000611a69565b6110bc610f51565b6104b5565b60ff8416600114156110e3576110b48560006110de8460016124a4565b611a69565b60ff841660021415611416578260ff166110fc33610edd565b60ff1614156111465760405162461bcd60e51b815260206004820152601660248201527521b0b73737ba103a30b933b2ba103cb7bab939b2b63360511b6044820152606401610268565b60038360ff16111561119a5760405162461bcd60e51b815260206004820152601d60248201527f4d757374207461726765742061206578697374696e6720706c617965720000006044820152606401610268565b600960ff8416600481106111be57634e487b7160e01b600052603260045260246000fd5b600402015460ff166112125760405162461bcd60e51b815260206004820152601b60248201527f43616e6e6f74207461726765742061206465616420706c6179657200000000006044820152606401610268565b6040805161010080820183526002808352600060208085018290528486018290526060808601849052608080870184905260a080880185905260c080890186905260e0808a018790528a519889018b528689526001958901869052998801859052928701859052908601849052850182905284015293820193909352909161130b90889084906112a39087906124c9565b60ff16600881106112c457634e487b7160e01b600052603260045260246000fd5b6020020151846112d58760026124c9565b6112e09060016124a4565b60ff166008811061130157634e487b7160e01b600052603260045260246000fd5b6020020151611b2f565b611383878261131b8660026124c9565b60ff166008811061133c57634e487b7160e01b600052603260045260246000fd5b60200201518361134d8760026124c9565b6113589060016124a4565b60ff166008811061137957634e487b7160e01b600052603260045260246000fd5b6020020151611a69565b6113c585836113938660026124c9565b60ff16600881106113b457634e487b7160e01b600052603260045260246000fd5b60200201518461134d8760026124c9565b61140785826113d58660026124c9565b60ff16600881106113f657634e487b7160e01b600052603260045260246000fd5b6020020151836112d58760026124c9565b61140f610f51565b50506104b5565b60ff8416600314156104b5578260ff1661142f33610edd565b60ff1614156114795760405162461bcd60e51b815260206004820152601660248201527521b0b73737ba103a30b933b2ba103cb7bab939b2b63360511b6044820152606401610268565b60038360ff1611156114cd5760405162461bcd60e51b815260206004820152601d60248201527f4d757374207461726765742061206578697374696e6720706c617965720000006044820152606401610268565b600960ff8416600481106114f157634e487b7160e01b600052603260045260246000fd5b600402015460ff166115455760405162461bcd60e51b815260206004820152601b60248201527f43616e6e6f74207461726765742061206465616420706c6179657200000000006044820152606401610268565b60408051610100810182526003808252602082015260029181018290526060810182905260016080820181905260a0820152600060c0820181905260e0820152906115cb90879083906115999086906124c9565b60ff16600881106115ba57634e487b7160e01b600052603260045260246000fd5b6020020151836112d58660026124c9565b50506000805460ff1960ff948516610100021661ffff199385166401000000000264ff0000000019979095166301000000029690961664ffff000000199091161792909217169290921760021790915550565b60005460ff166002146116435760405162461bcd60e51b8152600401610268906122a3565b60005460ff82811661010090920416146116945760405162461bcd60e51b81526020600482015260126024820152712737ba103cb7bab9103932b9b837b739b29760711b6044820152606401610268565b6000546116ad906301000000900460ff16600280611a69565b6000600960ff8316600481106116d357634e487b7160e01b600052603260045260246000fd5b600402016003016000800160000160039054906101000a900460ff1660ff166004811061171057634e487b7160e01b600052603260045260246000fd5b602091828204019190066101000a81548160ff021916908315150217905550600260006009018260ff166004811061175857634e487b7160e01b600052603260045260246000fd5b600402016002015460ff16108015906117ad57506002600960ff83166004811061179257634e487b7160e01b600052603260045260246000fd5b6004020160020160019054906101000a900460ff1660ff1610155b156117be576105f681600280611b2f565b6105f681611cd3565b60005460ff1661182e5760405162461bcd60e51b815260206004820152602c60248201527f4120506c617965722063616e6e6f74206c6f7365206265666f7265207468652060448201526b33b0b6b29039ba30b93a399760a11b6064820152608401610268565b60005460ff16600314156118845760405162461bcd60e51b815260206004820152601960248201527f5468652067616d6520697320616c7265616479206f7665722e000000000000006044820152606401610268565b600960ff8216600481106118a857634e487b7160e01b600052603260045260246000fd5b600402015460ff166118fc5760405162461bcd60e51b815260206004820152601760248201527f506c6179657220697320616c726561647920646561642e0000000000000000006044820152606401610268565b61190581611cd3565b60005460ff166001148015611926575060005460ff82811661010090920416145b15611933576105f6610f51565b60005460ff166002148015611954575060005460ff82811661010090920416145b1561196a576119628161161e565b6105f6610f51565b6105f65b6000805b6004811015611a5057600a6009826004811061199e57634e487b7160e01b600052603260045260246000fd5b600402016002015460ff16108015906119f05750600a600982600481106119d557634e487b7160e01b600052603260045260246000fd5b6004020160020160019054906101000a900460ff1660ff1610155b15611a03576000805460ff191660031790555b60098160048110611a2457634e487b7160e01b600052603260045260246000fd5b600402015460ff16611a3e5781611a3a8161265e565b9250505b80611a488161265e565b915050611972565b50600381106105f6576000805460ff1916600317905550565b81600960ff851660048110611a8e57634e487b7160e01b600052603260045260246000fd5b6004020160020160008282829054906101000a900460ff16611ab091906124a4565b92506101000a81548160ff021916908360ff1602179055508060006009018460ff1660048110611af057634e487b7160e01b600052603260045260246000fd5b6004020160020160018282829054906101000a900460ff16611b1291906124a4565b92506101000a81548160ff021916908360ff160217905550505050565b8160ff1660006009018460ff1660048110611b5a57634e487b7160e01b600052603260045260246000fd5b600402016002015460ff161015611ba55760405162461bcd60e51b815260206004820152600f60248201526e1d1bdbc81b1a5d1d1b1948199bdbd9608a1b6044820152606401610268565b8060ff1660006009018460ff1660048110611bd057634e487b7160e01b600052603260045260246000fd5b6004020160020160019054906101000a900460ff1660ff161015611c2a5760405162461bcd60e51b81526020600482015260116024820152703a37b7903634ba3a363290363ab6b132b960791b6044820152606401610268565b81600960ff851660048110611c4f57634e487b7160e01b600052603260045260246000fd5b6004020160020160008282829054906101000a900460ff16611c7191906124f2565b92506101000a81548160ff021916908360ff1602179055508060006009018460ff1660048110611cb157634e487b7160e01b600052603260045260246000fd5b6004020160020160018282829054906101000a900460ff16611b1291906124f2565b6000600960ff831660048110611cf957634e487b7160e01b600052603260045260246000fd5b60040201805460ff191691151591909117905550565b6040805161018081019091526000606082018181526080830182905260a0830182905260c0830182905260e08301829052610100830182905261012083018290526101408301829052610160830191909152815260208101611d6f611d81565b8152602001611d7c611d9f565b905290565b60405180608001604052806004906020820280368337509192915050565b60405180608001604052806004905b611db6611dcc565b815260200190600190039081611dae5790505090565b6040518060a0016040528060001515815260200160008152602001600060ff168152602001600060ff168152602001611d7c611d81565b600082601f830112611e13578081fd5b611e1b61241d565b808385608086011115611e2c578384fd5b835b6002811015611e5857611e418783611e63565b845260209093019260409190910190600101611e2e565b509095945050505050565b600082601f830112611e73578081fd5b611e7b61241d565b808385604086011115611e8c578384fd5b835b6002811015611e58578135845260209384019390910190600101611e8e565b600080600080610120808688031215611ec4578485fd5b611ece8787611e63565b9450611edd8760408801611e03565b9350611eec8760c08801611e63565b92508661011f870112611efd578182fd5b611f05612446565b80610100880189848a011115611f19578485fd5b8493505b6001841015611f3d57803583526001939093019260209283019201611f1d565b509598949750929550505050565b6000806000806101408587031215611f61578384fd5b611f6b8686611e63565b9350611f7a8660408701611e03565b9250611f898660c08701611e63565b9150611f99866101008701611e63565b905092959194509250565b600060208284031215611fb5578081fd5b8151611fc081612812565b9392505050565b60006105a08284031215611fd9578081fd5b50919050565b60008060008060008061022080888a031215611ff9578283fd5b873561200481612820565b965060208881013561201581612820565b96506120248a60408b01611e63565b95506120338a60808b01611e03565b94506120438a6101008b01611e63565b93508961015f8a0112612054578283fd5b61205c612469565b806101408b018c858d011115612070578586fd5b8594505b6007851015612093578035835260019490940193918301918301612074565b50809450505050509295509295509295565b6000806000606084860312156120b9578283fd5b83356120c481612820565b925060208401356120d481612820565b915060408401356120e481612820565b809150509250925092565b8060005b60028110156105a65761210784835161211d565b60409390930192602091909101906001016120f3565b8060005b60028110156105a6578151845260209384019390910190600101612121565b60ff815116825260ff602082015116602083015260ff60408201511660408301526060810151612175606084018260ff169052565b50608081015161218a608084018260ff169052565b5060a0818101519083015260c0808201519083015260e0808201519083015261010090810151910152565b61012081016121c4828761211d565b6121d160408301866120ef565b6121de60c083018561211d565b61010082018360005b60018110156122065781518352602092830192909101906001016121e7565b50505095945050505050565b6101408101612221828761211d565b61222e60408301866120ef565b61223b60c083018561211d565b61224961010083018461211d565b95945050505050565b6101e08101612261828761211d565b61226e60408301866120ef565b61227b60c083018561211d565b61010082018360005b6007811015612206578151835260209283019290910190600101612284565b6020808252602f908201527f4e6f742077616974696e6720666f72206120706c6179657220726573706f6e7360408201526e32903a379030b1b1bab9b0ba34b7b760891b606082015260800190565b6020808252601d908201527f41646472657373206973204e6f7420612076616c696420506c61796572000000604082015260600190565b61012081016123388284612140565b92915050565b60006105a082019050612352828451612140565b602080840151610120840160005b60048110156123865782516001600160a01b031682529183019190830190600101612360565b5050506040808501516101a0850160005b60048082106123a65750612412565b835180511515845286810151878501528581015160ff908116878601526060808301519091169085015260809081015190840160005b838110156123fa5782511515825291880191908801906001016123dc565b50505092850192506101009190910190600101612397565b505050505092915050565b6040805190810167ffffffffffffffff81118282101715612440576124406126dd565b60405290565b6040516020810167ffffffffffffffff81118282101715612440576124406126dd565b60405160e0810167ffffffffffffffff81118282101715612440576124406126dd565b6000821982111561249f5761249f6126c7565b500190565b600060ff821660ff84168060ff038211156124c1576124c16126c7565b019392505050565b600060ff821660ff84168160ff04811182151516156124ea576124ea6126c7565b029392505050565b600060ff821660ff84168082101561250c5761250c6126c7565b90039392505050565b81816000805b600481101561255e5783356001600160a01b03811680821461253b578384fd5b84546001600160a01b03191617845550602093909301926001928301920161251b565b505050505050565b818160005b600480821061257a57506104b5565b833561258581612812565b60ff1984541660ff821515168117855550506001602080860135828601556002850160408701356125b581612820565b815460ff191660ff82161782555060608701356125d181612820565b815461ff001916600882901b61ff0016178255505060808601600386016000805b8681101561264357612622612606856126f3565b845460ff600386901b90811b8019909216921515901b16178455565b9284019290850190601f82111561263c5791850191600091505b85016125f2565b5050506101009690960195505050919091019060010161256b565b6000600019821415612672576126726126c7565b5060010190565b600060ff821660ff811415612690576126906126c7565b60010192915050565b600060ff8316806126b857634e487b7160e01b82526012600452602482fd5b8060ff84160691505092915050565b634e487b7160e01b600052601160045260246000fd5b634e487b7160e01b600052604160045260246000fd5b6000813561233881612812565b6000813561233881612820565b813561271881612820565b815460ff191660ff821617825550602082013561273481612820565b815461ff001916600882901b61ff00161782555061276f61275760408401612700565b825462ff0000191660109190911b62ff000016178255565b61279861277e60608401612700565b825463ff000000191660189190911b63ff00000016178255565b6127c36127a760808401612700565b825464ff00000000191660209190911b64ff0000000016178255565b60a0820135600182015560c0820135600282015560e0820135600382015561010082013560048201556127fd610120830160058301612515565b61280e6101a0830160098301612566565b5050565b80151581146105f657600080fd5b60ff811681146105f657600080fdfea264697066735822122009091a9d087fded4dde67c7e3aeb515ef74123536d6c955c387879f87e3ba6cc64736f6c63430008040033",
  "linkReferences": {},
  "deployedLinkReferences": {}
}